{
	"data": {
		"bytecode": {
			"linkReferences": {},
			"object": "60806040526000601e553480156200001657600080fd5b5060405162004da438038062004da483398181016040526101e08110156200003d57600080fd5b815160208301516040808501516060860151608087015160a088015160c089015160e08a01516101008b01516101208c01516101408d01805199519b9d9a9c989b979a9699959894979396929591948301929184640100000000821115620000a457600080fd5b908301906020820185811115620000ba57600080fd5b8251866020820283011164010000000082111715620000d857600080fd5b82525081516020918201928201910280838360005b8381101562000107578181015183820152602001620000ed565b50505050905001604052602001805160405193929190846401000000008211156200013157600080fd5b9083019060208201858111156200014757600080fd5b82518660208202830111640100000000821117156200016557600080fd5b82525081516020918201928201910280838360005b83811015620001945781810151838201526020016200017a565b5050505090500160405260200180516040519392919084640100000000821115620001be57600080fd5b908301906020820185811115620001d457600080fd5b8251866020820283011164010000000082111715620001f257600080fd5b82525081516020918201928201910280838360005b838110156200022157818101518382015260200162000207565b50505050905001604052602001805160405193929190846401000000008211156200024b57600080fd5b9083019060208201858111156200026157600080fd5b82518660208202830111640100000000821117156200027f57600080fd5b82525081516020918201928201910280838360005b83811015620002ae57818101518382015260200162000294565b5050505090500160405260200180516040519392919084640100000000821115620002d857600080fd5b908301906020820185811115620002ee57600080fd5b82518660208202830111640100000000821117156200030c57600080fd5b82525081516020918201928201910280838360005b838110156200033b57818101518382015260200162000321565b5050505090500160405250505060006200035a6200060860201b60201c565b600080546001600160a01b0319166001600160a01b0383169081178255604051929350917f8be0079c531659141344cd1fd0a4f28419497f9722a3daafe3b4186f6b6457e0908290a35060016002819055508e600360006101000a8154816001600160a01b0302191690836001600160a01b031602179055508d600560006101000a8154816001600160a01b0302191690836001600160a01b031602179055508c600660006101000a8154816001600160a01b0302191690836001600160a01b031602179055508b600760006101000a8154816001600160a01b0302191690836001600160a01b031602179055508a600860006101000a8154816001600160a01b0302191690836001600160a01b031602179055508960098190555088601381905550866011819055508560128190555084600a9080519060200190620004a3929190620006ce565b508351620004b990600c906020870190620006ce565b508251620004cf90600d906020860190620006ce565b508151620004e590600e906020850190620006ce565b508051620004fb90600f906020840190620006ce565b5060005b600a54600019018110156200058f5760006200054c6001620005388d62000538866001018f6200060c60201b62003c821790919060201c565b6200067360201b62003ce21790919060201c565b600b8054600181810183556000929092527f0175b7a638427703f0dbe7bb9bbf987a2551717b34e79f33b5b1008d1fa01db90191909155919091019050620004ff565b50620005b789620005386001600a80549050038b6200060c60201b62003c821790919060201c565b6010555050600b80546001810182556000919091526000197f0175b7a638427703f0dbe7bb9bbf987a2551717b34e79f33b5b1008d1fa01db99091015550620007359b505050505050505050505050565b3390565b6000826200061d575060006200066d565b828202828482816200062b57fe5b04146200066a5760405162461bcd60e51b815260040180806020018281038252602181526020018062004d836021913960400191505060405180910390fd5b90505b92915050565b6000828201838110156200066a576040805162461bcd60e51b815260206004820152601b60248201527f536166654d6174683a206164646974696f6e206f766572666c6f770000000000604482015290519081900360640190fd5b8280548282559060005260206000209081019282156200070c579160200282015b828111156200070c578251825591602001919060010190620006ef565b506200071a9291506200071e565b5090565b5b808211156200071a57600081556001016200071f565b61463e80620007456000396000f3fe608060405234801561001057600080fd5b506004361061045f5760003560e01c8063847bdaa41161024c578063c6929e5311610146578063d9608d8a116100c3578063eda6704811610087578063eda670481461112c578063f2fde38b14611152578063f2ffc22c14611178578063f930e77014611195578063fb075433146111b85761045f565b8063d9608d8a1461108d578063dd77b9fd146110d1578063de988524146110ff578063ec12173d1461111c578063ed9bdeda146111245761045f565b8063cbd258b51161010a578063cbd258b514610ff6578063ce2529c91461101c578063cf1c316a14611042578063d007db2914611068578063d49e77cd146110855761045f565b8063c6929e5314610f4f578063c749d61414610f57578063c8a4271f14610f7d578063c8ed768014610f85578063cb0b8ca114610fd95761045f565b8063980c2a98116101d4578063b606696211610198578063b606696214610eb6578063b918161114610ed3578063beff2a5314610f0d578063c56a10ff14610f2a578063c663baa614610f325761045f565b8063980c2a9814610e4057806398969e8214610e48578063a02306f914610e74578063a82859c514610e7c578063ae169a5014610e995761045f565b80638dbb1e3a1161021b5780638dbb1e3a14610d595780638dbdbe6d14610d7c578063929c697114610dae57806393f1a40b14610dd4578063975532dc14610e385761045f565b8063847bdaa414610be95780638cc883ce14610c8a5780638d88a90e14610d2b5780638da5cb5b14610d515761045f565b80633c9d92671161035d5780635c5e490b116102e557806364482f79116102a957806364482f7914610b5f578063715018a614610b8a5780637c39c9c914610b9257806382386d5814610baf57806382796e9814610be15761045f565b80635c5e490b14610a415780635eac623914610a675780636066debd14610b085780636245f08414610b3a578063630b5ba114610b575761045f565b8063485d7d941161032c578063485d7d941461091a5780634af0e3e1146109405780634dbf85ca146109e157806351eb05a614610a075780635312ea8e14610a245761045f565b80633c9d9267146108375780633d479cd51461083f5780634179b4fb1461085c57806346664064146108795761045f565b806322a376b0116103eb5780632fda7735116103af5780632fda77351461072557806330fb8e0e14610742578063354affb71461076857806336ebcde61461080957806339b3e8261461082f5761045f565b806322a376b0146105a1578063245b211d146105a957806324b95c3e146105c657806327e68928146105e35780632a7b0107146106845761045f565b80630ad58d2f116104325780630ad58d2f146104c75780631526fe27146104fb57806317caf6f1146105485780631d465c82146105505780631eaaa0451461056d5761045f565b806305268cff14610464578063081e3eda1461048857806309ae4d2c146104a25780630a67d518146104bf575b600080fd5b61046c6111d5565b604080516001600160a01b039092168252519081900360200190f35b6104906111e4565b60408051918252519081900360200190f35b610490600480360360208110156104b857600080fd5b50356111ea565b610490611228565b6104f9600480360360608110156104dd57600080fd5b50803590602081013590604001356001600160a01b031661122e565b005b6105186004803603602081101561051157600080fd5b50356118a0565b604080516001600160a01b0390951685526020850193909352838301919091526060830152519081900360800190f35b6104906118e1565b6104906004803603602081101561056657600080fd5b50356118e7565b6104f96004803603606081101561058357600080fd5b508035906001600160a01b036020820135169060400135151561195a565b61046c611bb4565b6104f9600480360360208110156105bf57600080fd5b5035611bc3565b6104f9600480360360208110156105dc57600080fd5b5035611c34565b6104f9600480360360208110156105f957600080fd5b810190602081018135600160201b81111561061357600080fd5b82018360208201111561062557600080fd5b803590602001918460208302840111600160201b8311171561064657600080fd5b919080806020026020016040519081016040528093929190818152602001838360200280828437600092019190915250929550611ca5945050505050565b6104f96004803603602081101561069a57600080fd5b810190602081018135600160201b8111156106b457600080fd5b8201836020820111156106c657600080fd5b803590602001918460208302840111600160201b831117156106e757600080fd5b919080806020026020016040519081016040528093929190818152602001838360200280828437600092019190915250929550611d28945050505050565b6104906004803603602081101561073b57600080fd5b5035611da7565b6104f96004803603602081101561075857600080fd5b50356001600160a01b0316611dc5565b6104f96004803603602081101561077e57600080fd5b810190602081018135600160201b81111561079857600080fd5b8201836020820111156107aa57600080fd5b803590602001918460208302840111600160201b831117156107cb57600080fd5b919080806020026020016040519081016040528093929190818152602001838360200280828437600092019190915250929550611e53945050505050565b6104906004803603602081101561081f57600080fd5b50356001600160a01b0316611ed2565b610490611f1f565b61046c611f25565b6104f96004803603602081101561085557600080fd5b5035611f34565b6104906004803603602081101561087257600080fd5b5035611fa5565b6104f96004803603602081101561088f57600080fd5b810190602081018135600160201b8111156108a957600080fd5b8201836020820111156108bb57600080fd5b803590602001918460208302840111600160201b831117156108dc57600080fd5b919080806020026020016040519081016040528093929190818152602001838360200280828437600092019190915250929550611fb2945050505050565b6104f96004803603602081101561093057600080fd5b50356001600160a01b0316612031565b6104f96004803603602081101561095657600080fd5b810190602081018135600160201b81111561097057600080fd5b82018360208201111561098257600080fd5b803590602001918460208302840111600160201b831117156109a357600080fd5b9190808060200260200160405190810160405280939291908181526020018383602002808284376000920191909152509295506120ca945050505050565b6104f9600480360360208110156109f757600080fd5b50356001600160a01b0316612149565b6104f960048036036020811015610a1d57600080fd5b50356121d7565b6104f960048036036020811015610a3a57600080fd5b503561277f565b61049060048036036020811015610a5757600080fd5b50356001600160a01b03166128ce565b6104f960048036036020811015610a7d57600080fd5b810190602081018135600160201b811115610a9757600080fd5b820183602082011115610aa957600080fd5b803590602001918460208302840111600160201b83111715610aca57600080fd5b919080806020026020016040519081016040528093929190818152602001838360200280828437600092019190915250929550612919945050505050565b6104f960048036036060811015610b1e57600080fd5b508035906001600160a01b036020820135169060400135612949565b61049060048036036020811015610b5057600080fd5b50356129de565b6104f96129eb565b6104f960048036036060811015610b7557600080fd5b50803590602081013590604001351515612a0a565b6104f9612ae5565b6104f960048036036020811015610ba857600080fd5b5035612b91565b6104f960048036036060811015610bc557600080fd5b508035906001600160a01b036020820135169060400135612c02565b610490612c97565b6104f960048036036020811015610bff57600080fd5b810190602081018135600160201b811115610c1957600080fd5b820183602082011115610c2b57600080fd5b803590602001918460208302840111600160201b83111715610c4c57600080fd5b919080806020026020016040519081016040528093929190818152602001838360200280828437600092019190915250929550612c9d945050505050565b6104f960048036036020811015610ca057600080fd5b810190602081018135600160201b811115610cba57600080fd5b820183602082011115610ccc57600080fd5b803590602001918460208302840111600160201b83111715610ced57600080fd5b919080806020026020016040519081016040528093929190818152602001838360200280828437600092019190915250929550612d1c945050505050565b6104f960048036036020811015610d4157600080fd5b50356001600160a01b0316612d9b565b61046c612e29565b61049060048036036040811015610d6f57600080fd5b5080359060200135612e38565b6104f960048036036060811015610d9257600080fd5b50803590602081013590604001356001600160a01b0316612f34565b61049060048036036020811015610dc457600080fd5b50356001600160a01b03166131ee565b610e0060048036036040811015610dea57600080fd5b50803590602001356001600160a01b031661323d565b604080519788526020880196909652868601949094526060860192909252608085015260a084015260c0830152519081900360e00190f35b61049061328c565b610490613292565b61049060048036036040811015610e5e57600080fd5b50803590602001356001600160a01b0316613298565b6104906133e6565b61049060048036036020811015610e9257600080fd5b50356133ec565b6104f960048036036020811015610eaf57600080fd5b50356133f9565b6104f960048036036020811015610ecc57600080fd5b503561340b565b610ef960048036036020811015610ee957600080fd5b50356001600160a01b031661347c565b604080519115158252519081900360200190f35b61049060048036036020811015610f2357600080fd5b5035613491565b61049061349e565b6104f960048036036020811015610f4857600080fd5b50356134a4565b610490613515565b6104f960048036036020811015610f6d57600080fd5b50356001600160a01b031661351b565b61046c6135a9565b610fae60048036036060811015610f9b57600080fd5b50803590602081013590604001356135b8565b6040805195865260208601949094528484019290925260608401526080830152519081900360a00190f35b61049060048036036020811015610fef57600080fd5b503561378a565b610ef96004803603602081101561100c57600080fd5b50356001600160a01b0316613797565b6104906004803603602081101561103257600080fd5b50356001600160a01b03166137ac565b6104f96004803603602081101561105857600080fd5b50356001600160a01b03166137be565b6104906004803603602081101561107e57600080fd5b5035613847565b61046c613854565b6110b3600480360360208110156110a357600080fd5b50356001600160a01b0316613863565b60408051938452602084019290925282820152519081900360600190f35b610490600480360360408110156110e757600080fd5b506001600160a01b0381358116916020013516613884565b6104f96004803603602081101561111557600080fd5b50356138b3565b61046c613924565b610490613933565b6104f96004803603602081101561114257600080fd5b50356001600160a01b0316613939565b6104f96004803603602081101561116857600080fd5b50356001600160a01b0316613a0e565b6104f96004803603602081101561118e57600080fd5b5035613b10565b610490600480360360408110156111ab57600080fd5b5080359060200135613b81565b6104f9600480360360208110156111ce57600080fd5b5035613c11565b6003546001600160a01b031681565b60195490565b6000818152601b60209081526040808320338452909152812060038101541561121a576003015443039050611223565b60040154430390505b919050565b60165481565b600280541415611285576040805162461bcd60e51b815260206004820152601f60248201527f5265656e7472616e637947756172643a207265656e7472616e742063616c6c00604482015290519081900360640190fd5b6002808190555060006019848154811061129b57fe5b60009182526020808320878452601b82526040808520338087529084528186206001600160a01b0389168752601c90945281862090865294208254600490940290910194509092918611156113215760405162461bcd60e51b81526004018080602001828103825260228152602001806145936022913960400191505060405180910390fd5b6001600160a01b038516156113545733600090815260018301602052604090208054879003905560038201805487900390555b80548690038155611364876121d7565b61136d87613d3c565b851561189257825461137f9087613fc8565b835560038301541561139c576003830154430360058401556113a9565b6004830154430360058401555b600c6000815481106113b757fe5b9060005260206000200154836005015414806113d65750826006015443145b156114555761142733611415606461140f600e6000815481106113f557fe5b90600052602060002001548b613c8290919063ffffffff16565b90614025565b86546001600160a01b0316919061408c565b600554600f8054611450926001600160a01b0316916114159160649161140f916000906113f557fe5b611834565b600c60018154811061146357fe5b906000526020600020015483600501541015801561149d5750600d60008154811061148a57fe5b9060005260206000200154836005015411155b156114e7576114bc33611415606461140f600e6001815481106113f557fe5b600554600f8054611450926001600160a01b0316916114159160649161140f9160019081106113f557fe5b600c6002815481106114f557fe5b906000526020600020015483600501541015801561152f5750600d60018154811061151c57fe5b9060005260206000200154836005015411155b156115795761154e33611415606461140f600e6002815481106113f557fe5b600554600f8054611450926001600160a01b0316916114159160649161140f9160029081106113f557fe5b600c60038154811061158757fe5b90600052602060002001548360050154101580156115c15750600d6002815481106115ae57fe5b9060005260206000200154836005015411155b1561160b576115e033611415606461140f600e6003815481106113f557fe5b600554600f8054611450926001600160a01b0316916114159160649161140f9160039081106113f557fe5b600c60048154811061161957fe5b90600052602060002001548360050154101580156116535750600d60038154811061164057fe5b9060005260206000200154836005015411155b1561169d5761167233611415606461140f600e6004815481106113f557fe5b600554600f8054611450926001600160a01b0316916114159160649161140f9160049081106113f557fe5b600c6005815481106116ab57fe5b90600052602060002001548360050154101580156116e55750600d6004815481106116d257fe5b9060005260206000200154836005015411155b1561173557611705336114156103e861140f600e6005815481106113f557fe5b611450600560009054906101000a90046001600160a01b03166114156103e861140f600f6005815481106113f557fe5b600c60068154811061174357fe5b906000526020600020015483600501541015801561177d5750600d60058154811061176a57fe5b9060005260206000200154836005015411155b156117c95761179d3361141561271061140f600e6006815481106113f557fe5b600554600f8054611450926001600160a01b031691611415916127109161140f9160069081106113f557fe5b600c6007815481106117d757fe5b906000526020600020015483600501541115611834576118083361141561271061140f600e6007815481106113f557fe5b600554600f8054611834926001600160a01b031691611415916127109161140f9160079081106113f557fe5b6003840154835461184f9164e8d4a510009161140f91613c82565b6001840155604080518781529051889133917ff279e6a1f5e320cca91135676d9cb6e44ca8a08c0b88342bcdb1144f6511b5689181900360200190a34360038401555b505060016002555050505050565b601981815481106118ad57fe5b600091825260209091206004909102018054600182015460028301546003909301546001600160a01b039092169350919084565b601e5481565b6000806118f76001430343612e38565b9050826119145760095461190c908290613c82565b915050611223565b61190c601e5461140f6019600187038154811061192d57fe5b90600052602060002090600402016001015461195460095486613c8290919063ffffffff16565b90613c82565b6119626140de565b6001600160a01b0316611973612e29565b6001600160a01b0316146119bc576040805162461bcd60e51b81526020600482018190526024820152600080516020614553833981519152604482015290519081900360640190fd5b6001600160a01b0382166000908152601d6020526040902054829060ff1615611a165760405162461bcd60e51b81526004018080602001828103825260298152602001806144ad6029913960400191505060405180910390fd5b6001600160a01b0383166000908152601a602052604090205415611a6b5760405162461bcd60e51b815260040180806020018281038252602a8152602001806145b5602a913960400191505060405180910390fd5b8115611a7957611a796129eb565b60006013544311611a8c57601354611a8e565b435b601e54909150611a9e9086613ce2565b601e55601980546001600160a01b039586166000818152601a6020908152604080832060019586019055601d8252808320805460ff1916861790558051608081018252938452908301998a5282019485526060820181815284549384018555939052517f944998273e477b495144fb8794c914197f3ccb46be2900f4698fd0ef743c9695600490920291820180546001600160a01b031916919097161790955594517f944998273e477b495144fb8794c914197f3ccb46be2900f4698fd0ef743c9696850155517f944998273e477b495144fb8794c914197f3ccb46be2900f4698fd0ef743c9697840155505090517f944998273e477b495144fb8794c914197f3ccb46be2900f4698fd0ef743c969890910155565b6006546001600160a01b031681565b3360009081526001602052604090205460ff1680611bf0575033611be5612e29565b6001600160a01b0316145b611c2f576040805162461bcd60e51b81526020600482015260186024820152600080516020614573833981519152604482015290519081900360640190fd5b601055565b3360009081526001602052604090205460ff1680611c61575033611c56612e29565b6001600160a01b0316145b611ca0576040805162461bcd60e51b81526020600482015260186024820152600080516020614573833981519152604482015290519081900360640190fd5b601355565b3360009081526001602052604090205460ff1680611cd2575033611cc7612e29565b6001600160a01b0316145b611d11576040805162461bcd60e51b81526020600482015260186024820152600080516020614573833981519152604482015290519081900360640190fd5b8051611d24906014906020840190614405565b5050565b3360009081526001602052604090205460ff1680611d55575033611d4a612e29565b6001600160a01b0316145b611d94576040805162461bcd60e51b81526020600482015260186024820152600080516020614573833981519152604482015290519081900360640190fd5b8051611d2490600e906020840190614405565b600a8181548110611db457fe5b600091825260209091200154905081565b3360009081526001602052604090205460ff1680611df2575033611de7612e29565b6001600160a01b0316145b611e31576040805162461bcd60e51b81526020600482015260186024820152600080516020614573833981519152604482015290519081900360640190fd5b600880546001600160a01b0319166001600160a01b0392909216919091179055565b3360009081526001602052604090205460ff1680611e80575033611e75612e29565b6001600160a01b0316145b611ebf576040805162461bcd60e51b81526020600482015260186024820152600080516020614573833981519152604482015290519081900360640190fd5b8051611d2490600b906020840190614405565b6000611edc614450565b50506001600160a01b03166000908152601c6020908152604091829020825160608101845281548152600282015492810183905260039091015492019190915290565b60135481565b6007546001600160a01b031681565b3360009081526001602052604090205460ff1680611f61575033611f56612e29565b6001600160a01b0316145b611fa0576040805162461bcd60e51b81526020600482015260186024820152600080516020614573833981519152604482015290519081900360640190fd5b600955565b600b8181548110611db457fe5b3360009081526001602052604090205460ff1680611fdf575033611fd4612e29565b6001600160a01b0316145b61201e576040805162461bcd60e51b81526020600482015260186024820152600080516020614573833981519152604482015290519081900360640190fd5b8051611d2490600a906020840190614405565b6120396140de565b6001600160a01b031661204a612e29565b6001600160a01b031614612093576040805162461bcd60e51b81526020600482018190526024820152600080516020614553833981519152604482015290519081900360640190fd5b6001600160a01b0381163314156120a957600080fd5b6001600160a01b03166000908152600160205260409020805460ff19169055565b3360009081526001602052604090205460ff16806120f75750336120ec612e29565b6001600160a01b0316145b612136576040805162461bcd60e51b81526020600482015260186024820152600080516020614573833981519152604482015290519081900360640190fd5b8051611d2490600d906020840190614405565b3360009081526001602052604090205460ff168061217657503361216b612e29565b6001600160a01b0316145b6121b5576040805162461bcd60e51b81526020600482015260186024820152600080516020614573833981519152604482015290519081900360640190fd5b600680546001600160a01b0319166001600160a01b0392909216919091179055565b6000601982815481106121e657fe5b9060005260206000209060040201905080600201544311612207575061277c565b8054604080516370a0823160e01b815230600482015290516000926001600160a01b0316916370a08231916024808301926020929190829003018186803b15801561225157600080fd5b505afa158015612265573d6000803e3d6000fd5b505050506040513d602081101561227b57600080fd5b505190508061229157504360029091015561277c565b60008060008060006122ac87600201544389600101546135b8565b600354604080516340c10f1960e01b8152306004820152602481018790529051969b5094995092975090955093506001600160a01b0316916340c10f199160448082019260009290919082900301818387803b15801561230b57600080fd5b505af115801561231f573d6000803e3d6000fd5b5050505061234d6123428761140f64e8d4a5100088613c8290919063ffffffff16565b600389015490613ce2565b6003880155436002880155841561245f57600354600554604080516340c10f1960e01b81526001600160a01b03928316600482015260248101899052905191909216916340c10f1991604480830192600092919082900301818387803b1580156123b657600080fd5b505af11580156123ca573d6000803e3d6000fd5b50505050601054431161245f576003546005546001600160a01b039182169163282d3fdf9116612400606461140f8a604b613c82565b6040518363ffffffff1660e01b815260040180836001600160a01b0316815260200182815260200192505050600060405180830381600087803b15801561244657600080fd5b505af115801561245a573d6000803e3d6000fd5b505050505b821561256657600354600654604080516340c10f1960e01b81526001600160a01b03928316600482015260248101879052905191909216916340c10f1991604480830192600092919082900301818387803b1580156124bd57600080fd5b505af11580156124d1573d6000803e3d6000fd5b505050506010544311612566576003546006546001600160a01b039182169163282d3fdf9116612507606461140f88602d613c82565b6040518363ffffffff1660e01b815260040180836001600160a01b0316815260200182815260200192505050600060405180830381600087803b15801561254d57600080fd5b505af1158015612561573d6000803e3d6000fd5b505050505b811561266d57600354600754604080516340c10f1960e01b81526001600160a01b03928316600482015260248101869052905191909216916340c10f1991604480830192600092919082900301818387803b1580156125c457600080fd5b505af11580156125d8573d6000803e3d6000fd5b50505050601054431161266d576003546007546001600160a01b039182169163282d3fdf911661260e606461140f876055613c82565b6040518363ffffffff1660e01b815260040180836001600160a01b0316815260200182815260200192505050600060405180830381600087803b15801561265457600080fd5b505af1158015612668573d6000803e3d6000fd5b505050505b801561277457600354600854604080516340c10f1960e01b81526001600160a01b03928316600482015260248101859052905191909216916340c10f1991604480830192600092919082900301818387803b1580156126cb57600080fd5b505af11580156126df573d6000803e3d6000fd5b505050506010544311612774576003546008546001600160a01b039182169163282d3fdf9116612715606461140f86605f613c82565b6040518363ffffffff1660e01b815260040180836001600160a01b0316815260200182815260200192505050600060405180830381600087803b15801561275b57600080fd5b505af115801561276f573d6000803e3d6000fd5b505050505b505050505050505b50565b6002805414156127d6576040805162461bcd60e51b815260206004820152601f60248201527f5265656e7472616e637947756172643a207265656e7472616e742063616c6c00604482015290519081900360640190fd5b600280819055506000601982815481106127ec57fe5b60009182526020808320858452601b82526040808520338652909252908320805460049093029091019350919061282b9060649061140f90604b613c82565b9050600061284c606461140f60198660000154613c8290919063ffffffff16565b60008085556001850155845490915061286f906001600160a01b0316338461408c565b600554845461288b916001600160a01b0391821691168361408c565b604080518381529051869133917fbb757047c2b5f3974fe26b7c10f732e7bce710b0952a71082702781e62ae05959181900360200190a350506001600255505050565b60006128d8614450565b50506001600160a01b03166000908152601c602090815260409182902082516060810184528154815260028201549281019290925260030154910181905290565b60005b8151811015611d245761294182828151811061293457fe5b60200260200101516133f9565b60010161291c565b3360009081526001602052604090205460ff168061297657503361296b612e29565b6001600160a01b0316145b6129b5576040805162461bcd60e51b81526020600482015260186024820152600080516020614573833981519152604482015290519081900360640190fd5b6000928352601b602090815260408085206001600160a01b039094168552929052912060030155565b600c8181548110611db457fe5b60195460005b81811015611d2457612a02816121d7565b6001016129f1565b612a126140de565b6001600160a01b0316612a23612e29565b6001600160a01b031614612a6c576040805162461bcd60e51b81526020600482018190526024820152600080516020614553833981519152604482015290519081900360640190fd5b8015612a7a57612a7a6129eb565b612ab782612ab160198681548110612a8e57fe5b906000526020600020906004020160010154601e54613fc890919063ffffffff16565b90613ce2565b601e819055508160198481548110612acb57fe5b906000526020600020906004020160010181905550505050565b612aed6140de565b6001600160a01b0316612afe612e29565b6001600160a01b031614612b47576040805162461bcd60e51b81526020600482018190526024820152600080516020614553833981519152604482015290519081900360640190fd5b600080546040516001600160a01b03909116907f8be0079c531659141344cd1fd0a4f28419497f9722a3daafe3b4186f6b6457e0908390a3600080546001600160a01b0319169055565b3360009081526001602052604090205460ff1680612bbe575033612bb3612e29565b6001600160a01b0316145b612bfd576040805162461bcd60e51b81526020600482015260186024820152600080516020614573833981519152604482015290519081900360640190fd5b601155565b3360009081526001602052604090205460ff1680612c2f575033612c24612e29565b6001600160a01b0316145b612c6e576040805162461bcd60e51b81526020600482015260186024820152600080516020614573833981519152604482015290519081900360640190fd5b6000928352601b602090815260408085206001600160a01b039094168552929052912060040155565b60115481565b3360009081526001602052604090205460ff1680612cca575033612cbf612e29565b6001600160a01b0316145b612d09576040805162461bcd60e51b81526020600482015260186024820152600080516020614573833981519152604482015290519081900360640190fd5b8051611d2490600c906020840190614405565b3360009081526001602052604090205460ff1680612d49575033612d3e612e29565b6001600160a01b0316145b612d88576040805162461bcd60e51b81526020600482015260186024820152600080516020614573833981519152604482015290519081900360640190fd5b8051611d2490600f906020840190614405565b3360009081526001602052604090205460ff1680612dc8575033612dbd612e29565b6001600160a01b0316145b612e07576040805162461bcd60e51b81526020600482015260186024820152600080516020614573833981519152604482015290519081900360640190fd5b600580546001600160a01b0319166001600160a01b0392909216919091179055565b6000546001600160a01b031690565b6013546000908190841015612e51576000915050612f2e565b60005b600b54811015612f2a576000600b8281548110612e6d57fe5b906000526020600020015490506001600a8054905003821115612e965760009350505050612f2e565b808511612edc576000612ec5600a8481548110612eaf57fe5b600091825260209091200154611954888a613fc8565b9050612ed18482613ce2565b945050505050612f2e565b80861015612f21576000612f0c600a8481548110612ef657fe5b600091825260209091200154611954848a613fc8565b91965086919050612f1d8482613ce2565b9350505b50600101612e54565b5090505b92915050565b600280541415612f8b576040805162461bcd60e51b815260206004820152601f60248201527f5265656e7472616e637947756172643a207265656e7472616e742063616c6c00604482015290519081900360640190fd5b6002805581612fcb5760405162461bcd60e51b815260040180806020018281038252603681526020018061451d6036913960400191505060405180910390fd5b600060198481548110612fda57fe5b60009182526020808320878452601b82526040808520338087529084528186206005546001600160a01b039081168852838820908a168852601c86528388209288528388206001840190965292909620546004959095029092019550929091901561306557336000908152600183016020526040902080548801905560038201805488019055613094565b336000908152600180840160205260409091208054890190556002830180549091019055600382018054880190555b6130ae606461140f6011548a613c8290919063ffffffff16565b81540181556130bc886121d7565b6130c588613d3c565b84546130dc906001600160a01b031633308a6140e2565b83546130e9574360028501555b61311961311161310a61271061140f6011548c613c8290919063ffffffff16565b8990613fc8565b855490613ce2565b80855560038601546131369164e8d4a510009161140f9190613c82565b846001018190555061316761315f61310a61271061140f6012548c613c8290919063ffffffff16565b845490613ce2565b80845560038601546131849164e8d4a510009161140f9190613c82565b6001840155604080518881529051899133917f90890809c654f11d6e72a28fa60149770a0d11ec6c92319d6ceb2bb0a4ea1a159181900360200190a36004840154156131cf576131d6565b4360048501555b50504360069092019190915550506001600255505050565b60006131f8614450565b50506001600160a01b03166000908152601c60209081526040918290208251606081018452815480825260028301549382019390935260039091015492019190915290565b601b602052816000526040600020602052806000526040600020600091509150508060000154908060010154908060020154908060030154908060040154908060050154908060060154905087565b60095481565b60105481565b600080601984815481106132a857fe5b60009182526020808320878452601b825260408085206001600160a01b03898116875290845281862060049586029093016003810154815484516370a0823160e01b81523098810198909852935191985093969395939492909116926370a08231926024808301939192829003018186803b15801561332657600080fd5b505afa15801561333a573d6000803e3d6000fd5b505050506040513d602081101561335057600080fd5b50516002850154909150431180156133685750600081115b156133ad57600061338285600201544387600101546135b8565b509193506133a992506133a2915084905061140f8464e8d4a51000613c82565b8490613ce2565b9250505b6133db83600101546133d564e8d4a5100061140f868860000154613c8290919063ffffffff16565b90613fc8565b979650505050505050565b60175481565b60148181548110611db457fe5b613402816121d7565b61277c81613d3c565b3360009081526001602052604090205460ff168061343857503361342d612e29565b6001600160a01b0316145b613477576040805162461bcd60e51b81526020600482015260186024820152600080516020614573833981519152604482015290519081900360640190fd5b601555565b60016020526000908152604090205460ff1681565b600f8181548110611db457fe5b60125481565b3360009081526001602052604090205460ff16806134d15750336134c6612e29565b6001600160a01b0316145b613510576040805162461bcd60e51b81526020600482015260186024820152600080516020614573833981519152604482015290519081900360640190fd5b601755565b60185481565b3360009081526001602052604090205460ff168061354857503361353d612e29565b6001600160a01b0316145b613587576040805162461bcd60e51b81526020600482015260186024820152600080516020614573833981519152604482015290519081900360640190fd5b600780546001600160a01b0319166001600160a01b0392909216919091179055565b6004546001600160a01b031681565b6000806000806000806135cb8989612e38565b905060006135ee601e5461140f8a61195460095487613c8290919063ffffffff16565b905060006136e6600360009054906101000a90046001600160a01b03166001600160a01b03166318160ddd6040518163ffffffff1660e01b815260040160206040518083038186803b15801561364357600080fd5b505afa158015613657573d6000803e3d6000fd5b505050506040513d602081101561366d57600080fd5b505160035460408051631aa93a7560e11b815290516001600160a01b039092169163355274ea91600480820192602092909190829003018186803b1580156136b457600080fd5b505afa1580156136c8573d6000803e3d6000fd5b505050506040513d60208110156136de57600080fd5b505190613fc8565b905081811015613708576000975080965060009550600094506000935061377c565b613722606461140f60155485613c8290919063ffffffff16565b9750819650613741606461140f60165485613c8290919063ffffffff16565b955061375d606461140f60175485613c8290919063ffffffff16565b9450613779606461140f60185485613c8290919063ffffffff16565b93505b505050939792965093509350565b600d8181548110611db457fe5b601d6020526000908152604090205460ff1681565b601a6020526000908152604090205481565b6137c66140de565b6001600160a01b03166137d7612e29565b6001600160a01b031614613820576040805162461bcd60e51b81526020600482018190526024820152600080516020614553833981519152604482015290519081900360640190fd5b6001600160a01b03166000908152600160208190526040909120805460ff19169091179055565b600e8181548110611db457fe5b6005546001600160a01b031681565b601c6020526000908152604090208054600282015460039092015490919083565b6001600160a01b039182166000908152601c602090815260408083209390941682526001909201909152205490565b3360009081526001602052604090205460ff16806138e05750336138d5612e29565b6001600160a01b0316145b61391f576040805162461bcd60e51b81526020600482015260186024820152600080516020614573833981519152604482015290519081900360640190fd5b601855565b6008546001600160a01b031681565b60155481565b3360009081526001602052604090205460ff168061396657503361395b612e29565b6001600160a01b0316145b6139a5576040805162461bcd60e51b81526020600482015260186024820152600080516020614573833981519152604482015290519081900360640190fd5b6003546040805163f2fde38b60e01b81526001600160a01b0384811660048301529151919092169163f2fde38b91602480830192600092919082900301818387803b1580156139f357600080fd5b505af1158015613a07573d6000803e3d6000fd5b5050505050565b613a166140de565b6001600160a01b0316613a27612e29565b6001600160a01b031614613a70576040805162461bcd60e51b81526020600482018190526024820152600080516020614553833981519152604482015290519081900360640190fd5b6001600160a01b038116613ab55760405162461bcd60e51b81526004018080602001828103825260268152602001806144876026913960400191505060405180910390fd5b600080546040516001600160a01b03808516939216917f8be0079c531659141344cd1fd0a4f28419497f9722a3daafe3b4186f6b6457e091a3600080546001600160a01b0319166001600160a01b0392909216919091179055565b3360009081526001602052604090205460ff1680613b3d575033613b32612e29565b6001600160a01b0316145b613b7c576040805162461bcd60e51b81526020600482015260186024820152600080516020614573833981519152604482015290519081900360640190fd5b601655565b6013546000908190841015613b9a576064915050612f2e565b60005b600b54811015612f2a576000600b8281548110613bb657fe5b90600052602060002001549050600160148054905003821115613bdf5760009350505050612f2e565b808511613c085760148281548110613bf357fe5b90600052602060002001549350505050612f2e565b50600101613b9d565b3360009081526001602052604090205460ff1680613c3e575033613c33612e29565b6001600160a01b0316145b613c7d576040805162461bcd60e51b81526020600482015260186024820152600080516020614573833981519152604482015290519081900360640190fd5b601255565b600082613c9157506000612f2e565b82820282848281613c9e57fe5b0414613cdb5760405162461bcd60e51b81526004018080602001828103825260218152602001806144fc6021913960400191505060405180910390fd5b9392505050565b600082820183811015613cdb576040805162461bcd60e51b815260206004820152601b60248201527f536166654d6174683a206164646974696f6e206f766572666c6f770000000000604482015290519081900360640190fd5b600060198281548110613d4b57fe5b60009182526020808320858452601b82526040808520338652909252922080546004909202909201925015613fc3576000613da882600101546133d564e8d4a5100061140f87600301548760000154613c8290919063ffffffff16565b600354604080516370a0823160e01b815230600482015290519293506000926001600160a01b03909216916370a0823191602480820192602092909190829003018186803b158015613df957600080fd5b505afa158015613e0d573d6000803e3d6000fd5b505050506040513d6020811015613e2357600080fd5b5051905080821115613e33578091505b8115613fa0576003546040805163a9059cbb60e01b81523360048201526024810185905290516001600160a01b039092169163a9059cbb916044808201926020929091908290030181600087803b158015613e8d57600080fd5b505af1158015613ea1573d6000803e3d6000fd5b505050506040513d6020811015613eb757600080fd5b5050601054600284015460009110613f59576000613ed86001430343613b81565b9050613ee9606461140f8684613c82565b6003546040805163282d3fdf60e01b81523360048201526024810184905290519294506001600160a01b039091169163282d3fdf9160448082019260009290919082900301818387803b158015613f3f57600080fd5b505af1158015613f53573d6000803e3d6000fd5b50505050505b43600285015560408051848152602081018390528151889233927f3887f2857beaaf367eb618dfb5e22c1ebd74425affb0602c2e9fe126e3f860eb929081900390910190a3505b60038401548354613fbb9164e8d4a510009161140f91613c82565b600184015550505b505050565b60008282111561401f576040805162461bcd60e51b815260206004820152601e60248201527f536166654d6174683a207375627472616374696f6e206f766572666c6f770000604482015290519081900360640190fd5b50900390565b600080821161407b576040805162461bcd60e51b815260206004820152601a60248201527f536166654d6174683a206469766973696f6e206279207a65726f000000000000604482015290519081900360640190fd5b81838161408457fe5b049392505050565b604080516001600160a01b038416602482015260448082018490528251808303909101815260649091019091526020810180516001600160e01b031663a9059cbb60e01b179052613fc3908490614142565b3390565b604080516001600160a01b0380861660248301528416604482015260648082018490528251808303909101815260849091019091526020810180516001600160e01b03166323b872dd60e01b17905261413c908590614142565b50505050565b6060614197826040518060400160405280602081526020017f5361666545524332303a206c6f772d6c6576656c2063616c6c206661696c6564815250856001600160a01b03166141f39092919063ffffffff16565b805190915015613fc3578080602001905160208110156141b657600080fd5b5051613fc35760405162461bcd60e51b815260040180806020018281038252602a8152602001806145df602a913960400191505060405180910390fd5b6060614202848460008561420a565b949350505050565b60608247101561424b5760405162461bcd60e51b81526004018080602001828103825260268152602001806144d66026913960400191505060405180910390fd5b6142548561435b565b6142a5576040805162461bcd60e51b815260206004820152601d60248201527f416464726573733a2063616c6c20746f206e6f6e2d636f6e7472616374000000604482015290519081900360640190fd5b60006060866001600160a01b031685876040518082805190602001908083835b602083106142e45780518252601f1990920191602091820191016142c5565b6001836020036101000a03801982511681845116808217855250505050505090500191505060006040518083038185875af1925050503d8060008114614346576040519150601f19603f3d011682016040523d82523d6000602084013e61434b565b606091505b50915091506133db828286614361565b3b151590565b60608315614370575081613cdb565b8251156143805782518084602001fd5b8160405162461bcd60e51b81526004018080602001828103825283818151815260200191508051906020019080838360005b838110156143ca5781810151838201526020016143b2565b50505050905090810190601f1680156143f75780820380516001836020036101000a031916815260200191505b509250505060405180910390fd5b828054828255906000526020600020908101928215614440579160200282015b82811115614440578251825591602001919060010190614425565b5061444c929150614471565b5090565b60405180606001604052806000815260200160008152602001600081525090565b5b8082111561444c576000815560010161447256fe4f776e61626c653a206e6577206f776e657220697320746865207a65726f20616464726573734d617374657247617264656e65723a3a6e6f6e4475706c6963617465643a206475706c696361746564416464726573733a20696e73756666696369656e742062616c616e636520666f722063616c6c536166654d6174683a206d756c7469706c69636174696f6e206f766572666c6f774d617374657247617264656e65723a3a6465706f7369743a20616d6f756e74206d7573742062652067726561746572207468616e20304f776e61626c653a2063616c6c6572206973206e6f7420746865206f776e657263616c6c6572206973206e6f7420617574686f72697a656400000000000000004d617374657247617264656e65723a3a77697468647261773a206e6f7420676f6f644d617374657247617264656e65723a3a6164643a206c7020697320616c726561647920696e20706f6f6c5361666545524332303a204552433230206f7065726174696f6e20646964206e6f742073756363656564a2646970667358221220042c8c77ecfddc010a6d2dde09ea1db5b399aedc4a68a2659380e775411c4deb64736f6c634300060c0033536166654d6174683a206d756c7469706c69636174696f6e206f766572666c6f77",
			"opcodes": "PUSH1 0x80 PUSH1 0x40 MSTORE PUSH1 0x0 PUSH1 0x1E SSTORE CALLVALUE DUP1 ISZERO PUSH3 0x16 JUMPI PUSH1 0x0 DUP1 REVERT JUMPDEST POP PUSH1 0x40 MLOAD PUSH3 0x4DA4 CODESIZE SUB DUP1 PUSH3 0x4DA4 DUP4 CODECOPY DUP2 DUP2 ADD PUSH1 0x40 MSTORE PUSH2 0x1E0 DUP2 LT ISZERO PUSH3 0x3D JUMPI PUSH1 0x0 DUP1 REVERT JUMPDEST DUP2 MLOAD PUSH1 0x20 DUP4 ADD MLOAD PUSH1 0x40 DUP1 DUP6 ADD MLOAD PUSH1 0x60 DUP7 ADD MLOAD PUSH1 0x80 DUP8 ADD MLOAD PUSH1 0xA0 DUP9 ADD MLOAD PUSH1 0xC0 DUP10 ADD MLOAD PUSH1 0xE0 DUP11 ADD MLOAD PUSH2 0x100 DUP12 ADD MLOAD PUSH2 0x120 DUP13 ADD MLOAD PUSH2 0x140 DUP14 ADD DUP1 MLOAD SWAP10 MLOAD SWAP12 SWAP14 SWAP11 SWAP13 SWAP9 SWAP12 SWAP8 SWAP11 SWAP7 SWAP10 SWAP6 SWAP9 SWAP5 SWAP8 SWAP4 SWAP7 SWAP3 SWAP6 SWAP2 SWAP5 DUP4 ADD SWAP3 SWAP2 DUP5 PUSH5 0x100000000 DUP3 GT ISZERO PUSH3 0xA4 JUMPI PUSH1 0x0 DUP1 REVERT JUMPDEST SWAP1 DUP4 ADD SWAP1 PUSH1 0x20 DUP3 ADD DUP6 DUP2 GT ISZERO PUSH3 0xBA JUMPI PUSH1 0x0 DUP1 REVERT JUMPDEST DUP3 MLOAD DUP7 PUSH1 0x20 DUP3 MUL DUP4 ADD GT PUSH5 0x100000000 DUP3 GT OR ISZERO PUSH3 0xD8 JUMPI PUSH1 0x0 DUP1 REVERT JUMPDEST DUP3 MSTORE POP DUP2 MLOAD PUSH1 0x20 SWAP2 DUP3 ADD SWAP3 DUP3 ADD SWAP2 MUL DUP1 DUP4 DUP4 PUSH1 0x0 JUMPDEST DUP4 DUP2 LT ISZERO PUSH3 0x107 JUMPI DUP2 DUP2 ADD MLOAD DUP4 DUP3 ADD MSTORE PUSH1 0x20 ADD PUSH3 0xED JUMP JUMPDEST POP POP POP POP SWAP1 POP ADD PUSH1 0x40 MSTORE PUSH1 0x20 ADD DUP1 MLOAD PUSH1 0x40 MLOAD SWAP4 SWAP3 SWAP2 SWAP1 DUP5 PUSH5 0x100000000 DUP3 GT ISZERO PUSH3 0x131 JUMPI PUSH1 0x0 DUP1 REVERT JUMPDEST SWAP1 DUP4 ADD SWAP1 PUSH1 0x20 DUP3 ADD DUP6 DUP2 GT ISZERO PUSH3 0x147 JUMPI PUSH1 0x0 DUP1 REVERT JUMPDEST DUP3 MLOAD DUP7 PUSH1 0x20 DUP3 MUL DUP4 ADD GT PUSH5 0x100000000 DUP3 GT OR ISZERO PUSH3 0x165 JUMPI PUSH1 0x0 DUP1 REVERT JUMPDEST DUP3 MSTORE POP DUP2 MLOAD PUSH1 0x20 SWAP2 DUP3 ADD SWAP3 DUP3 ADD SWAP2 MUL DUP1 DUP4 DUP4 PUSH1 0x0 JUMPDEST DUP4 DUP2 LT ISZERO PUSH3 0x194 JUMPI DUP2 DUP2 ADD MLOAD DUP4 DUP3 ADD MSTORE PUSH1 0x20 ADD PUSH3 0x17A JUMP JUMPDEST POP POP POP POP SWAP1 POP ADD PUSH1 0x40 MSTORE PUSH1 0x20 ADD DUP1 MLOAD PUSH1 0x40 MLOAD SWAP4 SWAP3 SWAP2 SWAP1 DUP5 PUSH5 0x100000000 DUP3 GT ISZERO PUSH3 0x1BE JUMPI PUSH1 0x0 DUP1 REVERT JUMPDEST SWAP1 DUP4 ADD SWAP1 PUSH1 0x20 DUP3 ADD DUP6 DUP2 GT ISZERO PUSH3 0x1D4 JUMPI PUSH1 0x0 DUP1 REVERT JUMPDEST DUP3 MLOAD DUP7 PUSH1 0x20 DUP3 MUL DUP4 ADD GT PUSH5 0x100000000 DUP3 GT OR ISZERO PUSH3 0x1F2 JUMPI PUSH1 0x0 DUP1 REVERT JUMPDEST DUP3 MSTORE POP DUP2 MLOAD PUSH1 0x20 SWAP2 DUP3 ADD SWAP3 DUP3 ADD SWAP2 MUL DUP1 DUP4 DUP4 PUSH1 0x0 JUMPDEST DUP4 DUP2 LT ISZERO PUSH3 0x221 JUMPI DUP2 DUP2 ADD MLOAD DUP4 DUP3 ADD MSTORE PUSH1 0x20 ADD PUSH3 0x207 JUMP JUMPDEST POP POP POP POP SWAP1 POP ADD PUSH1 0x40 MSTORE PUSH1 0x20 ADD DUP1 MLOAD PUSH1 0x40 MLOAD SWAP4 SWAP3 SWAP2 SWAP1 DUP5 PUSH5 0x100000000 DUP3 GT ISZERO PUSH3 0x24B JUMPI PUSH1 0x0 DUP1 REVERT JUMPDEST SWAP1 DUP4 ADD SWAP1 PUSH1 0x20 DUP3 ADD DUP6 DUP2 GT ISZERO PUSH3 0x261 JUMPI PUSH1 0x0 DUP1 REVERT JUMPDEST DUP3 MLOAD DUP7 PUSH1 0x20 DUP3 MUL DUP4 ADD GT PUSH5 0x100000000 DUP3 GT OR ISZERO PUSH3 0x27F JUMPI PUSH1 0x0 DUP1 REVERT JUMPDEST DUP3 MSTORE POP DUP2 MLOAD PUSH1 0x20 SWAP2 DUP3 ADD SWAP3 DUP3 ADD SWAP2 MUL DUP1 DUP4 DUP4 PUSH1 0x0 JUMPDEST DUP4 DUP2 LT ISZERO PUSH3 0x2AE JUMPI DUP2 DUP2 ADD MLOAD DUP4 DUP3 ADD MSTORE PUSH1 0x20 ADD PUSH3 0x294 JUMP JUMPDEST POP POP POP POP SWAP1 POP ADD PUSH1 0x40 MSTORE PUSH1 0x20 ADD DUP1 MLOAD PUSH1 0x40 MLOAD SWAP4 SWAP3 SWAP2 SWAP1 DUP5 PUSH5 0x100000000 DUP3 GT ISZERO PUSH3 0x2D8 JUMPI PUSH1 0x0 DUP1 REVERT JUMPDEST SWAP1 DUP4 ADD SWAP1 PUSH1 0x20 DUP3 ADD DUP6 DUP2 GT ISZERO PUSH3 0x2EE JUMPI PUSH1 0x0 DUP1 REVERT JUMPDEST DUP3 MLOAD DUP7 PUSH1 0x20 DUP3 MUL DUP4 ADD GT PUSH5 0x100000000 DUP3 GT OR ISZERO PUSH3 0x30C JUMPI PUSH1 0x0 DUP1 REVERT JUMPDEST DUP3 MSTORE POP DUP2 MLOAD PUSH1 0x20 SWAP2 DUP3 ADD SWAP3 DUP3 ADD SWAP2 MUL DUP1 DUP4 DUP4 PUSH1 0x0 JUMPDEST DUP4 DUP2 LT ISZERO PUSH3 0x33B JUMPI DUP2 DUP2 ADD MLOAD DUP4 DUP3 ADD MSTORE PUSH1 0x20 ADD PUSH3 0x321 JUMP JUMPDEST POP POP POP POP SWAP1 POP ADD PUSH1 0x40 MSTORE POP POP POP PUSH1 0x0 PUSH3 0x35A PUSH3 0x608 PUSH1 0x20 SHL PUSH1 0x20 SHR JUMP JUMPDEST PUSH1 0x0 DUP1 SLOAD PUSH1 0x1 PUSH1 0x1 PUSH1 0xA0 SHL SUB NOT AND PUSH1 0x1 PUSH1 0x1 PUSH1 0xA0 SHL SUB DUP4 AND SWAP1 DUP2 OR DUP3 SSTORE PUSH1 0x40 MLOAD SWAP3 SWAP4 POP SWAP2 PUSH32 0x8BE0079C531659141344CD1FD0A4F28419497F9722A3DAAFE3B4186F6B6457E0 SWAP1 DUP3 SWAP1 LOG3 POP PUSH1 0x1 PUSH1 0x2 DUP2 SWAP1 SSTORE POP DUP15 PUSH1 0x3 PUSH1 0x0 PUSH2 0x100 EXP DUP2 SLOAD DUP2 PUSH1 0x1 PUSH1 0x1 PUSH1 0xA0 SHL SUB MUL NOT AND SWAP1 DUP4 PUSH1 0x1 PUSH1 0x1 PUSH1 0xA0 SHL SUB AND MUL OR SWAP1 SSTORE POP DUP14 PUSH1 0x5 PUSH1 0x0 PUSH2 0x100 EXP DUP2 SLOAD DUP2 PUSH1 0x1 PUSH1 0x1 PUSH1 0xA0 SHL SUB MUL NOT AND SWAP1 DUP4 PUSH1 0x1 PUSH1 0x1 PUSH1 0xA0 SHL SUB AND MUL OR SWAP1 SSTORE POP DUP13 PUSH1 0x6 PUSH1 0x0 PUSH2 0x100 EXP DUP2 SLOAD DUP2 PUSH1 0x1 PUSH1 0x1 PUSH1 0xA0 SHL SUB MUL NOT AND SWAP1 DUP4 PUSH1 0x1 PUSH1 0x1 PUSH1 0xA0 SHL SUB AND MUL OR SWAP1 SSTORE POP DUP12 PUSH1 0x7 PUSH1 0x0 PUSH2 0x100 EXP DUP2 SLOAD DUP2 PUSH1 0x1 PUSH1 0x1 PUSH1 0xA0 SHL SUB MUL NOT AND SWAP1 DUP4 PUSH1 0x1 PUSH1 0x1 PUSH1 0xA0 SHL SUB AND MUL OR SWAP1 SSTORE POP DUP11 PUSH1 0x8 PUSH1 0x0 PUSH2 0x100 EXP DUP2 SLOAD DUP2 PUSH1 0x1 PUSH1 0x1 PUSH1 0xA0 SHL SUB MUL NOT AND SWAP1 DUP4 PUSH1 0x1 PUSH1 0x1 PUSH1 0xA0 SHL SUB AND MUL OR SWAP1 SSTORE POP DUP10 PUSH1 0x9 DUP2 SWAP1 SSTORE POP DUP9 PUSH1 0x13 DUP2 SWAP1 SSTORE POP DUP7 PUSH1 0x11 DUP2 SWAP1 SSTORE POP DUP6 PUSH1 0x12 DUP2 SWAP1 SSTORE POP DUP5 PUSH1 0xA SWAP1 DUP1 MLOAD SWAP1 PUSH1 0x20 ADD SWAP1 PUSH3 0x4A3 SWAP3 SWAP2 SWAP1 PUSH3 0x6CE JUMP JUMPDEST POP DUP4 MLOAD PUSH3 0x4B9 SWAP1 PUSH1 0xC SWAP1 PUSH1 0x20 DUP8 ADD SWAP1 PUSH3 0x6CE JUMP JUMPDEST POP DUP3 MLOAD PUSH3 0x4CF SWAP1 PUSH1 0xD SWAP1 PUSH1 0x20 DUP7 ADD SWAP1 PUSH3 0x6CE JUMP JUMPDEST POP DUP2 MLOAD PUSH3 0x4E5 SWAP1 PUSH1 0xE SWAP1 PUSH1 0x20 DUP6 ADD SWAP1 PUSH3 0x6CE JUMP JUMPDEST POP DUP1 MLOAD PUSH3 0x4FB SWAP1 PUSH1 0xF SWAP1 PUSH1 0x20 DUP5 ADD SWAP1 PUSH3 0x6CE JUMP JUMPDEST POP PUSH1 0x0 JUMPDEST PUSH1 0xA SLOAD PUSH1 0x0 NOT ADD DUP2 LT ISZERO PUSH3 0x58F JUMPI PUSH1 0x0 PUSH3 0x54C PUSH1 0x1 PUSH3 0x538 DUP14 PUSH3 0x538 DUP7 PUSH1 0x1 ADD DUP16 PUSH3 0x60C PUSH1 0x20 SHL PUSH3 0x3C82 OR SWAP1 SWAP2 SWAP1 PUSH1 0x20 SHR JUMP JUMPDEST PUSH3 0x673 PUSH1 0x20 SHL PUSH3 0x3CE2 OR SWAP1 SWAP2 SWAP1 PUSH1 0x20 SHR JUMP JUMPDEST PUSH1 0xB DUP1 SLOAD PUSH1 0x1 DUP2 DUP2 ADD DUP4 SSTORE PUSH1 0x0 SWAP3 SWAP1 SWAP3 MSTORE PUSH32 0x175B7A638427703F0DBE7BB9BBF987A2551717B34E79F33B5B1008D1FA01DB9 ADD SWAP2 SWAP1 SWAP2 SSTORE SWAP2 SWAP1 SWAP2 ADD SWAP1 POP PUSH3 0x4FF JUMP JUMPDEST POP PUSH3 0x5B7 DUP10 PUSH3 0x538 PUSH1 0x1 PUSH1 0xA DUP1 SLOAD SWAP1 POP SUB DUP12 PUSH3 0x60C PUSH1 0x20 SHL PUSH3 0x3C82 OR SWAP1 SWAP2 SWAP1 PUSH1 0x20 SHR JUMP JUMPDEST PUSH1 0x10 SSTORE POP POP PUSH1 0xB DUP1 SLOAD PUSH1 0x1 DUP2 ADD DUP3 SSTORE PUSH1 0x0 SWAP2 SWAP1 SWAP2 MSTORE PUSH1 0x0 NOT PUSH32 0x175B7A638427703F0DBE7BB9BBF987A2551717B34E79F33B5B1008D1FA01DB9 SWAP1 SWAP2 ADD SSTORE POP PUSH3 0x735 SWAP12 POP POP POP POP POP POP POP POP POP POP POP POP JUMP JUMPDEST CALLER SWAP1 JUMP JUMPDEST PUSH1 0x0 DUP3 PUSH3 0x61D JUMPI POP PUSH1 0x0 PUSH3 0x66D JUMP JUMPDEST DUP3 DUP3 MUL DUP3 DUP5 DUP3 DUP2 PUSH3 0x62B JUMPI INVALID JUMPDEST DIV EQ PUSH3 0x66A JUMPI PUSH1 0x40 MLOAD PUSH3 0x461BCD PUSH1 0xE5 SHL DUP2 MSTORE PUSH1 0x4 ADD DUP1 DUP1 PUSH1 0x20 ADD DUP3 DUP2 SUB DUP3 MSTORE PUSH1 0x21 DUP2 MSTORE PUSH1 0x20 ADD DUP1 PUSH3 0x4D83 PUSH1 0x21 SWAP2 CODECOPY PUSH1 0x40 ADD SWAP2 POP POP PUSH1 0x40 MLOAD DUP1 SWAP2 SUB SWAP1 REVERT JUMPDEST SWAP1 POP JUMPDEST SWAP3 SWAP2 POP POP JUMP JUMPDEST PUSH1 0x0 DUP3 DUP3 ADD DUP4 DUP2 LT ISZERO PUSH3 0x66A JUMPI PUSH1 0x40 DUP1 MLOAD PUSH3 0x461BCD PUSH1 0xE5 SHL DUP2 MSTORE PUSH1 0x20 PUSH1 0x4 DUP3 ADD MSTORE PUSH1 0x1B PUSH1 0x24 DUP3 ADD MSTORE PUSH32 0x536166654D6174683A206164646974696F6E206F766572666C6F770000000000 PUSH1 0x44 DUP3 ADD MSTORE SWAP1 MLOAD SWAP1 DUP2 SWAP1 SUB PUSH1 0x64 ADD SWAP1 REVERT JUMPDEST DUP3 DUP1 SLOAD DUP3 DUP3 SSTORE SWAP1 PUSH1 0x0 MSTORE PUSH1 0x20 PUSH1 0x0 KECCAK256 SWAP1 DUP2 ADD SWAP3 DUP3 ISZERO PUSH3 0x70C JUMPI SWAP2 PUSH1 0x20 MUL DUP3 ADD JUMPDEST DUP3 DUP2 GT ISZERO PUSH3 0x70C JUMPI DUP3 MLOAD DUP3 SSTORE SWAP2 PUSH1 0x20 ADD SWAP2 SWAP1 PUSH1 0x1 ADD SWAP1 PUSH3 0x6EF JUMP JUMPDEST POP PUSH3 0x71A SWAP3 SWAP2 POP PUSH3 0x71E JUMP JUMPDEST POP SWAP1 JUMP JUMPDEST JUMPDEST DUP1 DUP3 GT ISZERO PUSH3 0x71A JUMPI PUSH1 0x0 DUP2 SSTORE PUSH1 0x1 ADD PUSH3 0x71F JUMP JUMPDEST PUSH2 0x463E DUP1 PUSH3 0x745 PUSH1 0x0 CODECOPY PUSH1 0x0 RETURN INVALID PUSH1 0x80 PUSH1 0x40 MSTORE CALLVALUE DUP1 ISZERO PUSH2 0x10 JUMPI PUSH1 0x0 DUP1 REVERT JUMPDEST POP PUSH1 0x4 CALLDATASIZE LT PUSH2 0x45F JUMPI PUSH1 0x0 CALLDATALOAD PUSH1 0xE0 SHR DUP1 PUSH4 0x847BDAA4 GT PUSH2 0x24C JUMPI DUP1 PUSH4 0xC6929E53 GT PUSH2 0x146 JUMPI DUP1 PUSH4 0xD9608D8A GT PUSH2 0xC3 JUMPI DUP1 PUSH4 0xEDA67048 GT PUSH2 0x87 JUMPI DUP1 PUSH4 0xEDA67048 EQ PUSH2 0x112C JUMPI DUP1 PUSH4 0xF2FDE38B EQ PUSH2 0x1152 JUMPI DUP1 PUSH4 0xF2FFC22C EQ PUSH2 0x1178 JUMPI DUP1 PUSH4 0xF930E770 EQ PUSH2 0x1195 JUMPI DUP1 PUSH4 0xFB075433 EQ PUSH2 0x11B8 JUMPI PUSH2 0x45F JUMP JUMPDEST DUP1 PUSH4 0xD9608D8A EQ PUSH2 0x108D JUMPI DUP1 PUSH4 0xDD77B9FD EQ PUSH2 0x10D1 JUMPI DUP1 PUSH4 0xDE988524 EQ PUSH2 0x10FF JUMPI DUP1 PUSH4 0xEC12173D EQ PUSH2 0x111C JUMPI DUP1 PUSH4 0xED9BDEDA EQ PUSH2 0x1124 JUMPI PUSH2 0x45F JUMP JUMPDEST DUP1 PUSH4 0xCBD258B5 GT PUSH2 0x10A JUMPI DUP1 PUSH4 0xCBD258B5 EQ PUSH2 0xFF6 JUMPI DUP1 PUSH4 0xCE2529C9 EQ PUSH2 0x101C JUMPI DUP1 PUSH4 0xCF1C316A EQ PUSH2 0x1042 JUMPI DUP1 PUSH4 0xD007DB29 EQ PUSH2 0x1068 JUMPI DUP1 PUSH4 0xD49E77CD EQ PUSH2 0x1085 JUMPI PUSH2 0x45F JUMP JUMPDEST DUP1 PUSH4 0xC6929E53 EQ PUSH2 0xF4F JUMPI DUP1 PUSH4 0xC749D614 EQ PUSH2 0xF57 JUMPI DUP1 PUSH4 0xC8A4271F EQ PUSH2 0xF7D JUMPI DUP1 PUSH4 0xC8ED7680 EQ PUSH2 0xF85 JUMPI DUP1 PUSH4 0xCB0B8CA1 EQ PUSH2 0xFD9 JUMPI PUSH2 0x45F JUMP JUMPDEST DUP1 PUSH4 0x980C2A98 GT PUSH2 0x1D4 JUMPI DUP1 PUSH4 0xB6066962 GT PUSH2 0x198 JUMPI DUP1 PUSH4 0xB6066962 EQ PUSH2 0xEB6 JUMPI DUP1 PUSH4 0xB9181611 EQ PUSH2 0xED3 JUMPI DUP1 PUSH4 0xBEFF2A53 EQ PUSH2 0xF0D JUMPI DUP1 PUSH4 0xC56A10FF EQ PUSH2 0xF2A JUMPI DUP1 PUSH4 0xC663BAA6 EQ PUSH2 0xF32 JUMPI PUSH2 0x45F JUMP JUMPDEST DUP1 PUSH4 0x980C2A98 EQ PUSH2 0xE40 JUMPI DUP1 PUSH4 0x98969E82 EQ PUSH2 0xE48 JUMPI DUP1 PUSH4 0xA02306F9 EQ PUSH2 0xE74 JUMPI DUP1 PUSH4 0xA82859C5 EQ PUSH2 0xE7C JUMPI DUP1 PUSH4 0xAE169A50 EQ PUSH2 0xE99 JUMPI PUSH2 0x45F JUMP JUMPDEST DUP1 PUSH4 0x8DBB1E3A GT PUSH2 0x21B JUMPI DUP1 PUSH4 0x8DBB1E3A EQ PUSH2 0xD59 JUMPI DUP1 PUSH4 0x8DBDBE6D EQ PUSH2 0xD7C JUMPI DUP1 PUSH4 0x929C6971 EQ PUSH2 0xDAE JUMPI DUP1 PUSH4 0x93F1A40B EQ PUSH2 0xDD4 JUMPI DUP1 PUSH4 0x975532DC EQ PUSH2 0xE38 JUMPI PUSH2 0x45F JUMP JUMPDEST DUP1 PUSH4 0x847BDAA4 EQ PUSH2 0xBE9 JUMPI DUP1 PUSH4 0x8CC883CE EQ PUSH2 0xC8A JUMPI DUP1 PUSH4 0x8D88A90E EQ PUSH2 0xD2B JUMPI DUP1 PUSH4 0x8DA5CB5B EQ PUSH2 0xD51 JUMPI PUSH2 0x45F JUMP JUMPDEST DUP1 PUSH4 0x3C9D9267 GT PUSH2 0x35D JUMPI DUP1 PUSH4 0x5C5E490B GT PUSH2 0x2E5 JUMPI DUP1 PUSH4 0x64482F79 GT PUSH2 0x2A9 JUMPI DUP1 PUSH4 0x64482F79 EQ PUSH2 0xB5F JUMPI DUP1 PUSH4 0x715018A6 EQ PUSH2 0xB8A JUMPI DUP1 PUSH4 0x7C39C9C9 EQ PUSH2 0xB92 JUMPI DUP1 PUSH4 0x82386D58 EQ PUSH2 0xBAF JUMPI DUP1 PUSH4 0x82796E98 EQ PUSH2 0xBE1 JUMPI PUSH2 0x45F JUMP JUMPDEST DUP1 PUSH4 0x5C5E490B EQ PUSH2 0xA41 JUMPI DUP1 PUSH4 0x5EAC6239 EQ PUSH2 0xA67 JUMPI DUP1 PUSH4 0x6066DEBD EQ PUSH2 0xB08 JUMPI DUP1 PUSH4 0x6245F084 EQ PUSH2 0xB3A JUMPI DUP1 PUSH4 0x630B5BA1 EQ PUSH2 0xB57 JUMPI PUSH2 0x45F JUMP JUMPDEST DUP1 PUSH4 0x485D7D94 GT PUSH2 0x32C JUMPI DUP1 PUSH4 0x485D7D94 EQ PUSH2 0x91A JUMPI DUP1 PUSH4 0x4AF0E3E1 EQ PUSH2 0x940 JUMPI DUP1 PUSH4 0x4DBF85CA EQ PUSH2 0x9E1 JUMPI DUP1 PUSH4 0x51EB05A6 EQ PUSH2 0xA07 JUMPI DUP1 PUSH4 0x5312EA8E EQ PUSH2 0xA24 JUMPI PUSH2 0x45F JUMP JUMPDEST DUP1 PUSH4 0x3C9D9267 EQ PUSH2 0x837 JUMPI DUP1 PUSH4 0x3D479CD5 EQ PUSH2 0x83F JUMPI DUP1 PUSH4 0x4179B4FB EQ PUSH2 0x85C JUMPI DUP1 PUSH4 0x46664064 EQ PUSH2 0x879 JUMPI PUSH2 0x45F JUMP JUMPDEST DUP1 PUSH4 0x22A376B0 GT PUSH2 0x3EB JUMPI DUP1 PUSH4 0x2FDA7735 GT PUSH2 0x3AF JUMPI DUP1 PUSH4 0x2FDA7735 EQ PUSH2 0x725 JUMPI DUP1 PUSH4 0x30FB8E0E EQ PUSH2 0x742 JUMPI DUP1 PUSH4 0x354AFFB7 EQ PUSH2 0x768 JUMPI DUP1 PUSH4 0x36EBCDE6 EQ PUSH2 0x809 JUMPI DUP1 PUSH4 0x39B3E826 EQ PUSH2 0x82F JUMPI PUSH2 0x45F JUMP JUMPDEST DUP1 PUSH4 0x22A376B0 EQ PUSH2 0x5A1 JUMPI DUP1 PUSH4 0x245B211D EQ PUSH2 0x5A9 JUMPI DUP1 PUSH4 0x24B95C3E EQ PUSH2 0x5C6 JUMPI DUP1 PUSH4 0x27E68928 EQ PUSH2 0x5E3 JUMPI DUP1 PUSH4 0x2A7B0107 EQ PUSH2 0x684 JUMPI PUSH2 0x45F JUMP JUMPDEST DUP1 PUSH4 0xAD58D2F GT PUSH2 0x432 JUMPI DUP1 PUSH4 0xAD58D2F EQ PUSH2 0x4C7 JUMPI DUP1 PUSH4 0x1526FE27 EQ PUSH2 0x4FB JUMPI DUP1 PUSH4 0x17CAF6F1 EQ PUSH2 0x548 JUMPI DUP1 PUSH4 0x1D465C82 EQ PUSH2 0x550 JUMPI DUP1 PUSH4 0x1EAAA045 EQ PUSH2 0x56D JUMPI PUSH2 0x45F JUMP JUMPDEST DUP1 PUSH4 0x5268CFF EQ PUSH2 0x464 JUMPI DUP1 PUSH4 0x81E3EDA EQ PUSH2 0x488 JUMPI DUP1 PUSH4 0x9AE4D2C EQ PUSH2 0x4A2 JUMPI DUP1 PUSH4 0xA67D518 EQ PUSH2 0x4BF JUMPI JUMPDEST PUSH1 0x0 DUP1 REVERT JUMPDEST PUSH2 0x46C PUSH2 0x11D5 JUMP JUMPDEST PUSH1 0x40 DUP1 MLOAD PUSH1 0x1 PUSH1 0x1 PUSH1 0xA0 SHL SUB SWAP1 SWAP3 AND DUP3 MSTORE MLOAD SWAP1 DUP2 SWAP1 SUB PUSH1 0x20 ADD SWAP1 RETURN JUMPDEST PUSH2 0x490 PUSH2 0x11E4 JUMP JUMPDEST PUSH1 0x40 DUP1 MLOAD SWAP2 DUP3 MSTORE MLOAD SWAP1 DUP2 SWAP1 SUB PUSH1 0x20 ADD SWAP1 RETURN JUMPDEST PUSH2 0x490 PUSH1 0x4 DUP1 CALLDATASIZE SUB PUSH1 0x20 DUP2 LT ISZERO PUSH2 0x4B8 JUMPI PUSH1 0x0 DUP1 REVERT JUMPDEST POP CALLDATALOAD PUSH2 0x11EA JUMP JUMPDEST PUSH2 0x490 PUSH2 0x1228 JUMP JUMPDEST PUSH2 0x4F9 PUSH1 0x4 DUP1 CALLDATASIZE SUB PUSH1 0x60 DUP2 LT ISZERO PUSH2 0x4DD JUMPI PUSH1 0x0 DUP1 REVERT JUMPDEST POP DUP1 CALLDATALOAD SWAP1 PUSH1 0x20 DUP2 ADD CALLDATALOAD SWAP1 PUSH1 0x40 ADD CALLDATALOAD PUSH1 0x1 PUSH1 0x1 PUSH1 0xA0 SHL SUB AND PUSH2 0x122E JUMP JUMPDEST STOP JUMPDEST PUSH2 0x518 PUSH1 0x4 DUP1 CALLDATASIZE SUB PUSH1 0x20 DUP2 LT ISZERO PUSH2 0x511 JUMPI PUSH1 0x0 DUP1 REVERT JUMPDEST POP CALLDATALOAD PUSH2 0x18A0 JUMP JUMPDEST PUSH1 0x40 DUP1 MLOAD PUSH1 0x1 PUSH1 0x1 PUSH1 0xA0 SHL SUB SWAP1 SWAP6 AND DUP6 MSTORE PUSH1 0x20 DUP6 ADD SWAP4 SWAP1 SWAP4 MSTORE DUP4 DUP4 ADD SWAP2 SWAP1 SWAP2 MSTORE PUSH1 0x60 DUP4 ADD MSTORE MLOAD SWAP1 DUP2 SWAP1 SUB PUSH1 0x80 ADD SWAP1 RETURN JUMPDEST PUSH2 0x490 PUSH2 0x18E1 JUMP JUMPDEST PUSH2 0x490 PUSH1 0x4 DUP1 CALLDATASIZE SUB PUSH1 0x20 DUP2 LT ISZERO PUSH2 0x566 JUMPI PUSH1 0x0 DUP1 REVERT JUMPDEST POP CALLDATALOAD PUSH2 0x18E7 JUMP JUMPDEST PUSH2 0x4F9 PUSH1 0x4 DUP1 CALLDATASIZE SUB PUSH1 0x60 DUP2 LT ISZERO PUSH2 0x583 JUMPI PUSH1 0x0 DUP1 REVERT JUMPDEST POP DUP1 CALLDATALOAD SWAP1 PUSH1 0x1 PUSH1 0x1 PUSH1 0xA0 SHL SUB PUSH1 0x20 DUP3 ADD CALLDATALOAD AND SWAP1 PUSH1 0x40 ADD CALLDATALOAD ISZERO ISZERO PUSH2 0x195A JUMP JUMPDEST PUSH2 0x46C PUSH2 0x1BB4 JUMP JUMPDEST PUSH2 0x4F9 PUSH1 0x4 DUP1 CALLDATASIZE SUB PUSH1 0x20 DUP2 LT ISZERO PUSH2 0x5BF JUMPI PUSH1 0x0 DUP1 REVERT JUMPDEST POP CALLDATALOAD PUSH2 0x1BC3 JUMP JUMPDEST PUSH2 0x4F9 PUSH1 0x4 DUP1 CALLDATASIZE SUB PUSH1 0x20 DUP2 LT ISZERO PUSH2 0x5DC JUMPI PUSH1 0x0 DUP1 REVERT JUMPDEST POP CALLDATALOAD PUSH2 0x1C34 JUMP JUMPDEST PUSH2 0x4F9 PUSH1 0x4 DUP1 CALLDATASIZE SUB PUSH1 0x20 DUP2 LT ISZERO PUSH2 0x5F9 JUMPI PUSH1 0x0 DUP1 REVERT JUMPDEST DUP2 ADD SWAP1 PUSH1 0x20 DUP2 ADD DUP2 CALLDATALOAD PUSH1 0x1 PUSH1 0x20 SHL DUP2 GT ISZERO PUSH2 0x613 JUMPI PUSH1 0x0 DUP1 REVERT JUMPDEST DUP3 ADD DUP4 PUSH1 0x20 DUP3 ADD GT ISZERO PUSH2 0x625 JUMPI PUSH1 0x0 DUP1 REVERT JUMPDEST DUP1 CALLDATALOAD SWAP1 PUSH1 0x20 ADD SWAP2 DUP5 PUSH1 0x20 DUP4 MUL DUP5 ADD GT PUSH1 0x1 PUSH1 0x20 SHL DUP4 GT OR ISZERO PUSH2 0x646 JUMPI PUSH1 0x0 DUP1 REVERT JUMPDEST SWAP2 SWAP1 DUP1 DUP1 PUSH1 0x20 MUL PUSH1 0x20 ADD PUSH1 0x40 MLOAD SWAP1 DUP2 ADD PUSH1 0x40 MSTORE DUP1 SWAP4 SWAP3 SWAP2 SWAP1 DUP2 DUP2 MSTORE PUSH1 0x20 ADD DUP4 DUP4 PUSH1 0x20 MUL DUP1 DUP3 DUP5 CALLDATACOPY PUSH1 0x0 SWAP3 ADD SWAP2 SWAP1 SWAP2 MSTORE POP SWAP3 SWAP6 POP PUSH2 0x1CA5 SWAP5 POP POP POP POP POP JUMP JUMPDEST PUSH2 0x4F9 PUSH1 0x4 DUP1 CALLDATASIZE SUB PUSH1 0x20 DUP2 LT ISZERO PUSH2 0x69A JUMPI PUSH1 0x0 DUP1 REVERT JUMPDEST DUP2 ADD SWAP1 PUSH1 0x20 DUP2 ADD DUP2 CALLDATALOAD PUSH1 0x1 PUSH1 0x20 SHL DUP2 GT ISZERO PUSH2 0x6B4 JUMPI PUSH1 0x0 DUP1 REVERT JUMPDEST DUP3 ADD DUP4 PUSH1 0x20 DUP3 ADD GT ISZERO PUSH2 0x6C6 JUMPI PUSH1 0x0 DUP1 REVERT JUMPDEST DUP1 CALLDATALOAD SWAP1 PUSH1 0x20 ADD SWAP2 DUP5 PUSH1 0x20 DUP4 MUL DUP5 ADD GT PUSH1 0x1 PUSH1 0x20 SHL DUP4 GT OR ISZERO PUSH2 0x6E7 JUMPI PUSH1 0x0 DUP1 REVERT JUMPDEST SWAP2 SWAP1 DUP1 DUP1 PUSH1 0x20 MUL PUSH1 0x20 ADD PUSH1 0x40 MLOAD SWAP1 DUP2 ADD PUSH1 0x40 MSTORE DUP1 SWAP4 SWAP3 SWAP2 SWAP1 DUP2 DUP2 MSTORE PUSH1 0x20 ADD DUP4 DUP4 PUSH1 0x20 MUL DUP1 DUP3 DUP5 CALLDATACOPY PUSH1 0x0 SWAP3 ADD SWAP2 SWAP1 SWAP2 MSTORE POP SWAP3 SWAP6 POP PUSH2 0x1D28 SWAP5 POP POP POP POP POP JUMP JUMPDEST PUSH2 0x490 PUSH1 0x4 DUP1 CALLDATASIZE SUB PUSH1 0x20 DUP2 LT ISZERO PUSH2 0x73B JUMPI PUSH1 0x0 DUP1 REVERT JUMPDEST POP CALLDATALOAD PUSH2 0x1DA7 JUMP JUMPDEST PUSH2 0x4F9 PUSH1 0x4 DUP1 CALLDATASIZE SUB PUSH1 0x20 DUP2 LT ISZERO PUSH2 0x758 JUMPI PUSH1 0x0 DUP1 REVERT JUMPDEST POP CALLDATALOAD PUSH1 0x1 PUSH1 0x1 PUSH1 0xA0 SHL SUB AND PUSH2 0x1DC5 JUMP JUMPDEST PUSH2 0x4F9 PUSH1 0x4 DUP1 CALLDATASIZE SUB PUSH1 0x20 DUP2 LT ISZERO PUSH2 0x77E JUMPI PUSH1 0x0 DUP1 REVERT JUMPDEST DUP2 ADD SWAP1 PUSH1 0x20 DUP2 ADD DUP2 CALLDATALOAD PUSH1 0x1 PUSH1 0x20 SHL DUP2 GT ISZERO PUSH2 0x798 JUMPI PUSH1 0x0 DUP1 REVERT JUMPDEST DUP3 ADD DUP4 PUSH1 0x20 DUP3 ADD GT ISZERO PUSH2 0x7AA JUMPI PUSH1 0x0 DUP1 REVERT JUMPDEST DUP1 CALLDATALOAD SWAP1 PUSH1 0x20 ADD SWAP2 DUP5 PUSH1 0x20 DUP4 MUL DUP5 ADD GT PUSH1 0x1 PUSH1 0x20 SHL DUP4 GT OR ISZERO PUSH2 0x7CB JUMPI PUSH1 0x0 DUP1 REVERT JUMPDEST SWAP2 SWAP1 DUP1 DUP1 PUSH1 0x20 MUL PUSH1 0x20 ADD PUSH1 0x40 MLOAD SWAP1 DUP2 ADD PUSH1 0x40 MSTORE DUP1 SWAP4 SWAP3 SWAP2 SWAP1 DUP2 DUP2 MSTORE PUSH1 0x20 ADD DUP4 DUP4 PUSH1 0x20 MUL DUP1 DUP3 DUP5 CALLDATACOPY PUSH1 0x0 SWAP3 ADD SWAP2 SWAP1 SWAP2 MSTORE POP SWAP3 SWAP6 POP PUSH2 0x1E53 SWAP5 POP POP POP POP POP JUMP JUMPDEST PUSH2 0x490 PUSH1 0x4 DUP1 CALLDATASIZE SUB PUSH1 0x20 DUP2 LT ISZERO PUSH2 0x81F JUMPI PUSH1 0x0 DUP1 REVERT JUMPDEST POP CALLDATALOAD PUSH1 0x1 PUSH1 0x1 PUSH1 0xA0 SHL SUB AND PUSH2 0x1ED2 JUMP JUMPDEST PUSH2 0x490 PUSH2 0x1F1F JUMP JUMPDEST PUSH2 0x46C PUSH2 0x1F25 JUMP JUMPDEST PUSH2 0x4F9 PUSH1 0x4 DUP1 CALLDATASIZE SUB PUSH1 0x20 DUP2 LT ISZERO PUSH2 0x855 JUMPI PUSH1 0x0 DUP1 REVERT JUMPDEST POP CALLDATALOAD PUSH2 0x1F34 JUMP JUMPDEST PUSH2 0x490 PUSH1 0x4 DUP1 CALLDATASIZE SUB PUSH1 0x20 DUP2 LT ISZERO PUSH2 0x872 JUMPI PUSH1 0x0 DUP1 REVERT JUMPDEST POP CALLDATALOAD PUSH2 0x1FA5 JUMP JUMPDEST PUSH2 0x4F9 PUSH1 0x4 DUP1 CALLDATASIZE SUB PUSH1 0x20 DUP2 LT ISZERO PUSH2 0x88F JUMPI PUSH1 0x0 DUP1 REVERT JUMPDEST DUP2 ADD SWAP1 PUSH1 0x20 DUP2 ADD DUP2 CALLDATALOAD PUSH1 0x1 PUSH1 0x20 SHL DUP2 GT ISZERO PUSH2 0x8A9 JUMPI PUSH1 0x0 DUP1 REVERT JUMPDEST DUP3 ADD DUP4 PUSH1 0x20 DUP3 ADD GT ISZERO PUSH2 0x8BB JUMPI PUSH1 0x0 DUP1 REVERT JUMPDEST DUP1 CALLDATALOAD SWAP1 PUSH1 0x20 ADD SWAP2 DUP5 PUSH1 0x20 DUP4 MUL DUP5 ADD GT PUSH1 0x1 PUSH1 0x20 SHL DUP4 GT OR ISZERO PUSH2 0x8DC JUMPI PUSH1 0x0 DUP1 REVERT JUMPDEST SWAP2 SWAP1 DUP1 DUP1 PUSH1 0x20 MUL PUSH1 0x20 ADD PUSH1 0x40 MLOAD SWAP1 DUP2 ADD PUSH1 0x40 MSTORE DUP1 SWAP4 SWAP3 SWAP2 SWAP1 DUP2 DUP2 MSTORE PUSH1 0x20 ADD DUP4 DUP4 PUSH1 0x20 MUL DUP1 DUP3 DUP5 CALLDATACOPY PUSH1 0x0 SWAP3 ADD SWAP2 SWAP1 SWAP2 MSTORE POP SWAP3 SWAP6 POP PUSH2 0x1FB2 SWAP5 POP POP POP POP POP JUMP JUMPDEST PUSH2 0x4F9 PUSH1 0x4 DUP1 CALLDATASIZE SUB PUSH1 0x20 DUP2 LT ISZERO PUSH2 0x930 JUMPI PUSH1 0x0 DUP1 REVERT JUMPDEST POP CALLDATALOAD PUSH1 0x1 PUSH1 0x1 PUSH1 0xA0 SHL SUB AND PUSH2 0x2031 JUMP JUMPDEST PUSH2 0x4F9 PUSH1 0x4 DUP1 CALLDATASIZE SUB PUSH1 0x20 DUP2 LT ISZERO PUSH2 0x956 JUMPI PUSH1 0x0 DUP1 REVERT JUMPDEST DUP2 ADD SWAP1 PUSH1 0x20 DUP2 ADD DUP2 CALLDATALOAD PUSH1 0x1 PUSH1 0x20 SHL DUP2 GT ISZERO PUSH2 0x970 JUMPI PUSH1 0x0 DUP1 REVERT JUMPDEST DUP3 ADD DUP4 PUSH1 0x20 DUP3 ADD GT ISZERO PUSH2 0x982 JUMPI PUSH1 0x0 DUP1 REVERT JUMPDEST DUP1 CALLDATALOAD SWAP1 PUSH1 0x20 ADD SWAP2 DUP5 PUSH1 0x20 DUP4 MUL DUP5 ADD GT PUSH1 0x1 PUSH1 0x20 SHL DUP4 GT OR ISZERO PUSH2 0x9A3 JUMPI PUSH1 0x0 DUP1 REVERT JUMPDEST SWAP2 SWAP1 DUP1 DUP1 PUSH1 0x20 MUL PUSH1 0x20 ADD PUSH1 0x40 MLOAD SWAP1 DUP2 ADD PUSH1 0x40 MSTORE DUP1 SWAP4 SWAP3 SWAP2 SWAP1 DUP2 DUP2 MSTORE PUSH1 0x20 ADD DUP4 DUP4 PUSH1 0x20 MUL DUP1 DUP3 DUP5 CALLDATACOPY PUSH1 0x0 SWAP3 ADD SWAP2 SWAP1 SWAP2 MSTORE POP SWAP3 SWAP6 POP PUSH2 0x20CA SWAP5 POP POP POP POP POP JUMP JUMPDEST PUSH2 0x4F9 PUSH1 0x4 DUP1 CALLDATASIZE SUB PUSH1 0x20 DUP2 LT ISZERO PUSH2 0x9F7 JUMPI PUSH1 0x0 DUP1 REVERT JUMPDEST POP CALLDATALOAD PUSH1 0x1 PUSH1 0x1 PUSH1 0xA0 SHL SUB AND PUSH2 0x2149 JUMP JUMPDEST PUSH2 0x4F9 PUSH1 0x4 DUP1 CALLDATASIZE SUB PUSH1 0x20 DUP2 LT ISZERO PUSH2 0xA1D JUMPI PUSH1 0x0 DUP1 REVERT JUMPDEST POP CALLDATALOAD PUSH2 0x21D7 JUMP JUMPDEST PUSH2 0x4F9 PUSH1 0x4 DUP1 CALLDATASIZE SUB PUSH1 0x20 DUP2 LT ISZERO PUSH2 0xA3A JUMPI PUSH1 0x0 DUP1 REVERT JUMPDEST POP CALLDATALOAD PUSH2 0x277F JUMP JUMPDEST PUSH2 0x490 PUSH1 0x4 DUP1 CALLDATASIZE SUB PUSH1 0x20 DUP2 LT ISZERO PUSH2 0xA57 JUMPI PUSH1 0x0 DUP1 REVERT JUMPDEST POP CALLDATALOAD PUSH1 0x1 PUSH1 0x1 PUSH1 0xA0 SHL SUB AND PUSH2 0x28CE JUMP JUMPDEST PUSH2 0x4F9 PUSH1 0x4 DUP1 CALLDATASIZE SUB PUSH1 0x20 DUP2 LT ISZERO PUSH2 0xA7D JUMPI PUSH1 0x0 DUP1 REVERT JUMPDEST DUP2 ADD SWAP1 PUSH1 0x20 DUP2 ADD DUP2 CALLDATALOAD PUSH1 0x1 PUSH1 0x20 SHL DUP2 GT ISZERO PUSH2 0xA97 JUMPI PUSH1 0x0 DUP1 REVERT JUMPDEST DUP3 ADD DUP4 PUSH1 0x20 DUP3 ADD GT ISZERO PUSH2 0xAA9 JUMPI PUSH1 0x0 DUP1 REVERT JUMPDEST DUP1 CALLDATALOAD SWAP1 PUSH1 0x20 ADD SWAP2 DUP5 PUSH1 0x20 DUP4 MUL DUP5 ADD GT PUSH1 0x1 PUSH1 0x20 SHL DUP4 GT OR ISZERO PUSH2 0xACA JUMPI PUSH1 0x0 DUP1 REVERT JUMPDEST SWAP2 SWAP1 DUP1 DUP1 PUSH1 0x20 MUL PUSH1 0x20 ADD PUSH1 0x40 MLOAD SWAP1 DUP2 ADD PUSH1 0x40 MSTORE DUP1 SWAP4 SWAP3 SWAP2 SWAP1 DUP2 DUP2 MSTORE PUSH1 0x20 ADD DUP4 DUP4 PUSH1 0x20 MUL DUP1 DUP3 DUP5 CALLDATACOPY PUSH1 0x0 SWAP3 ADD SWAP2 SWAP1 SWAP2 MSTORE POP SWAP3 SWAP6 POP PUSH2 0x2919 SWAP5 POP POP POP POP POP JUMP JUMPDEST PUSH2 0x4F9 PUSH1 0x4 DUP1 CALLDATASIZE SUB PUSH1 0x60 DUP2 LT ISZERO PUSH2 0xB1E JUMPI PUSH1 0x0 DUP1 REVERT JUMPDEST POP DUP1 CALLDATALOAD SWAP1 PUSH1 0x1 PUSH1 0x1 PUSH1 0xA0 SHL SUB PUSH1 0x20 DUP3 ADD CALLDATALOAD AND SWAP1 PUSH1 0x40 ADD CALLDATALOAD PUSH2 0x2949 JUMP JUMPDEST PUSH2 0x490 PUSH1 0x4 DUP1 CALLDATASIZE SUB PUSH1 0x20 DUP2 LT ISZERO PUSH2 0xB50 JUMPI PUSH1 0x0 DUP1 REVERT JUMPDEST POP CALLDATALOAD PUSH2 0x29DE JUMP JUMPDEST PUSH2 0x4F9 PUSH2 0x29EB JUMP JUMPDEST PUSH2 0x4F9 PUSH1 0x4 DUP1 CALLDATASIZE SUB PUSH1 0x60 DUP2 LT ISZERO PUSH2 0xB75 JUMPI PUSH1 0x0 DUP1 REVERT JUMPDEST POP DUP1 CALLDATALOAD SWAP1 PUSH1 0x20 DUP2 ADD CALLDATALOAD SWAP1 PUSH1 0x40 ADD CALLDATALOAD ISZERO ISZERO PUSH2 0x2A0A JUMP JUMPDEST PUSH2 0x4F9 PUSH2 0x2AE5 JUMP JUMPDEST PUSH2 0x4F9 PUSH1 0x4 DUP1 CALLDATASIZE SUB PUSH1 0x20 DUP2 LT ISZERO PUSH2 0xBA8 JUMPI PUSH1 0x0 DUP1 REVERT JUMPDEST POP CALLDATALOAD PUSH2 0x2B91 JUMP JUMPDEST PUSH2 0x4F9 PUSH1 0x4 DUP1 CALLDATASIZE SUB PUSH1 0x60 DUP2 LT ISZERO PUSH2 0xBC5 JUMPI PUSH1 0x0 DUP1 REVERT JUMPDEST POP DUP1 CALLDATALOAD SWAP1 PUSH1 0x1 PUSH1 0x1 PUSH1 0xA0 SHL SUB PUSH1 0x20 DUP3 ADD CALLDATALOAD AND SWAP1 PUSH1 0x40 ADD CALLDATALOAD PUSH2 0x2C02 JUMP JUMPDEST PUSH2 0x490 PUSH2 0x2C97 JUMP JUMPDEST PUSH2 0x4F9 PUSH1 0x4 DUP1 CALLDATASIZE SUB PUSH1 0x20 DUP2 LT ISZERO PUSH2 0xBFF JUMPI PUSH1 0x0 DUP1 REVERT JUMPDEST DUP2 ADD SWAP1 PUSH1 0x20 DUP2 ADD DUP2 CALLDATALOAD PUSH1 0x1 PUSH1 0x20 SHL DUP2 GT ISZERO PUSH2 0xC19 JUMPI PUSH1 0x0 DUP1 REVERT JUMPDEST DUP3 ADD DUP4 PUSH1 0x20 DUP3 ADD GT ISZERO PUSH2 0xC2B JUMPI PUSH1 0x0 DUP1 REVERT JUMPDEST DUP1 CALLDATALOAD SWAP1 PUSH1 0x20 ADD SWAP2 DUP5 PUSH1 0x20 DUP4 MUL DUP5 ADD GT PUSH1 0x1 PUSH1 0x20 SHL DUP4 GT OR ISZERO PUSH2 0xC4C JUMPI PUSH1 0x0 DUP1 REVERT JUMPDEST SWAP2 SWAP1 DUP1 DUP1 PUSH1 0x20 MUL PUSH1 0x20 ADD PUSH1 0x40 MLOAD SWAP1 DUP2 ADD PUSH1 0x40 MSTORE DUP1 SWAP4 SWAP3 SWAP2 SWAP1 DUP2 DUP2 MSTORE PUSH1 0x20 ADD DUP4 DUP4 PUSH1 0x20 MUL DUP1 DUP3 DUP5 CALLDATACOPY PUSH1 0x0 SWAP3 ADD SWAP2 SWAP1 SWAP2 MSTORE POP SWAP3 SWAP6 POP PUSH2 0x2C9D SWAP5 POP POP POP POP POP JUMP JUMPDEST PUSH2 0x4F9 PUSH1 0x4 DUP1 CALLDATASIZE SUB PUSH1 0x20 DUP2 LT ISZERO PUSH2 0xCA0 JUMPI PUSH1 0x0 DUP1 REVERT JUMPDEST DUP2 ADD SWAP1 PUSH1 0x20 DUP2 ADD DUP2 CALLDATALOAD PUSH1 0x1 PUSH1 0x20 SHL DUP2 GT ISZERO PUSH2 0xCBA JUMPI PUSH1 0x0 DUP1 REVERT JUMPDEST DUP3 ADD DUP4 PUSH1 0x20 DUP3 ADD GT ISZERO PUSH2 0xCCC JUMPI PUSH1 0x0 DUP1 REVERT JUMPDEST DUP1 CALLDATALOAD SWAP1 PUSH1 0x20 ADD SWAP2 DUP5 PUSH1 0x20 DUP4 MUL DUP5 ADD GT PUSH1 0x1 PUSH1 0x20 SHL DUP4 GT OR ISZERO PUSH2 0xCED JUMPI PUSH1 0x0 DUP1 REVERT JUMPDEST SWAP2 SWAP1 DUP1 DUP1 PUSH1 0x20 MUL PUSH1 0x20 ADD PUSH1 0x40 MLOAD SWAP1 DUP2 ADD PUSH1 0x40 MSTORE DUP1 SWAP4 SWAP3 SWAP2 SWAP1 DUP2 DUP2 MSTORE PUSH1 0x20 ADD DUP4 DUP4 PUSH1 0x20 MUL DUP1 DUP3 DUP5 CALLDATACOPY PUSH1 0x0 SWAP3 ADD SWAP2 SWAP1 SWAP2 MSTORE POP SWAP3 SWAP6 POP PUSH2 0x2D1C SWAP5 POP POP POP POP POP JUMP JUMPDEST PUSH2 0x4F9 PUSH1 0x4 DUP1 CALLDATASIZE SUB PUSH1 0x20 DUP2 LT ISZERO PUSH2 0xD41 JUMPI PUSH1 0x0 DUP1 REVERT JUMPDEST POP CALLDATALOAD PUSH1 0x1 PUSH1 0x1 PUSH1 0xA0 SHL SUB AND PUSH2 0x2D9B JUMP JUMPDEST PUSH2 0x46C PUSH2 0x2E29 JUMP JUMPDEST PUSH2 0x490 PUSH1 0x4 DUP1 CALLDATASIZE SUB PUSH1 0x40 DUP2 LT ISZERO PUSH2 0xD6F JUMPI PUSH1 0x0 DUP1 REVERT JUMPDEST POP DUP1 CALLDATALOAD SWAP1 PUSH1 0x20 ADD CALLDATALOAD PUSH2 0x2E38 JUMP JUMPDEST PUSH2 0x4F9 PUSH1 0x4 DUP1 CALLDATASIZE SUB PUSH1 0x60 DUP2 LT ISZERO PUSH2 0xD92 JUMPI PUSH1 0x0 DUP1 REVERT JUMPDEST POP DUP1 CALLDATALOAD SWAP1 PUSH1 0x20 DUP2 ADD CALLDATALOAD SWAP1 PUSH1 0x40 ADD CALLDATALOAD PUSH1 0x1 PUSH1 0x1 PUSH1 0xA0 SHL SUB AND PUSH2 0x2F34 JUMP JUMPDEST PUSH2 0x490 PUSH1 0x4 DUP1 CALLDATASIZE SUB PUSH1 0x20 DUP2 LT ISZERO PUSH2 0xDC4 JUMPI PUSH1 0x0 DUP1 REVERT JUMPDEST POP CALLDATALOAD PUSH1 0x1 PUSH1 0x1 PUSH1 0xA0 SHL SUB AND PUSH2 0x31EE JUMP JUMPDEST PUSH2 0xE00 PUSH1 0x4 DUP1 CALLDATASIZE SUB PUSH1 0x40 DUP2 LT ISZERO PUSH2 0xDEA JUMPI PUSH1 0x0 DUP1 REVERT JUMPDEST POP DUP1 CALLDATALOAD SWAP1 PUSH1 0x20 ADD CALLDATALOAD PUSH1 0x1 PUSH1 0x1 PUSH1 0xA0 SHL SUB AND PUSH2 0x323D JUMP JUMPDEST PUSH1 0x40 DUP1 MLOAD SWAP8 DUP9 MSTORE PUSH1 0x20 DUP9 ADD SWAP7 SWAP1 SWAP7 MSTORE DUP7 DUP7 ADD SWAP5 SWAP1 SWAP5 MSTORE PUSH1 0x60 DUP7 ADD SWAP3 SWAP1 SWAP3 MSTORE PUSH1 0x80 DUP6 ADD MSTORE PUSH1 0xA0 DUP5 ADD MSTORE PUSH1 0xC0 DUP4 ADD MSTORE MLOAD SWAP1 DUP2 SWAP1 SUB PUSH1 0xE0 ADD SWAP1 RETURN JUMPDEST PUSH2 0x490 PUSH2 0x328C JUMP JUMPDEST PUSH2 0x490 PUSH2 0x3292 JUMP JUMPDEST PUSH2 0x490 PUSH1 0x4 DUP1 CALLDATASIZE SUB PUSH1 0x40 DUP2 LT ISZERO PUSH2 0xE5E JUMPI PUSH1 0x0 DUP1 REVERT JUMPDEST POP DUP1 CALLDATALOAD SWAP1 PUSH1 0x20 ADD CALLDATALOAD PUSH1 0x1 PUSH1 0x1 PUSH1 0xA0 SHL SUB AND PUSH2 0x3298 JUMP JUMPDEST PUSH2 0x490 PUSH2 0x33E6 JUMP JUMPDEST PUSH2 0x490 PUSH1 0x4 DUP1 CALLDATASIZE SUB PUSH1 0x20 DUP2 LT ISZERO PUSH2 0xE92 JUMPI PUSH1 0x0 DUP1 REVERT JUMPDEST POP CALLDATALOAD PUSH2 0x33EC JUMP JUMPDEST PUSH2 0x4F9 PUSH1 0x4 DUP1 CALLDATASIZE SUB PUSH1 0x20 DUP2 LT ISZERO PUSH2 0xEAF JUMPI PUSH1 0x0 DUP1 REVERT JUMPDEST POP CALLDATALOAD PUSH2 0x33F9 JUMP JUMPDEST PUSH2 0x4F9 PUSH1 0x4 DUP1 CALLDATASIZE SUB PUSH1 0x20 DUP2 LT ISZERO PUSH2 0xECC JUMPI PUSH1 0x0 DUP1 REVERT JUMPDEST POP CALLDATALOAD PUSH2 0x340B JUMP JUMPDEST PUSH2 0xEF9 PUSH1 0x4 DUP1 CALLDATASIZE SUB PUSH1 0x20 DUP2 LT ISZERO PUSH2 0xEE9 JUMPI PUSH1 0x0 DUP1 REVERT JUMPDEST POP CALLDATALOAD PUSH1 0x1 PUSH1 0x1 PUSH1 0xA0 SHL SUB AND PUSH2 0x347C JUMP JUMPDEST PUSH1 0x40 DUP1 MLOAD SWAP2 ISZERO ISZERO DUP3 MSTORE MLOAD SWAP1 DUP2 SWAP1 SUB PUSH1 0x20 ADD SWAP1 RETURN JUMPDEST PUSH2 0x490 PUSH1 0x4 DUP1 CALLDATASIZE SUB PUSH1 0x20 DUP2 LT ISZERO PUSH2 0xF23 JUMPI PUSH1 0x0 DUP1 REVERT JUMPDEST POP CALLDATALOAD PUSH2 0x3491 JUMP JUMPDEST PUSH2 0x490 PUSH2 0x349E JUMP JUMPDEST PUSH2 0x4F9 PUSH1 0x4 DUP1 CALLDATASIZE SUB PUSH1 0x20 DUP2 LT ISZERO PUSH2 0xF48 JUMPI PUSH1 0x0 DUP1 REVERT JUMPDEST POP CALLDATALOAD PUSH2 0x34A4 JUMP JUMPDEST PUSH2 0x490 PUSH2 0x3515 JUMP JUMPDEST PUSH2 0x4F9 PUSH1 0x4 DUP1 CALLDATASIZE SUB PUSH1 0x20 DUP2 LT ISZERO PUSH2 0xF6D JUMPI PUSH1 0x0 DUP1 REVERT JUMPDEST POP CALLDATALOAD PUSH1 0x1 PUSH1 0x1 PUSH1 0xA0 SHL SUB AND PUSH2 0x351B JUMP JUMPDEST PUSH2 0x46C PUSH2 0x35A9 JUMP JUMPDEST PUSH2 0xFAE PUSH1 0x4 DUP1 CALLDATASIZE SUB PUSH1 0x60 DUP2 LT ISZERO PUSH2 0xF9B JUMPI PUSH1 0x0 DUP1 REVERT JUMPDEST POP DUP1 CALLDATALOAD SWAP1 PUSH1 0x20 DUP2 ADD CALLDATALOAD SWAP1 PUSH1 0x40 ADD CALLDATALOAD PUSH2 0x35B8 JUMP JUMPDEST PUSH1 0x40 DUP1 MLOAD SWAP6 DUP7 MSTORE PUSH1 0x20 DUP7 ADD SWAP5 SWAP1 SWAP5 MSTORE DUP5 DUP5 ADD SWAP3 SWAP1 SWAP3 MSTORE PUSH1 0x60 DUP5 ADD MSTORE PUSH1 0x80 DUP4 ADD MSTORE MLOAD SWAP1 DUP2 SWAP1 SUB PUSH1 0xA0 ADD SWAP1 RETURN JUMPDEST PUSH2 0x490 PUSH1 0x4 DUP1 CALLDATASIZE SUB PUSH1 0x20 DUP2 LT ISZERO PUSH2 0xFEF JUMPI PUSH1 0x0 DUP1 REVERT JUMPDEST POP CALLDATALOAD PUSH2 0x378A JUMP JUMPDEST PUSH2 0xEF9 PUSH1 0x4 DUP1 CALLDATASIZE SUB PUSH1 0x20 DUP2 LT ISZERO PUSH2 0x100C JUMPI PUSH1 0x0 DUP1 REVERT JUMPDEST POP CALLDATALOAD PUSH1 0x1 PUSH1 0x1 PUSH1 0xA0 SHL SUB AND PUSH2 0x3797 JUMP JUMPDEST PUSH2 0x490 PUSH1 0x4 DUP1 CALLDATASIZE SUB PUSH1 0x20 DUP2 LT ISZERO PUSH2 0x1032 JUMPI PUSH1 0x0 DUP1 REVERT JUMPDEST POP CALLDATALOAD PUSH1 0x1 PUSH1 0x1 PUSH1 0xA0 SHL SUB AND PUSH2 0x37AC JUMP JUMPDEST PUSH2 0x4F9 PUSH1 0x4 DUP1 CALLDATASIZE SUB PUSH1 0x20 DUP2 LT ISZERO PUSH2 0x1058 JUMPI PUSH1 0x0 DUP1 REVERT JUMPDEST POP CALLDATALOAD PUSH1 0x1 PUSH1 0x1 PUSH1 0xA0 SHL SUB AND PUSH2 0x37BE JUMP JUMPDEST PUSH2 0x490 PUSH1 0x4 DUP1 CALLDATASIZE SUB PUSH1 0x20 DUP2 LT ISZERO PUSH2 0x107E JUMPI PUSH1 0x0 DUP1 REVERT JUMPDEST POP CALLDATALOAD PUSH2 0x3847 JUMP JUMPDEST PUSH2 0x46C PUSH2 0x3854 JUMP JUMPDEST PUSH2 0x10B3 PUSH1 0x4 DUP1 CALLDATASIZE SUB PUSH1 0x20 DUP2 LT ISZERO PUSH2 0x10A3 JUMPI PUSH1 0x0 DUP1 REVERT JUMPDEST POP CALLDATALOAD PUSH1 0x1 PUSH1 0x1 PUSH1 0xA0 SHL SUB AND PUSH2 0x3863 JUMP JUMPDEST PUSH1 0x40 DUP1 MLOAD SWAP4 DUP5 MSTORE PUSH1 0x20 DUP5 ADD SWAP3 SWAP1 SWAP3 MSTORE DUP3 DUP3 ADD MSTORE MLOAD SWAP1 DUP2 SWAP1 SUB PUSH1 0x60 ADD SWAP1 RETURN JUMPDEST PUSH2 0x490 PUSH1 0x4 DUP1 CALLDATASIZE SUB PUSH1 0x40 DUP2 LT ISZERO PUSH2 0x10E7 JUMPI PUSH1 0x0 DUP1 REVERT JUMPDEST POP PUSH1 0x1 PUSH1 0x1 PUSH1 0xA0 SHL SUB DUP2 CALLDATALOAD DUP2 AND SWAP2 PUSH1 0x20 ADD CALLDATALOAD AND PUSH2 0x3884 JUMP JUMPDEST PUSH2 0x4F9 PUSH1 0x4 DUP1 CALLDATASIZE SUB PUSH1 0x20 DUP2 LT ISZERO PUSH2 0x1115 JUMPI PUSH1 0x0 DUP1 REVERT JUMPDEST POP CALLDATALOAD PUSH2 0x38B3 JUMP JUMPDEST PUSH2 0x46C PUSH2 0x3924 JUMP JUMPDEST PUSH2 0x490 PUSH2 0x3933 JUMP JUMPDEST PUSH2 0x4F9 PUSH1 0x4 DUP1 CALLDATASIZE SUB PUSH1 0x20 DUP2 LT ISZERO PUSH2 0x1142 JUMPI PUSH1 0x0 DUP1 REVERT JUMPDEST POP CALLDATALOAD PUSH1 0x1 PUSH1 0x1 PUSH1 0xA0 SHL SUB AND PUSH2 0x3939 JUMP JUMPDEST PUSH2 0x4F9 PUSH1 0x4 DUP1 CALLDATASIZE SUB PUSH1 0x20 DUP2 LT ISZERO PUSH2 0x1168 JUMPI PUSH1 0x0 DUP1 REVERT JUMPDEST POP CALLDATALOAD PUSH1 0x1 PUSH1 0x1 PUSH1 0xA0 SHL SUB AND PUSH2 0x3A0E JUMP JUMPDEST PUSH2 0x4F9 PUSH1 0x4 DUP1 CALLDATASIZE SUB PUSH1 0x20 DUP2 LT ISZERO PUSH2 0x118E JUMPI PUSH1 0x0 DUP1 REVERT JUMPDEST POP CALLDATALOAD PUSH2 0x3B10 JUMP JUMPDEST PUSH2 0x490 PUSH1 0x4 DUP1 CALLDATASIZE SUB PUSH1 0x40 DUP2 LT ISZERO PUSH2 0x11AB JUMPI PUSH1 0x0 DUP1 REVERT JUMPDEST POP DUP1 CALLDATALOAD SWAP1 PUSH1 0x20 ADD CALLDATALOAD PUSH2 0x3B81 JUMP JUMPDEST PUSH2 0x4F9 PUSH1 0x4 DUP1 CALLDATASIZE SUB PUSH1 0x20 DUP2 LT ISZERO PUSH2 0x11CE JUMPI PUSH1 0x0 DUP1 REVERT JUMPDEST POP CALLDATALOAD PUSH2 0x3C11 JUMP JUMPDEST PUSH1 0x3 SLOAD PUSH1 0x1 PUSH1 0x1 PUSH1 0xA0 SHL SUB AND DUP2 JUMP JUMPDEST PUSH1 0x19 SLOAD SWAP1 JUMP JUMPDEST PUSH1 0x0 DUP2 DUP2 MSTORE PUSH1 0x1B PUSH1 0x20 SWAP1 DUP2 MSTORE PUSH1 0x40 DUP1 DUP4 KECCAK256 CALLER DUP5 MSTORE SWAP1 SWAP2 MSTORE DUP2 KECCAK256 PUSH1 0x3 DUP2 ADD SLOAD ISZERO PUSH2 0x121A JUMPI PUSH1 0x3 ADD SLOAD NUMBER SUB SWAP1 POP PUSH2 0x1223 JUMP JUMPDEST PUSH1 0x4 ADD SLOAD NUMBER SUB SWAP1 POP JUMPDEST SWAP2 SWAP1 POP JUMP JUMPDEST PUSH1 0x16 SLOAD DUP2 JUMP JUMPDEST PUSH1 0x2 DUP1 SLOAD EQ ISZERO PUSH2 0x1285 JUMPI PUSH1 0x40 DUP1 MLOAD PUSH3 0x461BCD PUSH1 0xE5 SHL DUP2 MSTORE PUSH1 0x20 PUSH1 0x4 DUP3 ADD MSTORE PUSH1 0x1F PUSH1 0x24 DUP3 ADD MSTORE PUSH32 0x5265656E7472616E637947756172643A207265656E7472616E742063616C6C00 PUSH1 0x44 DUP3 ADD MSTORE SWAP1 MLOAD SWAP1 DUP2 SWAP1 SUB PUSH1 0x64 ADD SWAP1 REVERT JUMPDEST PUSH1 0x2 DUP1 DUP2 SWAP1 SSTORE POP PUSH1 0x0 PUSH1 0x19 DUP5 DUP2 SLOAD DUP2 LT PUSH2 0x129B JUMPI INVALID JUMPDEST PUSH1 0x0 SWAP2 DUP3 MSTORE PUSH1 0x20 DUP1 DUP4 KECCAK256 DUP8 DUP5 MSTORE PUSH1 0x1B DUP3 MSTORE PUSH1 0x40 DUP1 DUP6 KECCAK256 CALLER DUP1 DUP8 MSTORE SWAP1 DUP5 MSTORE DUP2 DUP7 KECCAK256 PUSH1 0x1 PUSH1 0x1 PUSH1 0xA0 SHL SUB DUP10 AND DUP8 MSTORE PUSH1 0x1C SWAP1 SWAP5 MSTORE DUP2 DUP7 KECCAK256 SWAP1 DUP7 MSTORE SWAP5 KECCAK256 DUP3 SLOAD PUSH1 0x4 SWAP1 SWAP5 MUL SWAP1 SWAP2 ADD SWAP5 POP SWAP1 SWAP3 SWAP2 DUP7 GT ISZERO PUSH2 0x1321 JUMPI PUSH1 0x40 MLOAD PUSH3 0x461BCD PUSH1 0xE5 SHL DUP2 MSTORE PUSH1 0x4 ADD DUP1 DUP1 PUSH1 0x20 ADD DUP3 DUP2 SUB DUP3 MSTORE PUSH1 0x22 DUP2 MSTORE PUSH1 0x20 ADD DUP1 PUSH2 0x4593 PUSH1 0x22 SWAP2 CODECOPY PUSH1 0x40 ADD SWAP2 POP POP PUSH1 0x40 MLOAD DUP1 SWAP2 SUB SWAP1 REVERT JUMPDEST PUSH1 0x1 PUSH1 0x1 PUSH1 0xA0 SHL SUB DUP6 AND ISZERO PUSH2 0x1354 JUMPI CALLER PUSH1 0x0 SWAP1 DUP2 MSTORE PUSH1 0x1 DUP4 ADD PUSH1 0x20 MSTORE PUSH1 0x40 SWAP1 KECCAK256 DUP1 SLOAD DUP8 SWAP1 SUB SWAP1 SSTORE PUSH1 0x3 DUP3 ADD DUP1 SLOAD DUP8 SWAP1 SUB SWAP1 SSTORE JUMPDEST DUP1 SLOAD DUP7 SWAP1 SUB DUP2 SSTORE PUSH2 0x1364 DUP8 PUSH2 0x21D7 JUMP JUMPDEST PUSH2 0x136D DUP8 PUSH2 0x3D3C JUMP JUMPDEST DUP6 ISZERO PUSH2 0x1892 JUMPI DUP3 SLOAD PUSH2 0x137F SWAP1 DUP8 PUSH2 0x3FC8 JUMP JUMPDEST DUP4 SSTORE PUSH1 0x3 DUP4 ADD SLOAD ISZERO PUSH2 0x139C JUMPI PUSH1 0x3 DUP4 ADD SLOAD NUMBER SUB PUSH1 0x5 DUP5 ADD SSTORE PUSH2 0x13A9 JUMP JUMPDEST PUSH1 0x4 DUP4 ADD SLOAD NUMBER SUB PUSH1 0x5 DUP5 ADD SSTORE JUMPDEST PUSH1 0xC PUSH1 0x0 DUP2 SLOAD DUP2 LT PUSH2 0x13B7 JUMPI INVALID JUMPDEST SWAP1 PUSH1 0x0 MSTORE PUSH1 0x20 PUSH1 0x0 KECCAK256 ADD SLOAD DUP4 PUSH1 0x5 ADD SLOAD EQ DUP1 PUSH2 0x13D6 JUMPI POP DUP3 PUSH1 0x6 ADD SLOAD NUMBER EQ JUMPDEST ISZERO PUSH2 0x1455 JUMPI PUSH2 0x1427 CALLER PUSH2 0x1415 PUSH1 0x64 PUSH2 0x140F PUSH1 0xE PUSH1 0x0 DUP2 SLOAD DUP2 LT PUSH2 0x13F5 JUMPI INVALID JUMPDEST SWAP1 PUSH1 0x0 MSTORE PUSH1 0x20 PUSH1 0x0 KECCAK256 ADD SLOAD DUP12 PUSH2 0x3C82 SWAP1 SWAP2 SWAP1 PUSH4 0xFFFFFFFF AND JUMP JUMPDEST SWAP1 PUSH2 0x4025 JUMP JUMPDEST DUP7 SLOAD PUSH1 0x1 PUSH1 0x1 PUSH1 0xA0 SHL SUB AND SWAP2 SWAP1 PUSH2 0x408C JUMP JUMPDEST PUSH1 0x5 SLOAD PUSH1 0xF DUP1 SLOAD PUSH2 0x1450 SWAP3 PUSH1 0x1 PUSH1 0x1 PUSH1 0xA0 SHL SUB AND SWAP2 PUSH2 0x1415 SWAP2 PUSH1 0x64 SWAP2 PUSH2 0x140F SWAP2 PUSH1 0x0 SWAP1 PUSH2 0x13F5 JUMPI INVALID JUMPDEST PUSH2 0x1834 JUMP JUMPDEST PUSH1 0xC PUSH1 0x1 DUP2 SLOAD DUP2 LT PUSH2 0x1463 JUMPI INVALID JUMPDEST SWAP1 PUSH1 0x0 MSTORE PUSH1 0x20 PUSH1 0x0 KECCAK256 ADD SLOAD DUP4 PUSH1 0x5 ADD SLOAD LT ISZERO DUP1 ISZERO PUSH2 0x149D JUMPI POP PUSH1 0xD PUSH1 0x0 DUP2 SLOAD DUP2 LT PUSH2 0x148A JUMPI INVALID JUMPDEST SWAP1 PUSH1 0x0 MSTORE PUSH1 0x20 PUSH1 0x0 KECCAK256 ADD SLOAD DUP4 PUSH1 0x5 ADD SLOAD GT ISZERO JUMPDEST ISZERO PUSH2 0x14E7 JUMPI PUSH2 0x14BC CALLER PUSH2 0x1415 PUSH1 0x64 PUSH2 0x140F PUSH1 0xE PUSH1 0x1 DUP2 SLOAD DUP2 LT PUSH2 0x13F5 JUMPI INVALID JUMPDEST PUSH1 0x5 SLOAD PUSH1 0xF DUP1 SLOAD PUSH2 0x1450 SWAP3 PUSH1 0x1 PUSH1 0x1 PUSH1 0xA0 SHL SUB AND SWAP2 PUSH2 0x1415 SWAP2 PUSH1 0x64 SWAP2 PUSH2 0x140F SWAP2 PUSH1 0x1 SWAP1 DUP2 LT PUSH2 0x13F5 JUMPI INVALID JUMPDEST PUSH1 0xC PUSH1 0x2 DUP2 SLOAD DUP2 LT PUSH2 0x14F5 JUMPI INVALID JUMPDEST SWAP1 PUSH1 0x0 MSTORE PUSH1 0x20 PUSH1 0x0 KECCAK256 ADD SLOAD DUP4 PUSH1 0x5 ADD SLOAD LT ISZERO DUP1 ISZERO PUSH2 0x152F JUMPI POP PUSH1 0xD PUSH1 0x1 DUP2 SLOAD DUP2 LT PUSH2 0x151C JUMPI INVALID JUMPDEST SWAP1 PUSH1 0x0 MSTORE PUSH1 0x20 PUSH1 0x0 KECCAK256 ADD SLOAD DUP4 PUSH1 0x5 ADD SLOAD GT ISZERO JUMPDEST ISZERO PUSH2 0x1579 JUMPI PUSH2 0x154E CALLER PUSH2 0x1415 PUSH1 0x64 PUSH2 0x140F PUSH1 0xE PUSH1 0x2 DUP2 SLOAD DUP2 LT PUSH2 0x13F5 JUMPI INVALID JUMPDEST PUSH1 0x5 SLOAD PUSH1 0xF DUP1 SLOAD PUSH2 0x1450 SWAP3 PUSH1 0x1 PUSH1 0x1 PUSH1 0xA0 SHL SUB AND SWAP2 PUSH2 0x1415 SWAP2 PUSH1 0x64 SWAP2 PUSH2 0x140F SWAP2 PUSH1 0x2 SWAP1 DUP2 LT PUSH2 0x13F5 JUMPI INVALID JUMPDEST PUSH1 0xC PUSH1 0x3 DUP2 SLOAD DUP2 LT PUSH2 0x1587 JUMPI INVALID JUMPDEST SWAP1 PUSH1 0x0 MSTORE PUSH1 0x20 PUSH1 0x0 KECCAK256 ADD SLOAD DUP4 PUSH1 0x5 ADD SLOAD LT ISZERO DUP1 ISZERO PUSH2 0x15C1 JUMPI POP PUSH1 0xD PUSH1 0x2 DUP2 SLOAD DUP2 LT PUSH2 0x15AE JUMPI INVALID JUMPDEST SWAP1 PUSH1 0x0 MSTORE PUSH1 0x20 PUSH1 0x0 KECCAK256 ADD SLOAD DUP4 PUSH1 0x5 ADD SLOAD GT ISZERO JUMPDEST ISZERO PUSH2 0x160B JUMPI PUSH2 0x15E0 CALLER PUSH2 0x1415 PUSH1 0x64 PUSH2 0x140F PUSH1 0xE PUSH1 0x3 DUP2 SLOAD DUP2 LT PUSH2 0x13F5 JUMPI INVALID JUMPDEST PUSH1 0x5 SLOAD PUSH1 0xF DUP1 SLOAD PUSH2 0x1450 SWAP3 PUSH1 0x1 PUSH1 0x1 PUSH1 0xA0 SHL SUB AND SWAP2 PUSH2 0x1415 SWAP2 PUSH1 0x64 SWAP2 PUSH2 0x140F SWAP2 PUSH1 0x3 SWAP1 DUP2 LT PUSH2 0x13F5 JUMPI INVALID JUMPDEST PUSH1 0xC PUSH1 0x4 DUP2 SLOAD DUP2 LT PUSH2 0x1619 JUMPI INVALID JUMPDEST SWAP1 PUSH1 0x0 MSTORE PUSH1 0x20 PUSH1 0x0 KECCAK256 ADD SLOAD DUP4 PUSH1 0x5 ADD SLOAD LT ISZERO DUP1 ISZERO PUSH2 0x1653 JUMPI POP PUSH1 0xD PUSH1 0x3 DUP2 SLOAD DUP2 LT PUSH2 0x1640 JUMPI INVALID JUMPDEST SWAP1 PUSH1 0x0 MSTORE PUSH1 0x20 PUSH1 0x0 KECCAK256 ADD SLOAD DUP4 PUSH1 0x5 ADD SLOAD GT ISZERO JUMPDEST ISZERO PUSH2 0x169D JUMPI PUSH2 0x1672 CALLER PUSH2 0x1415 PUSH1 0x64 PUSH2 0x140F PUSH1 0xE PUSH1 0x4 DUP2 SLOAD DUP2 LT PUSH2 0x13F5 JUMPI INVALID JUMPDEST PUSH1 0x5 SLOAD PUSH1 0xF DUP1 SLOAD PUSH2 0x1450 SWAP3 PUSH1 0x1 PUSH1 0x1 PUSH1 0xA0 SHL SUB AND SWAP2 PUSH2 0x1415 SWAP2 PUSH1 0x64 SWAP2 PUSH2 0x140F SWAP2 PUSH1 0x4 SWAP1 DUP2 LT PUSH2 0x13F5 JUMPI INVALID JUMPDEST PUSH1 0xC PUSH1 0x5 DUP2 SLOAD DUP2 LT PUSH2 0x16AB JUMPI INVALID JUMPDEST SWAP1 PUSH1 0x0 MSTORE PUSH1 0x20 PUSH1 0x0 KECCAK256 ADD SLOAD DUP4 PUSH1 0x5 ADD SLOAD LT ISZERO DUP1 ISZERO PUSH2 0x16E5 JUMPI POP PUSH1 0xD PUSH1 0x4 DUP2 SLOAD DUP2 LT PUSH2 0x16D2 JUMPI INVALID JUMPDEST SWAP1 PUSH1 0x0 MSTORE PUSH1 0x20 PUSH1 0x0 KECCAK256 ADD SLOAD DUP4 PUSH1 0x5 ADD SLOAD GT ISZERO JUMPDEST ISZERO PUSH2 0x1735 JUMPI PUSH2 0x1705 CALLER PUSH2 0x1415 PUSH2 0x3E8 PUSH2 0x140F PUSH1 0xE PUSH1 0x5 DUP2 SLOAD DUP2 LT PUSH2 0x13F5 JUMPI INVALID JUMPDEST PUSH2 0x1450 PUSH1 0x5 PUSH1 0x0 SWAP1 SLOAD SWAP1 PUSH2 0x100 EXP SWAP1 DIV PUSH1 0x1 PUSH1 0x1 PUSH1 0xA0 SHL SUB AND PUSH2 0x1415 PUSH2 0x3E8 PUSH2 0x140F PUSH1 0xF PUSH1 0x5 DUP2 SLOAD DUP2 LT PUSH2 0x13F5 JUMPI INVALID JUMPDEST PUSH1 0xC PUSH1 0x6 DUP2 SLOAD DUP2 LT PUSH2 0x1743 JUMPI INVALID JUMPDEST SWAP1 PUSH1 0x0 MSTORE PUSH1 0x20 PUSH1 0x0 KECCAK256 ADD SLOAD DUP4 PUSH1 0x5 ADD SLOAD LT ISZERO DUP1 ISZERO PUSH2 0x177D JUMPI POP PUSH1 0xD PUSH1 0x5 DUP2 SLOAD DUP2 LT PUSH2 0x176A JUMPI INVALID JUMPDEST SWAP1 PUSH1 0x0 MSTORE PUSH1 0x20 PUSH1 0x0 KECCAK256 ADD SLOAD DUP4 PUSH1 0x5 ADD SLOAD GT ISZERO JUMPDEST ISZERO PUSH2 0x17C9 JUMPI PUSH2 0x179D CALLER PUSH2 0x1415 PUSH2 0x2710 PUSH2 0x140F PUSH1 0xE PUSH1 0x6 DUP2 SLOAD DUP2 LT PUSH2 0x13F5 JUMPI INVALID JUMPDEST PUSH1 0x5 SLOAD PUSH1 0xF DUP1 SLOAD PUSH2 0x1450 SWAP3 PUSH1 0x1 PUSH1 0x1 PUSH1 0xA0 SHL SUB AND SWAP2 PUSH2 0x1415 SWAP2 PUSH2 0x2710 SWAP2 PUSH2 0x140F SWAP2 PUSH1 0x6 SWAP1 DUP2 LT PUSH2 0x13F5 JUMPI INVALID JUMPDEST PUSH1 0xC PUSH1 0x7 DUP2 SLOAD DUP2 LT PUSH2 0x17D7 JUMPI INVALID JUMPDEST SWAP1 PUSH1 0x0 MSTORE PUSH1 0x20 PUSH1 0x0 KECCAK256 ADD SLOAD DUP4 PUSH1 0x5 ADD SLOAD GT ISZERO PUSH2 0x1834 JUMPI PUSH2 0x1808 CALLER PUSH2 0x1415 PUSH2 0x2710 PUSH2 0x140F PUSH1 0xE PUSH1 0x7 DUP2 SLOAD DUP2 LT PUSH2 0x13F5 JUMPI INVALID JUMPDEST PUSH1 0x5 SLOAD PUSH1 0xF DUP1 SLOAD PUSH2 0x1834 SWAP3 PUSH1 0x1 PUSH1 0x1 PUSH1 0xA0 SHL SUB AND SWAP2 PUSH2 0x1415 SWAP2 PUSH2 0x2710 SWAP2 PUSH2 0x140F SWAP2 PUSH1 0x7 SWAP1 DUP2 LT PUSH2 0x13F5 JUMPI INVALID JUMPDEST PUSH1 0x3 DUP5 ADD SLOAD DUP4 SLOAD PUSH2 0x184F SWAP2 PUSH5 0xE8D4A51000 SWAP2 PUSH2 0x140F SWAP2 PUSH2 0x3C82 JUMP JUMPDEST PUSH1 0x1 DUP5 ADD SSTORE PUSH1 0x40 DUP1 MLOAD DUP8 DUP2 MSTORE SWAP1 MLOAD DUP9 SWAP2 CALLER SWAP2 PUSH32 0xF279E6A1F5E320CCA91135676D9CB6E44CA8A08C0B88342BCDB1144F6511B568 SWAP2 DUP2 SWAP1 SUB PUSH1 0x20 ADD SWAP1 LOG3 NUMBER PUSH1 0x3 DUP5 ADD SSTORE JUMPDEST POP POP PUSH1 0x1 PUSH1 0x2 SSTORE POP POP POP POP POP JUMP JUMPDEST PUSH1 0x19 DUP2 DUP2 SLOAD DUP2 LT PUSH2 0x18AD JUMPI INVALID JUMPDEST PUSH1 0x0 SWAP2 DUP3 MSTORE PUSH1 0x20 SWAP1 SWAP2 KECCAK256 PUSH1 0x4 SWAP1 SWAP2 MUL ADD DUP1 SLOAD PUSH1 0x1 DUP3 ADD SLOAD PUSH1 0x2 DUP4 ADD SLOAD PUSH1 0x3 SWAP1 SWAP4 ADD SLOAD PUSH1 0x1 PUSH1 0x1 PUSH1 0xA0 SHL SUB SWAP1 SWAP3 AND SWAP4 POP SWAP2 SWAP1 DUP5 JUMP JUMPDEST PUSH1 0x1E SLOAD DUP2 JUMP JUMPDEST PUSH1 0x0 DUP1 PUSH2 0x18F7 PUSH1 0x1 NUMBER SUB NUMBER PUSH2 0x2E38 JUMP JUMPDEST SWAP1 POP DUP3 PUSH2 0x1914 JUMPI PUSH1 0x9 SLOAD PUSH2 0x190C SWAP1 DUP3 SWAP1 PUSH2 0x3C82 JUMP JUMPDEST SWAP2 POP POP PUSH2 0x1223 JUMP JUMPDEST PUSH2 0x190C PUSH1 0x1E SLOAD PUSH2 0x140F PUSH1 0x19 PUSH1 0x1 DUP8 SUB DUP2 SLOAD DUP2 LT PUSH2 0x192D JUMPI INVALID JUMPDEST SWAP1 PUSH1 0x0 MSTORE PUSH1 0x20 PUSH1 0x0 KECCAK256 SWAP1 PUSH1 0x4 MUL ADD PUSH1 0x1 ADD SLOAD PUSH2 0x1954 PUSH1 0x9 SLOAD DUP7 PUSH2 0x3C82 SWAP1 SWAP2 SWAP1 PUSH4 0xFFFFFFFF AND JUMP JUMPDEST SWAP1 PUSH2 0x3C82 JUMP JUMPDEST PUSH2 0x1962 PUSH2 0x40DE JUMP JUMPDEST PUSH1 0x1 PUSH1 0x1 PUSH1 0xA0 SHL SUB AND PUSH2 0x1973 PUSH2 0x2E29 JUMP JUMPDEST PUSH1 0x1 PUSH1 0x1 PUSH1 0xA0 SHL SUB AND EQ PUSH2 0x19BC JUMPI PUSH1 0x40 DUP1 MLOAD PUSH3 0x461BCD PUSH1 0xE5 SHL DUP2 MSTORE PUSH1 0x20 PUSH1 0x4 DUP3 ADD DUP2 SWAP1 MSTORE PUSH1 0x24 DUP3 ADD MSTORE PUSH1 0x0 DUP1 MLOAD PUSH1 0x20 PUSH2 0x4553 DUP4 CODECOPY DUP2 MLOAD SWAP2 MSTORE PUSH1 0x44 DUP3 ADD MSTORE SWAP1 MLOAD SWAP1 DUP2 SWAP1 SUB PUSH1 0x64 ADD SWAP1 REVERT JUMPDEST PUSH1 0x1 PUSH1 0x1 PUSH1 0xA0 SHL SUB DUP3 AND PUSH1 0x0 SWAP1 DUP2 MSTORE PUSH1 0x1D PUSH1 0x20 MSTORE PUSH1 0x40 SWAP1 KECCAK256 SLOAD DUP3 SWAP1 PUSH1 0xFF AND ISZERO PUSH2 0x1A16 JUMPI PUSH1 0x40 MLOAD PUSH3 0x461BCD PUSH1 0xE5 SHL DUP2 MSTORE PUSH1 0x4 ADD DUP1 DUP1 PUSH1 0x20 ADD DUP3 DUP2 SUB DUP3 MSTORE PUSH1 0x29 DUP2 MSTORE PUSH1 0x20 ADD DUP1 PUSH2 0x44AD PUSH1 0x29 SWAP2 CODECOPY PUSH1 0x40 ADD SWAP2 POP POP PUSH1 0x40 MLOAD DUP1 SWAP2 SUB SWAP1 REVERT JUMPDEST PUSH1 0x1 PUSH1 0x1 PUSH1 0xA0 SHL SUB DUP4 AND PUSH1 0x0 SWAP1 DUP2 MSTORE PUSH1 0x1A PUSH1 0x20 MSTORE PUSH1 0x40 SWAP1 KECCAK256 SLOAD ISZERO PUSH2 0x1A6B JUMPI PUSH1 0x40 MLOAD PUSH3 0x461BCD PUSH1 0xE5 SHL DUP2 MSTORE PUSH1 0x4 ADD DUP1 DUP1 PUSH1 0x20 ADD DUP3 DUP2 SUB DUP3 MSTORE PUSH1 0x2A DUP2 MSTORE PUSH1 0x20 ADD DUP1 PUSH2 0x45B5 PUSH1 0x2A SWAP2 CODECOPY PUSH1 0x40 ADD SWAP2 POP POP PUSH1 0x40 MLOAD DUP1 SWAP2 SUB SWAP1 REVERT JUMPDEST DUP2 ISZERO PUSH2 0x1A79 JUMPI PUSH2 0x1A79 PUSH2 0x29EB JUMP JUMPDEST PUSH1 0x0 PUSH1 0x13 SLOAD NUMBER GT PUSH2 0x1A8C JUMPI PUSH1 0x13 SLOAD PUSH2 0x1A8E JUMP JUMPDEST NUMBER JUMPDEST PUSH1 0x1E SLOAD SWAP1 SWAP2 POP PUSH2 0x1A9E SWAP1 DUP7 PUSH2 0x3CE2 JUMP JUMPDEST PUSH1 0x1E SSTORE PUSH1 0x19 DUP1 SLOAD PUSH1 0x1 PUSH1 0x1 PUSH1 0xA0 SHL SUB SWAP6 DUP7 AND PUSH1 0x0 DUP2 DUP2 MSTORE PUSH1 0x1A PUSH1 0x20 SWAP1 DUP2 MSTORE PUSH1 0x40 DUP1 DUP4 KECCAK256 PUSH1 0x1 SWAP6 DUP7 ADD SWAP1 SSTORE PUSH1 0x1D DUP3 MSTORE DUP1 DUP4 KECCAK256 DUP1 SLOAD PUSH1 0xFF NOT AND DUP7 OR SWAP1 SSTORE DUP1 MLOAD PUSH1 0x80 DUP2 ADD DUP3 MSTORE SWAP4 DUP5 MSTORE SWAP1 DUP4 ADD SWAP10 DUP11 MSTORE DUP3 ADD SWAP5 DUP6 MSTORE PUSH1 0x60 DUP3 ADD DUP2 DUP2 MSTORE DUP5 SLOAD SWAP4 DUP5 ADD DUP6 SSTORE SWAP4 SWAP1 MSTORE MLOAD PUSH32 0x944998273E477B495144FB8794C914197F3CCB46BE2900F4698FD0EF743C9695 PUSH1 0x4 SWAP1 SWAP3 MUL SWAP2 DUP3 ADD DUP1 SLOAD PUSH1 0x1 PUSH1 0x1 PUSH1 0xA0 SHL SUB NOT AND SWAP2 SWAP1 SWAP8 AND OR SWAP1 SWAP6 SSTORE SWAP5 MLOAD PUSH32 0x944998273E477B495144FB8794C914197F3CCB46BE2900F4698FD0EF743C9696 DUP6 ADD SSTORE MLOAD PUSH32 0x944998273E477B495144FB8794C914197F3CCB46BE2900F4698FD0EF743C9697 DUP5 ADD SSTORE POP POP SWAP1 MLOAD PUSH32 0x944998273E477B495144FB8794C914197F3CCB46BE2900F4698FD0EF743C9698 SWAP1 SWAP2 ADD SSTORE JUMP JUMPDEST PUSH1 0x6 SLOAD PUSH1 0x1 PUSH1 0x1 PUSH1 0xA0 SHL SUB AND DUP2 JUMP JUMPDEST CALLER PUSH1 0x0 SWAP1 DUP2 MSTORE PUSH1 0x1 PUSH1 0x20 MSTORE PUSH1 0x40 SWAP1 KECCAK256 SLOAD PUSH1 0xFF AND DUP1 PUSH2 0x1BF0 JUMPI POP CALLER PUSH2 0x1BE5 PUSH2 0x2E29 JUMP JUMPDEST PUSH1 0x1 PUSH1 0x1 PUSH1 0xA0 SHL SUB AND EQ JUMPDEST PUSH2 0x1C2F JUMPI PUSH1 0x40 DUP1 MLOAD PUSH3 0x461BCD PUSH1 0xE5 SHL DUP2 MSTORE PUSH1 0x20 PUSH1 0x4 DUP3 ADD MSTORE PUSH1 0x18 PUSH1 0x24 DUP3 ADD MSTORE PUSH1 0x0 DUP1 MLOAD PUSH1 0x20 PUSH2 0x4573 DUP4 CODECOPY DUP2 MLOAD SWAP2 MSTORE PUSH1 0x44 DUP3 ADD MSTORE SWAP1 MLOAD SWAP1 DUP2 SWAP1 SUB PUSH1 0x64 ADD SWAP1 REVERT JUMPDEST PUSH1 0x10 SSTORE JUMP JUMPDEST CALLER PUSH1 0x0 SWAP1 DUP2 MSTORE PUSH1 0x1 PUSH1 0x20 MSTORE PUSH1 0x40 SWAP1 KECCAK256 SLOAD PUSH1 0xFF AND DUP1 PUSH2 0x1C61 JUMPI POP CALLER PUSH2 0x1C56 PUSH2 0x2E29 JUMP JUMPDEST PUSH1 0x1 PUSH1 0x1 PUSH1 0xA0 SHL SUB AND EQ JUMPDEST PUSH2 0x1CA0 JUMPI PUSH1 0x40 DUP1 MLOAD PUSH3 0x461BCD PUSH1 0xE5 SHL DUP2 MSTORE PUSH1 0x20 PUSH1 0x4 DUP3 ADD MSTORE PUSH1 0x18 PUSH1 0x24 DUP3 ADD MSTORE PUSH1 0x0 DUP1 MLOAD PUSH1 0x20 PUSH2 0x4573 DUP4 CODECOPY DUP2 MLOAD SWAP2 MSTORE PUSH1 0x44 DUP3 ADD MSTORE SWAP1 MLOAD SWAP1 DUP2 SWAP1 SUB PUSH1 0x64 ADD SWAP1 REVERT JUMPDEST PUSH1 0x13 SSTORE JUMP JUMPDEST CALLER PUSH1 0x0 SWAP1 DUP2 MSTORE PUSH1 0x1 PUSH1 0x20 MSTORE PUSH1 0x40 SWAP1 KECCAK256 SLOAD PUSH1 0xFF AND DUP1 PUSH2 0x1CD2 JUMPI POP CALLER PUSH2 0x1CC7 PUSH2 0x2E29 JUMP JUMPDEST PUSH1 0x1 PUSH1 0x1 PUSH1 0xA0 SHL SUB AND EQ JUMPDEST PUSH2 0x1D11 JUMPI PUSH1 0x40 DUP1 MLOAD PUSH3 0x461BCD PUSH1 0xE5 SHL DUP2 MSTORE PUSH1 0x20 PUSH1 0x4 DUP3 ADD MSTORE PUSH1 0x18 PUSH1 0x24 DUP3 ADD MSTORE PUSH1 0x0 DUP1 MLOAD PUSH1 0x20 PUSH2 0x4573 DUP4 CODECOPY DUP2 MLOAD SWAP2 MSTORE PUSH1 0x44 DUP3 ADD MSTORE SWAP1 MLOAD SWAP1 DUP2 SWAP1 SUB PUSH1 0x64 ADD SWAP1 REVERT JUMPDEST DUP1 MLOAD PUSH2 0x1D24 SWAP1 PUSH1 0x14 SWAP1 PUSH1 0x20 DUP5 ADD SWAP1 PUSH2 0x4405 JUMP JUMPDEST POP POP JUMP JUMPDEST CALLER PUSH1 0x0 SWAP1 DUP2 MSTORE PUSH1 0x1 PUSH1 0x20 MSTORE PUSH1 0x40 SWAP1 KECCAK256 SLOAD PUSH1 0xFF AND DUP1 PUSH2 0x1D55 JUMPI POP CALLER PUSH2 0x1D4A PUSH2 0x2E29 JUMP JUMPDEST PUSH1 0x1 PUSH1 0x1 PUSH1 0xA0 SHL SUB AND EQ JUMPDEST PUSH2 0x1D94 JUMPI PUSH1 0x40 DUP1 MLOAD PUSH3 0x461BCD PUSH1 0xE5 SHL DUP2 MSTORE PUSH1 0x20 PUSH1 0x4 DUP3 ADD MSTORE PUSH1 0x18 PUSH1 0x24 DUP3 ADD MSTORE PUSH1 0x0 DUP1 MLOAD PUSH1 0x20 PUSH2 0x4573 DUP4 CODECOPY DUP2 MLOAD SWAP2 MSTORE PUSH1 0x44 DUP3 ADD MSTORE SWAP1 MLOAD SWAP1 DUP2 SWAP1 SUB PUSH1 0x64 ADD SWAP1 REVERT JUMPDEST DUP1 MLOAD PUSH2 0x1D24 SWAP1 PUSH1 0xE SWAP1 PUSH1 0x20 DUP5 ADD SWAP1 PUSH2 0x4405 JUMP JUMPDEST PUSH1 0xA DUP2 DUP2 SLOAD DUP2 LT PUSH2 0x1DB4 JUMPI INVALID JUMPDEST PUSH1 0x0 SWAP2 DUP3 MSTORE PUSH1 0x20 SWAP1 SWAP2 KECCAK256 ADD SLOAD SWAP1 POP DUP2 JUMP JUMPDEST CALLER PUSH1 0x0 SWAP1 DUP2 MSTORE PUSH1 0x1 PUSH1 0x20 MSTORE PUSH1 0x40 SWAP1 KECCAK256 SLOAD PUSH1 0xFF AND DUP1 PUSH2 0x1DF2 JUMPI POP CALLER PUSH2 0x1DE7 PUSH2 0x2E29 JUMP JUMPDEST PUSH1 0x1 PUSH1 0x1 PUSH1 0xA0 SHL SUB AND EQ JUMPDEST PUSH2 0x1E31 JUMPI PUSH1 0x40 DUP1 MLOAD PUSH3 0x461BCD PUSH1 0xE5 SHL DUP2 MSTORE PUSH1 0x20 PUSH1 0x4 DUP3 ADD MSTORE PUSH1 0x18 PUSH1 0x24 DUP3 ADD MSTORE PUSH1 0x0 DUP1 MLOAD PUSH1 0x20 PUSH2 0x4573 DUP4 CODECOPY DUP2 MLOAD SWAP2 MSTORE PUSH1 0x44 DUP3 ADD MSTORE SWAP1 MLOAD SWAP1 DUP2 SWAP1 SUB PUSH1 0x64 ADD SWAP1 REVERT JUMPDEST PUSH1 0x8 DUP1 SLOAD PUSH1 0x1 PUSH1 0x1 PUSH1 0xA0 SHL SUB NOT AND PUSH1 0x1 PUSH1 0x1 PUSH1 0xA0 SHL SUB SWAP3 SWAP1 SWAP3 AND SWAP2 SWAP1 SWAP2 OR SWAP1 SSTORE JUMP JUMPDEST CALLER PUSH1 0x0 SWAP1 DUP2 MSTORE PUSH1 0x1 PUSH1 0x20 MSTORE PUSH1 0x40 SWAP1 KECCAK256 SLOAD PUSH1 0xFF AND DUP1 PUSH2 0x1E80 JUMPI POP CALLER PUSH2 0x1E75 PUSH2 0x2E29 JUMP JUMPDEST PUSH1 0x1 PUSH1 0x1 PUSH1 0xA0 SHL SUB AND EQ JUMPDEST PUSH2 0x1EBF JUMPI PUSH1 0x40 DUP1 MLOAD PUSH3 0x461BCD PUSH1 0xE5 SHL DUP2 MSTORE PUSH1 0x20 PUSH1 0x4 DUP3 ADD MSTORE PUSH1 0x18 PUSH1 0x24 DUP3 ADD MSTORE PUSH1 0x0 DUP1 MLOAD PUSH1 0x20 PUSH2 0x4573 DUP4 CODECOPY DUP2 MLOAD SWAP2 MSTORE PUSH1 0x44 DUP3 ADD MSTORE SWAP1 MLOAD SWAP1 DUP2 SWAP1 SUB PUSH1 0x64 ADD SWAP1 REVERT JUMPDEST DUP1 MLOAD PUSH2 0x1D24 SWAP1 PUSH1 0xB SWAP1 PUSH1 0x20 DUP5 ADD SWAP1 PUSH2 0x4405 JUMP JUMPDEST PUSH1 0x0 PUSH2 0x1EDC PUSH2 0x4450 JUMP JUMPDEST POP POP PUSH1 0x1 PUSH1 0x1 PUSH1 0xA0 SHL SUB AND PUSH1 0x0 SWAP1 DUP2 MSTORE PUSH1 0x1C PUSH1 0x20 SWAP1 DUP2 MSTORE PUSH1 0x40 SWAP2 DUP3 SWAP1 KECCAK256 DUP3 MLOAD PUSH1 0x60 DUP2 ADD DUP5 MSTORE DUP2 SLOAD DUP2 MSTORE PUSH1 0x2 DUP3 ADD SLOAD SWAP3 DUP2 ADD DUP4 SWAP1 MSTORE PUSH1 0x3 SWAP1 SWAP2 ADD SLOAD SWAP3 ADD SWAP2 SWAP1 SWAP2 MSTORE SWAP1 JUMP JUMPDEST PUSH1 0x13 SLOAD DUP2 JUMP JUMPDEST PUSH1 0x7 SLOAD PUSH1 0x1 PUSH1 0x1 PUSH1 0xA0 SHL SUB AND DUP2 JUMP JUMPDEST CALLER PUSH1 0x0 SWAP1 DUP2 MSTORE PUSH1 0x1 PUSH1 0x20 MSTORE PUSH1 0x40 SWAP1 KECCAK256 SLOAD PUSH1 0xFF AND DUP1 PUSH2 0x1F61 JUMPI POP CALLER PUSH2 0x1F56 PUSH2 0x2E29 JUMP JUMPDEST PUSH1 0x1 PUSH1 0x1 PUSH1 0xA0 SHL SUB AND EQ JUMPDEST PUSH2 0x1FA0 JUMPI PUSH1 0x40 DUP1 MLOAD PUSH3 0x461BCD PUSH1 0xE5 SHL DUP2 MSTORE PUSH1 0x20 PUSH1 0x4 DUP3 ADD MSTORE PUSH1 0x18 PUSH1 0x24 DUP3 ADD MSTORE PUSH1 0x0 DUP1 MLOAD PUSH1 0x20 PUSH2 0x4573 DUP4 CODECOPY DUP2 MLOAD SWAP2 MSTORE PUSH1 0x44 DUP3 ADD MSTORE SWAP1 MLOAD SWAP1 DUP2 SWAP1 SUB PUSH1 0x64 ADD SWAP1 REVERT JUMPDEST PUSH1 0x9 SSTORE JUMP JUMPDEST PUSH1 0xB DUP2 DUP2 SLOAD DUP2 LT PUSH2 0x1DB4 JUMPI INVALID JUMPDEST CALLER PUSH1 0x0 SWAP1 DUP2 MSTORE PUSH1 0x1 PUSH1 0x20 MSTORE PUSH1 0x40 SWAP1 KECCAK256 SLOAD PUSH1 0xFF AND DUP1 PUSH2 0x1FDF JUMPI POP CALLER PUSH2 0x1FD4 PUSH2 0x2E29 JUMP JUMPDEST PUSH1 0x1 PUSH1 0x1 PUSH1 0xA0 SHL SUB AND EQ JUMPDEST PUSH2 0x201E JUMPI PUSH1 0x40 DUP1 MLOAD PUSH3 0x461BCD PUSH1 0xE5 SHL DUP2 MSTORE PUSH1 0x20 PUSH1 0x4 DUP3 ADD MSTORE PUSH1 0x18 PUSH1 0x24 DUP3 ADD MSTORE PUSH1 0x0 DUP1 MLOAD PUSH1 0x20 PUSH2 0x4573 DUP4 CODECOPY DUP2 MLOAD SWAP2 MSTORE PUSH1 0x44 DUP3 ADD MSTORE SWAP1 MLOAD SWAP1 DUP2 SWAP1 SUB PUSH1 0x64 ADD SWAP1 REVERT JUMPDEST DUP1 MLOAD PUSH2 0x1D24 SWAP1 PUSH1 0xA SWAP1 PUSH1 0x20 DUP5 ADD SWAP1 PUSH2 0x4405 JUMP JUMPDEST PUSH2 0x2039 PUSH2 0x40DE JUMP JUMPDEST PUSH1 0x1 PUSH1 0x1 PUSH1 0xA0 SHL SUB AND PUSH2 0x204A PUSH2 0x2E29 JUMP JUMPDEST PUSH1 0x1 PUSH1 0x1 PUSH1 0xA0 SHL SUB AND EQ PUSH2 0x2093 JUMPI PUSH1 0x40 DUP1 MLOAD PUSH3 0x461BCD PUSH1 0xE5 SHL DUP2 MSTORE PUSH1 0x20 PUSH1 0x4 DUP3 ADD DUP2 SWAP1 MSTORE PUSH1 0x24 DUP3 ADD MSTORE PUSH1 0x0 DUP1 MLOAD PUSH1 0x20 PUSH2 0x4553 DUP4 CODECOPY DUP2 MLOAD SWAP2 MSTORE PUSH1 0x44 DUP3 ADD MSTORE SWAP1 MLOAD SWAP1 DUP2 SWAP1 SUB PUSH1 0x64 ADD SWAP1 REVERT JUMPDEST PUSH1 0x1 PUSH1 0x1 PUSH1 0xA0 SHL SUB DUP2 AND CALLER EQ ISZERO PUSH2 0x20A9 JUMPI PUSH1 0x0 DUP1 REVERT JUMPDEST PUSH1 0x1 PUSH1 0x1 PUSH1 0xA0 SHL SUB AND PUSH1 0x0 SWAP1 DUP2 MSTORE PUSH1 0x1 PUSH1 0x20 MSTORE PUSH1 0x40 SWAP1 KECCAK256 DUP1 SLOAD PUSH1 0xFF NOT AND SWAP1 SSTORE JUMP JUMPDEST CALLER PUSH1 0x0 SWAP1 DUP2 MSTORE PUSH1 0x1 PUSH1 0x20 MSTORE PUSH1 0x40 SWAP1 KECCAK256 SLOAD PUSH1 0xFF AND DUP1 PUSH2 0x20F7 JUMPI POP CALLER PUSH2 0x20EC PUSH2 0x2E29 JUMP JUMPDEST PUSH1 0x1 PUSH1 0x1 PUSH1 0xA0 SHL SUB AND EQ JUMPDEST PUSH2 0x2136 JUMPI PUSH1 0x40 DUP1 MLOAD PUSH3 0x461BCD PUSH1 0xE5 SHL DUP2 MSTORE PUSH1 0x20 PUSH1 0x4 DUP3 ADD MSTORE PUSH1 0x18 PUSH1 0x24 DUP3 ADD MSTORE PUSH1 0x0 DUP1 MLOAD PUSH1 0x20 PUSH2 0x4573 DUP4 CODECOPY DUP2 MLOAD SWAP2 MSTORE PUSH1 0x44 DUP3 ADD MSTORE SWAP1 MLOAD SWAP1 DUP2 SWAP1 SUB PUSH1 0x64 ADD SWAP1 REVERT JUMPDEST DUP1 MLOAD PUSH2 0x1D24 SWAP1 PUSH1 0xD SWAP1 PUSH1 0x20 DUP5 ADD SWAP1 PUSH2 0x4405 JUMP JUMPDEST CALLER PUSH1 0x0 SWAP1 DUP2 MSTORE PUSH1 0x1 PUSH1 0x20 MSTORE PUSH1 0x40 SWAP1 KECCAK256 SLOAD PUSH1 0xFF AND DUP1 PUSH2 0x2176 JUMPI POP CALLER PUSH2 0x216B PUSH2 0x2E29 JUMP JUMPDEST PUSH1 0x1 PUSH1 0x1 PUSH1 0xA0 SHL SUB AND EQ JUMPDEST PUSH2 0x21B5 JUMPI PUSH1 0x40 DUP1 MLOAD PUSH3 0x461BCD PUSH1 0xE5 SHL DUP2 MSTORE PUSH1 0x20 PUSH1 0x4 DUP3 ADD MSTORE PUSH1 0x18 PUSH1 0x24 DUP3 ADD MSTORE PUSH1 0x0 DUP1 MLOAD PUSH1 0x20 PUSH2 0x4573 DUP4 CODECOPY DUP2 MLOAD SWAP2 MSTORE PUSH1 0x44 DUP3 ADD MSTORE SWAP1 MLOAD SWAP1 DUP2 SWAP1 SUB PUSH1 0x64 ADD SWAP1 REVERT JUMPDEST PUSH1 0x6 DUP1 SLOAD PUSH1 0x1 PUSH1 0x1 PUSH1 0xA0 SHL SUB NOT AND PUSH1 0x1 PUSH1 0x1 PUSH1 0xA0 SHL SUB SWAP3 SWAP1 SWAP3 AND SWAP2 SWAP1 SWAP2 OR SWAP1 SSTORE JUMP JUMPDEST PUSH1 0x0 PUSH1 0x19 DUP3 DUP2 SLOAD DUP2 LT PUSH2 0x21E6 JUMPI INVALID JUMPDEST SWAP1 PUSH1 0x0 MSTORE PUSH1 0x20 PUSH1 0x0 KECCAK256 SWAP1 PUSH1 0x4 MUL ADD SWAP1 POP DUP1 PUSH1 0x2 ADD SLOAD NUMBER GT PUSH2 0x2207 JUMPI POP PUSH2 0x277C JUMP JUMPDEST DUP1 SLOAD PUSH1 0x40 DUP1 MLOAD PUSH4 0x70A08231 PUSH1 0xE0 SHL DUP2 MSTORE ADDRESS PUSH1 0x4 DUP3 ADD MSTORE SWAP1 MLOAD PUSH1 0x0 SWAP3 PUSH1 0x1 PUSH1 0x1 PUSH1 0xA0 SHL SUB AND SWAP2 PUSH4 0x70A08231 SWAP2 PUSH1 0x24 DUP1 DUP4 ADD SWAP3 PUSH1 0x20 SWAP3 SWAP2 SWAP1 DUP3 SWAP1 SUB ADD DUP2 DUP7 DUP1 EXTCODESIZE ISZERO DUP1 ISZERO PUSH2 0x2251 JUMPI PUSH1 0x0 DUP1 REVERT JUMPDEST POP GAS STATICCALL ISZERO DUP1 ISZERO PUSH2 0x2265 JUMPI RETURNDATASIZE PUSH1 0x0 DUP1 RETURNDATACOPY RETURNDATASIZE PUSH1 0x0 REVERT JUMPDEST POP POP POP POP PUSH1 0x40 MLOAD RETURNDATASIZE PUSH1 0x20 DUP2 LT ISZERO PUSH2 0x227B JUMPI PUSH1 0x0 DUP1 REVERT JUMPDEST POP MLOAD SWAP1 POP DUP1 PUSH2 0x2291 JUMPI POP NUMBER PUSH1 0x2 SWAP1 SWAP2 ADD SSTORE PUSH2 0x277C JUMP JUMPDEST PUSH1 0x0 DUP1 PUSH1 0x0 DUP1 PUSH1 0x0 PUSH2 0x22AC DUP8 PUSH1 0x2 ADD SLOAD NUMBER DUP10 PUSH1 0x1 ADD SLOAD PUSH2 0x35B8 JUMP JUMPDEST PUSH1 0x3 SLOAD PUSH1 0x40 DUP1 MLOAD PUSH4 0x40C10F19 PUSH1 0xE0 SHL DUP2 MSTORE ADDRESS PUSH1 0x4 DUP3 ADD MSTORE PUSH1 0x24 DUP2 ADD DUP8 SWAP1 MSTORE SWAP1 MLOAD SWAP7 SWAP12 POP SWAP5 SWAP10 POP SWAP3 SWAP8 POP SWAP1 SWAP6 POP SWAP4 POP PUSH1 0x1 PUSH1 0x1 PUSH1 0xA0 SHL SUB AND SWAP2 PUSH4 0x40C10F19 SWAP2 PUSH1 0x44 DUP1 DUP3 ADD SWAP3 PUSH1 0x0 SWAP3 SWAP1 SWAP2 SWAP1 DUP3 SWAP1 SUB ADD DUP2 DUP4 DUP8 DUP1 EXTCODESIZE ISZERO DUP1 ISZERO PUSH2 0x230B JUMPI PUSH1 0x0 DUP1 REVERT JUMPDEST POP GAS CALL ISZERO DUP1 ISZERO PUSH2 0x231F JUMPI RETURNDATASIZE PUSH1 0x0 DUP1 RETURNDATACOPY RETURNDATASIZE PUSH1 0x0 REVERT JUMPDEST POP POP POP POP PUSH2 0x234D PUSH2 0x2342 DUP8 PUSH2 0x140F PUSH5 0xE8D4A51000 DUP9 PUSH2 0x3C82 SWAP1 SWAP2 SWAP1 PUSH4 0xFFFFFFFF AND JUMP JUMPDEST PUSH1 0x3 DUP10 ADD SLOAD SWAP1 PUSH2 0x3CE2 JUMP JUMPDEST PUSH1 0x3 DUP9 ADD SSTORE NUMBER PUSH1 0x2 DUP9 ADD SSTORE DUP5 ISZERO PUSH2 0x245F JUMPI PUSH1 0x3 SLOAD PUSH1 0x5 SLOAD PUSH1 0x40 DUP1 MLOAD PUSH4 0x40C10F19 PUSH1 0xE0 SHL DUP2 MSTORE PUSH1 0x1 PUSH1 0x1 PUSH1 0xA0 SHL SUB SWAP3 DUP4 AND PUSH1 0x4 DUP3 ADD MSTORE PUSH1 0x24 DUP2 ADD DUP10 SWAP1 MSTORE SWAP1 MLOAD SWAP2 SWAP1 SWAP3 AND SWAP2 PUSH4 0x40C10F19 SWAP2 PUSH1 0x44 DUP1 DUP4 ADD SWAP3 PUSH1 0x0 SWAP3 SWAP2 SWAP1 DUP3 SWAP1 SUB ADD DUP2 DUP4 DUP8 DUP1 EXTCODESIZE ISZERO DUP1 ISZERO PUSH2 0x23B6 JUMPI PUSH1 0x0 DUP1 REVERT JUMPDEST POP GAS CALL ISZERO DUP1 ISZERO PUSH2 0x23CA JUMPI RETURNDATASIZE PUSH1 0x0 DUP1 RETURNDATACOPY RETURNDATASIZE PUSH1 0x0 REVERT JUMPDEST POP POP POP POP PUSH1 0x10 SLOAD NUMBER GT PUSH2 0x245F JUMPI PUSH1 0x3 SLOAD PUSH1 0x5 SLOAD PUSH1 0x1 PUSH1 0x1 PUSH1 0xA0 SHL SUB SWAP2 DUP3 AND SWAP2 PUSH4 0x282D3FDF SWAP2 AND PUSH2 0x2400 PUSH1 0x64 PUSH2 0x140F DUP11 PUSH1 0x4B PUSH2 0x3C82 JUMP JUMPDEST PUSH1 0x40 MLOAD DUP4 PUSH4 0xFFFFFFFF AND PUSH1 0xE0 SHL DUP2 MSTORE PUSH1 0x4 ADD DUP1 DUP4 PUSH1 0x1 PUSH1 0x1 PUSH1 0xA0 SHL SUB AND DUP2 MSTORE PUSH1 0x20 ADD DUP3 DUP2 MSTORE PUSH1 0x20 ADD SWAP3 POP POP POP PUSH1 0x0 PUSH1 0x40 MLOAD DUP1 DUP4 SUB DUP2 PUSH1 0x0 DUP8 DUP1 EXTCODESIZE ISZERO DUP1 ISZERO PUSH2 0x2446 JUMPI PUSH1 0x0 DUP1 REVERT JUMPDEST POP GAS CALL ISZERO DUP1 ISZERO PUSH2 0x245A JUMPI RETURNDATASIZE PUSH1 0x0 DUP1 RETURNDATACOPY RETURNDATASIZE PUSH1 0x0 REVERT JUMPDEST POP POP POP POP JUMPDEST DUP3 ISZERO PUSH2 0x2566 JUMPI PUSH1 0x3 SLOAD PUSH1 0x6 SLOAD PUSH1 0x40 DUP1 MLOAD PUSH4 0x40C10F19 PUSH1 0xE0 SHL DUP2 MSTORE PUSH1 0x1 PUSH1 0x1 PUSH1 0xA0 SHL SUB SWAP3 DUP4 AND PUSH1 0x4 DUP3 ADD MSTORE PUSH1 0x24 DUP2 ADD DUP8 SWAP1 MSTORE SWAP1 MLOAD SWAP2 SWAP1 SWAP3 AND SWAP2 PUSH4 0x40C10F19 SWAP2 PUSH1 0x44 DUP1 DUP4 ADD SWAP3 PUSH1 0x0 SWAP3 SWAP2 SWAP1 DUP3 SWAP1 SUB ADD DUP2 DUP4 DUP8 DUP1 EXTCODESIZE ISZERO DUP1 ISZERO PUSH2 0x24BD JUMPI PUSH1 0x0 DUP1 REVERT JUMPDEST POP GAS CALL ISZERO DUP1 ISZERO PUSH2 0x24D1 JUMPI RETURNDATASIZE PUSH1 0x0 DUP1 RETURNDATACOPY RETURNDATASIZE PUSH1 0x0 REVERT JUMPDEST POP POP POP POP PUSH1 0x10 SLOAD NUMBER GT PUSH2 0x2566 JUMPI PUSH1 0x3 SLOAD PUSH1 0x6 SLOAD PUSH1 0x1 PUSH1 0x1 PUSH1 0xA0 SHL SUB SWAP2 DUP3 AND SWAP2 PUSH4 0x282D3FDF SWAP2 AND PUSH2 0x2507 PUSH1 0x64 PUSH2 0x140F DUP9 PUSH1 0x2D PUSH2 0x3C82 JUMP JUMPDEST PUSH1 0x40 MLOAD DUP4 PUSH4 0xFFFFFFFF AND PUSH1 0xE0 SHL DUP2 MSTORE PUSH1 0x4 ADD DUP1 DUP4 PUSH1 0x1 PUSH1 0x1 PUSH1 0xA0 SHL SUB AND DUP2 MSTORE PUSH1 0x20 ADD DUP3 DUP2 MSTORE PUSH1 0x20 ADD SWAP3 POP POP POP PUSH1 0x0 PUSH1 0x40 MLOAD DUP1 DUP4 SUB DUP2 PUSH1 0x0 DUP8 DUP1 EXTCODESIZE ISZERO DUP1 ISZERO PUSH2 0x254D JUMPI PUSH1 0x0 DUP1 REVERT JUMPDEST POP GAS CALL ISZERO DUP1 ISZERO PUSH2 0x2561 JUMPI RETURNDATASIZE PUSH1 0x0 DUP1 RETURNDATACOPY RETURNDATASIZE PUSH1 0x0 REVERT JUMPDEST POP POP POP POP JUMPDEST DUP2 ISZERO PUSH2 0x266D JUMPI PUSH1 0x3 SLOAD PUSH1 0x7 SLOAD PUSH1 0x40 DUP1 MLOAD PUSH4 0x40C10F19 PUSH1 0xE0 SHL DUP2 MSTORE PUSH1 0x1 PUSH1 0x1 PUSH1 0xA0 SHL SUB SWAP3 DUP4 AND PUSH1 0x4 DUP3 ADD MSTORE PUSH1 0x24 DUP2 ADD DUP7 SWAP1 MSTORE SWAP1 MLOAD SWAP2 SWAP1 SWAP3 AND SWAP2 PUSH4 0x40C10F19 SWAP2 PUSH1 0x44 DUP1 DUP4 ADD SWAP3 PUSH1 0x0 SWAP3 SWAP2 SWAP1 DUP3 SWAP1 SUB ADD DUP2 DUP4 DUP8 DUP1 EXTCODESIZE ISZERO DUP1 ISZERO PUSH2 0x25C4 JUMPI PUSH1 0x0 DUP1 REVERT JUMPDEST POP GAS CALL ISZERO DUP1 ISZERO PUSH2 0x25D8 JUMPI RETURNDATASIZE PUSH1 0x0 DUP1 RETURNDATACOPY RETURNDATASIZE PUSH1 0x0 REVERT JUMPDEST POP POP POP POP PUSH1 0x10 SLOAD NUMBER GT PUSH2 0x266D JUMPI PUSH1 0x3 SLOAD PUSH1 0x7 SLOAD PUSH1 0x1 PUSH1 0x1 PUSH1 0xA0 SHL SUB SWAP2 DUP3 AND SWAP2 PUSH4 0x282D3FDF SWAP2 AND PUSH2 0x260E PUSH1 0x64 PUSH2 0x140F DUP8 PUSH1 0x55 PUSH2 0x3C82 JUMP JUMPDEST PUSH1 0x40 MLOAD DUP4 PUSH4 0xFFFFFFFF AND PUSH1 0xE0 SHL DUP2 MSTORE PUSH1 0x4 ADD DUP1 DUP4 PUSH1 0x1 PUSH1 0x1 PUSH1 0xA0 SHL SUB AND DUP2 MSTORE PUSH1 0x20 ADD DUP3 DUP2 MSTORE PUSH1 0x20 ADD SWAP3 POP POP POP PUSH1 0x0 PUSH1 0x40 MLOAD DUP1 DUP4 SUB DUP2 PUSH1 0x0 DUP8 DUP1 EXTCODESIZE ISZERO DUP1 ISZERO PUSH2 0x2654 JUMPI PUSH1 0x0 DUP1 REVERT JUMPDEST POP GAS CALL ISZERO DUP1 ISZERO PUSH2 0x2668 JUMPI RETURNDATASIZE PUSH1 0x0 DUP1 RETURNDATACOPY RETURNDATASIZE PUSH1 0x0 REVERT JUMPDEST POP POP POP POP JUMPDEST DUP1 ISZERO PUSH2 0x2774 JUMPI PUSH1 0x3 SLOAD PUSH1 0x8 SLOAD PUSH1 0x40 DUP1 MLOAD PUSH4 0x40C10F19 PUSH1 0xE0 SHL DUP2 MSTORE PUSH1 0x1 PUSH1 0x1 PUSH1 0xA0 SHL SUB SWAP3 DUP4 AND PUSH1 0x4 DUP3 ADD MSTORE PUSH1 0x24 DUP2 ADD DUP6 SWAP1 MSTORE SWAP1 MLOAD SWAP2 SWAP1 SWAP3 AND SWAP2 PUSH4 0x40C10F19 SWAP2 PUSH1 0x44 DUP1 DUP4 ADD SWAP3 PUSH1 0x0 SWAP3 SWAP2 SWAP1 DUP3 SWAP1 SUB ADD DUP2 DUP4 DUP8 DUP1 EXTCODESIZE ISZERO DUP1 ISZERO PUSH2 0x26CB JUMPI PUSH1 0x0 DUP1 REVERT JUMPDEST POP GAS CALL ISZERO DUP1 ISZERO PUSH2 0x26DF JUMPI RETURNDATASIZE PUSH1 0x0 DUP1 RETURNDATACOPY RETURNDATASIZE PUSH1 0x0 REVERT JUMPDEST POP POP POP POP PUSH1 0x10 SLOAD NUMBER GT PUSH2 0x2774 JUMPI PUSH1 0x3 SLOAD PUSH1 0x8 SLOAD PUSH1 0x1 PUSH1 0x1 PUSH1 0xA0 SHL SUB SWAP2 DUP3 AND SWAP2 PUSH4 0x282D3FDF SWAP2 AND PUSH2 0x2715 PUSH1 0x64 PUSH2 0x140F DUP7 PUSH1 0x5F PUSH2 0x3C82 JUMP JUMPDEST PUSH1 0x40 MLOAD DUP4 PUSH4 0xFFFFFFFF AND PUSH1 0xE0 SHL DUP2 MSTORE PUSH1 0x4 ADD DUP1 DUP4 PUSH1 0x1 PUSH1 0x1 PUSH1 0xA0 SHL SUB AND DUP2 MSTORE PUSH1 0x20 ADD DUP3 DUP2 MSTORE PUSH1 0x20 ADD SWAP3 POP POP POP PUSH1 0x0 PUSH1 0x40 MLOAD DUP1 DUP4 SUB DUP2 PUSH1 0x0 DUP8 DUP1 EXTCODESIZE ISZERO DUP1 ISZERO PUSH2 0x275B JUMPI PUSH1 0x0 DUP1 REVERT JUMPDEST POP GAS CALL ISZERO DUP1 ISZERO PUSH2 0x276F JUMPI RETURNDATASIZE PUSH1 0x0 DUP1 RETURNDATACOPY RETURNDATASIZE PUSH1 0x0 REVERT JUMPDEST POP POP POP POP JUMPDEST POP POP POP POP POP POP POP JUMPDEST POP JUMP JUMPDEST PUSH1 0x2 DUP1 SLOAD EQ ISZERO PUSH2 0x27D6 JUMPI PUSH1 0x40 DUP1 MLOAD PUSH3 0x461BCD PUSH1 0xE5 SHL DUP2 MSTORE PUSH1 0x20 PUSH1 0x4 DUP3 ADD MSTORE PUSH1 0x1F PUSH1 0x24 DUP3 ADD MSTORE PUSH32 0x5265656E7472616E637947756172643A207265656E7472616E742063616C6C00 PUSH1 0x44 DUP3 ADD MSTORE SWAP1 MLOAD SWAP1 DUP2 SWAP1 SUB PUSH1 0x64 ADD SWAP1 REVERT JUMPDEST PUSH1 0x2 DUP1 DUP2 SWAP1 SSTORE POP PUSH1 0x0 PUSH1 0x19 DUP3 DUP2 SLOAD DUP2 LT PUSH2 0x27EC JUMPI INVALID JUMPDEST PUSH1 0x0 SWAP2 DUP3 MSTORE PUSH1 0x20 DUP1 DUP4 KECCAK256 DUP6 DUP5 MSTORE PUSH1 0x1B DUP3 MSTORE PUSH1 0x40 DUP1 DUP6 KECCAK256 CALLER DUP7 MSTORE SWAP1 SWAP3 MSTORE SWAP1 DUP4 KECCAK256 DUP1 SLOAD PUSH1 0x4 SWAP1 SWAP4 MUL SWAP1 SWAP2 ADD SWAP4 POP SWAP2 SWAP1 PUSH2 0x282B SWAP1 PUSH1 0x64 SWAP1 PUSH2 0x140F SWAP1 PUSH1 0x4B PUSH2 0x3C82 JUMP JUMPDEST SWAP1 POP PUSH1 0x0 PUSH2 0x284C PUSH1 0x64 PUSH2 0x140F PUSH1 0x19 DUP7 PUSH1 0x0 ADD SLOAD PUSH2 0x3C82 SWAP1 SWAP2 SWAP1 PUSH4 0xFFFFFFFF AND JUMP JUMPDEST PUSH1 0x0 DUP1 DUP6 SSTORE PUSH1 0x1 DUP6 ADD SSTORE DUP5 SLOAD SWAP1 SWAP2 POP PUSH2 0x286F SWAP1 PUSH1 0x1 PUSH1 0x1 PUSH1 0xA0 SHL SUB AND CALLER DUP5 PUSH2 0x408C JUMP JUMPDEST PUSH1 0x5 SLOAD DUP5 SLOAD PUSH2 0x288B SWAP2 PUSH1 0x1 PUSH1 0x1 PUSH1 0xA0 SHL SUB SWAP2 DUP3 AND SWAP2 AND DUP4 PUSH2 0x408C JUMP JUMPDEST PUSH1 0x40 DUP1 MLOAD DUP4 DUP2 MSTORE SWAP1 MLOAD DUP7 SWAP2 CALLER SWAP2 PUSH32 0xBB757047C2B5F3974FE26B7C10F732E7BCE710B0952A71082702781E62AE0595 SWAP2 DUP2 SWAP1 SUB PUSH1 0x20 ADD SWAP1 LOG3 POP POP PUSH1 0x1 PUSH1 0x2 SSTORE POP POP POP JUMP JUMPDEST PUSH1 0x0 PUSH2 0x28D8 PUSH2 0x4450 JUMP JUMPDEST POP POP PUSH1 0x1 PUSH1 0x1 PUSH1 0xA0 SHL SUB AND PUSH1 0x0 SWAP1 DUP2 MSTORE PUSH1 0x1C PUSH1 0x20 SWAP1 DUP2 MSTORE PUSH1 0x40 SWAP2 DUP3 SWAP1 KECCAK256 DUP3 MLOAD PUSH1 0x60 DUP2 ADD DUP5 MSTORE DUP2 SLOAD DUP2 MSTORE PUSH1 0x2 DUP3 ADD SLOAD SWAP3 DUP2 ADD SWAP3 SWAP1 SWAP3 MSTORE PUSH1 0x3 ADD SLOAD SWAP2 ADD DUP2 SWAP1 MSTORE SWAP1 JUMP JUMPDEST PUSH1 0x0 JUMPDEST DUP2 MLOAD DUP2 LT ISZERO PUSH2 0x1D24 JUMPI PUSH2 0x2941 DUP3 DUP3 DUP2 MLOAD DUP2 LT PUSH2 0x2934 JUMPI INVALID JUMPDEST PUSH1 0x20 MUL PUSH1 0x20 ADD ADD MLOAD PUSH2 0x33F9 JUMP JUMPDEST PUSH1 0x1 ADD PUSH2 0x291C JUMP JUMPDEST CALLER PUSH1 0x0 SWAP1 DUP2 MSTORE PUSH1 0x1 PUSH1 0x20 MSTORE PUSH1 0x40 SWAP1 KECCAK256 SLOAD PUSH1 0xFF AND DUP1 PUSH2 0x2976 JUMPI POP CALLER PUSH2 0x296B PUSH2 0x2E29 JUMP JUMPDEST PUSH1 0x1 PUSH1 0x1 PUSH1 0xA0 SHL SUB AND EQ JUMPDEST PUSH2 0x29B5 JUMPI PUSH1 0x40 DUP1 MLOAD PUSH3 0x461BCD PUSH1 0xE5 SHL DUP2 MSTORE PUSH1 0x20 PUSH1 0x4 DUP3 ADD MSTORE PUSH1 0x18 PUSH1 0x24 DUP3 ADD MSTORE PUSH1 0x0 DUP1 MLOAD PUSH1 0x20 PUSH2 0x4573 DUP4 CODECOPY DUP2 MLOAD SWAP2 MSTORE PUSH1 0x44 DUP3 ADD MSTORE SWAP1 MLOAD SWAP1 DUP2 SWAP1 SUB PUSH1 0x64 ADD SWAP1 REVERT JUMPDEST PUSH1 0x0 SWAP3 DUP4 MSTORE PUSH1 0x1B PUSH1 0x20 SWAP1 DUP2 MSTORE PUSH1 0x40 DUP1 DUP6 KECCAK256 PUSH1 0x1 PUSH1 0x1 PUSH1 0xA0 SHL SUB SWAP1 SWAP5 AND DUP6 MSTORE SWAP3 SWAP1 MSTORE SWAP2 KECCAK256 PUSH1 0x3 ADD SSTORE JUMP JUMPDEST PUSH1 0xC DUP2 DUP2 SLOAD DUP2 LT PUSH2 0x1DB4 JUMPI INVALID JUMPDEST PUSH1 0x19 SLOAD PUSH1 0x0 JUMPDEST DUP2 DUP2 LT ISZERO PUSH2 0x1D24 JUMPI PUSH2 0x2A02 DUP2 PUSH2 0x21D7 JUMP JUMPDEST PUSH1 0x1 ADD PUSH2 0x29F1 JUMP JUMPDEST PUSH2 0x2A12 PUSH2 0x40DE JUMP JUMPDEST PUSH1 0x1 PUSH1 0x1 PUSH1 0xA0 SHL SUB AND PUSH2 0x2A23 PUSH2 0x2E29 JUMP JUMPDEST PUSH1 0x1 PUSH1 0x1 PUSH1 0xA0 SHL SUB AND EQ PUSH2 0x2A6C JUMPI PUSH1 0x40 DUP1 MLOAD PUSH3 0x461BCD PUSH1 0xE5 SHL DUP2 MSTORE PUSH1 0x20 PUSH1 0x4 DUP3 ADD DUP2 SWAP1 MSTORE PUSH1 0x24 DUP3 ADD MSTORE PUSH1 0x0 DUP1 MLOAD PUSH1 0x20 PUSH2 0x4553 DUP4 CODECOPY DUP2 MLOAD SWAP2 MSTORE PUSH1 0x44 DUP3 ADD MSTORE SWAP1 MLOAD SWAP1 DUP2 SWAP1 SUB PUSH1 0x64 ADD SWAP1 REVERT JUMPDEST DUP1 ISZERO PUSH2 0x2A7A JUMPI PUSH2 0x2A7A PUSH2 0x29EB JUMP JUMPDEST PUSH2 0x2AB7 DUP3 PUSH2 0x2AB1 PUSH1 0x19 DUP7 DUP2 SLOAD DUP2 LT PUSH2 0x2A8E JUMPI INVALID JUMPDEST SWAP1 PUSH1 0x0 MSTORE PUSH1 0x20 PUSH1 0x0 KECCAK256 SWAP1 PUSH1 0x4 MUL ADD PUSH1 0x1 ADD SLOAD PUSH1 0x1E SLOAD PUSH2 0x3FC8 SWAP1 SWAP2 SWAP1 PUSH4 0xFFFFFFFF AND JUMP JUMPDEST SWAP1 PUSH2 0x3CE2 JUMP JUMPDEST PUSH1 0x1E DUP2 SWAP1 SSTORE POP DUP2 PUSH1 0x19 DUP5 DUP2 SLOAD DUP2 LT PUSH2 0x2ACB JUMPI INVALID JUMPDEST SWAP1 PUSH1 0x0 MSTORE PUSH1 0x20 PUSH1 0x0 KECCAK256 SWAP1 PUSH1 0x4 MUL ADD PUSH1 0x1 ADD DUP2 SWAP1 SSTORE POP POP POP POP JUMP JUMPDEST PUSH2 0x2AED PUSH2 0x40DE JUMP JUMPDEST PUSH1 0x1 PUSH1 0x1 PUSH1 0xA0 SHL SUB AND PUSH2 0x2AFE PUSH2 0x2E29 JUMP JUMPDEST PUSH1 0x1 PUSH1 0x1 PUSH1 0xA0 SHL SUB AND EQ PUSH2 0x2B47 JUMPI PUSH1 0x40 DUP1 MLOAD PUSH3 0x461BCD PUSH1 0xE5 SHL DUP2 MSTORE PUSH1 0x20 PUSH1 0x4 DUP3 ADD DUP2 SWAP1 MSTORE PUSH1 0x24 DUP3 ADD MSTORE PUSH1 0x0 DUP1 MLOAD PUSH1 0x20 PUSH2 0x4553 DUP4 CODECOPY DUP2 MLOAD SWAP2 MSTORE PUSH1 0x44 DUP3 ADD MSTORE SWAP1 MLOAD SWAP1 DUP2 SWAP1 SUB PUSH1 0x64 ADD SWAP1 REVERT JUMPDEST PUSH1 0x0 DUP1 SLOAD PUSH1 0x40 MLOAD PUSH1 0x1 PUSH1 0x1 PUSH1 0xA0 SHL SUB SWAP1 SWAP2 AND SWAP1 PUSH32 0x8BE0079C531659141344CD1FD0A4F28419497F9722A3DAAFE3B4186F6B6457E0 SWAP1 DUP4 SWAP1 LOG3 PUSH1 0x0 DUP1 SLOAD PUSH1 0x1 PUSH1 0x1 PUSH1 0xA0 SHL SUB NOT AND SWAP1 SSTORE JUMP JUMPDEST CALLER PUSH1 0x0 SWAP1 DUP2 MSTORE PUSH1 0x1 PUSH1 0x20 MSTORE PUSH1 0x40 SWAP1 KECCAK256 SLOAD PUSH1 0xFF AND DUP1 PUSH2 0x2BBE JUMPI POP CALLER PUSH2 0x2BB3 PUSH2 0x2E29 JUMP JUMPDEST PUSH1 0x1 PUSH1 0x1 PUSH1 0xA0 SHL SUB AND EQ JUMPDEST PUSH2 0x2BFD JUMPI PUSH1 0x40 DUP1 MLOAD PUSH3 0x461BCD PUSH1 0xE5 SHL DUP2 MSTORE PUSH1 0x20 PUSH1 0x4 DUP3 ADD MSTORE PUSH1 0x18 PUSH1 0x24 DUP3 ADD MSTORE PUSH1 0x0 DUP1 MLOAD PUSH1 0x20 PUSH2 0x4573 DUP4 CODECOPY DUP2 MLOAD SWAP2 MSTORE PUSH1 0x44 DUP3 ADD MSTORE SWAP1 MLOAD SWAP1 DUP2 SWAP1 SUB PUSH1 0x64 ADD SWAP1 REVERT JUMPDEST PUSH1 0x11 SSTORE JUMP JUMPDEST CALLER PUSH1 0x0 SWAP1 DUP2 MSTORE PUSH1 0x1 PUSH1 0x20 MSTORE PUSH1 0x40 SWAP1 KECCAK256 SLOAD PUSH1 0xFF AND DUP1 PUSH2 0x2C2F JUMPI POP CALLER PUSH2 0x2C24 PUSH2 0x2E29 JUMP JUMPDEST PUSH1 0x1 PUSH1 0x1 PUSH1 0xA0 SHL SUB AND EQ JUMPDEST PUSH2 0x2C6E JUMPI PUSH1 0x40 DUP1 MLOAD PUSH3 0x461BCD PUSH1 0xE5 SHL DUP2 MSTORE PUSH1 0x20 PUSH1 0x4 DUP3 ADD MSTORE PUSH1 0x18 PUSH1 0x24 DUP3 ADD MSTORE PUSH1 0x0 DUP1 MLOAD PUSH1 0x20 PUSH2 0x4573 DUP4 CODECOPY DUP2 MLOAD SWAP2 MSTORE PUSH1 0x44 DUP3 ADD MSTORE SWAP1 MLOAD SWAP1 DUP2 SWAP1 SUB PUSH1 0x64 ADD SWAP1 REVERT JUMPDEST PUSH1 0x0 SWAP3 DUP4 MSTORE PUSH1 0x1B PUSH1 0x20 SWAP1 DUP2 MSTORE PUSH1 0x40 DUP1 DUP6 KECCAK256 PUSH1 0x1 PUSH1 0x1 PUSH1 0xA0 SHL SUB SWAP1 SWAP5 AND DUP6 MSTORE SWAP3 SWAP1 MSTORE SWAP2 KECCAK256 PUSH1 0x4 ADD SSTORE JUMP JUMPDEST PUSH1 0x11 SLOAD DUP2 JUMP JUMPDEST CALLER PUSH1 0x0 SWAP1 DUP2 MSTORE PUSH1 0x1 PUSH1 0x20 MSTORE PUSH1 0x40 SWAP1 KECCAK256 SLOAD PUSH1 0xFF AND DUP1 PUSH2 0x2CCA JUMPI POP CALLER PUSH2 0x2CBF PUSH2 0x2E29 JUMP JUMPDEST PUSH1 0x1 PUSH1 0x1 PUSH1 0xA0 SHL SUB AND EQ JUMPDEST PUSH2 0x2D09 JUMPI PUSH1 0x40 DUP1 MLOAD PUSH3 0x461BCD PUSH1 0xE5 SHL DUP2 MSTORE PUSH1 0x20 PUSH1 0x4 DUP3 ADD MSTORE PUSH1 0x18 PUSH1 0x24 DUP3 ADD MSTORE PUSH1 0x0 DUP1 MLOAD PUSH1 0x20 PUSH2 0x4573 DUP4 CODECOPY DUP2 MLOAD SWAP2 MSTORE PUSH1 0x44 DUP3 ADD MSTORE SWAP1 MLOAD SWAP1 DUP2 SWAP1 SUB PUSH1 0x64 ADD SWAP1 REVERT JUMPDEST DUP1 MLOAD PUSH2 0x1D24 SWAP1 PUSH1 0xC SWAP1 PUSH1 0x20 DUP5 ADD SWAP1 PUSH2 0x4405 JUMP JUMPDEST CALLER PUSH1 0x0 SWAP1 DUP2 MSTORE PUSH1 0x1 PUSH1 0x20 MSTORE PUSH1 0x40 SWAP1 KECCAK256 SLOAD PUSH1 0xFF AND DUP1 PUSH2 0x2D49 JUMPI POP CALLER PUSH2 0x2D3E PUSH2 0x2E29 JUMP JUMPDEST PUSH1 0x1 PUSH1 0x1 PUSH1 0xA0 SHL SUB AND EQ JUMPDEST PUSH2 0x2D88 JUMPI PUSH1 0x40 DUP1 MLOAD PUSH3 0x461BCD PUSH1 0xE5 SHL DUP2 MSTORE PUSH1 0x20 PUSH1 0x4 DUP3 ADD MSTORE PUSH1 0x18 PUSH1 0x24 DUP3 ADD MSTORE PUSH1 0x0 DUP1 MLOAD PUSH1 0x20 PUSH2 0x4573 DUP4 CODECOPY DUP2 MLOAD SWAP2 MSTORE PUSH1 0x44 DUP3 ADD MSTORE SWAP1 MLOAD SWAP1 DUP2 SWAP1 SUB PUSH1 0x64 ADD SWAP1 REVERT JUMPDEST DUP1 MLOAD PUSH2 0x1D24 SWAP1 PUSH1 0xF SWAP1 PUSH1 0x20 DUP5 ADD SWAP1 PUSH2 0x4405 JUMP JUMPDEST CALLER PUSH1 0x0 SWAP1 DUP2 MSTORE PUSH1 0x1 PUSH1 0x20 MSTORE PUSH1 0x40 SWAP1 KECCAK256 SLOAD PUSH1 0xFF AND DUP1 PUSH2 0x2DC8 JUMPI POP CALLER PUSH2 0x2DBD PUSH2 0x2E29 JUMP JUMPDEST PUSH1 0x1 PUSH1 0x1 PUSH1 0xA0 SHL SUB AND EQ JUMPDEST PUSH2 0x2E07 JUMPI PUSH1 0x40 DUP1 MLOAD PUSH3 0x461BCD PUSH1 0xE5 SHL DUP2 MSTORE PUSH1 0x20 PUSH1 0x4 DUP3 ADD MSTORE PUSH1 0x18 PUSH1 0x24 DUP3 ADD MSTORE PUSH1 0x0 DUP1 MLOAD PUSH1 0x20 PUSH2 0x4573 DUP4 CODECOPY DUP2 MLOAD SWAP2 MSTORE PUSH1 0x44 DUP3 ADD MSTORE SWAP1 MLOAD SWAP1 DUP2 SWAP1 SUB PUSH1 0x64 ADD SWAP1 REVERT JUMPDEST PUSH1 0x5 DUP1 SLOAD PUSH1 0x1 PUSH1 0x1 PUSH1 0xA0 SHL SUB NOT AND PUSH1 0x1 PUSH1 0x1 PUSH1 0xA0 SHL SUB SWAP3 SWAP1 SWAP3 AND SWAP2 SWAP1 SWAP2 OR SWAP1 SSTORE JUMP JUMPDEST PUSH1 0x0 SLOAD PUSH1 0x1 PUSH1 0x1 PUSH1 0xA0 SHL SUB AND SWAP1 JUMP JUMPDEST PUSH1 0x13 SLOAD PUSH1 0x0 SWAP1 DUP2 SWAP1 DUP5 LT ISZERO PUSH2 0x2E51 JUMPI PUSH1 0x0 SWAP2 POP POP PUSH2 0x2F2E JUMP JUMPDEST PUSH1 0x0 JUMPDEST PUSH1 0xB SLOAD DUP2 LT ISZERO PUSH2 0x2F2A JUMPI PUSH1 0x0 PUSH1 0xB DUP3 DUP2 SLOAD DUP2 LT PUSH2 0x2E6D JUMPI INVALID JUMPDEST SWAP1 PUSH1 0x0 MSTORE PUSH1 0x20 PUSH1 0x0 KECCAK256 ADD SLOAD SWAP1 POP PUSH1 0x1 PUSH1 0xA DUP1 SLOAD SWAP1 POP SUB DUP3 GT ISZERO PUSH2 0x2E96 JUMPI PUSH1 0x0 SWAP4 POP POP POP POP PUSH2 0x2F2E JUMP JUMPDEST DUP1 DUP6 GT PUSH2 0x2EDC JUMPI PUSH1 0x0 PUSH2 0x2EC5 PUSH1 0xA DUP5 DUP2 SLOAD DUP2 LT PUSH2 0x2EAF JUMPI INVALID JUMPDEST PUSH1 0x0 SWAP2 DUP3 MSTORE PUSH1 0x20 SWAP1 SWAP2 KECCAK256 ADD SLOAD PUSH2 0x1954 DUP9 DUP11 PUSH2 0x3FC8 JUMP JUMPDEST SWAP1 POP PUSH2 0x2ED1 DUP5 DUP3 PUSH2 0x3CE2 JUMP JUMPDEST SWAP5 POP POP POP POP POP PUSH2 0x2F2E JUMP JUMPDEST DUP1 DUP7 LT ISZERO PUSH2 0x2F21 JUMPI PUSH1 0x0 PUSH2 0x2F0C PUSH1 0xA DUP5 DUP2 SLOAD DUP2 LT PUSH2 0x2EF6 JUMPI INVALID JUMPDEST PUSH1 0x0 SWAP2 DUP3 MSTORE PUSH1 0x20 SWAP1 SWAP2 KECCAK256 ADD SLOAD PUSH2 0x1954 DUP5 DUP11 PUSH2 0x3FC8 JUMP JUMPDEST SWAP2 SWAP7 POP DUP7 SWAP2 SWAP1 POP PUSH2 0x2F1D DUP5 DUP3 PUSH2 0x3CE2 JUMP JUMPDEST SWAP4 POP POP JUMPDEST POP PUSH1 0x1 ADD PUSH2 0x2E54 JUMP JUMPDEST POP SWAP1 POP JUMPDEST SWAP3 SWAP2 POP POP JUMP JUMPDEST PUSH1 0x2 DUP1 SLOAD EQ ISZERO PUSH2 0x2F8B JUMPI PUSH1 0x40 DUP1 MLOAD PUSH3 0x461BCD PUSH1 0xE5 SHL DUP2 MSTORE PUSH1 0x20 PUSH1 0x4 DUP3 ADD MSTORE PUSH1 0x1F PUSH1 0x24 DUP3 ADD MSTORE PUSH32 0x5265656E7472616E637947756172643A207265656E7472616E742063616C6C00 PUSH1 0x44 DUP3 ADD MSTORE SWAP1 MLOAD SWAP1 DUP2 SWAP1 SUB PUSH1 0x64 ADD SWAP1 REVERT JUMPDEST PUSH1 0x2 DUP1 SSTORE DUP2 PUSH2 0x2FCB JUMPI PUSH1 0x40 MLOAD PUSH3 0x461BCD PUSH1 0xE5 SHL DUP2 MSTORE PUSH1 0x4 ADD DUP1 DUP1 PUSH1 0x20 ADD DUP3 DUP2 SUB DUP3 MSTORE PUSH1 0x36 DUP2 MSTORE PUSH1 0x20 ADD DUP1 PUSH2 0x451D PUSH1 0x36 SWAP2 CODECOPY PUSH1 0x40 ADD SWAP2 POP POP PUSH1 0x40 MLOAD DUP1 SWAP2 SUB SWAP1 REVERT JUMPDEST PUSH1 0x0 PUSH1 0x19 DUP5 DUP2 SLOAD DUP2 LT PUSH2 0x2FDA JUMPI INVALID JUMPDEST PUSH1 0x0 SWAP2 DUP3 MSTORE PUSH1 0x20 DUP1 DUP4 KECCAK256 DUP8 DUP5 MSTORE PUSH1 0x1B DUP3 MSTORE PUSH1 0x40 DUP1 DUP6 KECCAK256 CALLER DUP1 DUP8 MSTORE SWAP1 DUP5 MSTORE DUP2 DUP7 KECCAK256 PUSH1 0x5 SLOAD PUSH1 0x1 PUSH1 0x1 PUSH1 0xA0 SHL SUB SWAP1 DUP2 AND DUP9 MSTORE DUP4 DUP9 KECCAK256 SWAP1 DUP11 AND DUP9 MSTORE PUSH1 0x1C DUP7 MSTORE DUP4 DUP9 KECCAK256 SWAP3 DUP9 MSTORE DUP4 DUP9 KECCAK256 PUSH1 0x1 DUP5 ADD SWAP1 SWAP7 MSTORE SWAP3 SWAP1 SWAP7 KECCAK256 SLOAD PUSH1 0x4 SWAP6 SWAP1 SWAP6 MUL SWAP1 SWAP3 ADD SWAP6 POP SWAP3 SWAP1 SWAP2 SWAP1 ISZERO PUSH2 0x3065 JUMPI CALLER PUSH1 0x0 SWAP1 DUP2 MSTORE PUSH1 0x1 DUP4 ADD PUSH1 0x20 MSTORE PUSH1 0x40 SWAP1 KECCAK256 DUP1 SLOAD DUP9 ADD SWAP1 SSTORE PUSH1 0x3 DUP3 ADD DUP1 SLOAD DUP9 ADD SWAP1 SSTORE PUSH2 0x3094 JUMP JUMPDEST CALLER PUSH1 0x0 SWAP1 DUP2 MSTORE PUSH1 0x1 DUP1 DUP5 ADD PUSH1 0x20 MSTORE PUSH1 0x40 SWAP1 SWAP2 KECCAK256 DUP1 SLOAD DUP10 ADD SWAP1 SSTORE PUSH1 0x2 DUP4 ADD DUP1 SLOAD SWAP1 SWAP2 ADD SWAP1 SSTORE PUSH1 0x3 DUP3 ADD DUP1 SLOAD DUP9 ADD SWAP1 SSTORE JUMPDEST PUSH2 0x30AE PUSH1 0x64 PUSH2 0x140F PUSH1 0x11 SLOAD DUP11 PUSH2 0x3C82 SWAP1 SWAP2 SWAP1 PUSH4 0xFFFFFFFF AND JUMP JUMPDEST DUP2 SLOAD ADD DUP2 SSTORE PUSH2 0x30BC DUP9 PUSH2 0x21D7 JUMP JUMPDEST PUSH2 0x30C5 DUP9 PUSH2 0x3D3C JUMP JUMPDEST DUP5 SLOAD PUSH2 0x30DC SWAP1 PUSH1 0x1 PUSH1 0x1 PUSH1 0xA0 SHL SUB AND CALLER ADDRESS DUP11 PUSH2 0x40E2 JUMP JUMPDEST DUP4 SLOAD PUSH2 0x30E9 JUMPI NUMBER PUSH1 0x2 DUP6 ADD SSTORE JUMPDEST PUSH2 0x3119 PUSH2 0x3111 PUSH2 0x310A PUSH2 0x2710 PUSH2 0x140F PUSH1 0x11 SLOAD DUP13 PUSH2 0x3C82 SWAP1 SWAP2 SWAP1 PUSH4 0xFFFFFFFF AND JUMP JUMPDEST DUP10 SWAP1 PUSH2 0x3FC8 JUMP JUMPDEST DUP6 SLOAD SWAP1 PUSH2 0x3CE2 JUMP JUMPDEST DUP1 DUP6 SSTORE PUSH1 0x3 DUP7 ADD SLOAD PUSH2 0x3136 SWAP2 PUSH5 0xE8D4A51000 SWAP2 PUSH2 0x140F SWAP2 SWAP1 PUSH2 0x3C82 JUMP JUMPDEST DUP5 PUSH1 0x1 ADD DUP2 SWAP1 SSTORE POP PUSH2 0x3167 PUSH2 0x315F PUSH2 0x310A PUSH2 0x2710 PUSH2 0x140F PUSH1 0x12 SLOAD DUP13 PUSH2 0x3C82 SWAP1 SWAP2 SWAP1 PUSH4 0xFFFFFFFF AND JUMP JUMPDEST DUP5 SLOAD SWAP1 PUSH2 0x3CE2 JUMP JUMPDEST DUP1 DUP5 SSTORE PUSH1 0x3 DUP7 ADD SLOAD PUSH2 0x3184 SWAP2 PUSH5 0xE8D4A51000 SWAP2 PUSH2 0x140F SWAP2 SWAP1 PUSH2 0x3C82 JUMP JUMPDEST PUSH1 0x1 DUP5 ADD SSTORE PUSH1 0x40 DUP1 MLOAD DUP9 DUP2 MSTORE SWAP1 MLOAD DUP10 SWAP2 CALLER SWAP2 PUSH32 0x90890809C654F11D6E72A28FA60149770A0D11EC6C92319D6CEB2BB0A4EA1A15 SWAP2 DUP2 SWAP1 SUB PUSH1 0x20 ADD SWAP1 LOG3 PUSH1 0x4 DUP5 ADD SLOAD ISZERO PUSH2 0x31CF JUMPI PUSH2 0x31D6 JUMP JUMPDEST NUMBER PUSH1 0x4 DUP6 ADD SSTORE JUMPDEST POP POP NUMBER PUSH1 0x6 SWAP1 SWAP3 ADD SWAP2 SWAP1 SWAP2 SSTORE POP POP PUSH1 0x1 PUSH1 0x2 SSTORE POP POP POP JUMP JUMPDEST PUSH1 0x0 PUSH2 0x31F8 PUSH2 0x4450 JUMP JUMPDEST POP POP PUSH1 0x1 PUSH1 0x1 PUSH1 0xA0 SHL SUB AND PUSH1 0x0 SWAP1 DUP2 MSTORE PUSH1 0x1C PUSH1 0x20 SWAP1 DUP2 MSTORE PUSH1 0x40 SWAP2 DUP3 SWAP1 KECCAK256 DUP3 MLOAD PUSH1 0x60 DUP2 ADD DUP5 MSTORE DUP2 SLOAD DUP1 DUP3 MSTORE PUSH1 0x2 DUP4 ADD SLOAD SWAP4 DUP3 ADD SWAP4 SWAP1 SWAP4 MSTORE PUSH1 0x3 SWAP1 SWAP2 ADD SLOAD SWAP3 ADD SWAP2 SWAP1 SWAP2 MSTORE SWAP1 JUMP JUMPDEST PUSH1 0x1B PUSH1 0x20 MSTORE DUP2 PUSH1 0x0 MSTORE PUSH1 0x40 PUSH1 0x0 KECCAK256 PUSH1 0x20 MSTORE DUP1 PUSH1 0x0 MSTORE PUSH1 0x40 PUSH1 0x0 KECCAK256 PUSH1 0x0 SWAP2 POP SWAP2 POP POP DUP1 PUSH1 0x0 ADD SLOAD SWAP1 DUP1 PUSH1 0x1 ADD SLOAD SWAP1 DUP1 PUSH1 0x2 ADD SLOAD SWAP1 DUP1 PUSH1 0x3 ADD SLOAD SWAP1 DUP1 PUSH1 0x4 ADD SLOAD SWAP1 DUP1 PUSH1 0x5 ADD SLOAD SWAP1 DUP1 PUSH1 0x6 ADD SLOAD SWAP1 POP DUP8 JUMP JUMPDEST PUSH1 0x9 SLOAD DUP2 JUMP JUMPDEST PUSH1 0x10 SLOAD DUP2 JUMP JUMPDEST PUSH1 0x0 DUP1 PUSH1 0x19 DUP5 DUP2 SLOAD DUP2 LT PUSH2 0x32A8 JUMPI INVALID JUMPDEST PUSH1 0x0 SWAP2 DUP3 MSTORE PUSH1 0x20 DUP1 DUP4 KECCAK256 DUP8 DUP5 MSTORE PUSH1 0x1B DUP3 MSTORE PUSH1 0x40 DUP1 DUP6 KECCAK256 PUSH1 0x1 PUSH1 0x1 PUSH1 0xA0 SHL SUB DUP10 DUP2 AND DUP8 MSTORE SWAP1 DUP5 MSTORE DUP2 DUP7 KECCAK256 PUSH1 0x4 SWAP6 DUP7 MUL SWAP1 SWAP4 ADD PUSH1 0x3 DUP2 ADD SLOAD DUP2 SLOAD DUP5 MLOAD PUSH4 0x70A08231 PUSH1 0xE0 SHL DUP2 MSTORE ADDRESS SWAP9 DUP2 ADD SWAP9 SWAP1 SWAP9 MSTORE SWAP4 MLOAD SWAP2 SWAP9 POP SWAP4 SWAP7 SWAP4 SWAP6 SWAP4 SWAP5 SWAP3 SWAP1 SWAP2 AND SWAP3 PUSH4 0x70A08231 SWAP3 PUSH1 0x24 DUP1 DUP4 ADD SWAP4 SWAP2 SWAP3 DUP3 SWAP1 SUB ADD DUP2 DUP7 DUP1 EXTCODESIZE ISZERO DUP1 ISZERO PUSH2 0x3326 JUMPI PUSH1 0x0 DUP1 REVERT JUMPDEST POP GAS STATICCALL ISZERO DUP1 ISZERO PUSH2 0x333A JUMPI RETURNDATASIZE PUSH1 0x0 DUP1 RETURNDATACOPY RETURNDATASIZE PUSH1 0x0 REVERT JUMPDEST POP POP POP POP PUSH1 0x40 MLOAD RETURNDATASIZE PUSH1 0x20 DUP2 LT ISZERO PUSH2 0x3350 JUMPI PUSH1 0x0 DUP1 REVERT JUMPDEST POP MLOAD PUSH1 0x2 DUP6 ADD SLOAD SWAP1 SWAP2 POP NUMBER GT DUP1 ISZERO PUSH2 0x3368 JUMPI POP PUSH1 0x0 DUP2 GT JUMPDEST ISZERO PUSH2 0x33AD JUMPI PUSH1 0x0 PUSH2 0x3382 DUP6 PUSH1 0x2 ADD SLOAD NUMBER DUP8 PUSH1 0x1 ADD SLOAD PUSH2 0x35B8 JUMP JUMPDEST POP SWAP2 SWAP4 POP PUSH2 0x33A9 SWAP3 POP PUSH2 0x33A2 SWAP2 POP DUP5 SWAP1 POP PUSH2 0x140F DUP5 PUSH5 0xE8D4A51000 PUSH2 0x3C82 JUMP JUMPDEST DUP5 SWAP1 PUSH2 0x3CE2 JUMP JUMPDEST SWAP3 POP POP JUMPDEST PUSH2 0x33DB DUP4 PUSH1 0x1 ADD SLOAD PUSH2 0x33D5 PUSH5 0xE8D4A51000 PUSH2 0x140F DUP7 DUP9 PUSH1 0x0 ADD SLOAD PUSH2 0x3C82 SWAP1 SWAP2 SWAP1 PUSH4 0xFFFFFFFF AND JUMP JUMPDEST SWAP1 PUSH2 0x3FC8 JUMP JUMPDEST SWAP8 SWAP7 POP POP POP POP POP POP POP JUMP JUMPDEST PUSH1 0x17 SLOAD DUP2 JUMP JUMPDEST PUSH1 0x14 DUP2 DUP2 SLOAD DUP2 LT PUSH2 0x1DB4 JUMPI INVALID JUMPDEST PUSH2 0x3402 DUP2 PUSH2 0x21D7 JUMP JUMPDEST PUSH2 0x277C DUP2 PUSH2 0x3D3C JUMP JUMPDEST CALLER PUSH1 0x0 SWAP1 DUP2 MSTORE PUSH1 0x1 PUSH1 0x20 MSTORE PUSH1 0x40 SWAP1 KECCAK256 SLOAD PUSH1 0xFF AND DUP1 PUSH2 0x3438 JUMPI POP CALLER PUSH2 0x342D PUSH2 0x2E29 JUMP JUMPDEST PUSH1 0x1 PUSH1 0x1 PUSH1 0xA0 SHL SUB AND EQ JUMPDEST PUSH2 0x3477 JUMPI PUSH1 0x40 DUP1 MLOAD PUSH3 0x461BCD PUSH1 0xE5 SHL DUP2 MSTORE PUSH1 0x20 PUSH1 0x4 DUP3 ADD MSTORE PUSH1 0x18 PUSH1 0x24 DUP3 ADD MSTORE PUSH1 0x0 DUP1 MLOAD PUSH1 0x20 PUSH2 0x4573 DUP4 CODECOPY DUP2 MLOAD SWAP2 MSTORE PUSH1 0x44 DUP3 ADD MSTORE SWAP1 MLOAD SWAP1 DUP2 SWAP1 SUB PUSH1 0x64 ADD SWAP1 REVERT JUMPDEST PUSH1 0x15 SSTORE JUMP JUMPDEST PUSH1 0x1 PUSH1 0x20 MSTORE PUSH1 0x0 SWAP1 DUP2 MSTORE PUSH1 0x40 SWAP1 KECCAK256 SLOAD PUSH1 0xFF AND DUP2 JUMP JUMPDEST PUSH1 0xF DUP2 DUP2 SLOAD DUP2 LT PUSH2 0x1DB4 JUMPI INVALID JUMPDEST PUSH1 0x12 SLOAD DUP2 JUMP JUMPDEST CALLER PUSH1 0x0 SWAP1 DUP2 MSTORE PUSH1 0x1 PUSH1 0x20 MSTORE PUSH1 0x40 SWAP1 KECCAK256 SLOAD PUSH1 0xFF AND DUP1 PUSH2 0x34D1 JUMPI POP CALLER PUSH2 0x34C6 PUSH2 0x2E29 JUMP JUMPDEST PUSH1 0x1 PUSH1 0x1 PUSH1 0xA0 SHL SUB AND EQ JUMPDEST PUSH2 0x3510 JUMPI PUSH1 0x40 DUP1 MLOAD PUSH3 0x461BCD PUSH1 0xE5 SHL DUP2 MSTORE PUSH1 0x20 PUSH1 0x4 DUP3 ADD MSTORE PUSH1 0x18 PUSH1 0x24 DUP3 ADD MSTORE PUSH1 0x0 DUP1 MLOAD PUSH1 0x20 PUSH2 0x4573 DUP4 CODECOPY DUP2 MLOAD SWAP2 MSTORE PUSH1 0x44 DUP3 ADD MSTORE SWAP1 MLOAD SWAP1 DUP2 SWAP1 SUB PUSH1 0x64 ADD SWAP1 REVERT JUMPDEST PUSH1 0x17 SSTORE JUMP JUMPDEST PUSH1 0x18 SLOAD DUP2 JUMP JUMPDEST CALLER PUSH1 0x0 SWAP1 DUP2 MSTORE PUSH1 0x1 PUSH1 0x20 MSTORE PUSH1 0x40 SWAP1 KECCAK256 SLOAD PUSH1 0xFF AND DUP1 PUSH2 0x3548 JUMPI POP CALLER PUSH2 0x353D PUSH2 0x2E29 JUMP JUMPDEST PUSH1 0x1 PUSH1 0x1 PUSH1 0xA0 SHL SUB AND EQ JUMPDEST PUSH2 0x3587 JUMPI PUSH1 0x40 DUP1 MLOAD PUSH3 0x461BCD PUSH1 0xE5 SHL DUP2 MSTORE PUSH1 0x20 PUSH1 0x4 DUP3 ADD MSTORE PUSH1 0x18 PUSH1 0x24 DUP3 ADD MSTORE PUSH1 0x0 DUP1 MLOAD PUSH1 0x20 PUSH2 0x4573 DUP4 CODECOPY DUP2 MLOAD SWAP2 MSTORE PUSH1 0x44 DUP3 ADD MSTORE SWAP1 MLOAD SWAP1 DUP2 SWAP1 SUB PUSH1 0x64 ADD SWAP1 REVERT JUMPDEST PUSH1 0x7 DUP1 SLOAD PUSH1 0x1 PUSH1 0x1 PUSH1 0xA0 SHL SUB NOT AND PUSH1 0x1 PUSH1 0x1 PUSH1 0xA0 SHL SUB SWAP3 SWAP1 SWAP3 AND SWAP2 SWAP1 SWAP2 OR SWAP1 SSTORE JUMP JUMPDEST PUSH1 0x4 SLOAD PUSH1 0x1 PUSH1 0x1 PUSH1 0xA0 SHL SUB AND DUP2 JUMP JUMPDEST PUSH1 0x0 DUP1 PUSH1 0x0 DUP1 PUSH1 0x0 DUP1 PUSH2 0x35CB DUP10 DUP10 PUSH2 0x2E38 JUMP JUMPDEST SWAP1 POP PUSH1 0x0 PUSH2 0x35EE PUSH1 0x1E SLOAD PUSH2 0x140F DUP11 PUSH2 0x1954 PUSH1 0x9 SLOAD DUP8 PUSH2 0x3C82 SWAP1 SWAP2 SWAP1 PUSH4 0xFFFFFFFF AND JUMP JUMPDEST SWAP1 POP PUSH1 0x0 PUSH2 0x36E6 PUSH1 0x3 PUSH1 0x0 SWAP1 SLOAD SWAP1 PUSH2 0x100 EXP SWAP1 DIV PUSH1 0x1 PUSH1 0x1 PUSH1 0xA0 SHL SUB AND PUSH1 0x1 PUSH1 0x1 PUSH1 0xA0 SHL SUB AND PUSH4 0x18160DDD PUSH1 0x40 MLOAD DUP2 PUSH4 0xFFFFFFFF AND PUSH1 0xE0 SHL DUP2 MSTORE PUSH1 0x4 ADD PUSH1 0x20 PUSH1 0x40 MLOAD DUP1 DUP4 SUB DUP2 DUP7 DUP1 EXTCODESIZE ISZERO DUP1 ISZERO PUSH2 0x3643 JUMPI PUSH1 0x0 DUP1 REVERT JUMPDEST POP GAS STATICCALL ISZERO DUP1 ISZERO PUSH2 0x3657 JUMPI RETURNDATASIZE PUSH1 0x0 DUP1 RETURNDATACOPY RETURNDATASIZE PUSH1 0x0 REVERT JUMPDEST POP POP POP POP PUSH1 0x40 MLOAD RETURNDATASIZE PUSH1 0x20 DUP2 LT ISZERO PUSH2 0x366D JUMPI PUSH1 0x0 DUP1 REVERT JUMPDEST POP MLOAD PUSH1 0x3 SLOAD PUSH1 0x40 DUP1 MLOAD PUSH4 0x1AA93A75 PUSH1 0xE1 SHL DUP2 MSTORE SWAP1 MLOAD PUSH1 0x1 PUSH1 0x1 PUSH1 0xA0 SHL SUB SWAP1 SWAP3 AND SWAP2 PUSH4 0x355274EA SWAP2 PUSH1 0x4 DUP1 DUP3 ADD SWAP3 PUSH1 0x20 SWAP3 SWAP1 SWAP2 SWAP1 DUP3 SWAP1 SUB ADD DUP2 DUP7 DUP1 EXTCODESIZE ISZERO DUP1 ISZERO PUSH2 0x36B4 JUMPI PUSH1 0x0 DUP1 REVERT JUMPDEST POP GAS STATICCALL ISZERO DUP1 ISZERO PUSH2 0x36C8 JUMPI RETURNDATASIZE PUSH1 0x0 DUP1 RETURNDATACOPY RETURNDATASIZE PUSH1 0x0 REVERT JUMPDEST POP POP POP POP PUSH1 0x40 MLOAD RETURNDATASIZE PUSH1 0x20 DUP2 LT ISZERO PUSH2 0x36DE JUMPI PUSH1 0x0 DUP1 REVERT JUMPDEST POP MLOAD SWAP1 PUSH2 0x3FC8 JUMP JUMPDEST SWAP1 POP DUP2 DUP2 LT ISZERO PUSH2 0x3708 JUMPI PUSH1 0x0 SWAP8 POP DUP1 SWAP7 POP PUSH1 0x0 SWAP6 POP PUSH1 0x0 SWAP5 POP PUSH1 0x0 SWAP4 POP PUSH2 0x377C JUMP JUMPDEST PUSH2 0x3722 PUSH1 0x64 PUSH2 0x140F PUSH1 0x15 SLOAD DUP6 PUSH2 0x3C82 SWAP1 SWAP2 SWAP1 PUSH4 0xFFFFFFFF AND JUMP JUMPDEST SWAP8 POP DUP2 SWAP7 POP PUSH2 0x3741 PUSH1 0x64 PUSH2 0x140F PUSH1 0x16 SLOAD DUP6 PUSH2 0x3C82 SWAP1 SWAP2 SWAP1 PUSH4 0xFFFFFFFF AND JUMP JUMPDEST SWAP6 POP PUSH2 0x375D PUSH1 0x64 PUSH2 0x140F PUSH1 0x17 SLOAD DUP6 PUSH2 0x3C82 SWAP1 SWAP2 SWAP1 PUSH4 0xFFFFFFFF AND JUMP JUMPDEST SWAP5 POP PUSH2 0x3779 PUSH1 0x64 PUSH2 0x140F PUSH1 0x18 SLOAD DUP6 PUSH2 0x3C82 SWAP1 SWAP2 SWAP1 PUSH4 0xFFFFFFFF AND JUMP JUMPDEST SWAP4 POP JUMPDEST POP POP POP SWAP4 SWAP8 SWAP3 SWAP7 POP SWAP4 POP SWAP4 POP JUMP JUMPDEST PUSH1 0xD DUP2 DUP2 SLOAD DUP2 LT PUSH2 0x1DB4 JUMPI INVALID JUMPDEST PUSH1 0x1D PUSH1 0x20 MSTORE PUSH1 0x0 SWAP1 DUP2 MSTORE PUSH1 0x40 SWAP1 KECCAK256 SLOAD PUSH1 0xFF AND DUP2 JUMP JUMPDEST PUSH1 0x1A PUSH1 0x20 MSTORE PUSH1 0x0 SWAP1 DUP2 MSTORE PUSH1 0x40 SWAP1 KECCAK256 SLOAD DUP2 JUMP JUMPDEST PUSH2 0x37C6 PUSH2 0x40DE JUMP JUMPDEST PUSH1 0x1 PUSH1 0x1 PUSH1 0xA0 SHL SUB AND PUSH2 0x37D7 PUSH2 0x2E29 JUMP JUMPDEST PUSH1 0x1 PUSH1 0x1 PUSH1 0xA0 SHL SUB AND EQ PUSH2 0x3820 JUMPI PUSH1 0x40 DUP1 MLOAD PUSH3 0x461BCD PUSH1 0xE5 SHL DUP2 MSTORE PUSH1 0x20 PUSH1 0x4 DUP3 ADD DUP2 SWAP1 MSTORE PUSH1 0x24 DUP3 ADD MSTORE PUSH1 0x0 DUP1 MLOAD PUSH1 0x20 PUSH2 0x4553 DUP4 CODECOPY DUP2 MLOAD SWAP2 MSTORE PUSH1 0x44 DUP3 ADD MSTORE SWAP1 MLOAD SWAP1 DUP2 SWAP1 SUB PUSH1 0x64 ADD SWAP1 REVERT JUMPDEST PUSH1 0x1 PUSH1 0x1 PUSH1 0xA0 SHL SUB AND PUSH1 0x0 SWAP1 DUP2 MSTORE PUSH1 0x1 PUSH1 0x20 DUP2 SWAP1 MSTORE PUSH1 0x40 SWAP1 SWAP2 KECCAK256 DUP1 SLOAD PUSH1 0xFF NOT AND SWAP1 SWAP2 OR SWAP1 SSTORE JUMP JUMPDEST PUSH1 0xE DUP2 DUP2 SLOAD DUP2 LT PUSH2 0x1DB4 JUMPI INVALID JUMPDEST PUSH1 0x5 SLOAD PUSH1 0x1 PUSH1 0x1 PUSH1 0xA0 SHL SUB AND DUP2 JUMP JUMPDEST PUSH1 0x1C PUSH1 0x20 MSTORE PUSH1 0x0 SWAP1 DUP2 MSTORE PUSH1 0x40 SWAP1 KECCAK256 DUP1 SLOAD PUSH1 0x2 DUP3 ADD SLOAD PUSH1 0x3 SWAP1 SWAP3 ADD SLOAD SWAP1 SWAP2 SWAP1 DUP4 JUMP JUMPDEST PUSH1 0x1 PUSH1 0x1 PUSH1 0xA0 SHL SUB SWAP2 DUP3 AND PUSH1 0x0 SWAP1 DUP2 MSTORE PUSH1 0x1C PUSH1 0x20 SWAP1 DUP2 MSTORE PUSH1 0x40 DUP1 DUP4 KECCAK256 SWAP4 SWAP1 SWAP5 AND DUP3 MSTORE PUSH1 0x1 SWAP1 SWAP3 ADD SWAP1 SWAP2 MSTORE KECCAK256 SLOAD SWAP1 JUMP JUMPDEST CALLER PUSH1 0x0 SWAP1 DUP2 MSTORE PUSH1 0x1 PUSH1 0x20 MSTORE PUSH1 0x40 SWAP1 KECCAK256 SLOAD PUSH1 0xFF AND DUP1 PUSH2 0x38E0 JUMPI POP CALLER PUSH2 0x38D5 PUSH2 0x2E29 JUMP JUMPDEST PUSH1 0x1 PUSH1 0x1 PUSH1 0xA0 SHL SUB AND EQ JUMPDEST PUSH2 0x391F JUMPI PUSH1 0x40 DUP1 MLOAD PUSH3 0x461BCD PUSH1 0xE5 SHL DUP2 MSTORE PUSH1 0x20 PUSH1 0x4 DUP3 ADD MSTORE PUSH1 0x18 PUSH1 0x24 DUP3 ADD MSTORE PUSH1 0x0 DUP1 MLOAD PUSH1 0x20 PUSH2 0x4573 DUP4 CODECOPY DUP2 MLOAD SWAP2 MSTORE PUSH1 0x44 DUP3 ADD MSTORE SWAP1 MLOAD SWAP1 DUP2 SWAP1 SUB PUSH1 0x64 ADD SWAP1 REVERT JUMPDEST PUSH1 0x18 SSTORE JUMP JUMPDEST PUSH1 0x8 SLOAD PUSH1 0x1 PUSH1 0x1 PUSH1 0xA0 SHL SUB AND DUP2 JUMP JUMPDEST PUSH1 0x15 SLOAD DUP2 JUMP JUMPDEST CALLER PUSH1 0x0 SWAP1 DUP2 MSTORE PUSH1 0x1 PUSH1 0x20 MSTORE PUSH1 0x40 SWAP1 KECCAK256 SLOAD PUSH1 0xFF AND DUP1 PUSH2 0x3966 JUMPI POP CALLER PUSH2 0x395B PUSH2 0x2E29 JUMP JUMPDEST PUSH1 0x1 PUSH1 0x1 PUSH1 0xA0 SHL SUB AND EQ JUMPDEST PUSH2 0x39A5 JUMPI PUSH1 0x40 DUP1 MLOAD PUSH3 0x461BCD PUSH1 0xE5 SHL DUP2 MSTORE PUSH1 0x20 PUSH1 0x4 DUP3 ADD MSTORE PUSH1 0x18 PUSH1 0x24 DUP3 ADD MSTORE PUSH1 0x0 DUP1 MLOAD PUSH1 0x20 PUSH2 0x4573 DUP4 CODECOPY DUP2 MLOAD SWAP2 MSTORE PUSH1 0x44 DUP3 ADD MSTORE SWAP1 MLOAD SWAP1 DUP2 SWAP1 SUB PUSH1 0x64 ADD SWAP1 REVERT JUMPDEST PUSH1 0x3 SLOAD PUSH1 0x40 DUP1 MLOAD PUSH4 0xF2FDE38B PUSH1 0xE0 SHL DUP2 MSTORE PUSH1 0x1 PUSH1 0x1 PUSH1 0xA0 SHL SUB DUP5 DUP2 AND PUSH1 0x4 DUP4 ADD MSTORE SWAP2 MLOAD SWAP2 SWAP1 SWAP3 AND SWAP2 PUSH4 0xF2FDE38B SWAP2 PUSH1 0x24 DUP1 DUP4 ADD SWAP3 PUSH1 0x0 SWAP3 SWAP2 SWAP1 DUP3 SWAP1 SUB ADD DUP2 DUP4 DUP8 DUP1 EXTCODESIZE ISZERO DUP1 ISZERO PUSH2 0x39F3 JUMPI PUSH1 0x0 DUP1 REVERT JUMPDEST POP GAS CALL ISZERO DUP1 ISZERO PUSH2 0x3A07 JUMPI RETURNDATASIZE PUSH1 0x0 DUP1 RETURNDATACOPY RETURNDATASIZE PUSH1 0x0 REVERT JUMPDEST POP POP POP POP POP JUMP JUMPDEST PUSH2 0x3A16 PUSH2 0x40DE JUMP JUMPDEST PUSH1 0x1 PUSH1 0x1 PUSH1 0xA0 SHL SUB AND PUSH2 0x3A27 PUSH2 0x2E29 JUMP JUMPDEST PUSH1 0x1 PUSH1 0x1 PUSH1 0xA0 SHL SUB AND EQ PUSH2 0x3A70 JUMPI PUSH1 0x40 DUP1 MLOAD PUSH3 0x461BCD PUSH1 0xE5 SHL DUP2 MSTORE PUSH1 0x20 PUSH1 0x4 DUP3 ADD DUP2 SWAP1 MSTORE PUSH1 0x24 DUP3 ADD MSTORE PUSH1 0x0 DUP1 MLOAD PUSH1 0x20 PUSH2 0x4553 DUP4 CODECOPY DUP2 MLOAD SWAP2 MSTORE PUSH1 0x44 DUP3 ADD MSTORE SWAP1 MLOAD SWAP1 DUP2 SWAP1 SUB PUSH1 0x64 ADD SWAP1 REVERT JUMPDEST PUSH1 0x1 PUSH1 0x1 PUSH1 0xA0 SHL SUB DUP2 AND PUSH2 0x3AB5 JUMPI PUSH1 0x40 MLOAD PUSH3 0x461BCD PUSH1 0xE5 SHL DUP2 MSTORE PUSH1 0x4 ADD DUP1 DUP1 PUSH1 0x20 ADD DUP3 DUP2 SUB DUP3 MSTORE PUSH1 0x26 DUP2 MSTORE PUSH1 0x20 ADD DUP1 PUSH2 0x4487 PUSH1 0x26 SWAP2 CODECOPY PUSH1 0x40 ADD SWAP2 POP POP PUSH1 0x40 MLOAD DUP1 SWAP2 SUB SWAP1 REVERT JUMPDEST PUSH1 0x0 DUP1 SLOAD PUSH1 0x40 MLOAD PUSH1 0x1 PUSH1 0x1 PUSH1 0xA0 SHL SUB DUP1 DUP6 AND SWAP4 SWAP3 AND SWAP2 PUSH32 0x8BE0079C531659141344CD1FD0A4F28419497F9722A3DAAFE3B4186F6B6457E0 SWAP2 LOG3 PUSH1 0x0 DUP1 SLOAD PUSH1 0x1 PUSH1 0x1 PUSH1 0xA0 SHL SUB NOT AND PUSH1 0x1 PUSH1 0x1 PUSH1 0xA0 SHL SUB SWAP3 SWAP1 SWAP3 AND SWAP2 SWAP1 SWAP2 OR SWAP1 SSTORE JUMP JUMPDEST CALLER PUSH1 0x0 SWAP1 DUP2 MSTORE PUSH1 0x1 PUSH1 0x20 MSTORE PUSH1 0x40 SWAP1 KECCAK256 SLOAD PUSH1 0xFF AND DUP1 PUSH2 0x3B3D JUMPI POP CALLER PUSH2 0x3B32 PUSH2 0x2E29 JUMP JUMPDEST PUSH1 0x1 PUSH1 0x1 PUSH1 0xA0 SHL SUB AND EQ JUMPDEST PUSH2 0x3B7C JUMPI PUSH1 0x40 DUP1 MLOAD PUSH3 0x461BCD PUSH1 0xE5 SHL DUP2 MSTORE PUSH1 0x20 PUSH1 0x4 DUP3 ADD MSTORE PUSH1 0x18 PUSH1 0x24 DUP3 ADD MSTORE PUSH1 0x0 DUP1 MLOAD PUSH1 0x20 PUSH2 0x4573 DUP4 CODECOPY DUP2 MLOAD SWAP2 MSTORE PUSH1 0x44 DUP3 ADD MSTORE SWAP1 MLOAD SWAP1 DUP2 SWAP1 SUB PUSH1 0x64 ADD SWAP1 REVERT JUMPDEST PUSH1 0x16 SSTORE JUMP JUMPDEST PUSH1 0x13 SLOAD PUSH1 0x0 SWAP1 DUP2 SWAP1 DUP5 LT ISZERO PUSH2 0x3B9A JUMPI PUSH1 0x64 SWAP2 POP POP PUSH2 0x2F2E JUMP JUMPDEST PUSH1 0x0 JUMPDEST PUSH1 0xB SLOAD DUP2 LT ISZERO PUSH2 0x2F2A JUMPI PUSH1 0x0 PUSH1 0xB DUP3 DUP2 SLOAD DUP2 LT PUSH2 0x3BB6 JUMPI INVALID JUMPDEST SWAP1 PUSH1 0x0 MSTORE PUSH1 0x20 PUSH1 0x0 KECCAK256 ADD SLOAD SWAP1 POP PUSH1 0x1 PUSH1 0x14 DUP1 SLOAD SWAP1 POP SUB DUP3 GT ISZERO PUSH2 0x3BDF JUMPI PUSH1 0x0 SWAP4 POP POP POP POP PUSH2 0x2F2E JUMP JUMPDEST DUP1 DUP6 GT PUSH2 0x3C08 JUMPI PUSH1 0x14 DUP3 DUP2 SLOAD DUP2 LT PUSH2 0x3BF3 JUMPI INVALID JUMPDEST SWAP1 PUSH1 0x0 MSTORE PUSH1 0x20 PUSH1 0x0 KECCAK256 ADD SLOAD SWAP4 POP POP POP POP PUSH2 0x2F2E JUMP JUMPDEST POP PUSH1 0x1 ADD PUSH2 0x3B9D JUMP JUMPDEST CALLER PUSH1 0x0 SWAP1 DUP2 MSTORE PUSH1 0x1 PUSH1 0x20 MSTORE PUSH1 0x40 SWAP1 KECCAK256 SLOAD PUSH1 0xFF AND DUP1 PUSH2 0x3C3E JUMPI POP CALLER PUSH2 0x3C33 PUSH2 0x2E29 JUMP JUMPDEST PUSH1 0x1 PUSH1 0x1 PUSH1 0xA0 SHL SUB AND EQ JUMPDEST PUSH2 0x3C7D JUMPI PUSH1 0x40 DUP1 MLOAD PUSH3 0x461BCD PUSH1 0xE5 SHL DUP2 MSTORE PUSH1 0x20 PUSH1 0x4 DUP3 ADD MSTORE PUSH1 0x18 PUSH1 0x24 DUP3 ADD MSTORE PUSH1 0x0 DUP1 MLOAD PUSH1 0x20 PUSH2 0x4573 DUP4 CODECOPY DUP2 MLOAD SWAP2 MSTORE PUSH1 0x44 DUP3 ADD MSTORE SWAP1 MLOAD SWAP1 DUP2 SWAP1 SUB PUSH1 0x64 ADD SWAP1 REVERT JUMPDEST PUSH1 0x12 SSTORE JUMP JUMPDEST PUSH1 0x0 DUP3 PUSH2 0x3C91 JUMPI POP PUSH1 0x0 PUSH2 0x2F2E JUMP JUMPDEST DUP3 DUP3 MUL DUP3 DUP5 DUP3 DUP2 PUSH2 0x3C9E JUMPI INVALID JUMPDEST DIV EQ PUSH2 0x3CDB JUMPI PUSH1 0x40 MLOAD PUSH3 0x461BCD PUSH1 0xE5 SHL DUP2 MSTORE PUSH1 0x4 ADD DUP1 DUP1 PUSH1 0x20 ADD DUP3 DUP2 SUB DUP3 MSTORE PUSH1 0x21 DUP2 MSTORE PUSH1 0x20 ADD DUP1 PUSH2 0x44FC PUSH1 0x21 SWAP2 CODECOPY PUSH1 0x40 ADD SWAP2 POP POP PUSH1 0x40 MLOAD DUP1 SWAP2 SUB SWAP1 REVERT JUMPDEST SWAP4 SWAP3 POP POP POP JUMP JUMPDEST PUSH1 0x0 DUP3 DUP3 ADD DUP4 DUP2 LT ISZERO PUSH2 0x3CDB JUMPI PUSH1 0x40 DUP1 MLOAD PUSH3 0x461BCD PUSH1 0xE5 SHL DUP2 MSTORE PUSH1 0x20 PUSH1 0x4 DUP3 ADD MSTORE PUSH1 0x1B PUSH1 0x24 DUP3 ADD MSTORE PUSH32 0x536166654D6174683A206164646974696F6E206F766572666C6F770000000000 PUSH1 0x44 DUP3 ADD MSTORE SWAP1 MLOAD SWAP1 DUP2 SWAP1 SUB PUSH1 0x64 ADD SWAP1 REVERT JUMPDEST PUSH1 0x0 PUSH1 0x19 DUP3 DUP2 SLOAD DUP2 LT PUSH2 0x3D4B JUMPI INVALID JUMPDEST PUSH1 0x0 SWAP2 DUP3 MSTORE PUSH1 0x20 DUP1 DUP4 KECCAK256 DUP6 DUP5 MSTORE PUSH1 0x1B DUP3 MSTORE PUSH1 0x40 DUP1 DUP6 KECCAK256 CALLER DUP7 MSTORE SWAP1 SWAP3 MSTORE SWAP3 KECCAK256 DUP1 SLOAD PUSH1 0x4 SWAP1 SWAP3 MUL SWAP1 SWAP3 ADD SWAP3 POP ISZERO PUSH2 0x3FC3 JUMPI PUSH1 0x0 PUSH2 0x3DA8 DUP3 PUSH1 0x1 ADD SLOAD PUSH2 0x33D5 PUSH5 0xE8D4A51000 PUSH2 0x140F DUP8 PUSH1 0x3 ADD SLOAD DUP8 PUSH1 0x0 ADD SLOAD PUSH2 0x3C82 SWAP1 SWAP2 SWAP1 PUSH4 0xFFFFFFFF AND JUMP JUMPDEST PUSH1 0x3 SLOAD PUSH1 0x40 DUP1 MLOAD PUSH4 0x70A08231 PUSH1 0xE0 SHL DUP2 MSTORE ADDRESS PUSH1 0x4 DUP3 ADD MSTORE SWAP1 MLOAD SWAP3 SWAP4 POP PUSH1 0x0 SWAP3 PUSH1 0x1 PUSH1 0x1 PUSH1 0xA0 SHL SUB SWAP1 SWAP3 AND SWAP2 PUSH4 0x70A08231 SWAP2 PUSH1 0x24 DUP1 DUP3 ADD SWAP3 PUSH1 0x20 SWAP3 SWAP1 SWAP2 SWAP1 DUP3 SWAP1 SUB ADD DUP2 DUP7 DUP1 EXTCODESIZE ISZERO DUP1 ISZERO PUSH2 0x3DF9 JUMPI PUSH1 0x0 DUP1 REVERT JUMPDEST POP GAS STATICCALL ISZERO DUP1 ISZERO PUSH2 0x3E0D JUMPI RETURNDATASIZE PUSH1 0x0 DUP1 RETURNDATACOPY RETURNDATASIZE PUSH1 0x0 REVERT JUMPDEST POP POP POP POP PUSH1 0x40 MLOAD RETURNDATASIZE PUSH1 0x20 DUP2 LT ISZERO PUSH2 0x3E23 JUMPI PUSH1 0x0 DUP1 REVERT JUMPDEST POP MLOAD SWAP1 POP DUP1 DUP3 GT ISZERO PUSH2 0x3E33 JUMPI DUP1 SWAP2 POP JUMPDEST DUP2 ISZERO PUSH2 0x3FA0 JUMPI PUSH1 0x3 SLOAD PUSH1 0x40 DUP1 MLOAD PUSH4 0xA9059CBB PUSH1 0xE0 SHL DUP2 MSTORE CALLER PUSH1 0x4 DUP3 ADD MSTORE PUSH1 0x24 DUP2 ADD DUP6 SWAP1 MSTORE SWAP1 MLOAD PUSH1 0x1 PUSH1 0x1 PUSH1 0xA0 SHL SUB SWAP1 SWAP3 AND SWAP2 PUSH4 0xA9059CBB SWAP2 PUSH1 0x44 DUP1 DUP3 ADD SWAP3 PUSH1 0x20 SWAP3 SWAP1 SWAP2 SWAP1 DUP3 SWAP1 SUB ADD DUP2 PUSH1 0x0 DUP8 DUP1 EXTCODESIZE ISZERO DUP1 ISZERO PUSH2 0x3E8D JUMPI PUSH1 0x0 DUP1 REVERT JUMPDEST POP GAS CALL ISZERO DUP1 ISZERO PUSH2 0x3EA1 JUMPI RETURNDATASIZE PUSH1 0x0 DUP1 RETURNDATACOPY RETURNDATASIZE PUSH1 0x0 REVERT JUMPDEST POP POP POP POP PUSH1 0x40 MLOAD RETURNDATASIZE PUSH1 0x20 DUP2 LT ISZERO PUSH2 0x3EB7 JUMPI PUSH1 0x0 DUP1 REVERT JUMPDEST POP POP PUSH1 0x10 SLOAD PUSH1 0x2 DUP5 ADD SLOAD PUSH1 0x0 SWAP2 LT PUSH2 0x3F59 JUMPI PUSH1 0x0 PUSH2 0x3ED8 PUSH1 0x1 NUMBER SUB NUMBER PUSH2 0x3B81 JUMP JUMPDEST SWAP1 POP PUSH2 0x3EE9 PUSH1 0x64 PUSH2 0x140F DUP7 DUP5 PUSH2 0x3C82 JUMP JUMPDEST PUSH1 0x3 SLOAD PUSH1 0x40 DUP1 MLOAD PUSH4 0x282D3FDF PUSH1 0xE0 SHL DUP2 MSTORE CALLER PUSH1 0x4 DUP3 ADD MSTORE PUSH1 0x24 DUP2 ADD DUP5 SWAP1 MSTORE SWAP1 MLOAD SWAP3 SWAP5 POP PUSH1 0x1 PUSH1 0x1 PUSH1 0xA0 SHL SUB SWAP1 SWAP2 AND SWAP2 PUSH4 0x282D3FDF SWAP2 PUSH1 0x44 DUP1 DUP3 ADD SWAP3 PUSH1 0x0 SWAP3 SWAP1 SWAP2 SWAP1 DUP3 SWAP1 SUB ADD DUP2 DUP4 DUP8 DUP1 EXTCODESIZE ISZERO DUP1 ISZERO PUSH2 0x3F3F JUMPI PUSH1 0x0 DUP1 REVERT JUMPDEST POP GAS CALL ISZERO DUP1 ISZERO PUSH2 0x3F53 JUMPI RETURNDATASIZE PUSH1 0x0 DUP1 RETURNDATACOPY RETURNDATASIZE PUSH1 0x0 REVERT JUMPDEST POP POP POP POP POP JUMPDEST NUMBER PUSH1 0x2 DUP6 ADD SSTORE PUSH1 0x40 DUP1 MLOAD DUP5 DUP2 MSTORE PUSH1 0x20 DUP2 ADD DUP4 SWAP1 MSTORE DUP2 MLOAD DUP9 SWAP3 CALLER SWAP3 PUSH32 0x3887F2857BEAAF367EB618DFB5E22C1EBD74425AFFB0602C2E9FE126E3F860EB SWAP3 SWAP1 DUP2 SWAP1 SUB SWAP1 SWAP2 ADD SWAP1 LOG3 POP JUMPDEST PUSH1 0x3 DUP5 ADD SLOAD DUP4 SLOAD PUSH2 0x3FBB SWAP2 PUSH5 0xE8D4A51000 SWAP2 PUSH2 0x140F SWAP2 PUSH2 0x3C82 JUMP JUMPDEST PUSH1 0x1 DUP5 ADD SSTORE POP POP JUMPDEST POP POP POP JUMP JUMPDEST PUSH1 0x0 DUP3 DUP3 GT ISZERO PUSH2 0x401F JUMPI PUSH1 0x40 DUP1 MLOAD PUSH3 0x461BCD PUSH1 0xE5 SHL DUP2 MSTORE PUSH1 0x20 PUSH1 0x4 DUP3 ADD MSTORE PUSH1 0x1E PUSH1 0x24 DUP3 ADD MSTORE PUSH32 0x536166654D6174683A207375627472616374696F6E206F766572666C6F770000 PUSH1 0x44 DUP3 ADD MSTORE SWAP1 MLOAD SWAP1 DUP2 SWAP1 SUB PUSH1 0x64 ADD SWAP1 REVERT JUMPDEST POP SWAP1 SUB SWAP1 JUMP JUMPDEST PUSH1 0x0 DUP1 DUP3 GT PUSH2 0x407B JUMPI PUSH1 0x40 DUP1 MLOAD PUSH3 0x461BCD PUSH1 0xE5 SHL DUP2 MSTORE PUSH1 0x20 PUSH1 0x4 DUP3 ADD MSTORE PUSH1 0x1A PUSH1 0x24 DUP3 ADD MSTORE PUSH32 0x536166654D6174683A206469766973696F6E206279207A65726F000000000000 PUSH1 0x44 DUP3 ADD MSTORE SWAP1 MLOAD SWAP1 DUP2 SWAP1 SUB PUSH1 0x64 ADD SWAP1 REVERT JUMPDEST DUP2 DUP4 DUP2 PUSH2 0x4084 JUMPI INVALID JUMPDEST DIV SWAP4 SWAP3 POP POP POP JUMP JUMPDEST PUSH1 0x40 DUP1 MLOAD PUSH1 0x1 PUSH1 0x1 PUSH1 0xA0 SHL SUB DUP5 AND PUSH1 0x24 DUP3 ADD MSTORE PUSH1 0x44 DUP1 DUP3 ADD DUP5 SWAP1 MSTORE DUP3 MLOAD DUP1 DUP4 SUB SWAP1 SWAP2 ADD DUP2 MSTORE PUSH1 0x64 SWAP1 SWAP2 ADD SWAP1 SWAP2 MSTORE PUSH1 0x20 DUP2 ADD DUP1 MLOAD PUSH1 0x1 PUSH1 0x1 PUSH1 0xE0 SHL SUB AND PUSH4 0xA9059CBB PUSH1 0xE0 SHL OR SWAP1 MSTORE PUSH2 0x3FC3 SWAP1 DUP5 SWAP1 PUSH2 0x4142 JUMP JUMPDEST CALLER SWAP1 JUMP JUMPDEST PUSH1 0x40 DUP1 MLOAD PUSH1 0x1 PUSH1 0x1 PUSH1 0xA0 SHL SUB DUP1 DUP7 AND PUSH1 0x24 DUP4 ADD MSTORE DUP5 AND PUSH1 0x44 DUP3 ADD MSTORE PUSH1 0x64 DUP1 DUP3 ADD DUP5 SWAP1 MSTORE DUP3 MLOAD DUP1 DUP4 SUB SWAP1 SWAP2 ADD DUP2 MSTORE PUSH1 0x84 SWAP1 SWAP2 ADD SWAP1 SWAP2 MSTORE PUSH1 0x20 DUP2 ADD DUP1 MLOAD PUSH1 0x1 PUSH1 0x1 PUSH1 0xE0 SHL SUB AND PUSH4 0x23B872DD PUSH1 0xE0 SHL OR SWAP1 MSTORE PUSH2 0x413C SWAP1 DUP6 SWAP1 PUSH2 0x4142 JUMP JUMPDEST POP POP POP POP JUMP JUMPDEST PUSH1 0x60 PUSH2 0x4197 DUP3 PUSH1 0x40 MLOAD DUP1 PUSH1 0x40 ADD PUSH1 0x40 MSTORE DUP1 PUSH1 0x20 DUP2 MSTORE PUSH1 0x20 ADD PUSH32 0x5361666545524332303A206C6F772D6C6576656C2063616C6C206661696C6564 DUP2 MSTORE POP DUP6 PUSH1 0x1 PUSH1 0x1 PUSH1 0xA0 SHL SUB AND PUSH2 0x41F3 SWAP1 SWAP3 SWAP2 SWAP1 PUSH4 0xFFFFFFFF AND JUMP JUMPDEST DUP1 MLOAD SWAP1 SWAP2 POP ISZERO PUSH2 0x3FC3 JUMPI DUP1 DUP1 PUSH1 0x20 ADD SWAP1 MLOAD PUSH1 0x20 DUP2 LT ISZERO PUSH2 0x41B6 JUMPI PUSH1 0x0 DUP1 REVERT JUMPDEST POP MLOAD PUSH2 0x3FC3 JUMPI PUSH1 0x40 MLOAD PUSH3 0x461BCD PUSH1 0xE5 SHL DUP2 MSTORE PUSH1 0x4 ADD DUP1 DUP1 PUSH1 0x20 ADD DUP3 DUP2 SUB DUP3 MSTORE PUSH1 0x2A DUP2 MSTORE PUSH1 0x20 ADD DUP1 PUSH2 0x45DF PUSH1 0x2A SWAP2 CODECOPY PUSH1 0x40 ADD SWAP2 POP POP PUSH1 0x40 MLOAD DUP1 SWAP2 SUB SWAP1 REVERT JUMPDEST PUSH1 0x60 PUSH2 0x4202 DUP5 DUP5 PUSH1 0x0 DUP6 PUSH2 0x420A JUMP JUMPDEST SWAP5 SWAP4 POP POP POP POP JUMP JUMPDEST PUSH1 0x60 DUP3 SELFBALANCE LT ISZERO PUSH2 0x424B JUMPI PUSH1 0x40 MLOAD PUSH3 0x461BCD PUSH1 0xE5 SHL DUP2 MSTORE PUSH1 0x4 ADD DUP1 DUP1 PUSH1 0x20 ADD DUP3 DUP2 SUB DUP3 MSTORE PUSH1 0x26 DUP2 MSTORE PUSH1 0x20 ADD DUP1 PUSH2 0x44D6 PUSH1 0x26 SWAP2 CODECOPY PUSH1 0x40 ADD SWAP2 POP POP PUSH1 0x40 MLOAD DUP1 SWAP2 SUB SWAP1 REVERT JUMPDEST PUSH2 0x4254 DUP6 PUSH2 0x435B JUMP JUMPDEST PUSH2 0x42A5 JUMPI PUSH1 0x40 DUP1 MLOAD PUSH3 0x461BCD PUSH1 0xE5 SHL DUP2 MSTORE PUSH1 0x20 PUSH1 0x4 DUP3 ADD MSTORE PUSH1 0x1D PUSH1 0x24 DUP3 ADD MSTORE PUSH32 0x416464726573733A2063616C6C20746F206E6F6E2D636F6E7472616374000000 PUSH1 0x44 DUP3 ADD MSTORE SWAP1 MLOAD SWAP1 DUP2 SWAP1 SUB PUSH1 0x64 ADD SWAP1 REVERT JUMPDEST PUSH1 0x0 PUSH1 0x60 DUP7 PUSH1 0x1 PUSH1 0x1 PUSH1 0xA0 SHL SUB AND DUP6 DUP8 PUSH1 0x40 MLOAD DUP1 DUP3 DUP1 MLOAD SWAP1 PUSH1 0x20 ADD SWAP1 DUP1 DUP4 DUP4 JUMPDEST PUSH1 0x20 DUP4 LT PUSH2 0x42E4 JUMPI DUP1 MLOAD DUP3 MSTORE PUSH1 0x1F NOT SWAP1 SWAP3 ADD SWAP2 PUSH1 0x20 SWAP2 DUP3 ADD SWAP2 ADD PUSH2 0x42C5 JUMP JUMPDEST PUSH1 0x1 DUP4 PUSH1 0x20 SUB PUSH2 0x100 EXP SUB DUP1 NOT DUP3 MLOAD AND DUP2 DUP5 MLOAD AND DUP1 DUP3 OR DUP6 MSTORE POP POP POP POP POP POP SWAP1 POP ADD SWAP2 POP POP PUSH1 0x0 PUSH1 0x40 MLOAD DUP1 DUP4 SUB DUP2 DUP6 DUP8 GAS CALL SWAP3 POP POP POP RETURNDATASIZE DUP1 PUSH1 0x0 DUP2 EQ PUSH2 0x4346 JUMPI PUSH1 0x40 MLOAD SWAP2 POP PUSH1 0x1F NOT PUSH1 0x3F RETURNDATASIZE ADD AND DUP3 ADD PUSH1 0x40 MSTORE RETURNDATASIZE DUP3 MSTORE RETURNDATASIZE PUSH1 0x0 PUSH1 0x20 DUP5 ADD RETURNDATACOPY PUSH2 0x434B JUMP JUMPDEST PUSH1 0x60 SWAP2 POP JUMPDEST POP SWAP2 POP SWAP2 POP PUSH2 0x33DB DUP3 DUP3 DUP7 PUSH2 0x4361 JUMP JUMPDEST EXTCODESIZE ISZERO ISZERO SWAP1 JUMP JUMPDEST PUSH1 0x60 DUP4 ISZERO PUSH2 0x4370 JUMPI POP DUP2 PUSH2 0x3CDB JUMP JUMPDEST DUP3 MLOAD ISZERO PUSH2 0x4380 JUMPI DUP3 MLOAD DUP1 DUP5 PUSH1 0x20 ADD REVERT JUMPDEST DUP2 PUSH1 0x40 MLOAD PUSH3 0x461BCD PUSH1 0xE5 SHL DUP2 MSTORE PUSH1 0x4 ADD DUP1 DUP1 PUSH1 0x20 ADD DUP3 DUP2 SUB DUP3 MSTORE DUP4 DUP2 DUP2 MLOAD DUP2 MSTORE PUSH1 0x20 ADD SWAP2 POP DUP1 MLOAD SWAP1 PUSH1 0x20 ADD SWAP1 DUP1 DUP4 DUP4 PUSH1 0x0 JUMPDEST DUP4 DUP2 LT ISZERO PUSH2 0x43CA JUMPI DUP2 DUP2 ADD MLOAD DUP4 DUP3 ADD MSTORE PUSH1 0x20 ADD PUSH2 0x43B2 JUMP JUMPDEST POP POP POP POP SWAP1 POP SWAP1 DUP2 ADD SWAP1 PUSH1 0x1F AND DUP1 ISZERO PUSH2 0x43F7 JUMPI DUP1 DUP3 SUB DUP1 MLOAD PUSH1 0x1 DUP4 PUSH1 0x20 SUB PUSH2 0x100 EXP SUB NOT AND DUP2 MSTORE PUSH1 0x20 ADD SWAP2 POP JUMPDEST POP SWAP3 POP POP POP PUSH1 0x40 MLOAD DUP1 SWAP2 SUB SWAP1 REVERT JUMPDEST DUP3 DUP1 SLOAD DUP3 DUP3 SSTORE SWAP1 PUSH1 0x0 MSTORE PUSH1 0x20 PUSH1 0x0 KECCAK256 SWAP1 DUP2 ADD SWAP3 DUP3 ISZERO PUSH2 0x4440 JUMPI SWAP2 PUSH1 0x20 MUL DUP3 ADD JUMPDEST DUP3 DUP2 GT ISZERO PUSH2 0x4440 JUMPI DUP3 MLOAD DUP3 SSTORE SWAP2 PUSH1 0x20 ADD SWAP2 SWAP1 PUSH1 0x1 ADD SWAP1 PUSH2 0x4425 JUMP JUMPDEST POP PUSH2 0x444C SWAP3 SWAP2 POP PUSH2 0x4471 JUMP JUMPDEST POP SWAP1 JUMP JUMPDEST PUSH1 0x40 MLOAD DUP1 PUSH1 0x60 ADD PUSH1 0x40 MSTORE DUP1 PUSH1 0x0 DUP2 MSTORE PUSH1 0x20 ADD PUSH1 0x0 DUP2 MSTORE PUSH1 0x20 ADD PUSH1 0x0 DUP2 MSTORE POP SWAP1 JUMP JUMPDEST JUMPDEST DUP1 DUP3 GT ISZERO PUSH2 0x444C JUMPI PUSH1 0x0 DUP2 SSTORE PUSH1 0x1 ADD PUSH2 0x4472 JUMP INVALID 0x4F PUSH24 0x6E61626C653A206E6577206F776E65722069732074686520 PUSH27 0x65726F20616464726573734D617374657247617264656E65723A3A PUSH15 0x6F6E4475706C6963617465643A2064 PUSH22 0x706C696361746564416464726573733A20696E737566 PUSH7 0x696369656E7420 PUSH3 0x616C61 PUSH15 0x636520666F722063616C6C53616665 0x4D PUSH2 0x7468 GASPRICE KECCAK256 PUSH14 0x756C7469706C69636174696F6E20 PUSH16 0x766572666C6F774D6173746572476172 PUSH5 0x656E65723A GASPRICE PUSH5 0x65706F7369 PUSH21 0x3A20616D6F756E74206D7573742062652067726561 PUSH21 0x6572207468616E20304F776E61626C653A2063616C PUSH13 0x6572206973206E6F7420746865 KECCAK256 PUSH16 0x776E657263616C6C6572206973206E6F PUSH21 0x20617574686F72697A656400000000000000004D61 PUSH20 0x74657247617264656E65723A3A77697468647261 PUSH24 0x3A206E6F7420676F6F644D617374657247617264656E6572 GASPRICE GASPRICE PUSH2 0x6464 GASPRICE KECCAK256 PUSH13 0x7020697320616C726561647920 PUSH10 0x6E20706F6F6C53616665 GASLIMIT MSTORE NUMBER ORIGIN ADDRESS GASPRICE KECCAK256 GASLIMIT MSTORE NUMBER ORIGIN ADDRESS KECCAK256 PUSH16 0x7065726174696F6E20646964206E6F74 KECCAK256 PUSH20 0x756363656564A2646970667358221220042C8C77 0xEC REVERT 0xDC ADD EXP PUSH14 0x2DDE09EA1DB5B399AEDC4A68A265 SWAP4 DUP1 0xE7 PUSH22 0x411C4DEB64736F6C634300060C0033536166654D6174 PUSH9 0x3A206D756C7469706C PUSH10 0x636174696F6E206F7665 PUSH19 0x666C6F77000000000000000000000000000000 "
		},
		"gasEstimates": {
			"creation": {
				"codeDepositCost": "3596400",
				"executionCost": "infinite",
				"totalCost": "infinite"
			},
			"external": {
				"FINISH_BONUS_AT_BLOCK()": "1066",
				"HALVING_AT_BLOCK(uint256)": "2044",
				"PERCENT_FOR_COM()": "1110",
				"PERCENT_FOR_DEV()": "1153",
				"PERCENT_FOR_FOUNDERS()": "1066",
				"PERCENT_FOR_LP()": "1134",
				"PERCENT_LOCK_BONUS_REWARD(uint256)": "2065",
				"REWARD_MULTIPLIER(uint256)": "1999",
				"REWARD_PER_BLOCK()": "1154",
				"START_BLOCK()": "1154",
				"add(uint256,address,bool)": "infinite",
				"addAuthorized(address)": "infinite",
				"authorized(address)": "1225",
				"blockDeltaEndStage(uint256)": "2087",
				"blockDeltaStartStage(uint256)": "2065",
				"bonusFinishUpdate(uint256)": "infinite",
				"claimReward(uint256)": "infinite",
				"claimRewards(uint256[])": "infinite",
				"comUpdate(address)": "infinite",
				"comfundaddr()": "1106",
				"deposit(uint256,uint256,address)": "infinite",
				"dev(address)": "infinite",
				"devDepFee()": "1131",
				"devFeeStage(uint256)": "2042",
				"devaddr()": "1192",
				"emergencyWithdraw(uint256)": "infinite",
				"founderUpdate(address)": "infinite",
				"founderaddr()": "1170",
				"getGlobalAmount(address)": "3076",
				"getGlobalRefAmount(address)": "3020",
				"getLockPercentage(uint256,uint256)": "infinite",
				"getMultiplier(uint256,uint256)": "infinite",
				"getNewRewardPerBlock(uint256)": "infinite",
				"getPoolReward(uint256,uint256,uint256)": "infinite",
				"getRefValueOf(address,address)": "1348",
				"getTotalRefs(address)": "3092",
				"govToken()": "1107",
				"halvingUpdate(uint256[])": "infinite",
				"liquidityaddr()": "1106",
				"lockUpdate(uint256[])": "infinite",
				"lockcomUpdate(uint256)": "infinite",
				"lockdevUpdate(uint256)": "infinite",
				"lockfounderUpdate(uint256)": "infinite",
				"locklpUpdate(uint256)": "infinite",
				"lpUpdate(address)": "infinite",
				"massUpdatePools()": "infinite",
				"owner()": "1172",
				"pendingReward(uint256,address)": "infinite",
				"poolExistence(address)": "1203",
				"poolId1(address)": "1213",
				"poolInfo(uint256)": "4583",
				"poolLength()": "1090",
				"reclaimTokenOwnership(address)": "infinite",
				"removeAuthorized(address)": "infinite",
				"renounceOwnership()": "infinite",
				"reviseDeposit(uint256,address,uint256)": "infinite",
				"reviseWithdraw(uint256,address,uint256)": "infinite",
				"rewardMulUpdate(uint256[])": "infinite",
				"rewardUpdate(uint256)": "infinite",
				"set(uint256,uint256,bool)": "infinite",
				"setDevDepFee(uint256)": "infinite",
				"setDevFeeStage(uint256[])": "infinite",
				"setStageEnds(uint256[])": "infinite",
				"setStageStarts(uint256[])": "infinite",
				"setUserDepFee(uint256)": "infinite",
				"setUserFeeStage(uint256[])": "infinite",
				"starblockUpdate(uint256)": "infinite",
				"totalAllocPoint()": "1111",
				"transferOwnership(address)": "infinite",
				"updatePool(uint256)": "infinite",
				"usdOracle()": "1149",
				"userDelta(uint256)": "2149",
				"userDepFee()": "1153",
				"userFeeStage(uint256)": "2064",
				"userGlobalInfo(address)": "2863",
				"userInfo(uint256,address)": "6351",
				"withdraw(uint256,uint256,address)": "infinite"
			},
			"internal": {
				"_harvest(uint256)": "infinite",
				"safeGovTokenTransfer(address,uint256)": "infinite"
			}
		},
		"methodIdentifiers": {
			"FINISH_BONUS_AT_BLOCK()": "980c2a98",
			"HALVING_AT_BLOCK(uint256)": "4179b4fb",
			"PERCENT_FOR_COM()": "a02306f9",
			"PERCENT_FOR_DEV()": "ed9bdeda",
			"PERCENT_FOR_FOUNDERS()": "c6929e53",
			"PERCENT_FOR_LP()": "0a67d518",
			"PERCENT_LOCK_BONUS_REWARD(uint256)": "a82859c5",
			"REWARD_MULTIPLIER(uint256)": "2fda7735",
			"REWARD_PER_BLOCK()": "975532dc",
			"START_BLOCK()": "39b3e826",
			"add(uint256,address,bool)": "1eaaa045",
			"addAuthorized(address)": "cf1c316a",
			"authorized(address)": "b9181611",
			"blockDeltaEndStage(uint256)": "cb0b8ca1",
			"blockDeltaStartStage(uint256)": "6245f084",
			"bonusFinishUpdate(uint256)": "245b211d",
			"claimReward(uint256)": "ae169a50",
			"claimRewards(uint256[])": "5eac6239",
			"comUpdate(address)": "c749d614",
			"comfundaddr()": "3c9d9267",
			"deposit(uint256,uint256,address)": "8dbdbe6d",
			"dev(address)": "8d88a90e",
			"devDepFee()": "c56a10ff",
			"devFeeStage(uint256)": "beff2a53",
			"devaddr()": "d49e77cd",
			"emergencyWithdraw(uint256)": "5312ea8e",
			"founderUpdate(address)": "30fb8e0e",
			"founderaddr()": "ec12173d",
			"getGlobalAmount(address)": "929c6971",
			"getGlobalRefAmount(address)": "5c5e490b",
			"getLockPercentage(uint256,uint256)": "f930e770",
			"getMultiplier(uint256,uint256)": "8dbb1e3a",
			"getNewRewardPerBlock(uint256)": "1d465c82",
			"getPoolReward(uint256,uint256,uint256)": "c8ed7680",
			"getRefValueOf(address,address)": "dd77b9fd",
			"getTotalRefs(address)": "36ebcde6",
			"govToken()": "05268cff",
			"halvingUpdate(uint256[])": "354affb7",
			"liquidityaddr()": "22a376b0",
			"lockUpdate(uint256[])": "27e68928",
			"lockcomUpdate(uint256)": "c663baa6",
			"lockdevUpdate(uint256)": "b6066962",
			"lockfounderUpdate(uint256)": "de988524",
			"locklpUpdate(uint256)": "f2ffc22c",
			"lpUpdate(address)": "4dbf85ca",
			"massUpdatePools()": "630b5ba1",
			"owner()": "8da5cb5b",
			"pendingReward(uint256,address)": "98969e82",
			"poolExistence(address)": "cbd258b5",
			"poolId1(address)": "ce2529c9",
			"poolInfo(uint256)": "1526fe27",
			"poolLength()": "081e3eda",
			"reclaimTokenOwnership(address)": "eda67048",
			"removeAuthorized(address)": "485d7d94",
			"renounceOwnership()": "715018a6",
			"reviseDeposit(uint256,address,uint256)": "82386d58",
			"reviseWithdraw(uint256,address,uint256)": "6066debd",
			"rewardMulUpdate(uint256[])": "46664064",
			"rewardUpdate(uint256)": "3d479cd5",
			"set(uint256,uint256,bool)": "64482f79",
			"setDevDepFee(uint256)": "fb075433",
			"setDevFeeStage(uint256[])": "8cc883ce",
			"setStageEnds(uint256[])": "4af0e3e1",
			"setStageStarts(uint256[])": "847bdaa4",
			"setUserDepFee(uint256)": "7c39c9c9",
			"setUserFeeStage(uint256[])": "2a7b0107",
			"starblockUpdate(uint256)": "24b95c3e",
			"totalAllocPoint()": "17caf6f1",
			"transferOwnership(address)": "f2fde38b",
			"updatePool(uint256)": "51eb05a6",
			"usdOracle()": "c8a4271f",
			"userDelta(uint256)": "09ae4d2c",
			"userDepFee()": "82796e98",
			"userFeeStage(uint256)": "d007db29",
			"userGlobalInfo(address)": "d9608d8a",
			"userInfo(uint256,address)": "93f1a40b",
			"withdraw(uint256,uint256,address)": "0ad58d2f"
		}
	},
	"abi": [
		{
			"inputs": [
				{
					"internalType": "contract JewelToken",
					"name": "_govToken",
					"type": "address"
				},
				{
					"internalType": "address",
					"name": "_devaddr",
					"type": "address"
				},
				{
					"internalType": "address",
					"name": "_liquidityaddr",
					"type": "address"
				},
				{
					"internalType": "address",
					"name": "_comfundaddr",
					"type": "address"
				},
				{
					"internalType": "address",
					"name": "_founderaddr",
					"type": "address"
				},
				{
					"internalType": "uint256",
					"name": "_rewardPerBlock",
					"type": "uint256"
				},
				{
					"internalType": "uint256",
					"name": "_startBlock",
					"type": "uint256"
				},
				{
					"internalType": "uint256",
					"name": "_halvingAfterBlock",
					"type": "uint256"
				},
				{
					"internalType": "uint256",
					"name": "_userDepFee",
					"type": "uint256"
				},
				{
					"internalType": "uint256",
					"name": "_devDepFee",
					"type": "uint256"
				},
				{
					"internalType": "uint256[]",
					"name": "_rewardMultiplier",
					"type": "uint256[]"
				},
				{
					"internalType": "uint256[]",
					"name": "_blockDeltaStartStage",
					"type": "uint256[]"
				},
				{
					"internalType": "uint256[]",
					"name": "_blockDeltaEndStage",
					"type": "uint256[]"
				},
				{
					"internalType": "uint256[]",
					"name": "_userFeeStage",
					"type": "uint256[]"
				},
				{
					"internalType": "uint256[]",
					"name": "_devFeeStage",
					"type": "uint256[]"
				}
			],
			"stateMutability": "nonpayable",
			"type": "constructor"
		},
		{
			"anonymous": false,
			"inputs": [
				{
					"indexed": true,
					"internalType": "address",
					"name": "user",
					"type": "address"
				},
				{
					"indexed": true,
					"internalType": "uint256",
					"name": "pid",
					"type": "uint256"
				},
				{
					"indexed": false,
					"internalType": "uint256",
					"name": "amount",
					"type": "uint256"
				}
			],
			"name": "Deposit",
			"type": "event"
		},
		{
			"anonymous": false,
			"inputs": [
				{
					"indexed": true,
					"internalType": "address",
					"name": "user",
					"type": "address"
				},
				{
					"indexed": true,
					"internalType": "uint256",
					"name": "pid",
					"type": "uint256"
				},
				{
					"indexed": false,
					"internalType": "uint256",
					"name": "amount",
					"type": "uint256"
				}
			],
			"name": "EmergencyWithdraw",
			"type": "event"
		},
		{
			"anonymous": false,
			"inputs": [
				{
					"indexed": true,
					"internalType": "address",
					"name": "previousOwner",
					"type": "address"
				},
				{
					"indexed": true,
					"internalType": "address",
					"name": "newOwner",
					"type": "address"
				}
			],
			"name": "OwnershipTransferred",
			"type": "event"
		},
		{
			"anonymous": false,
			"inputs": [
				{
					"indexed": true,
					"internalType": "address",
					"name": "user",
					"type": "address"
				},
				{
					"indexed": true,
					"internalType": "uint256",
					"name": "pid",
					"type": "uint256"
				},
				{
					"indexed": false,
					"internalType": "uint256",
					"name": "amount",
					"type": "uint256"
				},
				{
					"indexed": false,
					"internalType": "uint256",
					"name": "lockAmount",
					"type": "uint256"
				}
			],
			"name": "SendGovernanceTokenReward",
			"type": "event"
		},
		{
			"anonymous": false,
			"inputs": [
				{
					"indexed": true,
					"internalType": "address",
					"name": "user",
					"type": "address"
				},
				{
					"indexed": true,
					"internalType": "uint256",
					"name": "pid",
					"type": "uint256"
				},
				{
					"indexed": false,
					"internalType": "uint256",
					"name": "amount",
					"type": "uint256"
				}
			],
			"name": "Withdraw",
			"type": "event"
		},
		{
			"inputs": [],
			"name": "FINISH_BONUS_AT_BLOCK",
			"outputs": [
				{
					"internalType": "uint256",
					"name": "",
					"type": "uint256"
				}
			],
			"stateMutability": "view",
			"type": "function"
		},
		{
			"inputs": [
				{
					"internalType": "uint256",
					"name": "",
					"type": "uint256"
				}
			],
			"name": "HALVING_AT_BLOCK",
			"outputs": [
				{
					"internalType": "uint256",
					"name": "",
					"type": "uint256"
				}
			],
			"stateMutability": "view",
			"type": "function"
		},
		{
			"inputs": [],
			"name": "PERCENT_FOR_COM",
			"outputs": [
				{
					"internalType": "uint256",
					"name": "",
					"type": "uint256"
				}
			],
			"stateMutability": "view",
			"type": "function"
		},
		{
			"inputs": [],
			"name": "PERCENT_FOR_DEV",
			"outputs": [
				{
					"internalType": "uint256",
					"name": "",
					"type": "uint256"
				}
			],
			"stateMutability": "view",
			"type": "function"
		},
		{
			"inputs": [],
			"name": "PERCENT_FOR_FOUNDERS",
			"outputs": [
				{
					"internalType": "uint256",
					"name": "",
					"type": "uint256"
				}
			],
			"stateMutability": "view",
			"type": "function"
		},
		{
			"inputs": [],
			"name": "PERCENT_FOR_LP",
			"outputs": [
				{
					"internalType": "uint256",
					"name": "",
					"type": "uint256"
				}
			],
			"stateMutability": "view",
			"type": "function"
		},
		{
			"inputs": [
				{
					"internalType": "uint256",
					"name": "",
					"type": "uint256"
				}
			],
			"name": "PERCENT_LOCK_BONUS_REWARD",
			"outputs": [
				{
					"internalType": "uint256",
					"name": "",
					"type": "uint256"
				}
			],
			"stateMutability": "view",
			"type": "function"
		},
		{
			"inputs": [
				{
					"internalType": "uint256",
					"name": "",
					"type": "uint256"
				}
			],
			"name": "REWARD_MULTIPLIER",
			"outputs": [
				{
					"internalType": "uint256",
					"name": "",
					"type": "uint256"
				}
			],
			"stateMutability": "view",
			"type": "function"
		},
		{
			"inputs": [],
			"name": "REWARD_PER_BLOCK",
			"outputs": [
				{
					"internalType": "uint256",
					"name": "",
					"type": "uint256"
				}
			],
			"stateMutability": "view",
			"type": "function"
		},
		{
			"inputs": [],
			"name": "START_BLOCK",
			"outputs": [
				{
					"internalType": "uint256",
					"name": "",
					"type": "uint256"
				}
			],
			"stateMutability": "view",
			"type": "function"
		},
		{
			"inputs": [
				{
					"internalType": "uint256",
					"name": "_allocPoint",
					"type": "uint256"
				},
				{
					"internalType": "contract IERC20",
					"name": "_lpToken",
					"type": "address"
				},
				{
					"internalType": "bool",
					"name": "_withUpdate",
					"type": "bool"
				}
			],
			"name": "add",
			"outputs": [],
			"stateMutability": "nonpayable",
			"type": "function"
		},
		{
			"inputs": [
				{
					"internalType": "address",
					"name": "_toAdd",
					"type": "address"
				}
			],
			"name": "addAuthorized",
			"outputs": [],
			"stateMutability": "nonpayable",
			"type": "function"
		},
		{
			"inputs": [
				{
					"internalType": "address",
					"name": "",
					"type": "address"
				}
			],
			"name": "authorized",
			"outputs": [
				{
					"internalType": "bool",
					"name": "",
					"type": "bool"
				}
			],
			"stateMutability": "view",
			"type": "function"
		},
		{
			"inputs": [
				{
					"internalType": "uint256",
					"name": "",
					"type": "uint256"
				}
			],
			"name": "blockDeltaEndStage",
			"outputs": [
				{
					"internalType": "uint256",
					"name": "",
					"type": "uint256"
				}
			],
			"stateMutability": "view",
			"type": "function"
		},
		{
			"inputs": [
				{
					"internalType": "uint256",
					"name": "",
					"type": "uint256"
				}
			],
			"name": "blockDeltaStartStage",
			"outputs": [
				{
					"internalType": "uint256",
					"name": "",
					"type": "uint256"
				}
			],
			"stateMutability": "view",
			"type": "function"
		},
		{
			"inputs": [
				{
					"internalType": "uint256",
					"name": "_newFinish",
					"type": "uint256"
				}
			],
			"name": "bonusFinishUpdate",
			"outputs": [],
			"stateMutability": "nonpayable",
			"type": "function"
		},
		{
			"inputs": [
				{
					"internalType": "uint256",
					"name": "_pid",
					"type": "uint256"
				}
			],
			"name": "claimReward",
			"outputs": [],
			"stateMutability": "nonpayable",
			"type": "function"
		},
		{
			"inputs": [
				{
					"internalType": "uint256[]",
					"name": "_pids",
					"type": "uint256[]"
				}
			],
			"name": "claimRewards",
			"outputs": [],
			"stateMutability": "nonpayable",
			"type": "function"
		},
		{
			"inputs": [
				{
					"internalType": "address",
					"name": "_newCom",
					"type": "address"
				}
			],
			"name": "comUpdate",
			"outputs": [],
			"stateMutability": "nonpayable",
			"type": "function"
		},
		{
			"inputs": [],
			"name": "comfundaddr",
			"outputs": [
				{
					"internalType": "address",
					"name": "",
					"type": "address"
				}
			],
			"stateMutability": "view",
			"type": "function"
		},
		{
			"inputs": [
				{
					"internalType": "uint256",
					"name": "_pid",
					"type": "uint256"
				},
				{
					"internalType": "uint256",
					"name": "_amount",
					"type": "uint256"
				},
				{
					"internalType": "address",
					"name": "_ref",
					"type": "address"
				}
			],
			"name": "deposit",
			"outputs": [],
			"stateMutability": "nonpayable",
			"type": "function"
		},
		{
			"inputs": [
				{
					"internalType": "address",
					"name": "_devaddr",
					"type": "address"
				}
			],
			"name": "dev",
			"outputs": [],
			"stateMutability": "nonpayable",
			"type": "function"
		},
		{
			"inputs": [],
			"name": "devDepFee",
			"outputs": [
				{
					"internalType": "uint256",
					"name": "",
					"type": "uint256"
				}
			],
			"stateMutability": "view",
			"type": "function"
		},
		{
			"inputs": [
				{
					"internalType": "uint256",
					"name": "",
					"type": "uint256"
				}
			],
			"name": "devFeeStage",
			"outputs": [
				{
					"internalType": "uint256",
					"name": "",
					"type": "uint256"
				}
			],
			"stateMutability": "view",
			"type": "function"
		},
		{
			"inputs": [],
			"name": "devaddr",
			"outputs": [
				{
					"internalType": "address",
					"name": "",
					"type": "address"
				}
			],
			"stateMutability": "view",
			"type": "function"
		},
		{
			"inputs": [
				{
					"internalType": "uint256",
					"name": "_pid",
					"type": "uint256"
				}
			],
			"name": "emergencyWithdraw",
			"outputs": [],
			"stateMutability": "nonpayable",
			"type": "function"
		},
		{
			"inputs": [
				{
					"internalType": "address",
					"name": "_newFounder",
					"type": "address"
				}
			],
			"name": "founderUpdate",
			"outputs": [],
			"stateMutability": "nonpayable",
			"type": "function"
		},
		{
			"inputs": [],
			"name": "founderaddr",
			"outputs": [
				{
					"internalType": "address",
					"name": "",
					"type": "address"
				}
			],
			"stateMutability": "view",
			"type": "function"
		},
		{
			"inputs": [
				{
					"internalType": "address",
					"name": "_user",
					"type": "address"
				}
			],
			"name": "getGlobalAmount",
			"outputs": [
				{
					"internalType": "uint256",
					"name": "",
					"type": "uint256"
				}
			],
			"stateMutability": "view",
			"type": "function"
		},
		{
			"inputs": [
				{
					"internalType": "address",
					"name": "_user",
					"type": "address"
				}
			],
			"name": "getGlobalRefAmount",
			"outputs": [
				{
					"internalType": "uint256",
					"name": "",
					"type": "uint256"
				}
			],
			"stateMutability": "view",
			"type": "function"
		},
		{
			"inputs": [
				{
					"internalType": "uint256",
					"name": "_from",
					"type": "uint256"
				},
				{
					"internalType": "uint256",
					"name": "_to",
					"type": "uint256"
				}
			],
			"name": "getLockPercentage",
			"outputs": [
				{
					"internalType": "uint256",
					"name": "",
					"type": "uint256"
				}
			],
			"stateMutability": "view",
			"type": "function"
		},
		{
			"inputs": [
				{
					"internalType": "uint256",
					"name": "_from",
					"type": "uint256"
				},
				{
					"internalType": "uint256",
					"name": "_to",
					"type": "uint256"
				}
			],
			"name": "getMultiplier",
			"outputs": [
				{
					"internalType": "uint256",
					"name": "",
					"type": "uint256"
				}
			],
			"stateMutability": "view",
			"type": "function"
		},
		{
			"inputs": [
				{
					"internalType": "uint256",
					"name": "pid1",
					"type": "uint256"
				}
			],
			"name": "getNewRewardPerBlock",
			"outputs": [
				{
					"internalType": "uint256",
					"name": "",
					"type": "uint256"
				}
			],
			"stateMutability": "view",
			"type": "function"
		},
		{
			"inputs": [
				{
					"internalType": "uint256",
					"name": "_from",
					"type": "uint256"
				},
				{
					"internalType": "uint256",
					"name": "_to",
					"type": "uint256"
				},
				{
					"internalType": "uint256",
					"name": "_allocPoint",
					"type": "uint256"
				}
			],
			"name": "getPoolReward",
			"outputs": [
				{
					"internalType": "uint256",
					"name": "forDev",
					"type": "uint256"
				},
				{
					"internalType": "uint256",
					"name": "forFarmer",
					"type": "uint256"
				},
				{
					"internalType": "uint256",
					"name": "forLP",
					"type": "uint256"
				},
				{
					"internalType": "uint256",
					"name": "forCom",
					"type": "uint256"
				},
				{
					"internalType": "uint256",
					"name": "forFounders",
					"type": "uint256"
				}
			],
			"stateMutability": "view",
			"type": "function"
		},
		{
			"inputs": [
				{
					"internalType": "address",
					"name": "_user",
					"type": "address"
				},
				{
					"internalType": "address",
					"name": "_user2",
					"type": "address"
				}
			],
			"name": "getRefValueOf",
			"outputs": [
				{
					"internalType": "uint256",
					"name": "",
					"type": "uint256"
				}
			],
			"stateMutability": "view",
			"type": "function"
		},
		{
			"inputs": [
				{
					"internalType": "address",
					"name": "_user",
					"type": "address"
				}
			],
			"name": "getTotalRefs",
			"outputs": [
				{
					"internalType": "uint256",
					"name": "",
					"type": "uint256"
				}
			],
			"stateMutability": "view",
			"type": "function"
		},
		{
			"inputs": [],
			"name": "govToken",
			"outputs": [
				{
					"internalType": "contract JewelToken",
					"name": "",
					"type": "address"
				}
			],
			"stateMutability": "view",
			"type": "function"
		},
		{
			"inputs": [
				{
					"internalType": "uint256[]",
					"name": "_newHalving",
					"type": "uint256[]"
				}
			],
			"name": "halvingUpdate",
			"outputs": [],
			"stateMutability": "nonpayable",
			"type": "function"
		},
		{
			"inputs": [],
			"name": "liquidityaddr",
			"outputs": [
				{
					"internalType": "address",
					"name": "",
					"type": "address"
				}
			],
			"stateMutability": "view",
			"type": "function"
		},
		{
			"inputs": [
				{
					"internalType": "uint256[]",
					"name": "_newlock",
					"type": "uint256[]"
				}
			],
			"name": "lockUpdate",
			"outputs": [],
			"stateMutability": "nonpayable",
			"type": "function"
		},
		{
			"inputs": [
				{
					"internalType": "uint256",
					"name": "_newcomlock",
					"type": "uint256"
				}
			],
			"name": "lockcomUpdate",
			"outputs": [],
			"stateMutability": "nonpayable",
			"type": "function"
		},
		{
			"inputs": [
				{
					"internalType": "uint256",
					"name": "_newdevlock",
					"type": "uint256"
				}
			],
			"name": "lockdevUpdate",
			"outputs": [],
			"stateMutability": "nonpayable",
			"type": "function"
		},
		{
			"inputs": [
				{
					"internalType": "uint256",
					"name": "_newfounderlock",
					"type": "uint256"
				}
			],
			"name": "lockfounderUpdate",
			"outputs": [],
			"stateMutability": "nonpayable",
			"type": "function"
		},
		{
			"inputs": [
				{
					"internalType": "uint256",
					"name": "_newlplock",
					"type": "uint256"
				}
			],
			"name": "locklpUpdate",
			"outputs": [],
			"stateMutability": "nonpayable",
			"type": "function"
		},
		{
			"inputs": [
				{
					"internalType": "address",
					"name": "_newLP",
					"type": "address"
				}
			],
			"name": "lpUpdate",
			"outputs": [],
			"stateMutability": "nonpayable",
			"type": "function"
		},
		{
			"inputs": [],
			"name": "massUpdatePools",
			"outputs": [],
			"stateMutability": "nonpayable",
			"type": "function"
		},
		{
			"inputs": [],
			"name": "owner",
			"outputs": [
				{
					"internalType": "address",
					"name": "",
					"type": "address"
				}
			],
			"stateMutability": "view",
			"type": "function"
		},
		{
			"inputs": [
				{
					"internalType": "uint256",
					"name": "_pid",
					"type": "uint256"
				},
				{
					"internalType": "address",
					"name": "_user",
					"type": "address"
				}
			],
			"name": "pendingReward",
			"outputs": [
				{
					"internalType": "uint256",
					"name": "",
					"type": "uint256"
				}
			],
			"stateMutability": "view",
			"type": "function"
		},
		{
			"inputs": [
				{
					"internalType": "contract IERC20",
					"name": "",
					"type": "address"
				}
			],
			"name": "poolExistence",
			"outputs": [
				{
					"internalType": "bool",
					"name": "",
					"type": "bool"
				}
			],
			"stateMutability": "view",
			"type": "function"
		},
		{
			"inputs": [
				{
					"internalType": "address",
					"name": "",
					"type": "address"
				}
			],
			"name": "poolId1",
			"outputs": [
				{
					"internalType": "uint256",
					"name": "",
					"type": "uint256"
				}
			],
			"stateMutability": "view",
			"type": "function"
		},
		{
			"inputs": [
				{
					"internalType": "uint256",
					"name": "",
					"type": "uint256"
				}
			],
			"name": "poolInfo",
			"outputs": [
				{
					"internalType": "contract IERC20",
					"name": "lpToken",
					"type": "address"
				},
				{
					"internalType": "uint256",
					"name": "allocPoint",
					"type": "uint256"
				},
				{
					"internalType": "uint256",
					"name": "lastRewardBlock",
					"type": "uint256"
				},
				{
					"internalType": "uint256",
					"name": "accGovTokenPerShare",
					"type": "uint256"
				}
			],
			"stateMutability": "view",
			"type": "function"
		},
		{
			"inputs": [],
			"name": "poolLength",
			"outputs": [
				{
					"internalType": "uint256",
					"name": "",
					"type": "uint256"
				}
			],
			"stateMutability": "view",
			"type": "function"
		},
		{
			"inputs": [
				{
					"internalType": "address",
					"name": "_newOwner",
					"type": "address"
				}
			],
			"name": "reclaimTokenOwnership",
			"outputs": [],
			"stateMutability": "nonpayable",
			"type": "function"
		},
		{
			"inputs": [
				{
					"internalType": "address",
					"name": "_toRemove",
					"type": "address"
				}
			],
			"name": "removeAuthorized",
			"outputs": [],
			"stateMutability": "nonpayable",
			"type": "function"
		},
		{
			"inputs": [],
			"name": "renounceOwnership",
			"outputs": [],
			"stateMutability": "nonpayable",
			"type": "function"
		},
		{
			"inputs": [
				{
					"internalType": "uint256",
					"name": "_pid",
					"type": "uint256"
				},
				{
					"internalType": "address",
					"name": "_user",
					"type": "address"
				},
				{
					"internalType": "uint256",
					"name": "_block",
					"type": "uint256"
				}
			],
			"name": "reviseDeposit",
			"outputs": [],
			"stateMutability": "nonpayable",
			"type": "function"
		},
		{
			"inputs": [
				{
					"internalType": "uint256",
					"name": "_pid",
					"type": "uint256"
				},
				{
					"internalType": "address",
					"name": "_user",
					"type": "address"
				},
				{
					"internalType": "uint256",
					"name": "_block",
					"type": "uint256"
				}
			],
			"name": "reviseWithdraw",
			"outputs": [],
			"stateMutability": "nonpayable",
			"type": "function"
		},
		{
			"inputs": [
				{
					"internalType": "uint256[]",
					"name": "_newMulReward",
					"type": "uint256[]"
				}
			],
			"name": "rewardMulUpdate",
			"outputs": [],
			"stateMutability": "nonpayable",
			"type": "function"
		},
		{
			"inputs": [
				{
					"internalType": "uint256",
					"name": "_newReward",
					"type": "uint256"
				}
			],
			"name": "rewardUpdate",
			"outputs": [],
			"stateMutability": "nonpayable",
			"type": "function"
		},
		{
			"inputs": [
				{
					"internalType": "uint256",
					"name": "_pid",
					"type": "uint256"
				},
				{
					"internalType": "uint256",
					"name": "_allocPoint",
					"type": "uint256"
				},
				{
					"internalType": "bool",
					"name": "_withUpdate",
					"type": "bool"
				}
			],
			"name": "set",
			"outputs": [],
			"stateMutability": "nonpayable",
			"type": "function"
		},
		{
			"inputs": [
				{
					"internalType": "uint256",
					"name": "_devDepFees",
					"type": "uint256"
				}
			],
			"name": "setDevDepFee",
			"outputs": [],
			"stateMutability": "nonpayable",
			"type": "function"
		},
		{
			"inputs": [
				{
					"internalType": "uint256[]",
					"name": "_devFees",
					"type": "uint256[]"
				}
			],
			"name": "setDevFeeStage",
			"outputs": [],
			"stateMutability": "nonpayable",
			"type": "function"
		},
		{
			"inputs": [
				{
					"internalType": "uint256[]",
					"name": "_blockEnds",
					"type": "uint256[]"
				}
			],
			"name": "setStageEnds",
			"outputs": [],
			"stateMutability": "nonpayable",
			"type": "function"
		},
		{
			"inputs": [
				{
					"internalType": "uint256[]",
					"name": "_blockStarts",
					"type": "uint256[]"
				}
			],
			"name": "setStageStarts",
			"outputs": [],
			"stateMutability": "nonpayable",
			"type": "function"
		},
		{
			"inputs": [
				{
					"internalType": "uint256",
					"name": "_usrDepFees",
					"type": "uint256"
				}
			],
			"name": "setUserDepFee",
			"outputs": [],
			"stateMutability": "nonpayable",
			"type": "function"
		},
		{
			"inputs": [
				{
					"internalType": "uint256[]",
					"name": "_userFees",
					"type": "uint256[]"
				}
			],
			"name": "setUserFeeStage",
			"outputs": [],
			"stateMutability": "nonpayable",
			"type": "function"
		},
		{
			"inputs": [
				{
					"internalType": "uint256",
					"name": "_newstarblock",
					"type": "uint256"
				}
			],
			"name": "starblockUpdate",
			"outputs": [],
			"stateMutability": "nonpayable",
			"type": "function"
		},
		{
			"inputs": [],
			"name": "totalAllocPoint",
			"outputs": [
				{
					"internalType": "uint256",
					"name": "",
					"type": "uint256"
				}
			],
			"stateMutability": "view",
			"type": "function"
		},
		{
			"inputs": [
				{
					"internalType": "address",
					"name": "newOwner",
					"type": "address"
				}
			],
			"name": "transferOwnership",
			"outputs": [],
			"stateMutability": "nonpayable",
			"type": "function"
		},
		{
			"inputs": [
				{
					"internalType": "uint256",
					"name": "_pid",
					"type": "uint256"
				}
			],
			"name": "updatePool",
			"outputs": [],
			"stateMutability": "nonpayable",
			"type": "function"
		},
		{
			"inputs": [],
			"name": "usdOracle",
			"outputs": [
				{
					"internalType": "address",
					"name": "",
					"type": "address"
				}
			],
			"stateMutability": "view",
			"type": "function"
		},
		{
			"inputs": [
				{
					"internalType": "uint256",
					"name": "_pid",
					"type": "uint256"
				}
			],
			"name": "userDelta",
			"outputs": [
				{
					"internalType": "uint256",
					"name": "",
					"type": "uint256"
				}
			],
			"stateMutability": "view",
			"type": "function"
		},
		{
			"inputs": [],
			"name": "userDepFee",
			"outputs": [
				{
					"internalType": "uint256",
					"name": "",
					"type": "uint256"
				}
			],
			"stateMutability": "view",
			"type": "function"
		},
		{
			"inputs": [
				{
					"internalType": "uint256",
					"name": "",
					"type": "uint256"
				}
			],
			"name": "userFeeStage",
			"outputs": [
				{
					"internalType": "uint256",
					"name": "",
					"type": "uint256"
				}
			],
			"stateMutability": "view",
			"type": "function"
		},
		{
			"inputs": [
				{
					"internalType": "address",
					"name": "",
					"type": "address"
				}
			],
			"name": "userGlobalInfo",
			"outputs": [
				{
					"internalType": "uint256",
					"name": "globalAmount",
					"type": "uint256"
				},
				{
					"internalType": "uint256",
					"name": "totalReferals",
					"type": "uint256"
				},
				{
					"internalType": "uint256",
					"name": "globalRefAmount",
					"type": "uint256"
				}
			],
			"stateMutability": "view",
			"type": "function"
		},
		{
			"inputs": [
				{
					"internalType": "uint256",
					"name": "",
					"type": "uint256"
				},
				{
					"internalType": "address",
					"name": "",
					"type": "address"
				}
			],
			"name": "userInfo",
			"outputs": [
				{
					"internalType": "uint256",
					"name": "amount",
					"type": "uint256"
				},
				{
					"internalType": "uint256",
					"name": "rewardDebt",
					"type": "uint256"
				},
				{
					"internalType": "uint256",
					"name": "rewardDebtAtBlock",
					"type": "uint256"
				},
				{
					"internalType": "uint256",
					"name": "lastWithdrawBlock",
					"type": "uint256"
				},
				{
					"internalType": "uint256",
					"name": "firstDepositBlock",
					"type": "uint256"
				},
				{
					"internalType": "uint256",
					"name": "blockdelta",
					"type": "uint256"
				},
				{
					"internalType": "uint256",
					"name": "lastDepositBlock",
					"type": "uint256"
				}
			],
			"stateMutability": "view",
			"type": "function"
		},
		{
			"inputs": [
				{
					"internalType": "uint256",
					"name": "_pid",
					"type": "uint256"
				},
				{
					"internalType": "uint256",
					"name": "_amount",
					"type": "uint256"
				},
				{
					"internalType": "address",
					"name": "_ref",
					"type": "address"
				}
			],
			"name": "withdraw",
			"outputs": [],
			"stateMutability": "nonpayable",
			"type": "function"
		}
	]
}