{
	"data": {
		"bytecode": {
			"linkReferences": {},
			"object": "60806040526000601e553480156200001657600080fd5b5060405162004e4c38038062004e4c83398181016040526101e08110156200003d57600080fd5b815160208301516040808501516060860151608087015160a088015160c089015160e08a01516101008b01516101208c01516101408d01805199519b9d9a9c989b979a9699959894979396929591948301929184640100000000821115620000a457600080fd5b908301906020820185811115620000ba57600080fd5b8251866020820283011164010000000082111715620000d857600080fd5b82525081516020918201928201910280838360005b8381101562000107578181015183820152602001620000ed565b50505050905001604052602001805160405193929190846401000000008211156200013157600080fd5b9083019060208201858111156200014757600080fd5b82518660208202830111640100000000821117156200016557600080fd5b82525081516020918201928201910280838360005b83811015620001945781810151838201526020016200017a565b5050505090500160405260200180516040519392919084640100000000821115620001be57600080fd5b908301906020820185811115620001d457600080fd5b8251866020820283011164010000000082111715620001f257600080fd5b82525081516020918201928201910280838360005b838110156200022157818101518382015260200162000207565b50505050905001604052602001805160405193929190846401000000008211156200024b57600080fd5b9083019060208201858111156200026157600080fd5b82518660208202830111640100000000821117156200027f57600080fd5b82525081516020918201928201910280838360005b83811015620002ae57818101518382015260200162000294565b5050505090500160405260200180516040519392919084640100000000821115620002d857600080fd5b908301906020820185811115620002ee57600080fd5b82518660208202830111640100000000821117156200030c57600080fd5b82525081516020918201928201910280838360005b838110156200033b57818101518382015260200162000321565b5050505090500160405250505060006200035a6200060860201b60201c565b600080546001600160a01b0319166001600160a01b0383169081178255604051929350917f8be0079c531659141344cd1fd0a4f28419497f9722a3daafe3b4186f6b6457e0908290a35060016002819055508e600360006101000a8154816001600160a01b0302191690836001600160a01b031602179055508d600560006101000a8154816001600160a01b0302191690836001600160a01b031602179055508c600660006101000a8154816001600160a01b0302191690836001600160a01b031602179055508b600760006101000a8154816001600160a01b0302191690836001600160a01b031602179055508a600860006101000a8154816001600160a01b0302191690836001600160a01b031602179055508960098190555088601381905550866011819055508560128190555084600a9080519060200190620004a3929190620006ce565b508351620004b990600c906020870190620006ce565b508251620004cf90600d906020860190620006ce565b508151620004e590600e906020850190620006ce565b508051620004fb90600f906020840190620006ce565b5060005b600a54600019018110156200058f5760006200054c6001620005388d62000538866001018f6200060c60201b62003d2a1790919060201c565b6200067360201b62003d8a1790919060201c565b600b8054600181810183556000929092527f0175b7a638427703f0dbe7bb9bbf987a2551717b34e79f33b5b1008d1fa01db90191909155919091019050620004ff565b50620005b789620005386001600a80549050038b6200060c60201b62003d2a1790919060201c565b6010555050600b80546001810182556000919091526000197f0175b7a638427703f0dbe7bb9bbf987a2551717b34e79f33b5b1008d1fa01db99091015550620007359b505050505050505050505050565b3390565b6000826200061d575060006200066d565b828202828482816200062b57fe5b04146200066a5760405162461bcd60e51b815260040180806020018281038252602181526020018062004e2b6021913960400191505060405180910390fd5b90505b92915050565b6000828201838110156200066a576040805162461bcd60e51b815260206004820152601b60248201527f536166654d6174683a206164646974696f6e206f766572666c6f770000000000604482015290519081900360640190fd5b8280548282559060005260206000209081019282156200070c579160200282015b828111156200070c578251825591602001919060010190620006ef565b506200071a9291506200071e565b5090565b5b808211156200071a57600081556001016200071f565b6146e680620007456000396000f3fe608060405234801561001057600080fd5b506004361061046a5760003560e01c80638cc883ce1161024c578063c749d61411610146578063dd77b9fd116100c3578063eda6704811610087578063eda6704814611163578063f2fde38b14611189578063f2ffc22c146111af578063f930e770146111cc578063fb075433146111ef5761046a565b8063dd77b9fd146110dc578063de9885241461110a578063eb986b6c14611127578063ec12173d14611153578063ed9bdeda1461115b5761046a565b8063ce2529c91161010a578063ce2529c914611027578063cf1c316a1461104d578063d007db2914611073578063d49e77cd14611090578063d9608d8a146110985761046a565b8063c749d61414610f62578063c8a4271f14610f88578063c8ed768014610f90578063cb0b8ca114610fe4578063cbd258b5146110015761046a565b806398969e82116101d4578063b918161111610198578063b918161114610ede578063beff2a5314610f18578063c56a10ff14610f35578063c663baa614610f3d578063c6929e5314610f5a5761046a565b806398969e8214610e53578063a02306f914610e7f578063a82859c514610e87578063ae169a5014610ea4578063b606696214610ec15761046a565b80638dbdbe6d1161021b5780638dbdbe6d14610d87578063929c697114610db957806393f1a40b14610ddf578063975532dc14610e43578063980c2a9814610e4b5761046a565b80638cc883ce14610c955780638d88a90e14610d365780638da5cb5b14610d5c5780638dbb1e3a14610d645761046a565b80633c9d9267116103685780635eac6239116102e5578063715018a6116102a9578063715018a614610b955780637c39c9c914610b9d57806382386d5814610bba57806382796e9814610bec578063847bdaa414610bf45761046a565b80635eac623914610a725780636066debd14610b135780636245f08414610b45578063630b5ba114610b6257806364482f7914610b6a5761046a565b80634af0e3e11161032c5780634af0e3e11461094b5780634dbf85ca146109ec57806351eb05a614610a125780635312ea8e14610a2f5780635c5e490b14610a4c5761046a565b80633c9d9267146108425780633d479cd51461084a5780634179b4fb146108675780634666406414610884578063485d7d94146109255761046a565b806322a376b0116103f65780632fda7735116103ba5780632fda77351461073057806330fb8e0e1461074d578063354affb71461077357806336ebcde61461081457806339b3e8261461083a5761046a565b806322a376b0146105ac578063245b211d146105b457806324b95c3e146105d157806327e68928146105ee5780632a7b01071461068f5761046a565b80630ad58d2f1161043d5780630ad58d2f146104d25780631526fe271461050657806317caf6f1146105535780631d465c821461055b5780631eaaa045146105785761046a565b806305268cff1461046f578063081e3eda1461049357806309ae4d2c146104ad5780630a67d518146104ca575b600080fd5b61047761120c565b604080516001600160a01b039092168252519081900360200190f35b61049b61121b565b60408051918252519081900360200190f35b61049b600480360360208110156104c357600080fd5b5035611221565b61049b61125f565b610504600480360360608110156104e857600080fd5b50803590602081013590604001356001600160a01b0316611265565b005b6105236004803603602081101561051c57600080fd5b50356118d7565b604080516001600160a01b0390951685526020850193909352838301919091526060830152519081900360800190f35b61049b611918565b61049b6004803603602081101561057157600080fd5b503561191e565b6105046004803603606081101561058e57600080fd5b508035906001600160a01b0360208201351690604001351515611991565b610477611beb565b610504600480360360208110156105ca57600080fd5b5035611bfa565b610504600480360360208110156105e757600080fd5b5035611c6b565b6105046004803603602081101561060457600080fd5b810190602081018135600160201b81111561061e57600080fd5b82018360208201111561063057600080fd5b803590602001918460208302840111600160201b8311171561065157600080fd5b919080806020026020016040519081016040528093929190818152602001838360200280828437600092019190915250929550611cdc945050505050565b610504600480360360208110156106a557600080fd5b810190602081018135600160201b8111156106bf57600080fd5b8201836020820111156106d157600080fd5b803590602001918460208302840111600160201b831117156106f257600080fd5b919080806020026020016040519081016040528093929190818152602001838360200280828437600092019190915250929550611d5f945050505050565b61049b6004803603602081101561074657600080fd5b5035611dde565b6105046004803603602081101561076357600080fd5b50356001600160a01b0316611dfc565b6105046004803603602081101561078957600080fd5b810190602081018135600160201b8111156107a357600080fd5b8201836020820111156107b557600080fd5b803590602001918460208302840111600160201b831117156107d657600080fd5b919080806020026020016040519081016040528093929190818152602001838360200280828437600092019190915250929550611e8a945050505050565b61049b6004803603602081101561082a57600080fd5b50356001600160a01b0316611f09565b61049b611f56565b610477611f5c565b6105046004803603602081101561086057600080fd5b5035611f6b565b61049b6004803603602081101561087d57600080fd5b5035611fdc565b6105046004803603602081101561089a57600080fd5b810190602081018135600160201b8111156108b457600080fd5b8201836020820111156108c657600080fd5b803590602001918460208302840111600160201b831117156108e757600080fd5b919080806020026020016040519081016040528093929190818152602001838360200280828437600092019190915250929550611fe9945050505050565b6105046004803603602081101561093b57600080fd5b50356001600160a01b0316612068565b6105046004803603602081101561096157600080fd5b810190602081018135600160201b81111561097b57600080fd5b82018360208201111561098d57600080fd5b803590602001918460208302840111600160201b831117156109ae57600080fd5b919080806020026020016040519081016040528093929190818152602001838360200280828437600092019190915250929550612101945050505050565b61050460048036036020811015610a0257600080fd5b50356001600160a01b0316612180565b61050460048036036020811015610a2857600080fd5b503561220e565b61050460048036036020811015610a4557600080fd5b50356127b6565b61049b60048036036020811015610a6257600080fd5b50356001600160a01b0316612905565b61050460048036036020811015610a8857600080fd5b810190602081018135600160201b811115610aa257600080fd5b820183602082011115610ab457600080fd5b803590602001918460208302840111600160201b83111715610ad557600080fd5b919080806020026020016040519081016040528093929190818152602001838360200280828437600092019190915250929550612950945050505050565b61050460048036036060811015610b2957600080fd5b508035906001600160a01b036020820135169060400135612980565b61049b60048036036020811015610b5b57600080fd5b5035612a15565b610504612a22565b61050460048036036060811015610b8057600080fd5b50803590602081013590604001351515612a41565b610504612b1c565b61050460048036036020811015610bb357600080fd5b5035612bc8565b61050460048036036060811015610bd057600080fd5b508035906001600160a01b036020820135169060400135612c39565b61049b612cce565b61050460048036036020811015610c0a57600080fd5b810190602081018135600160201b811115610c2457600080fd5b820183602082011115610c3657600080fd5b803590602001918460208302840111600160201b83111715610c5757600080fd5b919080806020026020016040519081016040528093929190818152602001838360200280828437600092019190915250929550612cd4945050505050565b61050460048036036020811015610cab57600080fd5b810190602081018135600160201b811115610cc557600080fd5b820183602082011115610cd757600080fd5b803590602001918460208302840111600160201b83111715610cf857600080fd5b919080806020026020016040519081016040528093929190818152602001838360200280828437600092019190915250929550612d53945050505050565b61050460048036036020811015610d4c57600080fd5b50356001600160a01b0316612dd2565b610477612e60565b61049b60048036036040811015610d7a57600080fd5b5080359060200135612e6f565b61050460048036036060811015610d9d57600080fd5b50803590602081013590604001356001600160a01b0316612f6b565b61049b60048036036020811015610dcf57600080fd5b50356001600160a01b0316613225565b610e0b60048036036040811015610df557600080fd5b50803590602001356001600160a01b0316613274565b604080519788526020880196909652868601949094526060860192909252608085015260a084015260c0830152519081900360e00190f35b61049b6132c3565b61049b6132c9565b61049b60048036036040811015610e6957600080fd5b50803590602001356001600160a01b03166132cf565b61049b61341d565b61049b60048036036020811015610e9d57600080fd5b5035613423565b61050460048036036020811015610eba57600080fd5b5035613430565b61050460048036036020811015610ed757600080fd5b5035613442565b610f0460048036036020811015610ef457600080fd5b50356001600160a01b03166134b3565b604080519115158252519081900360200190f35b61049b60048036036020811015610f2e57600080fd5b50356134c8565b61049b6134d5565b61050460048036036020811015610f5357600080fd5b50356134db565b61049b61354c565b61050460048036036020811015610f7857600080fd5b50356001600160a01b0316613552565b6104776135e0565b610fb960048036036060811015610fa657600080fd5b50803590602081013590604001356135ef565b6040805195865260208601949094528484019290925260608401526080830152519081900360a00190f35b61049b60048036036020811015610ffa57600080fd5b50356137c1565b610f046004803603602081101561101757600080fd5b50356001600160a01b03166137ce565b61049b6004803603602081101561103d57600080fd5b50356001600160a01b03166137e3565b6105046004803603602081101561106357600080fd5b50356001600160a01b03166137f5565b61049b6004803603602081101561108957600080fd5b503561387e565b61047761388b565b6110be600480360360208110156110ae57600080fd5b50356001600160a01b031661389a565b60408051938452602084019290925282820152519081900360600190f35b61049b600480360360408110156110f257600080fd5b506001600160a01b03813581169160200135166138bb565b6105046004803603602081101561112057600080fd5b50356138ea565b6105046004803603604081101561113d57600080fd5b506001600160a01b03813516906020013561395b565b6104776139cc565b61049b6139db565b6105046004803603602081101561117957600080fd5b50356001600160a01b03166139e1565b6105046004803603602081101561119f57600080fd5b50356001600160a01b0316613ab6565b610504600480360360208110156111c557600080fd5b5035613bb8565b61049b600480360360408110156111e257600080fd5b5080359060200135613c29565b6105046004803603602081101561120557600080fd5b5035613cb9565b6003546001600160a01b031681565b60195490565b6000818152601b60209081526040808320338452909152812060038101541561125157600301544303905061125a565b60040154430390505b919050565b60165481565b6002805414156112bc576040805162461bcd60e51b815260206004820152601f60248201527f5265656e7472616e637947756172643a207265656e7472616e742063616c6c00604482015290519081900360640190fd5b600280819055506000601984815481106112d257fe5b60009182526020808320878452601b82526040808520338087529084528186206001600160a01b0389168752601c90945281862090865294208254600490940290910194509092918611156113585760405162461bcd60e51b815260040180806020018281038252602281526020018061463b6022913960400191505060405180910390fd5b6001600160a01b0385161561138b5733600090815260018301602052604090208054879003905560038201805487900390555b8054869003815561139b8761220e565b6113a487613de4565b85156118c95782546113b69087614070565b83556003830154156113d3576003830154430360058401556113e0565b6004830154430360058401555b600c6000815481106113ee57fe5b90600052602060002001548360050154148061140d5750826006015443145b1561148c5761145e3361144c6064611446600e60008154811061142c57fe5b90600052602060002001548b613d2a90919063ffffffff16565b906140cd565b86546001600160a01b03169190614134565b600554600f8054611487926001600160a01b03169161144c916064916114469160009061142c57fe5b61186b565b600c60018154811061149a57fe5b90600052602060002001548360050154101580156114d45750600d6000815481106114c157fe5b9060005260206000200154836005015411155b1561151e576114f33361144c6064611446600e60018154811061142c57fe5b600554600f8054611487926001600160a01b03169161144c9160649161144691600190811061142c57fe5b600c60028154811061152c57fe5b90600052602060002001548360050154101580156115665750600d60018154811061155357fe5b9060005260206000200154836005015411155b156115b0576115853361144c6064611446600e60028154811061142c57fe5b600554600f8054611487926001600160a01b03169161144c9160649161144691600290811061142c57fe5b600c6003815481106115be57fe5b90600052602060002001548360050154101580156115f85750600d6002815481106115e557fe5b9060005260206000200154836005015411155b15611642576116173361144c6064611446600e60038154811061142c57fe5b600554600f8054611487926001600160a01b03169161144c9160649161144691600390811061142c57fe5b600c60048154811061165057fe5b906000526020600020015483600501541015801561168a5750600d60038154811061167757fe5b9060005260206000200154836005015411155b156116d4576116a93361144c6064611446600e60048154811061142c57fe5b600554600f8054611487926001600160a01b03169161144c9160649161144691600490811061142c57fe5b600c6005815481106116e257fe5b906000526020600020015483600501541015801561171c5750600d60048154811061170957fe5b9060005260206000200154836005015411155b1561176c5761173c3361144c6103e8611446600e60058154811061142c57fe5b611487600560009054906101000a90046001600160a01b031661144c6103e8611446600f60058154811061142c57fe5b600c60068154811061177a57fe5b90600052602060002001548360050154101580156117b45750600d6005815481106117a157fe5b9060005260206000200154836005015411155b15611800576117d43361144c612710611446600e60068154811061142c57fe5b600554600f8054611487926001600160a01b03169161144c916127109161144691600690811061142c57fe5b600c60078154811061180e57fe5b90600052602060002001548360050154111561186b5761183f3361144c612710611446600e60078154811061142c57fe5b600554600f805461186b926001600160a01b03169161144c916127109161144691600790811061142c57fe5b600384015483546118869164e8d4a510009161144691613d2a565b6001840155604080518781529051889133917ff279e6a1f5e320cca91135676d9cb6e44ca8a08c0b88342bcdb1144f6511b5689181900360200190a34360038401555b505060016002555050505050565b601981815481106118e457fe5b600091825260209091206004909102018054600182015460028301546003909301546001600160a01b039092169350919084565b601e5481565b60008061192e6001430343612e6f565b90508261194b57600954611943908290613d2a565b91505061125a565b611943601e546114466019600187038154811061196457fe5b90600052602060002090600402016001015461198b60095486613d2a90919063ffffffff16565b90613d2a565b611999614186565b6001600160a01b03166119aa612e60565b6001600160a01b0316146119f3576040805162461bcd60e51b815260206004820181905260248201526000805160206145fb833981519152604482015290519081900360640190fd5b6001600160a01b0382166000908152601d6020526040902054829060ff1615611a4d5760405162461bcd60e51b81526004018080602001828103825260298152602001806145556029913960400191505060405180910390fd5b6001600160a01b0383166000908152601a602052604090205415611aa25760405162461bcd60e51b815260040180806020018281038252602a81526020018061465d602a913960400191505060405180910390fd5b8115611ab057611ab0612a22565b60006013544311611ac357601354611ac5565b435b601e54909150611ad59086613d8a565b601e55601980546001600160a01b039586166000818152601a6020908152604080832060019586019055601d8252808320805460ff1916861790558051608081018252938452908301998a5282019485526060820181815284549384018555939052517f944998273e477b495144fb8794c914197f3ccb46be2900f4698fd0ef743c9695600490920291820180546001600160a01b031916919097161790955594517f944998273e477b495144fb8794c914197f3ccb46be2900f4698fd0ef743c9696850155517f944998273e477b495144fb8794c914197f3ccb46be2900f4698fd0ef743c9697840155505090517f944998273e477b495144fb8794c914197f3ccb46be2900f4698fd0ef743c969890910155565b6006546001600160a01b031681565b3360009081526001602052604090205460ff1680611c27575033611c1c612e60565b6001600160a01b0316145b611c66576040805162461bcd60e51b8152602060048201526018602482015260008051602061461b833981519152604482015290519081900360640190fd5b601055565b3360009081526001602052604090205460ff1680611c98575033611c8d612e60565b6001600160a01b0316145b611cd7576040805162461bcd60e51b8152602060048201526018602482015260008051602061461b833981519152604482015290519081900360640190fd5b601355565b3360009081526001602052604090205460ff1680611d09575033611cfe612e60565b6001600160a01b0316145b611d48576040805162461bcd60e51b8152602060048201526018602482015260008051602061461b833981519152604482015290519081900360640190fd5b8051611d5b9060149060208401906144ad565b5050565b3360009081526001602052604090205460ff1680611d8c575033611d81612e60565b6001600160a01b0316145b611dcb576040805162461bcd60e51b8152602060048201526018602482015260008051602061461b833981519152604482015290519081900360640190fd5b8051611d5b90600e9060208401906144ad565b600a8181548110611deb57fe5b600091825260209091200154905081565b3360009081526001602052604090205460ff1680611e29575033611e1e612e60565b6001600160a01b0316145b611e68576040805162461bcd60e51b8152602060048201526018602482015260008051602061461b833981519152604482015290519081900360640190fd5b600880546001600160a01b0319166001600160a01b0392909216919091179055565b3360009081526001602052604090205460ff1680611eb7575033611eac612e60565b6001600160a01b0316145b611ef6576040805162461bcd60e51b8152602060048201526018602482015260008051602061461b833981519152604482015290519081900360640190fd5b8051611d5b90600b9060208401906144ad565b6000611f136144f8565b50506001600160a01b03166000908152601c6020908152604091829020825160608101845281548152600282015492810183905260039091015492019190915290565b60135481565b6007546001600160a01b031681565b3360009081526001602052604090205460ff1680611f98575033611f8d612e60565b6001600160a01b0316145b611fd7576040805162461bcd60e51b8152602060048201526018602482015260008051602061461b833981519152604482015290519081900360640190fd5b600955565b600b8181548110611deb57fe5b3360009081526001602052604090205460ff168061201657503361200b612e60565b6001600160a01b0316145b612055576040805162461bcd60e51b8152602060048201526018602482015260008051602061461b833981519152604482015290519081900360640190fd5b8051611d5b90600a9060208401906144ad565b612070614186565b6001600160a01b0316612081612e60565b6001600160a01b0316146120ca576040805162461bcd60e51b815260206004820181905260248201526000805160206145fb833981519152604482015290519081900360640190fd5b6001600160a01b0381163314156120e057600080fd5b6001600160a01b03166000908152600160205260409020805460ff19169055565b3360009081526001602052604090205460ff168061212e575033612123612e60565b6001600160a01b0316145b61216d576040805162461bcd60e51b8152602060048201526018602482015260008051602061461b833981519152604482015290519081900360640190fd5b8051611d5b90600d9060208401906144ad565b3360009081526001602052604090205460ff16806121ad5750336121a2612e60565b6001600160a01b0316145b6121ec576040805162461bcd60e51b8152602060048201526018602482015260008051602061461b833981519152604482015290519081900360640190fd5b600680546001600160a01b0319166001600160a01b0392909216919091179055565b60006019828154811061221d57fe5b906000526020600020906004020190508060020154431161223e57506127b3565b8054604080516370a0823160e01b815230600482015290516000926001600160a01b0316916370a08231916024808301926020929190829003018186803b15801561228857600080fd5b505afa15801561229c573d6000803e3d6000fd5b505050506040513d60208110156122b257600080fd5b50519050806122c85750436002909101556127b3565b60008060008060006122e387600201544389600101546135ef565b600354604080516340c10f1960e01b8152306004820152602481018790529051969b5094995092975090955093506001600160a01b0316916340c10f199160448082019260009290919082900301818387803b15801561234257600080fd5b505af1158015612356573d6000803e3d6000fd5b505050506123846123798761144664e8d4a5100088613d2a90919063ffffffff16565b600389015490613d8a565b6003880155436002880155841561249657600354600554604080516340c10f1960e01b81526001600160a01b03928316600482015260248101899052905191909216916340c10f1991604480830192600092919082900301818387803b1580156123ed57600080fd5b505af1158015612401573d6000803e3d6000fd5b505050506010544311612496576003546005546001600160a01b039182169163282d3fdf911661243760646114468a604b613d2a565b6040518363ffffffff1660e01b815260040180836001600160a01b0316815260200182815260200192505050600060405180830381600087803b15801561247d57600080fd5b505af1158015612491573d6000803e3d6000fd5b505050505b821561259d57600354600654604080516340c10f1960e01b81526001600160a01b03928316600482015260248101879052905191909216916340c10f1991604480830192600092919082900301818387803b1580156124f457600080fd5b505af1158015612508573d6000803e3d6000fd5b50505050601054431161259d576003546006546001600160a01b039182169163282d3fdf911661253e606461144688602d613d2a565b6040518363ffffffff1660e01b815260040180836001600160a01b0316815260200182815260200192505050600060405180830381600087803b15801561258457600080fd5b505af1158015612598573d6000803e3d6000fd5b505050505b81156126a457600354600754604080516340c10f1960e01b81526001600160a01b03928316600482015260248101869052905191909216916340c10f1991604480830192600092919082900301818387803b1580156125fb57600080fd5b505af115801561260f573d6000803e3d6000fd5b5050505060105443116126a4576003546007546001600160a01b039182169163282d3fdf91166126456064611446876055613d2a565b6040518363ffffffff1660e01b815260040180836001600160a01b0316815260200182815260200192505050600060405180830381600087803b15801561268b57600080fd5b505af115801561269f573d6000803e3d6000fd5b505050505b80156127ab57600354600854604080516340c10f1960e01b81526001600160a01b03928316600482015260248101859052905191909216916340c10f1991604480830192600092919082900301818387803b15801561270257600080fd5b505af1158015612716573d6000803e3d6000fd5b5050505060105443116127ab576003546008546001600160a01b039182169163282d3fdf911661274c606461144686605f613d2a565b6040518363ffffffff1660e01b815260040180836001600160a01b0316815260200182815260200192505050600060405180830381600087803b15801561279257600080fd5b505af11580156127a6573d6000803e3d6000fd5b505050505b505050505050505b50565b60028054141561280d576040805162461bcd60e51b815260206004820152601f60248201527f5265656e7472616e637947756172643a207265656e7472616e742063616c6c00604482015290519081900360640190fd5b6002808190555060006019828154811061282357fe5b60009182526020808320858452601b8252604080852033865290925290832080546004909302909101935091906128629060649061144690604b613d2a565b90506000612883606461144660198660000154613d2a90919063ffffffff16565b6000808555600185015584549091506128a6906001600160a01b03163384614134565b60055484546128c2916001600160a01b03918216911683614134565b604080518381529051869133917fbb757047c2b5f3974fe26b7c10f732e7bce710b0952a71082702781e62ae05959181900360200190a350506001600255505050565b600061290f6144f8565b50506001600160a01b03166000908152601c602090815260409182902082516060810184528154815260028201549281019290925260030154910181905290565b60005b8151811015611d5b5761297882828151811061296b57fe5b6020026020010151613430565b600101612953565b3360009081526001602052604090205460ff16806129ad5750336129a2612e60565b6001600160a01b0316145b6129ec576040805162461bcd60e51b8152602060048201526018602482015260008051602061461b833981519152604482015290519081900360640190fd5b6000928352601b602090815260408085206001600160a01b039094168552929052912060030155565b600c8181548110611deb57fe5b60195460005b81811015611d5b57612a398161220e565b600101612a28565b612a49614186565b6001600160a01b0316612a5a612e60565b6001600160a01b031614612aa3576040805162461bcd60e51b815260206004820181905260248201526000805160206145fb833981519152604482015290519081900360640190fd5b8015612ab157612ab1612a22565b612aee82612ae860198681548110612ac557fe5b906000526020600020906004020160010154601e5461407090919063ffffffff16565b90613d8a565b601e819055508160198481548110612b0257fe5b906000526020600020906004020160010181905550505050565b612b24614186565b6001600160a01b0316612b35612e60565b6001600160a01b031614612b7e576040805162461bcd60e51b815260206004820181905260248201526000805160206145fb833981519152604482015290519081900360640190fd5b600080546040516001600160a01b03909116907f8be0079c531659141344cd1fd0a4f28419497f9722a3daafe3b4186f6b6457e0908390a3600080546001600160a01b0319169055565b3360009081526001602052604090205460ff1680612bf5575033612bea612e60565b6001600160a01b0316145b612c34576040805162461bcd60e51b8152602060048201526018602482015260008051602061461b833981519152604482015290519081900360640190fd5b601155565b3360009081526001602052604090205460ff1680612c66575033612c5b612e60565b6001600160a01b0316145b612ca5576040805162461bcd60e51b8152602060048201526018602482015260008051602061461b833981519152604482015290519081900360640190fd5b6000928352601b602090815260408085206001600160a01b039094168552929052912060040155565b60115481565b3360009081526001602052604090205460ff1680612d01575033612cf6612e60565b6001600160a01b0316145b612d40576040805162461bcd60e51b8152602060048201526018602482015260008051602061461b833981519152604482015290519081900360640190fd5b8051611d5b90600c9060208401906144ad565b3360009081526001602052604090205460ff1680612d80575033612d75612e60565b6001600160a01b0316145b612dbf576040805162461bcd60e51b8152602060048201526018602482015260008051602061461b833981519152604482015290519081900360640190fd5b8051611d5b90600f9060208401906144ad565b3360009081526001602052604090205460ff1680612dff575033612df4612e60565b6001600160a01b0316145b612e3e576040805162461bcd60e51b8152602060048201526018602482015260008051602061461b833981519152604482015290519081900360640190fd5b600580546001600160a01b0319166001600160a01b0392909216919091179055565b6000546001600160a01b031690565b6013546000908190841015612e88576000915050612f65565b60005b600b54811015612f61576000600b8281548110612ea457fe5b906000526020600020015490506001600a8054905003821115612ecd5760009350505050612f65565b808511612f13576000612efc600a8481548110612ee657fe5b60009182526020909120015461198b888a614070565b9050612f088482613d8a565b945050505050612f65565b80861015612f58576000612f43600a8481548110612f2d57fe5b60009182526020909120015461198b848a614070565b91965086919050612f548482613d8a565b9350505b50600101612e8b565b5090505b92915050565b600280541415612fc2576040805162461bcd60e51b815260206004820152601f60248201527f5265656e7472616e637947756172643a207265656e7472616e742063616c6c00604482015290519081900360640190fd5b60028055816130025760405162461bcd60e51b81526004018080602001828103825260368152602001806145c56036913960400191505060405180910390fd5b60006019848154811061301157fe5b60009182526020808320878452601b82526040808520338087529084528186206005546001600160a01b039081168852838820908a168852601c86528388209288528388206001840190965292909620546004959095029092019550929091901561309c573360009081526001830160205260409020805488019055600382018054880190556130cb565b336000908152600180840160205260409091208054890190556002830180549091019055600382018054880190555b6130e560646114466011548a613d2a90919063ffffffff16565b81540181556130f38861220e565b6130fc88613de4565b8454613113906001600160a01b031633308a61418a565b8354613120574360028501555b6131506131486131416127106114466011548c613d2a90919063ffffffff16565b8990614070565b855490613d8a565b808555600386015461316d9164e8d4a51000916114469190613d2a565b846001018190555061319e6131966131416127106114466012548c613d2a90919063ffffffff16565b845490613d8a565b80845560038601546131bb9164e8d4a51000916114469190613d2a565b6001840155604080518881529051899133917f90890809c654f11d6e72a28fa60149770a0d11ec6c92319d6ceb2bb0a4ea1a159181900360200190a36004840154156132065761320d565b4360048501555b50504360069092019190915550506001600255505050565b600061322f6144f8565b50506001600160a01b03166000908152601c60209081526040918290208251606081018452815480825260028301549382019390935260039091015492019190915290565b601b602052816000526040600020602052806000526040600020600091509150508060000154908060010154908060020154908060030154908060040154908060050154908060060154905087565b60095481565b60105481565b600080601984815481106132df57fe5b60009182526020808320878452601b825260408085206001600160a01b03898116875290845281862060049586029093016003810154815484516370a0823160e01b81523098810198909852935191985093969395939492909116926370a08231926024808301939192829003018186803b15801561335d57600080fd5b505afa158015613371573d6000803e3d6000fd5b505050506040513d602081101561338757600080fd5b505160028501549091504311801561339f5750600081115b156133e45760006133b985600201544387600101546135ef565b509193506133e092506133d991508490506114468464e8d4a51000613d2a565b8490613d8a565b9250505b613412836001015461340c64e8d4a51000611446868860000154613d2a90919063ffffffff16565b90614070565b979650505050505050565b60175481565b60148181548110611deb57fe5b6134398161220e565b6127b381613de4565b3360009081526001602052604090205460ff168061346f575033613464612e60565b6001600160a01b0316145b6134ae576040805162461bcd60e51b8152602060048201526018602482015260008051602061461b833981519152604482015290519081900360640190fd5b601555565b60016020526000908152604090205460ff1681565b600f8181548110611deb57fe5b60125481565b3360009081526001602052604090205460ff16806135085750336134fd612e60565b6001600160a01b0316145b613547576040805162461bcd60e51b8152602060048201526018602482015260008051602061461b833981519152604482015290519081900360640190fd5b601755565b60185481565b3360009081526001602052604090205460ff168061357f575033613574612e60565b6001600160a01b0316145b6135be576040805162461bcd60e51b8152602060048201526018602482015260008051602061461b833981519152604482015290519081900360640190fd5b600780546001600160a01b0319166001600160a01b0392909216919091179055565b6004546001600160a01b031681565b6000806000806000806136028989612e6f565b90506000613625601e546114468a61198b60095487613d2a90919063ffffffff16565b9050600061371d600360009054906101000a90046001600160a01b03166001600160a01b03166318160ddd6040518163ffffffff1660e01b815260040160206040518083038186803b15801561367a57600080fd5b505afa15801561368e573d6000803e3d6000fd5b505050506040513d60208110156136a457600080fd5b505160035460408051631aa93a7560e11b815290516001600160a01b039092169163355274ea91600480820192602092909190829003018186803b1580156136eb57600080fd5b505afa1580156136ff573d6000803e3d6000fd5b505050506040513d602081101561371557600080fd5b505190614070565b90508181101561373f57600097508096506000955060009450600093506137b3565b613759606461144660155485613d2a90919063ffffffff16565b9750819650613778606461144660165485613d2a90919063ffffffff16565b9550613794606461144660175485613d2a90919063ffffffff16565b94506137b0606461144660185485613d2a90919063ffffffff16565b93505b505050939792965093509350565b600d8181548110611deb57fe5b601d6020526000908152604090205460ff1681565b601a6020526000908152604090205481565b6137fd614186565b6001600160a01b031661380e612e60565b6001600160a01b031614613857576040805162461bcd60e51b815260206004820181905260248201526000805160206145fb833981519152604482015290519081900360640190fd5b6001600160a01b03166000908152600160208190526040909120805460ff19169091179055565b600e8181548110611deb57fe5b6005546001600160a01b031681565b601c6020526000908152604090208054600282015460039092015490919083565b6001600160a01b039182166000908152601c602090815260408083209390941682526001909201909152205490565b3360009081526001602052604090205460ff168061391757503361390c612e60565b6001600160a01b0316145b613956576040805162461bcd60e51b8152602060048201526018602482015260008051602061461b833981519152604482015290519081900360640190fd5b601855565b600354604080516340c10f1960e01b81526001600160a01b03858116600483015260248201859052915191909216916340c10f1991604480830192600092919082900301818387803b1580156139b057600080fd5b505af11580156139c4573d6000803e3d6000fd5b505050505050565b6008546001600160a01b031681565b60155481565b3360009081526001602052604090205460ff1680613a0e575033613a03612e60565b6001600160a01b0316145b613a4d576040805162461bcd60e51b8152602060048201526018602482015260008051602061461b833981519152604482015290519081900360640190fd5b6003546040805163f2fde38b60e01b81526001600160a01b0384811660048301529151919092169163f2fde38b91602480830192600092919082900301818387803b158015613a9b57600080fd5b505af1158015613aaf573d6000803e3d6000fd5b5050505050565b613abe614186565b6001600160a01b0316613acf612e60565b6001600160a01b031614613b18576040805162461bcd60e51b815260206004820181905260248201526000805160206145fb833981519152604482015290519081900360640190fd5b6001600160a01b038116613b5d5760405162461bcd60e51b815260040180806020018281038252602681526020018061452f6026913960400191505060405180910390fd5b600080546040516001600160a01b03808516939216917f8be0079c531659141344cd1fd0a4f28419497f9722a3daafe3b4186f6b6457e091a3600080546001600160a01b0319166001600160a01b0392909216919091179055565b3360009081526001602052604090205460ff1680613be5575033613bda612e60565b6001600160a01b0316145b613c24576040805162461bcd60e51b8152602060048201526018602482015260008051602061461b833981519152604482015290519081900360640190fd5b601655565b6013546000908190841015613c42576064915050612f65565b60005b600b54811015612f61576000600b8281548110613c5e57fe5b90600052602060002001549050600160148054905003821115613c875760009350505050612f65565b808511613cb05760148281548110613c9b57fe5b90600052602060002001549350505050612f65565b50600101613c45565b3360009081526001602052604090205460ff1680613ce6575033613cdb612e60565b6001600160a01b0316145b613d25576040805162461bcd60e51b8152602060048201526018602482015260008051602061461b833981519152604482015290519081900360640190fd5b601255565b600082613d3957506000612f65565b82820282848281613d4657fe5b0414613d835760405162461bcd60e51b81526004018080602001828103825260218152602001806145a46021913960400191505060405180910390fd5b9392505050565b600082820183811015613d83576040805162461bcd60e51b815260206004820152601b60248201527f536166654d6174683a206164646974696f6e206f766572666c6f770000000000604482015290519081900360640190fd5b600060198281548110613df357fe5b60009182526020808320858452601b8252604080852033865290925292208054600490920290920192501561406b576000613e50826001015461340c64e8d4a5100061144687600301548760000154613d2a90919063ffffffff16565b600354604080516370a0823160e01b815230600482015290519293506000926001600160a01b03909216916370a0823191602480820192602092909190829003018186803b158015613ea157600080fd5b505afa158015613eb5573d6000803e3d6000fd5b505050506040513d6020811015613ecb57600080fd5b5051905080821115613edb578091505b8115614048576003546040805163a9059cbb60e01b81523360048201526024810185905290516001600160a01b039092169163a9059cbb916044808201926020929091908290030181600087803b158015613f3557600080fd5b505af1158015613f49573d6000803e3d6000fd5b505050506040513d6020811015613f5f57600080fd5b5050601054600284015460009110614001576000613f806001430343613c29565b9050613f9160646114468684613d2a565b6003546040805163282d3fdf60e01b81523360048201526024810184905290519294506001600160a01b039091169163282d3fdf9160448082019260009290919082900301818387803b158015613fe757600080fd5b505af1158015613ffb573d6000803e3d6000fd5b50505050505b43600285015560408051848152602081018390528151889233927f3887f2857beaaf367eb618dfb5e22c1ebd74425affb0602c2e9fe126e3f860eb929081900390910190a3505b600384015483546140639164e8d4a510009161144691613d2a565b600184015550505b505050565b6000828211156140c7576040805162461bcd60e51b815260206004820152601e60248201527f536166654d6174683a207375627472616374696f6e206f766572666c6f770000604482015290519081900360640190fd5b50900390565b6000808211614123576040805162461bcd60e51b815260206004820152601a60248201527f536166654d6174683a206469766973696f6e206279207a65726f000000000000604482015290519081900360640190fd5b81838161412c57fe5b049392505050565b604080516001600160a01b038416602482015260448082018490528251808303909101815260649091019091526020810180516001600160e01b031663a9059cbb60e01b17905261406b9084906141ea565b3390565b604080516001600160a01b0380861660248301528416604482015260648082018490528251808303909101815260849091019091526020810180516001600160e01b03166323b872dd60e01b1790526141e49085906141ea565b50505050565b606061423f826040518060400160405280602081526020017f5361666545524332303a206c6f772d6c6576656c2063616c6c206661696c6564815250856001600160a01b031661429b9092919063ffffffff16565b80519091501561406b5780806020019051602081101561425e57600080fd5b505161406b5760405162461bcd60e51b815260040180806020018281038252602a815260200180614687602a913960400191505060405180910390fd5b60606142aa84846000856142b2565b949350505050565b6060824710156142f35760405162461bcd60e51b815260040180806020018281038252602681526020018061457e6026913960400191505060405180910390fd5b6142fc85614403565b61434d576040805162461bcd60e51b815260206004820152601d60248201527f416464726573733a2063616c6c20746f206e6f6e2d636f6e7472616374000000604482015290519081900360640190fd5b60006060866001600160a01b031685876040518082805190602001908083835b6020831061438c5780518252601f19909201916020918201910161436d565b6001836020036101000a03801982511681845116808217855250505050505090500191505060006040518083038185875af1925050503d80600081146143ee576040519150601f19603f3d011682016040523d82523d6000602084013e6143f3565b606091505b5091509150613412828286614409565b3b151590565b60608315614418575081613d83565b8251156144285782518084602001fd5b8160405162461bcd60e51b81526004018080602001828103825283818151815260200191508051906020019080838360005b8381101561447257818101518382015260200161445a565b50505050905090810190601f16801561449f5780820380516001836020036101000a031916815260200191505b509250505060405180910390fd5b8280548282559060005260206000209081019282156144e8579160200282015b828111156144e85782518255916020019190600101906144cd565b506144f4929150614519565b5090565b60405180606001604052806000815260200160008152602001600081525090565b5b808211156144f4576000815560010161451a56fe4f776e61626c653a206e6577206f776e657220697320746865207a65726f20616464726573734d617374657247617264656e65723a3a6e6f6e4475706c6963617465643a206475706c696361746564416464726573733a20696e73756666696369656e742062616c616e636520666f722063616c6c536166654d6174683a206d756c7469706c69636174696f6e206f766572666c6f774d617374657247617264656e65723a3a6465706f7369743a20616d6f756e74206d7573742062652067726561746572207468616e20304f776e61626c653a2063616c6c6572206973206e6f7420746865206f776e657263616c6c6572206973206e6f7420617574686f72697a656400000000000000004d617374657247617264656e65723a3a77697468647261773a206e6f7420676f6f644d617374657247617264656e65723a3a6164643a206c7020697320616c726561647920696e20706f6f6c5361666545524332303a204552433230206f7065726174696f6e20646964206e6f742073756363656564a2646970667358221220dfb2d108a52ecc4bddb1639218b6897e75823e856017b66d275ffd0d98b9a95c64736f6c634300060c0033536166654d6174683a206d756c7469706c69636174696f6e206f766572666c6f77",
			"opcodes": "PUSH1 0x80 PUSH1 0x40 MSTORE PUSH1 0x0 PUSH1 0x1E SSTORE CALLVALUE DUP1 ISZERO PUSH3 0x16 JUMPI PUSH1 0x0 DUP1 REVERT JUMPDEST POP PUSH1 0x40 MLOAD PUSH3 0x4E4C CODESIZE SUB DUP1 PUSH3 0x4E4C DUP4 CODECOPY DUP2 DUP2 ADD PUSH1 0x40 MSTORE PUSH2 0x1E0 DUP2 LT ISZERO PUSH3 0x3D JUMPI PUSH1 0x0 DUP1 REVERT JUMPDEST DUP2 MLOAD PUSH1 0x20 DUP4 ADD MLOAD PUSH1 0x40 DUP1 DUP6 ADD MLOAD PUSH1 0x60 DUP7 ADD MLOAD PUSH1 0x80 DUP8 ADD MLOAD PUSH1 0xA0 DUP9 ADD MLOAD PUSH1 0xC0 DUP10 ADD MLOAD PUSH1 0xE0 DUP11 ADD MLOAD PUSH2 0x100 DUP12 ADD MLOAD PUSH2 0x120 DUP13 ADD MLOAD PUSH2 0x140 DUP14 ADD DUP1 MLOAD SWAP10 MLOAD SWAP12 SWAP14 SWAP11 SWAP13 SWAP9 SWAP12 SWAP8 SWAP11 SWAP7 SWAP10 SWAP6 SWAP9 SWAP5 SWAP8 SWAP4 SWAP7 SWAP3 SWAP6 SWAP2 SWAP5 DUP4 ADD SWAP3 SWAP2 DUP5 PUSH5 0x100000000 DUP3 GT ISZERO PUSH3 0xA4 JUMPI PUSH1 0x0 DUP1 REVERT JUMPDEST SWAP1 DUP4 ADD SWAP1 PUSH1 0x20 DUP3 ADD DUP6 DUP2 GT ISZERO PUSH3 0xBA JUMPI PUSH1 0x0 DUP1 REVERT JUMPDEST DUP3 MLOAD DUP7 PUSH1 0x20 DUP3 MUL DUP4 ADD GT PUSH5 0x100000000 DUP3 GT OR ISZERO PUSH3 0xD8 JUMPI PUSH1 0x0 DUP1 REVERT JUMPDEST DUP3 MSTORE POP DUP2 MLOAD PUSH1 0x20 SWAP2 DUP3 ADD SWAP3 DUP3 ADD SWAP2 MUL DUP1 DUP4 DUP4 PUSH1 0x0 JUMPDEST DUP4 DUP2 LT ISZERO PUSH3 0x107 JUMPI DUP2 DUP2 ADD MLOAD DUP4 DUP3 ADD MSTORE PUSH1 0x20 ADD PUSH3 0xED JUMP JUMPDEST POP POP POP POP SWAP1 POP ADD PUSH1 0x40 MSTORE PUSH1 0x20 ADD DUP1 MLOAD PUSH1 0x40 MLOAD SWAP4 SWAP3 SWAP2 SWAP1 DUP5 PUSH5 0x100000000 DUP3 GT ISZERO PUSH3 0x131 JUMPI PUSH1 0x0 DUP1 REVERT JUMPDEST SWAP1 DUP4 ADD SWAP1 PUSH1 0x20 DUP3 ADD DUP6 DUP2 GT ISZERO PUSH3 0x147 JUMPI PUSH1 0x0 DUP1 REVERT JUMPDEST DUP3 MLOAD DUP7 PUSH1 0x20 DUP3 MUL DUP4 ADD GT PUSH5 0x100000000 DUP3 GT OR ISZERO PUSH3 0x165 JUMPI PUSH1 0x0 DUP1 REVERT JUMPDEST DUP3 MSTORE POP DUP2 MLOAD PUSH1 0x20 SWAP2 DUP3 ADD SWAP3 DUP3 ADD SWAP2 MUL DUP1 DUP4 DUP4 PUSH1 0x0 JUMPDEST DUP4 DUP2 LT ISZERO PUSH3 0x194 JUMPI DUP2 DUP2 ADD MLOAD DUP4 DUP3 ADD MSTORE PUSH1 0x20 ADD PUSH3 0x17A JUMP JUMPDEST POP POP POP POP SWAP1 POP ADD PUSH1 0x40 MSTORE PUSH1 0x20 ADD DUP1 MLOAD PUSH1 0x40 MLOAD SWAP4 SWAP3 SWAP2 SWAP1 DUP5 PUSH5 0x100000000 DUP3 GT ISZERO PUSH3 0x1BE JUMPI PUSH1 0x0 DUP1 REVERT JUMPDEST SWAP1 DUP4 ADD SWAP1 PUSH1 0x20 DUP3 ADD DUP6 DUP2 GT ISZERO PUSH3 0x1D4 JUMPI PUSH1 0x0 DUP1 REVERT JUMPDEST DUP3 MLOAD DUP7 PUSH1 0x20 DUP3 MUL DUP4 ADD GT PUSH5 0x100000000 DUP3 GT OR ISZERO PUSH3 0x1F2 JUMPI PUSH1 0x0 DUP1 REVERT JUMPDEST DUP3 MSTORE POP DUP2 MLOAD PUSH1 0x20 SWAP2 DUP3 ADD SWAP3 DUP3 ADD SWAP2 MUL DUP1 DUP4 DUP4 PUSH1 0x0 JUMPDEST DUP4 DUP2 LT ISZERO PUSH3 0x221 JUMPI DUP2 DUP2 ADD MLOAD DUP4 DUP3 ADD MSTORE PUSH1 0x20 ADD PUSH3 0x207 JUMP JUMPDEST POP POP POP POP SWAP1 POP ADD PUSH1 0x40 MSTORE PUSH1 0x20 ADD DUP1 MLOAD PUSH1 0x40 MLOAD SWAP4 SWAP3 SWAP2 SWAP1 DUP5 PUSH5 0x100000000 DUP3 GT ISZERO PUSH3 0x24B JUMPI PUSH1 0x0 DUP1 REVERT JUMPDEST SWAP1 DUP4 ADD SWAP1 PUSH1 0x20 DUP3 ADD DUP6 DUP2 GT ISZERO PUSH3 0x261 JUMPI PUSH1 0x0 DUP1 REVERT JUMPDEST DUP3 MLOAD DUP7 PUSH1 0x20 DUP3 MUL DUP4 ADD GT PUSH5 0x100000000 DUP3 GT OR ISZERO PUSH3 0x27F JUMPI PUSH1 0x0 DUP1 REVERT JUMPDEST DUP3 MSTORE POP DUP2 MLOAD PUSH1 0x20 SWAP2 DUP3 ADD SWAP3 DUP3 ADD SWAP2 MUL DUP1 DUP4 DUP4 PUSH1 0x0 JUMPDEST DUP4 DUP2 LT ISZERO PUSH3 0x2AE JUMPI DUP2 DUP2 ADD MLOAD DUP4 DUP3 ADD MSTORE PUSH1 0x20 ADD PUSH3 0x294 JUMP JUMPDEST POP POP POP POP SWAP1 POP ADD PUSH1 0x40 MSTORE PUSH1 0x20 ADD DUP1 MLOAD PUSH1 0x40 MLOAD SWAP4 SWAP3 SWAP2 SWAP1 DUP5 PUSH5 0x100000000 DUP3 GT ISZERO PUSH3 0x2D8 JUMPI PUSH1 0x0 DUP1 REVERT JUMPDEST SWAP1 DUP4 ADD SWAP1 PUSH1 0x20 DUP3 ADD DUP6 DUP2 GT ISZERO PUSH3 0x2EE JUMPI PUSH1 0x0 DUP1 REVERT JUMPDEST DUP3 MLOAD DUP7 PUSH1 0x20 DUP3 MUL DUP4 ADD GT PUSH5 0x100000000 DUP3 GT OR ISZERO PUSH3 0x30C JUMPI PUSH1 0x0 DUP1 REVERT JUMPDEST DUP3 MSTORE POP DUP2 MLOAD PUSH1 0x20 SWAP2 DUP3 ADD SWAP3 DUP3 ADD SWAP2 MUL DUP1 DUP4 DUP4 PUSH1 0x0 JUMPDEST DUP4 DUP2 LT ISZERO PUSH3 0x33B JUMPI DUP2 DUP2 ADD MLOAD DUP4 DUP3 ADD MSTORE PUSH1 0x20 ADD PUSH3 0x321 JUMP JUMPDEST POP POP POP POP SWAP1 POP ADD PUSH1 0x40 MSTORE POP POP POP PUSH1 0x0 PUSH3 0x35A PUSH3 0x608 PUSH1 0x20 SHL PUSH1 0x20 SHR JUMP JUMPDEST PUSH1 0x0 DUP1 SLOAD PUSH1 0x1 PUSH1 0x1 PUSH1 0xA0 SHL SUB NOT AND PUSH1 0x1 PUSH1 0x1 PUSH1 0xA0 SHL SUB DUP4 AND SWAP1 DUP2 OR DUP3 SSTORE PUSH1 0x40 MLOAD SWAP3 SWAP4 POP SWAP2 PUSH32 0x8BE0079C531659141344CD1FD0A4F28419497F9722A3DAAFE3B4186F6B6457E0 SWAP1 DUP3 SWAP1 LOG3 POP PUSH1 0x1 PUSH1 0x2 DUP2 SWAP1 SSTORE POP DUP15 PUSH1 0x3 PUSH1 0x0 PUSH2 0x100 EXP DUP2 SLOAD DUP2 PUSH1 0x1 PUSH1 0x1 PUSH1 0xA0 SHL SUB MUL NOT AND SWAP1 DUP4 PUSH1 0x1 PUSH1 0x1 PUSH1 0xA0 SHL SUB AND MUL OR SWAP1 SSTORE POP DUP14 PUSH1 0x5 PUSH1 0x0 PUSH2 0x100 EXP DUP2 SLOAD DUP2 PUSH1 0x1 PUSH1 0x1 PUSH1 0xA0 SHL SUB MUL NOT AND SWAP1 DUP4 PUSH1 0x1 PUSH1 0x1 PUSH1 0xA0 SHL SUB AND MUL OR SWAP1 SSTORE POP DUP13 PUSH1 0x6 PUSH1 0x0 PUSH2 0x100 EXP DUP2 SLOAD DUP2 PUSH1 0x1 PUSH1 0x1 PUSH1 0xA0 SHL SUB MUL NOT AND SWAP1 DUP4 PUSH1 0x1 PUSH1 0x1 PUSH1 0xA0 SHL SUB AND MUL OR SWAP1 SSTORE POP DUP12 PUSH1 0x7 PUSH1 0x0 PUSH2 0x100 EXP DUP2 SLOAD DUP2 PUSH1 0x1 PUSH1 0x1 PUSH1 0xA0 SHL SUB MUL NOT AND SWAP1 DUP4 PUSH1 0x1 PUSH1 0x1 PUSH1 0xA0 SHL SUB AND MUL OR SWAP1 SSTORE POP DUP11 PUSH1 0x8 PUSH1 0x0 PUSH2 0x100 EXP DUP2 SLOAD DUP2 PUSH1 0x1 PUSH1 0x1 PUSH1 0xA0 SHL SUB MUL NOT AND SWAP1 DUP4 PUSH1 0x1 PUSH1 0x1 PUSH1 0xA0 SHL SUB AND MUL OR SWAP1 SSTORE POP DUP10 PUSH1 0x9 DUP2 SWAP1 SSTORE POP DUP9 PUSH1 0x13 DUP2 SWAP1 SSTORE POP DUP7 PUSH1 0x11 DUP2 SWAP1 SSTORE POP DUP6 PUSH1 0x12 DUP2 SWAP1 SSTORE POP DUP5 PUSH1 0xA SWAP1 DUP1 MLOAD SWAP1 PUSH1 0x20 ADD SWAP1 PUSH3 0x4A3 SWAP3 SWAP2 SWAP1 PUSH3 0x6CE JUMP JUMPDEST POP DUP4 MLOAD PUSH3 0x4B9 SWAP1 PUSH1 0xC SWAP1 PUSH1 0x20 DUP8 ADD SWAP1 PUSH3 0x6CE JUMP JUMPDEST POP DUP3 MLOAD PUSH3 0x4CF SWAP1 PUSH1 0xD SWAP1 PUSH1 0x20 DUP7 ADD SWAP1 PUSH3 0x6CE JUMP JUMPDEST POP DUP2 MLOAD PUSH3 0x4E5 SWAP1 PUSH1 0xE SWAP1 PUSH1 0x20 DUP6 ADD SWAP1 PUSH3 0x6CE JUMP JUMPDEST POP DUP1 MLOAD PUSH3 0x4FB SWAP1 PUSH1 0xF SWAP1 PUSH1 0x20 DUP5 ADD SWAP1 PUSH3 0x6CE JUMP JUMPDEST POP PUSH1 0x0 JUMPDEST PUSH1 0xA SLOAD PUSH1 0x0 NOT ADD DUP2 LT ISZERO PUSH3 0x58F JUMPI PUSH1 0x0 PUSH3 0x54C PUSH1 0x1 PUSH3 0x538 DUP14 PUSH3 0x538 DUP7 PUSH1 0x1 ADD DUP16 PUSH3 0x60C PUSH1 0x20 SHL PUSH3 0x3D2A OR SWAP1 SWAP2 SWAP1 PUSH1 0x20 SHR JUMP JUMPDEST PUSH3 0x673 PUSH1 0x20 SHL PUSH3 0x3D8A OR SWAP1 SWAP2 SWAP1 PUSH1 0x20 SHR JUMP JUMPDEST PUSH1 0xB DUP1 SLOAD PUSH1 0x1 DUP2 DUP2 ADD DUP4 SSTORE PUSH1 0x0 SWAP3 SWAP1 SWAP3 MSTORE PUSH32 0x175B7A638427703F0DBE7BB9BBF987A2551717B34E79F33B5B1008D1FA01DB9 ADD SWAP2 SWAP1 SWAP2 SSTORE SWAP2 SWAP1 SWAP2 ADD SWAP1 POP PUSH3 0x4FF JUMP JUMPDEST POP PUSH3 0x5B7 DUP10 PUSH3 0x538 PUSH1 0x1 PUSH1 0xA DUP1 SLOAD SWAP1 POP SUB DUP12 PUSH3 0x60C PUSH1 0x20 SHL PUSH3 0x3D2A OR SWAP1 SWAP2 SWAP1 PUSH1 0x20 SHR JUMP JUMPDEST PUSH1 0x10 SSTORE POP POP PUSH1 0xB DUP1 SLOAD PUSH1 0x1 DUP2 ADD DUP3 SSTORE PUSH1 0x0 SWAP2 SWAP1 SWAP2 MSTORE PUSH1 0x0 NOT PUSH32 0x175B7A638427703F0DBE7BB9BBF987A2551717B34E79F33B5B1008D1FA01DB9 SWAP1 SWAP2 ADD SSTORE POP PUSH3 0x735 SWAP12 POP POP POP POP POP POP POP POP POP POP POP POP JUMP JUMPDEST CALLER SWAP1 JUMP JUMPDEST PUSH1 0x0 DUP3 PUSH3 0x61D JUMPI POP PUSH1 0x0 PUSH3 0x66D JUMP JUMPDEST DUP3 DUP3 MUL DUP3 DUP5 DUP3 DUP2 PUSH3 0x62B JUMPI INVALID JUMPDEST DIV EQ PUSH3 0x66A JUMPI PUSH1 0x40 MLOAD PUSH3 0x461BCD PUSH1 0xE5 SHL DUP2 MSTORE PUSH1 0x4 ADD DUP1 DUP1 PUSH1 0x20 ADD DUP3 DUP2 SUB DUP3 MSTORE PUSH1 0x21 DUP2 MSTORE PUSH1 0x20 ADD DUP1 PUSH3 0x4E2B PUSH1 0x21 SWAP2 CODECOPY PUSH1 0x40 ADD SWAP2 POP POP PUSH1 0x40 MLOAD DUP1 SWAP2 SUB SWAP1 REVERT JUMPDEST SWAP1 POP JUMPDEST SWAP3 SWAP2 POP POP JUMP JUMPDEST PUSH1 0x0 DUP3 DUP3 ADD DUP4 DUP2 LT ISZERO PUSH3 0x66A JUMPI PUSH1 0x40 DUP1 MLOAD PUSH3 0x461BCD PUSH1 0xE5 SHL DUP2 MSTORE PUSH1 0x20 PUSH1 0x4 DUP3 ADD MSTORE PUSH1 0x1B PUSH1 0x24 DUP3 ADD MSTORE PUSH32 0x536166654D6174683A206164646974696F6E206F766572666C6F770000000000 PUSH1 0x44 DUP3 ADD MSTORE SWAP1 MLOAD SWAP1 DUP2 SWAP1 SUB PUSH1 0x64 ADD SWAP1 REVERT JUMPDEST DUP3 DUP1 SLOAD DUP3 DUP3 SSTORE SWAP1 PUSH1 0x0 MSTORE PUSH1 0x20 PUSH1 0x0 KECCAK256 SWAP1 DUP2 ADD SWAP3 DUP3 ISZERO PUSH3 0x70C JUMPI SWAP2 PUSH1 0x20 MUL DUP3 ADD JUMPDEST DUP3 DUP2 GT ISZERO PUSH3 0x70C JUMPI DUP3 MLOAD DUP3 SSTORE SWAP2 PUSH1 0x20 ADD SWAP2 SWAP1 PUSH1 0x1 ADD SWAP1 PUSH3 0x6EF JUMP JUMPDEST POP PUSH3 0x71A SWAP3 SWAP2 POP PUSH3 0x71E JUMP JUMPDEST POP SWAP1 JUMP JUMPDEST JUMPDEST DUP1 DUP3 GT ISZERO PUSH3 0x71A JUMPI PUSH1 0x0 DUP2 SSTORE PUSH1 0x1 ADD PUSH3 0x71F JUMP JUMPDEST PUSH2 0x46E6 DUP1 PUSH3 0x745 PUSH1 0x0 CODECOPY PUSH1 0x0 RETURN INVALID PUSH1 0x80 PUSH1 0x40 MSTORE CALLVALUE DUP1 ISZERO PUSH2 0x10 JUMPI PUSH1 0x0 DUP1 REVERT JUMPDEST POP PUSH1 0x4 CALLDATASIZE LT PUSH2 0x46A JUMPI PUSH1 0x0 CALLDATALOAD PUSH1 0xE0 SHR DUP1 PUSH4 0x8CC883CE GT PUSH2 0x24C JUMPI DUP1 PUSH4 0xC749D614 GT PUSH2 0x146 JUMPI DUP1 PUSH4 0xDD77B9FD GT PUSH2 0xC3 JUMPI DUP1 PUSH4 0xEDA67048 GT PUSH2 0x87 JUMPI DUP1 PUSH4 0xEDA67048 EQ PUSH2 0x1163 JUMPI DUP1 PUSH4 0xF2FDE38B EQ PUSH2 0x1189 JUMPI DUP1 PUSH4 0xF2FFC22C EQ PUSH2 0x11AF JUMPI DUP1 PUSH4 0xF930E770 EQ PUSH2 0x11CC JUMPI DUP1 PUSH4 0xFB075433 EQ PUSH2 0x11EF JUMPI PUSH2 0x46A JUMP JUMPDEST DUP1 PUSH4 0xDD77B9FD EQ PUSH2 0x10DC JUMPI DUP1 PUSH4 0xDE988524 EQ PUSH2 0x110A JUMPI DUP1 PUSH4 0xEB986B6C EQ PUSH2 0x1127 JUMPI DUP1 PUSH4 0xEC12173D EQ PUSH2 0x1153 JUMPI DUP1 PUSH4 0xED9BDEDA EQ PUSH2 0x115B JUMPI PUSH2 0x46A JUMP JUMPDEST DUP1 PUSH4 0xCE2529C9 GT PUSH2 0x10A JUMPI DUP1 PUSH4 0xCE2529C9 EQ PUSH2 0x1027 JUMPI DUP1 PUSH4 0xCF1C316A EQ PUSH2 0x104D JUMPI DUP1 PUSH4 0xD007DB29 EQ PUSH2 0x1073 JUMPI DUP1 PUSH4 0xD49E77CD EQ PUSH2 0x1090 JUMPI DUP1 PUSH4 0xD9608D8A EQ PUSH2 0x1098 JUMPI PUSH2 0x46A JUMP JUMPDEST DUP1 PUSH4 0xC749D614 EQ PUSH2 0xF62 JUMPI DUP1 PUSH4 0xC8A4271F EQ PUSH2 0xF88 JUMPI DUP1 PUSH4 0xC8ED7680 EQ PUSH2 0xF90 JUMPI DUP1 PUSH4 0xCB0B8CA1 EQ PUSH2 0xFE4 JUMPI DUP1 PUSH4 0xCBD258B5 EQ PUSH2 0x1001 JUMPI PUSH2 0x46A JUMP JUMPDEST DUP1 PUSH4 0x98969E82 GT PUSH2 0x1D4 JUMPI DUP1 PUSH4 0xB9181611 GT PUSH2 0x198 JUMPI DUP1 PUSH4 0xB9181611 EQ PUSH2 0xEDE JUMPI DUP1 PUSH4 0xBEFF2A53 EQ PUSH2 0xF18 JUMPI DUP1 PUSH4 0xC56A10FF EQ PUSH2 0xF35 JUMPI DUP1 PUSH4 0xC663BAA6 EQ PUSH2 0xF3D JUMPI DUP1 PUSH4 0xC6929E53 EQ PUSH2 0xF5A JUMPI PUSH2 0x46A JUMP JUMPDEST DUP1 PUSH4 0x98969E82 EQ PUSH2 0xE53 JUMPI DUP1 PUSH4 0xA02306F9 EQ PUSH2 0xE7F JUMPI DUP1 PUSH4 0xA82859C5 EQ PUSH2 0xE87 JUMPI DUP1 PUSH4 0xAE169A50 EQ PUSH2 0xEA4 JUMPI DUP1 PUSH4 0xB6066962 EQ PUSH2 0xEC1 JUMPI PUSH2 0x46A JUMP JUMPDEST DUP1 PUSH4 0x8DBDBE6D GT PUSH2 0x21B JUMPI DUP1 PUSH4 0x8DBDBE6D EQ PUSH2 0xD87 JUMPI DUP1 PUSH4 0x929C6971 EQ PUSH2 0xDB9 JUMPI DUP1 PUSH4 0x93F1A40B EQ PUSH2 0xDDF JUMPI DUP1 PUSH4 0x975532DC EQ PUSH2 0xE43 JUMPI DUP1 PUSH4 0x980C2A98 EQ PUSH2 0xE4B JUMPI PUSH2 0x46A JUMP JUMPDEST DUP1 PUSH4 0x8CC883CE EQ PUSH2 0xC95 JUMPI DUP1 PUSH4 0x8D88A90E EQ PUSH2 0xD36 JUMPI DUP1 PUSH4 0x8DA5CB5B EQ PUSH2 0xD5C JUMPI DUP1 PUSH4 0x8DBB1E3A EQ PUSH2 0xD64 JUMPI PUSH2 0x46A JUMP JUMPDEST DUP1 PUSH4 0x3C9D9267 GT PUSH2 0x368 JUMPI DUP1 PUSH4 0x5EAC6239 GT PUSH2 0x2E5 JUMPI DUP1 PUSH4 0x715018A6 GT PUSH2 0x2A9 JUMPI DUP1 PUSH4 0x715018A6 EQ PUSH2 0xB95 JUMPI DUP1 PUSH4 0x7C39C9C9 EQ PUSH2 0xB9D JUMPI DUP1 PUSH4 0x82386D58 EQ PUSH2 0xBBA JUMPI DUP1 PUSH4 0x82796E98 EQ PUSH2 0xBEC JUMPI DUP1 PUSH4 0x847BDAA4 EQ PUSH2 0xBF4 JUMPI PUSH2 0x46A JUMP JUMPDEST DUP1 PUSH4 0x5EAC6239 EQ PUSH2 0xA72 JUMPI DUP1 PUSH4 0x6066DEBD EQ PUSH2 0xB13 JUMPI DUP1 PUSH4 0x6245F084 EQ PUSH2 0xB45 JUMPI DUP1 PUSH4 0x630B5BA1 EQ PUSH2 0xB62 JUMPI DUP1 PUSH4 0x64482F79 EQ PUSH2 0xB6A JUMPI PUSH2 0x46A JUMP JUMPDEST DUP1 PUSH4 0x4AF0E3E1 GT PUSH2 0x32C JUMPI DUP1 PUSH4 0x4AF0E3E1 EQ PUSH2 0x94B JUMPI DUP1 PUSH4 0x4DBF85CA EQ PUSH2 0x9EC JUMPI DUP1 PUSH4 0x51EB05A6 EQ PUSH2 0xA12 JUMPI DUP1 PUSH4 0x5312EA8E EQ PUSH2 0xA2F JUMPI DUP1 PUSH4 0x5C5E490B EQ PUSH2 0xA4C JUMPI PUSH2 0x46A JUMP JUMPDEST DUP1 PUSH4 0x3C9D9267 EQ PUSH2 0x842 JUMPI DUP1 PUSH4 0x3D479CD5 EQ PUSH2 0x84A JUMPI DUP1 PUSH4 0x4179B4FB EQ PUSH2 0x867 JUMPI DUP1 PUSH4 0x46664064 EQ PUSH2 0x884 JUMPI DUP1 PUSH4 0x485D7D94 EQ PUSH2 0x925 JUMPI PUSH2 0x46A JUMP JUMPDEST DUP1 PUSH4 0x22A376B0 GT PUSH2 0x3F6 JUMPI DUP1 PUSH4 0x2FDA7735 GT PUSH2 0x3BA JUMPI DUP1 PUSH4 0x2FDA7735 EQ PUSH2 0x730 JUMPI DUP1 PUSH4 0x30FB8E0E EQ PUSH2 0x74D JUMPI DUP1 PUSH4 0x354AFFB7 EQ PUSH2 0x773 JUMPI DUP1 PUSH4 0x36EBCDE6 EQ PUSH2 0x814 JUMPI DUP1 PUSH4 0x39B3E826 EQ PUSH2 0x83A JUMPI PUSH2 0x46A JUMP JUMPDEST DUP1 PUSH4 0x22A376B0 EQ PUSH2 0x5AC JUMPI DUP1 PUSH4 0x245B211D EQ PUSH2 0x5B4 JUMPI DUP1 PUSH4 0x24B95C3E EQ PUSH2 0x5D1 JUMPI DUP1 PUSH4 0x27E68928 EQ PUSH2 0x5EE JUMPI DUP1 PUSH4 0x2A7B0107 EQ PUSH2 0x68F JUMPI PUSH2 0x46A JUMP JUMPDEST DUP1 PUSH4 0xAD58D2F GT PUSH2 0x43D JUMPI DUP1 PUSH4 0xAD58D2F EQ PUSH2 0x4D2 JUMPI DUP1 PUSH4 0x1526FE27 EQ PUSH2 0x506 JUMPI DUP1 PUSH4 0x17CAF6F1 EQ PUSH2 0x553 JUMPI DUP1 PUSH4 0x1D465C82 EQ PUSH2 0x55B JUMPI DUP1 PUSH4 0x1EAAA045 EQ PUSH2 0x578 JUMPI PUSH2 0x46A JUMP JUMPDEST DUP1 PUSH4 0x5268CFF EQ PUSH2 0x46F JUMPI DUP1 PUSH4 0x81E3EDA EQ PUSH2 0x493 JUMPI DUP1 PUSH4 0x9AE4D2C EQ PUSH2 0x4AD JUMPI DUP1 PUSH4 0xA67D518 EQ PUSH2 0x4CA JUMPI JUMPDEST PUSH1 0x0 DUP1 REVERT JUMPDEST PUSH2 0x477 PUSH2 0x120C JUMP JUMPDEST PUSH1 0x40 DUP1 MLOAD PUSH1 0x1 PUSH1 0x1 PUSH1 0xA0 SHL SUB SWAP1 SWAP3 AND DUP3 MSTORE MLOAD SWAP1 DUP2 SWAP1 SUB PUSH1 0x20 ADD SWAP1 RETURN JUMPDEST PUSH2 0x49B PUSH2 0x121B JUMP JUMPDEST PUSH1 0x40 DUP1 MLOAD SWAP2 DUP3 MSTORE MLOAD SWAP1 DUP2 SWAP1 SUB PUSH1 0x20 ADD SWAP1 RETURN JUMPDEST PUSH2 0x49B PUSH1 0x4 DUP1 CALLDATASIZE SUB PUSH1 0x20 DUP2 LT ISZERO PUSH2 0x4C3 JUMPI PUSH1 0x0 DUP1 REVERT JUMPDEST POP CALLDATALOAD PUSH2 0x1221 JUMP JUMPDEST PUSH2 0x49B PUSH2 0x125F JUMP JUMPDEST PUSH2 0x504 PUSH1 0x4 DUP1 CALLDATASIZE SUB PUSH1 0x60 DUP2 LT ISZERO PUSH2 0x4E8 JUMPI PUSH1 0x0 DUP1 REVERT JUMPDEST POP DUP1 CALLDATALOAD SWAP1 PUSH1 0x20 DUP2 ADD CALLDATALOAD SWAP1 PUSH1 0x40 ADD CALLDATALOAD PUSH1 0x1 PUSH1 0x1 PUSH1 0xA0 SHL SUB AND PUSH2 0x1265 JUMP JUMPDEST STOP JUMPDEST PUSH2 0x523 PUSH1 0x4 DUP1 CALLDATASIZE SUB PUSH1 0x20 DUP2 LT ISZERO PUSH2 0x51C JUMPI PUSH1 0x0 DUP1 REVERT JUMPDEST POP CALLDATALOAD PUSH2 0x18D7 JUMP JUMPDEST PUSH1 0x40 DUP1 MLOAD PUSH1 0x1 PUSH1 0x1 PUSH1 0xA0 SHL SUB SWAP1 SWAP6 AND DUP6 MSTORE PUSH1 0x20 DUP6 ADD SWAP4 SWAP1 SWAP4 MSTORE DUP4 DUP4 ADD SWAP2 SWAP1 SWAP2 MSTORE PUSH1 0x60 DUP4 ADD MSTORE MLOAD SWAP1 DUP2 SWAP1 SUB PUSH1 0x80 ADD SWAP1 RETURN JUMPDEST PUSH2 0x49B PUSH2 0x1918 JUMP JUMPDEST PUSH2 0x49B PUSH1 0x4 DUP1 CALLDATASIZE SUB PUSH1 0x20 DUP2 LT ISZERO PUSH2 0x571 JUMPI PUSH1 0x0 DUP1 REVERT JUMPDEST POP CALLDATALOAD PUSH2 0x191E JUMP JUMPDEST PUSH2 0x504 PUSH1 0x4 DUP1 CALLDATASIZE SUB PUSH1 0x60 DUP2 LT ISZERO PUSH2 0x58E JUMPI PUSH1 0x0 DUP1 REVERT JUMPDEST POP DUP1 CALLDATALOAD SWAP1 PUSH1 0x1 PUSH1 0x1 PUSH1 0xA0 SHL SUB PUSH1 0x20 DUP3 ADD CALLDATALOAD AND SWAP1 PUSH1 0x40 ADD CALLDATALOAD ISZERO ISZERO PUSH2 0x1991 JUMP JUMPDEST PUSH2 0x477 PUSH2 0x1BEB JUMP JUMPDEST PUSH2 0x504 PUSH1 0x4 DUP1 CALLDATASIZE SUB PUSH1 0x20 DUP2 LT ISZERO PUSH2 0x5CA JUMPI PUSH1 0x0 DUP1 REVERT JUMPDEST POP CALLDATALOAD PUSH2 0x1BFA JUMP JUMPDEST PUSH2 0x504 PUSH1 0x4 DUP1 CALLDATASIZE SUB PUSH1 0x20 DUP2 LT ISZERO PUSH2 0x5E7 JUMPI PUSH1 0x0 DUP1 REVERT JUMPDEST POP CALLDATALOAD PUSH2 0x1C6B JUMP JUMPDEST PUSH2 0x504 PUSH1 0x4 DUP1 CALLDATASIZE SUB PUSH1 0x20 DUP2 LT ISZERO PUSH2 0x604 JUMPI PUSH1 0x0 DUP1 REVERT JUMPDEST DUP2 ADD SWAP1 PUSH1 0x20 DUP2 ADD DUP2 CALLDATALOAD PUSH1 0x1 PUSH1 0x20 SHL DUP2 GT ISZERO PUSH2 0x61E JUMPI PUSH1 0x0 DUP1 REVERT JUMPDEST DUP3 ADD DUP4 PUSH1 0x20 DUP3 ADD GT ISZERO PUSH2 0x630 JUMPI PUSH1 0x0 DUP1 REVERT JUMPDEST DUP1 CALLDATALOAD SWAP1 PUSH1 0x20 ADD SWAP2 DUP5 PUSH1 0x20 DUP4 MUL DUP5 ADD GT PUSH1 0x1 PUSH1 0x20 SHL DUP4 GT OR ISZERO PUSH2 0x651 JUMPI PUSH1 0x0 DUP1 REVERT JUMPDEST SWAP2 SWAP1 DUP1 DUP1 PUSH1 0x20 MUL PUSH1 0x20 ADD PUSH1 0x40 MLOAD SWAP1 DUP2 ADD PUSH1 0x40 MSTORE DUP1 SWAP4 SWAP3 SWAP2 SWAP1 DUP2 DUP2 MSTORE PUSH1 0x20 ADD DUP4 DUP4 PUSH1 0x20 MUL DUP1 DUP3 DUP5 CALLDATACOPY PUSH1 0x0 SWAP3 ADD SWAP2 SWAP1 SWAP2 MSTORE POP SWAP3 SWAP6 POP PUSH2 0x1CDC SWAP5 POP POP POP POP POP JUMP JUMPDEST PUSH2 0x504 PUSH1 0x4 DUP1 CALLDATASIZE SUB PUSH1 0x20 DUP2 LT ISZERO PUSH2 0x6A5 JUMPI PUSH1 0x0 DUP1 REVERT JUMPDEST DUP2 ADD SWAP1 PUSH1 0x20 DUP2 ADD DUP2 CALLDATALOAD PUSH1 0x1 PUSH1 0x20 SHL DUP2 GT ISZERO PUSH2 0x6BF JUMPI PUSH1 0x0 DUP1 REVERT JUMPDEST DUP3 ADD DUP4 PUSH1 0x20 DUP3 ADD GT ISZERO PUSH2 0x6D1 JUMPI PUSH1 0x0 DUP1 REVERT JUMPDEST DUP1 CALLDATALOAD SWAP1 PUSH1 0x20 ADD SWAP2 DUP5 PUSH1 0x20 DUP4 MUL DUP5 ADD GT PUSH1 0x1 PUSH1 0x20 SHL DUP4 GT OR ISZERO PUSH2 0x6F2 JUMPI PUSH1 0x0 DUP1 REVERT JUMPDEST SWAP2 SWAP1 DUP1 DUP1 PUSH1 0x20 MUL PUSH1 0x20 ADD PUSH1 0x40 MLOAD SWAP1 DUP2 ADD PUSH1 0x40 MSTORE DUP1 SWAP4 SWAP3 SWAP2 SWAP1 DUP2 DUP2 MSTORE PUSH1 0x20 ADD DUP4 DUP4 PUSH1 0x20 MUL DUP1 DUP3 DUP5 CALLDATACOPY PUSH1 0x0 SWAP3 ADD SWAP2 SWAP1 SWAP2 MSTORE POP SWAP3 SWAP6 POP PUSH2 0x1D5F SWAP5 POP POP POP POP POP JUMP JUMPDEST PUSH2 0x49B PUSH1 0x4 DUP1 CALLDATASIZE SUB PUSH1 0x20 DUP2 LT ISZERO PUSH2 0x746 JUMPI PUSH1 0x0 DUP1 REVERT JUMPDEST POP CALLDATALOAD PUSH2 0x1DDE JUMP JUMPDEST PUSH2 0x504 PUSH1 0x4 DUP1 CALLDATASIZE SUB PUSH1 0x20 DUP2 LT ISZERO PUSH2 0x763 JUMPI PUSH1 0x0 DUP1 REVERT JUMPDEST POP CALLDATALOAD PUSH1 0x1 PUSH1 0x1 PUSH1 0xA0 SHL SUB AND PUSH2 0x1DFC JUMP JUMPDEST PUSH2 0x504 PUSH1 0x4 DUP1 CALLDATASIZE SUB PUSH1 0x20 DUP2 LT ISZERO PUSH2 0x789 JUMPI PUSH1 0x0 DUP1 REVERT JUMPDEST DUP2 ADD SWAP1 PUSH1 0x20 DUP2 ADD DUP2 CALLDATALOAD PUSH1 0x1 PUSH1 0x20 SHL DUP2 GT ISZERO PUSH2 0x7A3 JUMPI PUSH1 0x0 DUP1 REVERT JUMPDEST DUP3 ADD DUP4 PUSH1 0x20 DUP3 ADD GT ISZERO PUSH2 0x7B5 JUMPI PUSH1 0x0 DUP1 REVERT JUMPDEST DUP1 CALLDATALOAD SWAP1 PUSH1 0x20 ADD SWAP2 DUP5 PUSH1 0x20 DUP4 MUL DUP5 ADD GT PUSH1 0x1 PUSH1 0x20 SHL DUP4 GT OR ISZERO PUSH2 0x7D6 JUMPI PUSH1 0x0 DUP1 REVERT JUMPDEST SWAP2 SWAP1 DUP1 DUP1 PUSH1 0x20 MUL PUSH1 0x20 ADD PUSH1 0x40 MLOAD SWAP1 DUP2 ADD PUSH1 0x40 MSTORE DUP1 SWAP4 SWAP3 SWAP2 SWAP1 DUP2 DUP2 MSTORE PUSH1 0x20 ADD DUP4 DUP4 PUSH1 0x20 MUL DUP1 DUP3 DUP5 CALLDATACOPY PUSH1 0x0 SWAP3 ADD SWAP2 SWAP1 SWAP2 MSTORE POP SWAP3 SWAP6 POP PUSH2 0x1E8A SWAP5 POP POP POP POP POP JUMP JUMPDEST PUSH2 0x49B PUSH1 0x4 DUP1 CALLDATASIZE SUB PUSH1 0x20 DUP2 LT ISZERO PUSH2 0x82A JUMPI PUSH1 0x0 DUP1 REVERT JUMPDEST POP CALLDATALOAD PUSH1 0x1 PUSH1 0x1 PUSH1 0xA0 SHL SUB AND PUSH2 0x1F09 JUMP JUMPDEST PUSH2 0x49B PUSH2 0x1F56 JUMP JUMPDEST PUSH2 0x477 PUSH2 0x1F5C JUMP JUMPDEST PUSH2 0x504 PUSH1 0x4 DUP1 CALLDATASIZE SUB PUSH1 0x20 DUP2 LT ISZERO PUSH2 0x860 JUMPI PUSH1 0x0 DUP1 REVERT JUMPDEST POP CALLDATALOAD PUSH2 0x1F6B JUMP JUMPDEST PUSH2 0x49B PUSH1 0x4 DUP1 CALLDATASIZE SUB PUSH1 0x20 DUP2 LT ISZERO PUSH2 0x87D JUMPI PUSH1 0x0 DUP1 REVERT JUMPDEST POP CALLDATALOAD PUSH2 0x1FDC JUMP JUMPDEST PUSH2 0x504 PUSH1 0x4 DUP1 CALLDATASIZE SUB PUSH1 0x20 DUP2 LT ISZERO PUSH2 0x89A JUMPI PUSH1 0x0 DUP1 REVERT JUMPDEST DUP2 ADD SWAP1 PUSH1 0x20 DUP2 ADD DUP2 CALLDATALOAD PUSH1 0x1 PUSH1 0x20 SHL DUP2 GT ISZERO PUSH2 0x8B4 JUMPI PUSH1 0x0 DUP1 REVERT JUMPDEST DUP3 ADD DUP4 PUSH1 0x20 DUP3 ADD GT ISZERO PUSH2 0x8C6 JUMPI PUSH1 0x0 DUP1 REVERT JUMPDEST DUP1 CALLDATALOAD SWAP1 PUSH1 0x20 ADD SWAP2 DUP5 PUSH1 0x20 DUP4 MUL DUP5 ADD GT PUSH1 0x1 PUSH1 0x20 SHL DUP4 GT OR ISZERO PUSH2 0x8E7 JUMPI PUSH1 0x0 DUP1 REVERT JUMPDEST SWAP2 SWAP1 DUP1 DUP1 PUSH1 0x20 MUL PUSH1 0x20 ADD PUSH1 0x40 MLOAD SWAP1 DUP2 ADD PUSH1 0x40 MSTORE DUP1 SWAP4 SWAP3 SWAP2 SWAP1 DUP2 DUP2 MSTORE PUSH1 0x20 ADD DUP4 DUP4 PUSH1 0x20 MUL DUP1 DUP3 DUP5 CALLDATACOPY PUSH1 0x0 SWAP3 ADD SWAP2 SWAP1 SWAP2 MSTORE POP SWAP3 SWAP6 POP PUSH2 0x1FE9 SWAP5 POP POP POP POP POP JUMP JUMPDEST PUSH2 0x504 PUSH1 0x4 DUP1 CALLDATASIZE SUB PUSH1 0x20 DUP2 LT ISZERO PUSH2 0x93B JUMPI PUSH1 0x0 DUP1 REVERT JUMPDEST POP CALLDATALOAD PUSH1 0x1 PUSH1 0x1 PUSH1 0xA0 SHL SUB AND PUSH2 0x2068 JUMP JUMPDEST PUSH2 0x504 PUSH1 0x4 DUP1 CALLDATASIZE SUB PUSH1 0x20 DUP2 LT ISZERO PUSH2 0x961 JUMPI PUSH1 0x0 DUP1 REVERT JUMPDEST DUP2 ADD SWAP1 PUSH1 0x20 DUP2 ADD DUP2 CALLDATALOAD PUSH1 0x1 PUSH1 0x20 SHL DUP2 GT ISZERO PUSH2 0x97B JUMPI PUSH1 0x0 DUP1 REVERT JUMPDEST DUP3 ADD DUP4 PUSH1 0x20 DUP3 ADD GT ISZERO PUSH2 0x98D JUMPI PUSH1 0x0 DUP1 REVERT JUMPDEST DUP1 CALLDATALOAD SWAP1 PUSH1 0x20 ADD SWAP2 DUP5 PUSH1 0x20 DUP4 MUL DUP5 ADD GT PUSH1 0x1 PUSH1 0x20 SHL DUP4 GT OR ISZERO PUSH2 0x9AE JUMPI PUSH1 0x0 DUP1 REVERT JUMPDEST SWAP2 SWAP1 DUP1 DUP1 PUSH1 0x20 MUL PUSH1 0x20 ADD PUSH1 0x40 MLOAD SWAP1 DUP2 ADD PUSH1 0x40 MSTORE DUP1 SWAP4 SWAP3 SWAP2 SWAP1 DUP2 DUP2 MSTORE PUSH1 0x20 ADD DUP4 DUP4 PUSH1 0x20 MUL DUP1 DUP3 DUP5 CALLDATACOPY PUSH1 0x0 SWAP3 ADD SWAP2 SWAP1 SWAP2 MSTORE POP SWAP3 SWAP6 POP PUSH2 0x2101 SWAP5 POP POP POP POP POP JUMP JUMPDEST PUSH2 0x504 PUSH1 0x4 DUP1 CALLDATASIZE SUB PUSH1 0x20 DUP2 LT ISZERO PUSH2 0xA02 JUMPI PUSH1 0x0 DUP1 REVERT JUMPDEST POP CALLDATALOAD PUSH1 0x1 PUSH1 0x1 PUSH1 0xA0 SHL SUB AND PUSH2 0x2180 JUMP JUMPDEST PUSH2 0x504 PUSH1 0x4 DUP1 CALLDATASIZE SUB PUSH1 0x20 DUP2 LT ISZERO PUSH2 0xA28 JUMPI PUSH1 0x0 DUP1 REVERT JUMPDEST POP CALLDATALOAD PUSH2 0x220E JUMP JUMPDEST PUSH2 0x504 PUSH1 0x4 DUP1 CALLDATASIZE SUB PUSH1 0x20 DUP2 LT ISZERO PUSH2 0xA45 JUMPI PUSH1 0x0 DUP1 REVERT JUMPDEST POP CALLDATALOAD PUSH2 0x27B6 JUMP JUMPDEST PUSH2 0x49B PUSH1 0x4 DUP1 CALLDATASIZE SUB PUSH1 0x20 DUP2 LT ISZERO PUSH2 0xA62 JUMPI PUSH1 0x0 DUP1 REVERT JUMPDEST POP CALLDATALOAD PUSH1 0x1 PUSH1 0x1 PUSH1 0xA0 SHL SUB AND PUSH2 0x2905 JUMP JUMPDEST PUSH2 0x504 PUSH1 0x4 DUP1 CALLDATASIZE SUB PUSH1 0x20 DUP2 LT ISZERO PUSH2 0xA88 JUMPI PUSH1 0x0 DUP1 REVERT JUMPDEST DUP2 ADD SWAP1 PUSH1 0x20 DUP2 ADD DUP2 CALLDATALOAD PUSH1 0x1 PUSH1 0x20 SHL DUP2 GT ISZERO PUSH2 0xAA2 JUMPI PUSH1 0x0 DUP1 REVERT JUMPDEST DUP3 ADD DUP4 PUSH1 0x20 DUP3 ADD GT ISZERO PUSH2 0xAB4 JUMPI PUSH1 0x0 DUP1 REVERT JUMPDEST DUP1 CALLDATALOAD SWAP1 PUSH1 0x20 ADD SWAP2 DUP5 PUSH1 0x20 DUP4 MUL DUP5 ADD GT PUSH1 0x1 PUSH1 0x20 SHL DUP4 GT OR ISZERO PUSH2 0xAD5 JUMPI PUSH1 0x0 DUP1 REVERT JUMPDEST SWAP2 SWAP1 DUP1 DUP1 PUSH1 0x20 MUL PUSH1 0x20 ADD PUSH1 0x40 MLOAD SWAP1 DUP2 ADD PUSH1 0x40 MSTORE DUP1 SWAP4 SWAP3 SWAP2 SWAP1 DUP2 DUP2 MSTORE PUSH1 0x20 ADD DUP4 DUP4 PUSH1 0x20 MUL DUP1 DUP3 DUP5 CALLDATACOPY PUSH1 0x0 SWAP3 ADD SWAP2 SWAP1 SWAP2 MSTORE POP SWAP3 SWAP6 POP PUSH2 0x2950 SWAP5 POP POP POP POP POP JUMP JUMPDEST PUSH2 0x504 PUSH1 0x4 DUP1 CALLDATASIZE SUB PUSH1 0x60 DUP2 LT ISZERO PUSH2 0xB29 JUMPI PUSH1 0x0 DUP1 REVERT JUMPDEST POP DUP1 CALLDATALOAD SWAP1 PUSH1 0x1 PUSH1 0x1 PUSH1 0xA0 SHL SUB PUSH1 0x20 DUP3 ADD CALLDATALOAD AND SWAP1 PUSH1 0x40 ADD CALLDATALOAD PUSH2 0x2980 JUMP JUMPDEST PUSH2 0x49B PUSH1 0x4 DUP1 CALLDATASIZE SUB PUSH1 0x20 DUP2 LT ISZERO PUSH2 0xB5B JUMPI PUSH1 0x0 DUP1 REVERT JUMPDEST POP CALLDATALOAD PUSH2 0x2A15 JUMP JUMPDEST PUSH2 0x504 PUSH2 0x2A22 JUMP JUMPDEST PUSH2 0x504 PUSH1 0x4 DUP1 CALLDATASIZE SUB PUSH1 0x60 DUP2 LT ISZERO PUSH2 0xB80 JUMPI PUSH1 0x0 DUP1 REVERT JUMPDEST POP DUP1 CALLDATALOAD SWAP1 PUSH1 0x20 DUP2 ADD CALLDATALOAD SWAP1 PUSH1 0x40 ADD CALLDATALOAD ISZERO ISZERO PUSH2 0x2A41 JUMP JUMPDEST PUSH2 0x504 PUSH2 0x2B1C JUMP JUMPDEST PUSH2 0x504 PUSH1 0x4 DUP1 CALLDATASIZE SUB PUSH1 0x20 DUP2 LT ISZERO PUSH2 0xBB3 JUMPI PUSH1 0x0 DUP1 REVERT JUMPDEST POP CALLDATALOAD PUSH2 0x2BC8 JUMP JUMPDEST PUSH2 0x504 PUSH1 0x4 DUP1 CALLDATASIZE SUB PUSH1 0x60 DUP2 LT ISZERO PUSH2 0xBD0 JUMPI PUSH1 0x0 DUP1 REVERT JUMPDEST POP DUP1 CALLDATALOAD SWAP1 PUSH1 0x1 PUSH1 0x1 PUSH1 0xA0 SHL SUB PUSH1 0x20 DUP3 ADD CALLDATALOAD AND SWAP1 PUSH1 0x40 ADD CALLDATALOAD PUSH2 0x2C39 JUMP JUMPDEST PUSH2 0x49B PUSH2 0x2CCE JUMP JUMPDEST PUSH2 0x504 PUSH1 0x4 DUP1 CALLDATASIZE SUB PUSH1 0x20 DUP2 LT ISZERO PUSH2 0xC0A JUMPI PUSH1 0x0 DUP1 REVERT JUMPDEST DUP2 ADD SWAP1 PUSH1 0x20 DUP2 ADD DUP2 CALLDATALOAD PUSH1 0x1 PUSH1 0x20 SHL DUP2 GT ISZERO PUSH2 0xC24 JUMPI PUSH1 0x0 DUP1 REVERT JUMPDEST DUP3 ADD DUP4 PUSH1 0x20 DUP3 ADD GT ISZERO PUSH2 0xC36 JUMPI PUSH1 0x0 DUP1 REVERT JUMPDEST DUP1 CALLDATALOAD SWAP1 PUSH1 0x20 ADD SWAP2 DUP5 PUSH1 0x20 DUP4 MUL DUP5 ADD GT PUSH1 0x1 PUSH1 0x20 SHL DUP4 GT OR ISZERO PUSH2 0xC57 JUMPI PUSH1 0x0 DUP1 REVERT JUMPDEST SWAP2 SWAP1 DUP1 DUP1 PUSH1 0x20 MUL PUSH1 0x20 ADD PUSH1 0x40 MLOAD SWAP1 DUP2 ADD PUSH1 0x40 MSTORE DUP1 SWAP4 SWAP3 SWAP2 SWAP1 DUP2 DUP2 MSTORE PUSH1 0x20 ADD DUP4 DUP4 PUSH1 0x20 MUL DUP1 DUP3 DUP5 CALLDATACOPY PUSH1 0x0 SWAP3 ADD SWAP2 SWAP1 SWAP2 MSTORE POP SWAP3 SWAP6 POP PUSH2 0x2CD4 SWAP5 POP POP POP POP POP JUMP JUMPDEST PUSH2 0x504 PUSH1 0x4 DUP1 CALLDATASIZE SUB PUSH1 0x20 DUP2 LT ISZERO PUSH2 0xCAB JUMPI PUSH1 0x0 DUP1 REVERT JUMPDEST DUP2 ADD SWAP1 PUSH1 0x20 DUP2 ADD DUP2 CALLDATALOAD PUSH1 0x1 PUSH1 0x20 SHL DUP2 GT ISZERO PUSH2 0xCC5 JUMPI PUSH1 0x0 DUP1 REVERT JUMPDEST DUP3 ADD DUP4 PUSH1 0x20 DUP3 ADD GT ISZERO PUSH2 0xCD7 JUMPI PUSH1 0x0 DUP1 REVERT JUMPDEST DUP1 CALLDATALOAD SWAP1 PUSH1 0x20 ADD SWAP2 DUP5 PUSH1 0x20 DUP4 MUL DUP5 ADD GT PUSH1 0x1 PUSH1 0x20 SHL DUP4 GT OR ISZERO PUSH2 0xCF8 JUMPI PUSH1 0x0 DUP1 REVERT JUMPDEST SWAP2 SWAP1 DUP1 DUP1 PUSH1 0x20 MUL PUSH1 0x20 ADD PUSH1 0x40 MLOAD SWAP1 DUP2 ADD PUSH1 0x40 MSTORE DUP1 SWAP4 SWAP3 SWAP2 SWAP1 DUP2 DUP2 MSTORE PUSH1 0x20 ADD DUP4 DUP4 PUSH1 0x20 MUL DUP1 DUP3 DUP5 CALLDATACOPY PUSH1 0x0 SWAP3 ADD SWAP2 SWAP1 SWAP2 MSTORE POP SWAP3 SWAP6 POP PUSH2 0x2D53 SWAP5 POP POP POP POP POP JUMP JUMPDEST PUSH2 0x504 PUSH1 0x4 DUP1 CALLDATASIZE SUB PUSH1 0x20 DUP2 LT ISZERO PUSH2 0xD4C JUMPI PUSH1 0x0 DUP1 REVERT JUMPDEST POP CALLDATALOAD PUSH1 0x1 PUSH1 0x1 PUSH1 0xA0 SHL SUB AND PUSH2 0x2DD2 JUMP JUMPDEST PUSH2 0x477 PUSH2 0x2E60 JUMP JUMPDEST PUSH2 0x49B PUSH1 0x4 DUP1 CALLDATASIZE SUB PUSH1 0x40 DUP2 LT ISZERO PUSH2 0xD7A JUMPI PUSH1 0x0 DUP1 REVERT JUMPDEST POP DUP1 CALLDATALOAD SWAP1 PUSH1 0x20 ADD CALLDATALOAD PUSH2 0x2E6F JUMP JUMPDEST PUSH2 0x504 PUSH1 0x4 DUP1 CALLDATASIZE SUB PUSH1 0x60 DUP2 LT ISZERO PUSH2 0xD9D JUMPI PUSH1 0x0 DUP1 REVERT JUMPDEST POP DUP1 CALLDATALOAD SWAP1 PUSH1 0x20 DUP2 ADD CALLDATALOAD SWAP1 PUSH1 0x40 ADD CALLDATALOAD PUSH1 0x1 PUSH1 0x1 PUSH1 0xA0 SHL SUB AND PUSH2 0x2F6B JUMP JUMPDEST PUSH2 0x49B PUSH1 0x4 DUP1 CALLDATASIZE SUB PUSH1 0x20 DUP2 LT ISZERO PUSH2 0xDCF JUMPI PUSH1 0x0 DUP1 REVERT JUMPDEST POP CALLDATALOAD PUSH1 0x1 PUSH1 0x1 PUSH1 0xA0 SHL SUB AND PUSH2 0x3225 JUMP JUMPDEST PUSH2 0xE0B PUSH1 0x4 DUP1 CALLDATASIZE SUB PUSH1 0x40 DUP2 LT ISZERO PUSH2 0xDF5 JUMPI PUSH1 0x0 DUP1 REVERT JUMPDEST POP DUP1 CALLDATALOAD SWAP1 PUSH1 0x20 ADD CALLDATALOAD PUSH1 0x1 PUSH1 0x1 PUSH1 0xA0 SHL SUB AND PUSH2 0x3274 JUMP JUMPDEST PUSH1 0x40 DUP1 MLOAD SWAP8 DUP9 MSTORE PUSH1 0x20 DUP9 ADD SWAP7 SWAP1 SWAP7 MSTORE DUP7 DUP7 ADD SWAP5 SWAP1 SWAP5 MSTORE PUSH1 0x60 DUP7 ADD SWAP3 SWAP1 SWAP3 MSTORE PUSH1 0x80 DUP6 ADD MSTORE PUSH1 0xA0 DUP5 ADD MSTORE PUSH1 0xC0 DUP4 ADD MSTORE MLOAD SWAP1 DUP2 SWAP1 SUB PUSH1 0xE0 ADD SWAP1 RETURN JUMPDEST PUSH2 0x49B PUSH2 0x32C3 JUMP JUMPDEST PUSH2 0x49B PUSH2 0x32C9 JUMP JUMPDEST PUSH2 0x49B PUSH1 0x4 DUP1 CALLDATASIZE SUB PUSH1 0x40 DUP2 LT ISZERO PUSH2 0xE69 JUMPI PUSH1 0x0 DUP1 REVERT JUMPDEST POP DUP1 CALLDATALOAD SWAP1 PUSH1 0x20 ADD CALLDATALOAD PUSH1 0x1 PUSH1 0x1 PUSH1 0xA0 SHL SUB AND PUSH2 0x32CF JUMP JUMPDEST PUSH2 0x49B PUSH2 0x341D JUMP JUMPDEST PUSH2 0x49B PUSH1 0x4 DUP1 CALLDATASIZE SUB PUSH1 0x20 DUP2 LT ISZERO PUSH2 0xE9D JUMPI PUSH1 0x0 DUP1 REVERT JUMPDEST POP CALLDATALOAD PUSH2 0x3423 JUMP JUMPDEST PUSH2 0x504 PUSH1 0x4 DUP1 CALLDATASIZE SUB PUSH1 0x20 DUP2 LT ISZERO PUSH2 0xEBA JUMPI PUSH1 0x0 DUP1 REVERT JUMPDEST POP CALLDATALOAD PUSH2 0x3430 JUMP JUMPDEST PUSH2 0x504 PUSH1 0x4 DUP1 CALLDATASIZE SUB PUSH1 0x20 DUP2 LT ISZERO PUSH2 0xED7 JUMPI PUSH1 0x0 DUP1 REVERT JUMPDEST POP CALLDATALOAD PUSH2 0x3442 JUMP JUMPDEST PUSH2 0xF04 PUSH1 0x4 DUP1 CALLDATASIZE SUB PUSH1 0x20 DUP2 LT ISZERO PUSH2 0xEF4 JUMPI PUSH1 0x0 DUP1 REVERT JUMPDEST POP CALLDATALOAD PUSH1 0x1 PUSH1 0x1 PUSH1 0xA0 SHL SUB AND PUSH2 0x34B3 JUMP JUMPDEST PUSH1 0x40 DUP1 MLOAD SWAP2 ISZERO ISZERO DUP3 MSTORE MLOAD SWAP1 DUP2 SWAP1 SUB PUSH1 0x20 ADD SWAP1 RETURN JUMPDEST PUSH2 0x49B PUSH1 0x4 DUP1 CALLDATASIZE SUB PUSH1 0x20 DUP2 LT ISZERO PUSH2 0xF2E JUMPI PUSH1 0x0 DUP1 REVERT JUMPDEST POP CALLDATALOAD PUSH2 0x34C8 JUMP JUMPDEST PUSH2 0x49B PUSH2 0x34D5 JUMP JUMPDEST PUSH2 0x504 PUSH1 0x4 DUP1 CALLDATASIZE SUB PUSH1 0x20 DUP2 LT ISZERO PUSH2 0xF53 JUMPI PUSH1 0x0 DUP1 REVERT JUMPDEST POP CALLDATALOAD PUSH2 0x34DB JUMP JUMPDEST PUSH2 0x49B PUSH2 0x354C JUMP JUMPDEST PUSH2 0x504 PUSH1 0x4 DUP1 CALLDATASIZE SUB PUSH1 0x20 DUP2 LT ISZERO PUSH2 0xF78 JUMPI PUSH1 0x0 DUP1 REVERT JUMPDEST POP CALLDATALOAD PUSH1 0x1 PUSH1 0x1 PUSH1 0xA0 SHL SUB AND PUSH2 0x3552 JUMP JUMPDEST PUSH2 0x477 PUSH2 0x35E0 JUMP JUMPDEST PUSH2 0xFB9 PUSH1 0x4 DUP1 CALLDATASIZE SUB PUSH1 0x60 DUP2 LT ISZERO PUSH2 0xFA6 JUMPI PUSH1 0x0 DUP1 REVERT JUMPDEST POP DUP1 CALLDATALOAD SWAP1 PUSH1 0x20 DUP2 ADD CALLDATALOAD SWAP1 PUSH1 0x40 ADD CALLDATALOAD PUSH2 0x35EF JUMP JUMPDEST PUSH1 0x40 DUP1 MLOAD SWAP6 DUP7 MSTORE PUSH1 0x20 DUP7 ADD SWAP5 SWAP1 SWAP5 MSTORE DUP5 DUP5 ADD SWAP3 SWAP1 SWAP3 MSTORE PUSH1 0x60 DUP5 ADD MSTORE PUSH1 0x80 DUP4 ADD MSTORE MLOAD SWAP1 DUP2 SWAP1 SUB PUSH1 0xA0 ADD SWAP1 RETURN JUMPDEST PUSH2 0x49B PUSH1 0x4 DUP1 CALLDATASIZE SUB PUSH1 0x20 DUP2 LT ISZERO PUSH2 0xFFA JUMPI PUSH1 0x0 DUP1 REVERT JUMPDEST POP CALLDATALOAD PUSH2 0x37C1 JUMP JUMPDEST PUSH2 0xF04 PUSH1 0x4 DUP1 CALLDATASIZE SUB PUSH1 0x20 DUP2 LT ISZERO PUSH2 0x1017 JUMPI PUSH1 0x0 DUP1 REVERT JUMPDEST POP CALLDATALOAD PUSH1 0x1 PUSH1 0x1 PUSH1 0xA0 SHL SUB AND PUSH2 0x37CE JUMP JUMPDEST PUSH2 0x49B PUSH1 0x4 DUP1 CALLDATASIZE SUB PUSH1 0x20 DUP2 LT ISZERO PUSH2 0x103D JUMPI PUSH1 0x0 DUP1 REVERT JUMPDEST POP CALLDATALOAD PUSH1 0x1 PUSH1 0x1 PUSH1 0xA0 SHL SUB AND PUSH2 0x37E3 JUMP JUMPDEST PUSH2 0x504 PUSH1 0x4 DUP1 CALLDATASIZE SUB PUSH1 0x20 DUP2 LT ISZERO PUSH2 0x1063 JUMPI PUSH1 0x0 DUP1 REVERT JUMPDEST POP CALLDATALOAD PUSH1 0x1 PUSH1 0x1 PUSH1 0xA0 SHL SUB AND PUSH2 0x37F5 JUMP JUMPDEST PUSH2 0x49B PUSH1 0x4 DUP1 CALLDATASIZE SUB PUSH1 0x20 DUP2 LT ISZERO PUSH2 0x1089 JUMPI PUSH1 0x0 DUP1 REVERT JUMPDEST POP CALLDATALOAD PUSH2 0x387E JUMP JUMPDEST PUSH2 0x477 PUSH2 0x388B JUMP JUMPDEST PUSH2 0x10BE PUSH1 0x4 DUP1 CALLDATASIZE SUB PUSH1 0x20 DUP2 LT ISZERO PUSH2 0x10AE JUMPI PUSH1 0x0 DUP1 REVERT JUMPDEST POP CALLDATALOAD PUSH1 0x1 PUSH1 0x1 PUSH1 0xA0 SHL SUB AND PUSH2 0x389A JUMP JUMPDEST PUSH1 0x40 DUP1 MLOAD SWAP4 DUP5 MSTORE PUSH1 0x20 DUP5 ADD SWAP3 SWAP1 SWAP3 MSTORE DUP3 DUP3 ADD MSTORE MLOAD SWAP1 DUP2 SWAP1 SUB PUSH1 0x60 ADD SWAP1 RETURN JUMPDEST PUSH2 0x49B PUSH1 0x4 DUP1 CALLDATASIZE SUB PUSH1 0x40 DUP2 LT ISZERO PUSH2 0x10F2 JUMPI PUSH1 0x0 DUP1 REVERT JUMPDEST POP PUSH1 0x1 PUSH1 0x1 PUSH1 0xA0 SHL SUB DUP2 CALLDATALOAD DUP2 AND SWAP2 PUSH1 0x20 ADD CALLDATALOAD AND PUSH2 0x38BB JUMP JUMPDEST PUSH2 0x504 PUSH1 0x4 DUP1 CALLDATASIZE SUB PUSH1 0x20 DUP2 LT ISZERO PUSH2 0x1120 JUMPI PUSH1 0x0 DUP1 REVERT JUMPDEST POP CALLDATALOAD PUSH2 0x38EA JUMP JUMPDEST PUSH2 0x504 PUSH1 0x4 DUP1 CALLDATASIZE SUB PUSH1 0x40 DUP2 LT ISZERO PUSH2 0x113D JUMPI PUSH1 0x0 DUP1 REVERT JUMPDEST POP PUSH1 0x1 PUSH1 0x1 PUSH1 0xA0 SHL SUB DUP2 CALLDATALOAD AND SWAP1 PUSH1 0x20 ADD CALLDATALOAD PUSH2 0x395B JUMP JUMPDEST PUSH2 0x477 PUSH2 0x39CC JUMP JUMPDEST PUSH2 0x49B PUSH2 0x39DB JUMP JUMPDEST PUSH2 0x504 PUSH1 0x4 DUP1 CALLDATASIZE SUB PUSH1 0x20 DUP2 LT ISZERO PUSH2 0x1179 JUMPI PUSH1 0x0 DUP1 REVERT JUMPDEST POP CALLDATALOAD PUSH1 0x1 PUSH1 0x1 PUSH1 0xA0 SHL SUB AND PUSH2 0x39E1 JUMP JUMPDEST PUSH2 0x504 PUSH1 0x4 DUP1 CALLDATASIZE SUB PUSH1 0x20 DUP2 LT ISZERO PUSH2 0x119F JUMPI PUSH1 0x0 DUP1 REVERT JUMPDEST POP CALLDATALOAD PUSH1 0x1 PUSH1 0x1 PUSH1 0xA0 SHL SUB AND PUSH2 0x3AB6 JUMP JUMPDEST PUSH2 0x504 PUSH1 0x4 DUP1 CALLDATASIZE SUB PUSH1 0x20 DUP2 LT ISZERO PUSH2 0x11C5 JUMPI PUSH1 0x0 DUP1 REVERT JUMPDEST POP CALLDATALOAD PUSH2 0x3BB8 JUMP JUMPDEST PUSH2 0x49B PUSH1 0x4 DUP1 CALLDATASIZE SUB PUSH1 0x40 DUP2 LT ISZERO PUSH2 0x11E2 JUMPI PUSH1 0x0 DUP1 REVERT JUMPDEST POP DUP1 CALLDATALOAD SWAP1 PUSH1 0x20 ADD CALLDATALOAD PUSH2 0x3C29 JUMP JUMPDEST PUSH2 0x504 PUSH1 0x4 DUP1 CALLDATASIZE SUB PUSH1 0x20 DUP2 LT ISZERO PUSH2 0x1205 JUMPI PUSH1 0x0 DUP1 REVERT JUMPDEST POP CALLDATALOAD PUSH2 0x3CB9 JUMP JUMPDEST PUSH1 0x3 SLOAD PUSH1 0x1 PUSH1 0x1 PUSH1 0xA0 SHL SUB AND DUP2 JUMP JUMPDEST PUSH1 0x19 SLOAD SWAP1 JUMP JUMPDEST PUSH1 0x0 DUP2 DUP2 MSTORE PUSH1 0x1B PUSH1 0x20 SWAP1 DUP2 MSTORE PUSH1 0x40 DUP1 DUP4 KECCAK256 CALLER DUP5 MSTORE SWAP1 SWAP2 MSTORE DUP2 KECCAK256 PUSH1 0x3 DUP2 ADD SLOAD ISZERO PUSH2 0x1251 JUMPI PUSH1 0x3 ADD SLOAD NUMBER SUB SWAP1 POP PUSH2 0x125A JUMP JUMPDEST PUSH1 0x4 ADD SLOAD NUMBER SUB SWAP1 POP JUMPDEST SWAP2 SWAP1 POP JUMP JUMPDEST PUSH1 0x16 SLOAD DUP2 JUMP JUMPDEST PUSH1 0x2 DUP1 SLOAD EQ ISZERO PUSH2 0x12BC JUMPI PUSH1 0x40 DUP1 MLOAD PUSH3 0x461BCD PUSH1 0xE5 SHL DUP2 MSTORE PUSH1 0x20 PUSH1 0x4 DUP3 ADD MSTORE PUSH1 0x1F PUSH1 0x24 DUP3 ADD MSTORE PUSH32 0x5265656E7472616E637947756172643A207265656E7472616E742063616C6C00 PUSH1 0x44 DUP3 ADD MSTORE SWAP1 MLOAD SWAP1 DUP2 SWAP1 SUB PUSH1 0x64 ADD SWAP1 REVERT JUMPDEST PUSH1 0x2 DUP1 DUP2 SWAP1 SSTORE POP PUSH1 0x0 PUSH1 0x19 DUP5 DUP2 SLOAD DUP2 LT PUSH2 0x12D2 JUMPI INVALID JUMPDEST PUSH1 0x0 SWAP2 DUP3 MSTORE PUSH1 0x20 DUP1 DUP4 KECCAK256 DUP8 DUP5 MSTORE PUSH1 0x1B DUP3 MSTORE PUSH1 0x40 DUP1 DUP6 KECCAK256 CALLER DUP1 DUP8 MSTORE SWAP1 DUP5 MSTORE DUP2 DUP7 KECCAK256 PUSH1 0x1 PUSH1 0x1 PUSH1 0xA0 SHL SUB DUP10 AND DUP8 MSTORE PUSH1 0x1C SWAP1 SWAP5 MSTORE DUP2 DUP7 KECCAK256 SWAP1 DUP7 MSTORE SWAP5 KECCAK256 DUP3 SLOAD PUSH1 0x4 SWAP1 SWAP5 MUL SWAP1 SWAP2 ADD SWAP5 POP SWAP1 SWAP3 SWAP2 DUP7 GT ISZERO PUSH2 0x1358 JUMPI PUSH1 0x40 MLOAD PUSH3 0x461BCD PUSH1 0xE5 SHL DUP2 MSTORE PUSH1 0x4 ADD DUP1 DUP1 PUSH1 0x20 ADD DUP3 DUP2 SUB DUP3 MSTORE PUSH1 0x22 DUP2 MSTORE PUSH1 0x20 ADD DUP1 PUSH2 0x463B PUSH1 0x22 SWAP2 CODECOPY PUSH1 0x40 ADD SWAP2 POP POP PUSH1 0x40 MLOAD DUP1 SWAP2 SUB SWAP1 REVERT JUMPDEST PUSH1 0x1 PUSH1 0x1 PUSH1 0xA0 SHL SUB DUP6 AND ISZERO PUSH2 0x138B JUMPI CALLER PUSH1 0x0 SWAP1 DUP2 MSTORE PUSH1 0x1 DUP4 ADD PUSH1 0x20 MSTORE PUSH1 0x40 SWAP1 KECCAK256 DUP1 SLOAD DUP8 SWAP1 SUB SWAP1 SSTORE PUSH1 0x3 DUP3 ADD DUP1 SLOAD DUP8 SWAP1 SUB SWAP1 SSTORE JUMPDEST DUP1 SLOAD DUP7 SWAP1 SUB DUP2 SSTORE PUSH2 0x139B DUP8 PUSH2 0x220E JUMP JUMPDEST PUSH2 0x13A4 DUP8 PUSH2 0x3DE4 JUMP JUMPDEST DUP6 ISZERO PUSH2 0x18C9 JUMPI DUP3 SLOAD PUSH2 0x13B6 SWAP1 DUP8 PUSH2 0x4070 JUMP JUMPDEST DUP4 SSTORE PUSH1 0x3 DUP4 ADD SLOAD ISZERO PUSH2 0x13D3 JUMPI PUSH1 0x3 DUP4 ADD SLOAD NUMBER SUB PUSH1 0x5 DUP5 ADD SSTORE PUSH2 0x13E0 JUMP JUMPDEST PUSH1 0x4 DUP4 ADD SLOAD NUMBER SUB PUSH1 0x5 DUP5 ADD SSTORE JUMPDEST PUSH1 0xC PUSH1 0x0 DUP2 SLOAD DUP2 LT PUSH2 0x13EE JUMPI INVALID JUMPDEST SWAP1 PUSH1 0x0 MSTORE PUSH1 0x20 PUSH1 0x0 KECCAK256 ADD SLOAD DUP4 PUSH1 0x5 ADD SLOAD EQ DUP1 PUSH2 0x140D JUMPI POP DUP3 PUSH1 0x6 ADD SLOAD NUMBER EQ JUMPDEST ISZERO PUSH2 0x148C JUMPI PUSH2 0x145E CALLER PUSH2 0x144C PUSH1 0x64 PUSH2 0x1446 PUSH1 0xE PUSH1 0x0 DUP2 SLOAD DUP2 LT PUSH2 0x142C JUMPI INVALID JUMPDEST SWAP1 PUSH1 0x0 MSTORE PUSH1 0x20 PUSH1 0x0 KECCAK256 ADD SLOAD DUP12 PUSH2 0x3D2A SWAP1 SWAP2 SWAP1 PUSH4 0xFFFFFFFF AND JUMP JUMPDEST SWAP1 PUSH2 0x40CD JUMP JUMPDEST DUP7 SLOAD PUSH1 0x1 PUSH1 0x1 PUSH1 0xA0 SHL SUB AND SWAP2 SWAP1 PUSH2 0x4134 JUMP JUMPDEST PUSH1 0x5 SLOAD PUSH1 0xF DUP1 SLOAD PUSH2 0x1487 SWAP3 PUSH1 0x1 PUSH1 0x1 PUSH1 0xA0 SHL SUB AND SWAP2 PUSH2 0x144C SWAP2 PUSH1 0x64 SWAP2 PUSH2 0x1446 SWAP2 PUSH1 0x0 SWAP1 PUSH2 0x142C JUMPI INVALID JUMPDEST PUSH2 0x186B JUMP JUMPDEST PUSH1 0xC PUSH1 0x1 DUP2 SLOAD DUP2 LT PUSH2 0x149A JUMPI INVALID JUMPDEST SWAP1 PUSH1 0x0 MSTORE PUSH1 0x20 PUSH1 0x0 KECCAK256 ADD SLOAD DUP4 PUSH1 0x5 ADD SLOAD LT ISZERO DUP1 ISZERO PUSH2 0x14D4 JUMPI POP PUSH1 0xD PUSH1 0x0 DUP2 SLOAD DUP2 LT PUSH2 0x14C1 JUMPI INVALID JUMPDEST SWAP1 PUSH1 0x0 MSTORE PUSH1 0x20 PUSH1 0x0 KECCAK256 ADD SLOAD DUP4 PUSH1 0x5 ADD SLOAD GT ISZERO JUMPDEST ISZERO PUSH2 0x151E JUMPI PUSH2 0x14F3 CALLER PUSH2 0x144C PUSH1 0x64 PUSH2 0x1446 PUSH1 0xE PUSH1 0x1 DUP2 SLOAD DUP2 LT PUSH2 0x142C JUMPI INVALID JUMPDEST PUSH1 0x5 SLOAD PUSH1 0xF DUP1 SLOAD PUSH2 0x1487 SWAP3 PUSH1 0x1 PUSH1 0x1 PUSH1 0xA0 SHL SUB AND SWAP2 PUSH2 0x144C SWAP2 PUSH1 0x64 SWAP2 PUSH2 0x1446 SWAP2 PUSH1 0x1 SWAP1 DUP2 LT PUSH2 0x142C JUMPI INVALID JUMPDEST PUSH1 0xC PUSH1 0x2 DUP2 SLOAD DUP2 LT PUSH2 0x152C JUMPI INVALID JUMPDEST SWAP1 PUSH1 0x0 MSTORE PUSH1 0x20 PUSH1 0x0 KECCAK256 ADD SLOAD DUP4 PUSH1 0x5 ADD SLOAD LT ISZERO DUP1 ISZERO PUSH2 0x1566 JUMPI POP PUSH1 0xD PUSH1 0x1 DUP2 SLOAD DUP2 LT PUSH2 0x1553 JUMPI INVALID JUMPDEST SWAP1 PUSH1 0x0 MSTORE PUSH1 0x20 PUSH1 0x0 KECCAK256 ADD SLOAD DUP4 PUSH1 0x5 ADD SLOAD GT ISZERO JUMPDEST ISZERO PUSH2 0x15B0 JUMPI PUSH2 0x1585 CALLER PUSH2 0x144C PUSH1 0x64 PUSH2 0x1446 PUSH1 0xE PUSH1 0x2 DUP2 SLOAD DUP2 LT PUSH2 0x142C JUMPI INVALID JUMPDEST PUSH1 0x5 SLOAD PUSH1 0xF DUP1 SLOAD PUSH2 0x1487 SWAP3 PUSH1 0x1 PUSH1 0x1 PUSH1 0xA0 SHL SUB AND SWAP2 PUSH2 0x144C SWAP2 PUSH1 0x64 SWAP2 PUSH2 0x1446 SWAP2 PUSH1 0x2 SWAP1 DUP2 LT PUSH2 0x142C JUMPI INVALID JUMPDEST PUSH1 0xC PUSH1 0x3 DUP2 SLOAD DUP2 LT PUSH2 0x15BE JUMPI INVALID JUMPDEST SWAP1 PUSH1 0x0 MSTORE PUSH1 0x20 PUSH1 0x0 KECCAK256 ADD SLOAD DUP4 PUSH1 0x5 ADD SLOAD LT ISZERO DUP1 ISZERO PUSH2 0x15F8 JUMPI POP PUSH1 0xD PUSH1 0x2 DUP2 SLOAD DUP2 LT PUSH2 0x15E5 JUMPI INVALID JUMPDEST SWAP1 PUSH1 0x0 MSTORE PUSH1 0x20 PUSH1 0x0 KECCAK256 ADD SLOAD DUP4 PUSH1 0x5 ADD SLOAD GT ISZERO JUMPDEST ISZERO PUSH2 0x1642 JUMPI PUSH2 0x1617 CALLER PUSH2 0x144C PUSH1 0x64 PUSH2 0x1446 PUSH1 0xE PUSH1 0x3 DUP2 SLOAD DUP2 LT PUSH2 0x142C JUMPI INVALID JUMPDEST PUSH1 0x5 SLOAD PUSH1 0xF DUP1 SLOAD PUSH2 0x1487 SWAP3 PUSH1 0x1 PUSH1 0x1 PUSH1 0xA0 SHL SUB AND SWAP2 PUSH2 0x144C SWAP2 PUSH1 0x64 SWAP2 PUSH2 0x1446 SWAP2 PUSH1 0x3 SWAP1 DUP2 LT PUSH2 0x142C JUMPI INVALID JUMPDEST PUSH1 0xC PUSH1 0x4 DUP2 SLOAD DUP2 LT PUSH2 0x1650 JUMPI INVALID JUMPDEST SWAP1 PUSH1 0x0 MSTORE PUSH1 0x20 PUSH1 0x0 KECCAK256 ADD SLOAD DUP4 PUSH1 0x5 ADD SLOAD LT ISZERO DUP1 ISZERO PUSH2 0x168A JUMPI POP PUSH1 0xD PUSH1 0x3 DUP2 SLOAD DUP2 LT PUSH2 0x1677 JUMPI INVALID JUMPDEST SWAP1 PUSH1 0x0 MSTORE PUSH1 0x20 PUSH1 0x0 KECCAK256 ADD SLOAD DUP4 PUSH1 0x5 ADD SLOAD GT ISZERO JUMPDEST ISZERO PUSH2 0x16D4 JUMPI PUSH2 0x16A9 CALLER PUSH2 0x144C PUSH1 0x64 PUSH2 0x1446 PUSH1 0xE PUSH1 0x4 DUP2 SLOAD DUP2 LT PUSH2 0x142C JUMPI INVALID JUMPDEST PUSH1 0x5 SLOAD PUSH1 0xF DUP1 SLOAD PUSH2 0x1487 SWAP3 PUSH1 0x1 PUSH1 0x1 PUSH1 0xA0 SHL SUB AND SWAP2 PUSH2 0x144C SWAP2 PUSH1 0x64 SWAP2 PUSH2 0x1446 SWAP2 PUSH1 0x4 SWAP1 DUP2 LT PUSH2 0x142C JUMPI INVALID JUMPDEST PUSH1 0xC PUSH1 0x5 DUP2 SLOAD DUP2 LT PUSH2 0x16E2 JUMPI INVALID JUMPDEST SWAP1 PUSH1 0x0 MSTORE PUSH1 0x20 PUSH1 0x0 KECCAK256 ADD SLOAD DUP4 PUSH1 0x5 ADD SLOAD LT ISZERO DUP1 ISZERO PUSH2 0x171C JUMPI POP PUSH1 0xD PUSH1 0x4 DUP2 SLOAD DUP2 LT PUSH2 0x1709 JUMPI INVALID JUMPDEST SWAP1 PUSH1 0x0 MSTORE PUSH1 0x20 PUSH1 0x0 KECCAK256 ADD SLOAD DUP4 PUSH1 0x5 ADD SLOAD GT ISZERO JUMPDEST ISZERO PUSH2 0x176C JUMPI PUSH2 0x173C CALLER PUSH2 0x144C PUSH2 0x3E8 PUSH2 0x1446 PUSH1 0xE PUSH1 0x5 DUP2 SLOAD DUP2 LT PUSH2 0x142C JUMPI INVALID JUMPDEST PUSH2 0x1487 PUSH1 0x5 PUSH1 0x0 SWAP1 SLOAD SWAP1 PUSH2 0x100 EXP SWAP1 DIV PUSH1 0x1 PUSH1 0x1 PUSH1 0xA0 SHL SUB AND PUSH2 0x144C PUSH2 0x3E8 PUSH2 0x1446 PUSH1 0xF PUSH1 0x5 DUP2 SLOAD DUP2 LT PUSH2 0x142C JUMPI INVALID JUMPDEST PUSH1 0xC PUSH1 0x6 DUP2 SLOAD DUP2 LT PUSH2 0x177A JUMPI INVALID JUMPDEST SWAP1 PUSH1 0x0 MSTORE PUSH1 0x20 PUSH1 0x0 KECCAK256 ADD SLOAD DUP4 PUSH1 0x5 ADD SLOAD LT ISZERO DUP1 ISZERO PUSH2 0x17B4 JUMPI POP PUSH1 0xD PUSH1 0x5 DUP2 SLOAD DUP2 LT PUSH2 0x17A1 JUMPI INVALID JUMPDEST SWAP1 PUSH1 0x0 MSTORE PUSH1 0x20 PUSH1 0x0 KECCAK256 ADD SLOAD DUP4 PUSH1 0x5 ADD SLOAD GT ISZERO JUMPDEST ISZERO PUSH2 0x1800 JUMPI PUSH2 0x17D4 CALLER PUSH2 0x144C PUSH2 0x2710 PUSH2 0x1446 PUSH1 0xE PUSH1 0x6 DUP2 SLOAD DUP2 LT PUSH2 0x142C JUMPI INVALID JUMPDEST PUSH1 0x5 SLOAD PUSH1 0xF DUP1 SLOAD PUSH2 0x1487 SWAP3 PUSH1 0x1 PUSH1 0x1 PUSH1 0xA0 SHL SUB AND SWAP2 PUSH2 0x144C SWAP2 PUSH2 0x2710 SWAP2 PUSH2 0x1446 SWAP2 PUSH1 0x6 SWAP1 DUP2 LT PUSH2 0x142C JUMPI INVALID JUMPDEST PUSH1 0xC PUSH1 0x7 DUP2 SLOAD DUP2 LT PUSH2 0x180E JUMPI INVALID JUMPDEST SWAP1 PUSH1 0x0 MSTORE PUSH1 0x20 PUSH1 0x0 KECCAK256 ADD SLOAD DUP4 PUSH1 0x5 ADD SLOAD GT ISZERO PUSH2 0x186B JUMPI PUSH2 0x183F CALLER PUSH2 0x144C PUSH2 0x2710 PUSH2 0x1446 PUSH1 0xE PUSH1 0x7 DUP2 SLOAD DUP2 LT PUSH2 0x142C JUMPI INVALID JUMPDEST PUSH1 0x5 SLOAD PUSH1 0xF DUP1 SLOAD PUSH2 0x186B SWAP3 PUSH1 0x1 PUSH1 0x1 PUSH1 0xA0 SHL SUB AND SWAP2 PUSH2 0x144C SWAP2 PUSH2 0x2710 SWAP2 PUSH2 0x1446 SWAP2 PUSH1 0x7 SWAP1 DUP2 LT PUSH2 0x142C JUMPI INVALID JUMPDEST PUSH1 0x3 DUP5 ADD SLOAD DUP4 SLOAD PUSH2 0x1886 SWAP2 PUSH5 0xE8D4A51000 SWAP2 PUSH2 0x1446 SWAP2 PUSH2 0x3D2A JUMP JUMPDEST PUSH1 0x1 DUP5 ADD SSTORE PUSH1 0x40 DUP1 MLOAD DUP8 DUP2 MSTORE SWAP1 MLOAD DUP9 SWAP2 CALLER SWAP2 PUSH32 0xF279E6A1F5E320CCA91135676D9CB6E44CA8A08C0B88342BCDB1144F6511B568 SWAP2 DUP2 SWAP1 SUB PUSH1 0x20 ADD SWAP1 LOG3 NUMBER PUSH1 0x3 DUP5 ADD SSTORE JUMPDEST POP POP PUSH1 0x1 PUSH1 0x2 SSTORE POP POP POP POP POP JUMP JUMPDEST PUSH1 0x19 DUP2 DUP2 SLOAD DUP2 LT PUSH2 0x18E4 JUMPI INVALID JUMPDEST PUSH1 0x0 SWAP2 DUP3 MSTORE PUSH1 0x20 SWAP1 SWAP2 KECCAK256 PUSH1 0x4 SWAP1 SWAP2 MUL ADD DUP1 SLOAD PUSH1 0x1 DUP3 ADD SLOAD PUSH1 0x2 DUP4 ADD SLOAD PUSH1 0x3 SWAP1 SWAP4 ADD SLOAD PUSH1 0x1 PUSH1 0x1 PUSH1 0xA0 SHL SUB SWAP1 SWAP3 AND SWAP4 POP SWAP2 SWAP1 DUP5 JUMP JUMPDEST PUSH1 0x1E SLOAD DUP2 JUMP JUMPDEST PUSH1 0x0 DUP1 PUSH2 0x192E PUSH1 0x1 NUMBER SUB NUMBER PUSH2 0x2E6F JUMP JUMPDEST SWAP1 POP DUP3 PUSH2 0x194B JUMPI PUSH1 0x9 SLOAD PUSH2 0x1943 SWAP1 DUP3 SWAP1 PUSH2 0x3D2A JUMP JUMPDEST SWAP2 POP POP PUSH2 0x125A JUMP JUMPDEST PUSH2 0x1943 PUSH1 0x1E SLOAD PUSH2 0x1446 PUSH1 0x19 PUSH1 0x1 DUP8 SUB DUP2 SLOAD DUP2 LT PUSH2 0x1964 JUMPI INVALID JUMPDEST SWAP1 PUSH1 0x0 MSTORE PUSH1 0x20 PUSH1 0x0 KECCAK256 SWAP1 PUSH1 0x4 MUL ADD PUSH1 0x1 ADD SLOAD PUSH2 0x198B PUSH1 0x9 SLOAD DUP7 PUSH2 0x3D2A SWAP1 SWAP2 SWAP1 PUSH4 0xFFFFFFFF AND JUMP JUMPDEST SWAP1 PUSH2 0x3D2A JUMP JUMPDEST PUSH2 0x1999 PUSH2 0x4186 JUMP JUMPDEST PUSH1 0x1 PUSH1 0x1 PUSH1 0xA0 SHL SUB AND PUSH2 0x19AA PUSH2 0x2E60 JUMP JUMPDEST PUSH1 0x1 PUSH1 0x1 PUSH1 0xA0 SHL SUB AND EQ PUSH2 0x19F3 JUMPI PUSH1 0x40 DUP1 MLOAD PUSH3 0x461BCD PUSH1 0xE5 SHL DUP2 MSTORE PUSH1 0x20 PUSH1 0x4 DUP3 ADD DUP2 SWAP1 MSTORE PUSH1 0x24 DUP3 ADD MSTORE PUSH1 0x0 DUP1 MLOAD PUSH1 0x20 PUSH2 0x45FB DUP4 CODECOPY DUP2 MLOAD SWAP2 MSTORE PUSH1 0x44 DUP3 ADD MSTORE SWAP1 MLOAD SWAP1 DUP2 SWAP1 SUB PUSH1 0x64 ADD SWAP1 REVERT JUMPDEST PUSH1 0x1 PUSH1 0x1 PUSH1 0xA0 SHL SUB DUP3 AND PUSH1 0x0 SWAP1 DUP2 MSTORE PUSH1 0x1D PUSH1 0x20 MSTORE PUSH1 0x40 SWAP1 KECCAK256 SLOAD DUP3 SWAP1 PUSH1 0xFF AND ISZERO PUSH2 0x1A4D JUMPI PUSH1 0x40 MLOAD PUSH3 0x461BCD PUSH1 0xE5 SHL DUP2 MSTORE PUSH1 0x4 ADD DUP1 DUP1 PUSH1 0x20 ADD DUP3 DUP2 SUB DUP3 MSTORE PUSH1 0x29 DUP2 MSTORE PUSH1 0x20 ADD DUP1 PUSH2 0x4555 PUSH1 0x29 SWAP2 CODECOPY PUSH1 0x40 ADD SWAP2 POP POP PUSH1 0x40 MLOAD DUP1 SWAP2 SUB SWAP1 REVERT JUMPDEST PUSH1 0x1 PUSH1 0x1 PUSH1 0xA0 SHL SUB DUP4 AND PUSH1 0x0 SWAP1 DUP2 MSTORE PUSH1 0x1A PUSH1 0x20 MSTORE PUSH1 0x40 SWAP1 KECCAK256 SLOAD ISZERO PUSH2 0x1AA2 JUMPI PUSH1 0x40 MLOAD PUSH3 0x461BCD PUSH1 0xE5 SHL DUP2 MSTORE PUSH1 0x4 ADD DUP1 DUP1 PUSH1 0x20 ADD DUP3 DUP2 SUB DUP3 MSTORE PUSH1 0x2A DUP2 MSTORE PUSH1 0x20 ADD DUP1 PUSH2 0x465D PUSH1 0x2A SWAP2 CODECOPY PUSH1 0x40 ADD SWAP2 POP POP PUSH1 0x40 MLOAD DUP1 SWAP2 SUB SWAP1 REVERT JUMPDEST DUP2 ISZERO PUSH2 0x1AB0 JUMPI PUSH2 0x1AB0 PUSH2 0x2A22 JUMP JUMPDEST PUSH1 0x0 PUSH1 0x13 SLOAD NUMBER GT PUSH2 0x1AC3 JUMPI PUSH1 0x13 SLOAD PUSH2 0x1AC5 JUMP JUMPDEST NUMBER JUMPDEST PUSH1 0x1E SLOAD SWAP1 SWAP2 POP PUSH2 0x1AD5 SWAP1 DUP7 PUSH2 0x3D8A JUMP JUMPDEST PUSH1 0x1E SSTORE PUSH1 0x19 DUP1 SLOAD PUSH1 0x1 PUSH1 0x1 PUSH1 0xA0 SHL SUB SWAP6 DUP7 AND PUSH1 0x0 DUP2 DUP2 MSTORE PUSH1 0x1A PUSH1 0x20 SWAP1 DUP2 MSTORE PUSH1 0x40 DUP1 DUP4 KECCAK256 PUSH1 0x1 SWAP6 DUP7 ADD SWAP1 SSTORE PUSH1 0x1D DUP3 MSTORE DUP1 DUP4 KECCAK256 DUP1 SLOAD PUSH1 0xFF NOT AND DUP7 OR SWAP1 SSTORE DUP1 MLOAD PUSH1 0x80 DUP2 ADD DUP3 MSTORE SWAP4 DUP5 MSTORE SWAP1 DUP4 ADD SWAP10 DUP11 MSTORE DUP3 ADD SWAP5 DUP6 MSTORE PUSH1 0x60 DUP3 ADD DUP2 DUP2 MSTORE DUP5 SLOAD SWAP4 DUP5 ADD DUP6 SSTORE SWAP4 SWAP1 MSTORE MLOAD PUSH32 0x944998273E477B495144FB8794C914197F3CCB46BE2900F4698FD0EF743C9695 PUSH1 0x4 SWAP1 SWAP3 MUL SWAP2 DUP3 ADD DUP1 SLOAD PUSH1 0x1 PUSH1 0x1 PUSH1 0xA0 SHL SUB NOT AND SWAP2 SWAP1 SWAP8 AND OR SWAP1 SWAP6 SSTORE SWAP5 MLOAD PUSH32 0x944998273E477B495144FB8794C914197F3CCB46BE2900F4698FD0EF743C9696 DUP6 ADD SSTORE MLOAD PUSH32 0x944998273E477B495144FB8794C914197F3CCB46BE2900F4698FD0EF743C9697 DUP5 ADD SSTORE POP POP SWAP1 MLOAD PUSH32 0x944998273E477B495144FB8794C914197F3CCB46BE2900F4698FD0EF743C9698 SWAP1 SWAP2 ADD SSTORE JUMP JUMPDEST PUSH1 0x6 SLOAD PUSH1 0x1 PUSH1 0x1 PUSH1 0xA0 SHL SUB AND DUP2 JUMP JUMPDEST CALLER PUSH1 0x0 SWAP1 DUP2 MSTORE PUSH1 0x1 PUSH1 0x20 MSTORE PUSH1 0x40 SWAP1 KECCAK256 SLOAD PUSH1 0xFF AND DUP1 PUSH2 0x1C27 JUMPI POP CALLER PUSH2 0x1C1C PUSH2 0x2E60 JUMP JUMPDEST PUSH1 0x1 PUSH1 0x1 PUSH1 0xA0 SHL SUB AND EQ JUMPDEST PUSH2 0x1C66 JUMPI PUSH1 0x40 DUP1 MLOAD PUSH3 0x461BCD PUSH1 0xE5 SHL DUP2 MSTORE PUSH1 0x20 PUSH1 0x4 DUP3 ADD MSTORE PUSH1 0x18 PUSH1 0x24 DUP3 ADD MSTORE PUSH1 0x0 DUP1 MLOAD PUSH1 0x20 PUSH2 0x461B DUP4 CODECOPY DUP2 MLOAD SWAP2 MSTORE PUSH1 0x44 DUP3 ADD MSTORE SWAP1 MLOAD SWAP1 DUP2 SWAP1 SUB PUSH1 0x64 ADD SWAP1 REVERT JUMPDEST PUSH1 0x10 SSTORE JUMP JUMPDEST CALLER PUSH1 0x0 SWAP1 DUP2 MSTORE PUSH1 0x1 PUSH1 0x20 MSTORE PUSH1 0x40 SWAP1 KECCAK256 SLOAD PUSH1 0xFF AND DUP1 PUSH2 0x1C98 JUMPI POP CALLER PUSH2 0x1C8D PUSH2 0x2E60 JUMP JUMPDEST PUSH1 0x1 PUSH1 0x1 PUSH1 0xA0 SHL SUB AND EQ JUMPDEST PUSH2 0x1CD7 JUMPI PUSH1 0x40 DUP1 MLOAD PUSH3 0x461BCD PUSH1 0xE5 SHL DUP2 MSTORE PUSH1 0x20 PUSH1 0x4 DUP3 ADD MSTORE PUSH1 0x18 PUSH1 0x24 DUP3 ADD MSTORE PUSH1 0x0 DUP1 MLOAD PUSH1 0x20 PUSH2 0x461B DUP4 CODECOPY DUP2 MLOAD SWAP2 MSTORE PUSH1 0x44 DUP3 ADD MSTORE SWAP1 MLOAD SWAP1 DUP2 SWAP1 SUB PUSH1 0x64 ADD SWAP1 REVERT JUMPDEST PUSH1 0x13 SSTORE JUMP JUMPDEST CALLER PUSH1 0x0 SWAP1 DUP2 MSTORE PUSH1 0x1 PUSH1 0x20 MSTORE PUSH1 0x40 SWAP1 KECCAK256 SLOAD PUSH1 0xFF AND DUP1 PUSH2 0x1D09 JUMPI POP CALLER PUSH2 0x1CFE PUSH2 0x2E60 JUMP JUMPDEST PUSH1 0x1 PUSH1 0x1 PUSH1 0xA0 SHL SUB AND EQ JUMPDEST PUSH2 0x1D48 JUMPI PUSH1 0x40 DUP1 MLOAD PUSH3 0x461BCD PUSH1 0xE5 SHL DUP2 MSTORE PUSH1 0x20 PUSH1 0x4 DUP3 ADD MSTORE PUSH1 0x18 PUSH1 0x24 DUP3 ADD MSTORE PUSH1 0x0 DUP1 MLOAD PUSH1 0x20 PUSH2 0x461B DUP4 CODECOPY DUP2 MLOAD SWAP2 MSTORE PUSH1 0x44 DUP3 ADD MSTORE SWAP1 MLOAD SWAP1 DUP2 SWAP1 SUB PUSH1 0x64 ADD SWAP1 REVERT JUMPDEST DUP1 MLOAD PUSH2 0x1D5B SWAP1 PUSH1 0x14 SWAP1 PUSH1 0x20 DUP5 ADD SWAP1 PUSH2 0x44AD JUMP JUMPDEST POP POP JUMP JUMPDEST CALLER PUSH1 0x0 SWAP1 DUP2 MSTORE PUSH1 0x1 PUSH1 0x20 MSTORE PUSH1 0x40 SWAP1 KECCAK256 SLOAD PUSH1 0xFF AND DUP1 PUSH2 0x1D8C JUMPI POP CALLER PUSH2 0x1D81 PUSH2 0x2E60 JUMP JUMPDEST PUSH1 0x1 PUSH1 0x1 PUSH1 0xA0 SHL SUB AND EQ JUMPDEST PUSH2 0x1DCB JUMPI PUSH1 0x40 DUP1 MLOAD PUSH3 0x461BCD PUSH1 0xE5 SHL DUP2 MSTORE PUSH1 0x20 PUSH1 0x4 DUP3 ADD MSTORE PUSH1 0x18 PUSH1 0x24 DUP3 ADD MSTORE PUSH1 0x0 DUP1 MLOAD PUSH1 0x20 PUSH2 0x461B DUP4 CODECOPY DUP2 MLOAD SWAP2 MSTORE PUSH1 0x44 DUP3 ADD MSTORE SWAP1 MLOAD SWAP1 DUP2 SWAP1 SUB PUSH1 0x64 ADD SWAP1 REVERT JUMPDEST DUP1 MLOAD PUSH2 0x1D5B SWAP1 PUSH1 0xE SWAP1 PUSH1 0x20 DUP5 ADD SWAP1 PUSH2 0x44AD JUMP JUMPDEST PUSH1 0xA DUP2 DUP2 SLOAD DUP2 LT PUSH2 0x1DEB JUMPI INVALID JUMPDEST PUSH1 0x0 SWAP2 DUP3 MSTORE PUSH1 0x20 SWAP1 SWAP2 KECCAK256 ADD SLOAD SWAP1 POP DUP2 JUMP JUMPDEST CALLER PUSH1 0x0 SWAP1 DUP2 MSTORE PUSH1 0x1 PUSH1 0x20 MSTORE PUSH1 0x40 SWAP1 KECCAK256 SLOAD PUSH1 0xFF AND DUP1 PUSH2 0x1E29 JUMPI POP CALLER PUSH2 0x1E1E PUSH2 0x2E60 JUMP JUMPDEST PUSH1 0x1 PUSH1 0x1 PUSH1 0xA0 SHL SUB AND EQ JUMPDEST PUSH2 0x1E68 JUMPI PUSH1 0x40 DUP1 MLOAD PUSH3 0x461BCD PUSH1 0xE5 SHL DUP2 MSTORE PUSH1 0x20 PUSH1 0x4 DUP3 ADD MSTORE PUSH1 0x18 PUSH1 0x24 DUP3 ADD MSTORE PUSH1 0x0 DUP1 MLOAD PUSH1 0x20 PUSH2 0x461B DUP4 CODECOPY DUP2 MLOAD SWAP2 MSTORE PUSH1 0x44 DUP3 ADD MSTORE SWAP1 MLOAD SWAP1 DUP2 SWAP1 SUB PUSH1 0x64 ADD SWAP1 REVERT JUMPDEST PUSH1 0x8 DUP1 SLOAD PUSH1 0x1 PUSH1 0x1 PUSH1 0xA0 SHL SUB NOT AND PUSH1 0x1 PUSH1 0x1 PUSH1 0xA0 SHL SUB SWAP3 SWAP1 SWAP3 AND SWAP2 SWAP1 SWAP2 OR SWAP1 SSTORE JUMP JUMPDEST CALLER PUSH1 0x0 SWAP1 DUP2 MSTORE PUSH1 0x1 PUSH1 0x20 MSTORE PUSH1 0x40 SWAP1 KECCAK256 SLOAD PUSH1 0xFF AND DUP1 PUSH2 0x1EB7 JUMPI POP CALLER PUSH2 0x1EAC PUSH2 0x2E60 JUMP JUMPDEST PUSH1 0x1 PUSH1 0x1 PUSH1 0xA0 SHL SUB AND EQ JUMPDEST PUSH2 0x1EF6 JUMPI PUSH1 0x40 DUP1 MLOAD PUSH3 0x461BCD PUSH1 0xE5 SHL DUP2 MSTORE PUSH1 0x20 PUSH1 0x4 DUP3 ADD MSTORE PUSH1 0x18 PUSH1 0x24 DUP3 ADD MSTORE PUSH1 0x0 DUP1 MLOAD PUSH1 0x20 PUSH2 0x461B DUP4 CODECOPY DUP2 MLOAD SWAP2 MSTORE PUSH1 0x44 DUP3 ADD MSTORE SWAP1 MLOAD SWAP1 DUP2 SWAP1 SUB PUSH1 0x64 ADD SWAP1 REVERT JUMPDEST DUP1 MLOAD PUSH2 0x1D5B SWAP1 PUSH1 0xB SWAP1 PUSH1 0x20 DUP5 ADD SWAP1 PUSH2 0x44AD JUMP JUMPDEST PUSH1 0x0 PUSH2 0x1F13 PUSH2 0x44F8 JUMP JUMPDEST POP POP PUSH1 0x1 PUSH1 0x1 PUSH1 0xA0 SHL SUB AND PUSH1 0x0 SWAP1 DUP2 MSTORE PUSH1 0x1C PUSH1 0x20 SWAP1 DUP2 MSTORE PUSH1 0x40 SWAP2 DUP3 SWAP1 KECCAK256 DUP3 MLOAD PUSH1 0x60 DUP2 ADD DUP5 MSTORE DUP2 SLOAD DUP2 MSTORE PUSH1 0x2 DUP3 ADD SLOAD SWAP3 DUP2 ADD DUP4 SWAP1 MSTORE PUSH1 0x3 SWAP1 SWAP2 ADD SLOAD SWAP3 ADD SWAP2 SWAP1 SWAP2 MSTORE SWAP1 JUMP JUMPDEST PUSH1 0x13 SLOAD DUP2 JUMP JUMPDEST PUSH1 0x7 SLOAD PUSH1 0x1 PUSH1 0x1 PUSH1 0xA0 SHL SUB AND DUP2 JUMP JUMPDEST CALLER PUSH1 0x0 SWAP1 DUP2 MSTORE PUSH1 0x1 PUSH1 0x20 MSTORE PUSH1 0x40 SWAP1 KECCAK256 SLOAD PUSH1 0xFF AND DUP1 PUSH2 0x1F98 JUMPI POP CALLER PUSH2 0x1F8D PUSH2 0x2E60 JUMP JUMPDEST PUSH1 0x1 PUSH1 0x1 PUSH1 0xA0 SHL SUB AND EQ JUMPDEST PUSH2 0x1FD7 JUMPI PUSH1 0x40 DUP1 MLOAD PUSH3 0x461BCD PUSH1 0xE5 SHL DUP2 MSTORE PUSH1 0x20 PUSH1 0x4 DUP3 ADD MSTORE PUSH1 0x18 PUSH1 0x24 DUP3 ADD MSTORE PUSH1 0x0 DUP1 MLOAD PUSH1 0x20 PUSH2 0x461B DUP4 CODECOPY DUP2 MLOAD SWAP2 MSTORE PUSH1 0x44 DUP3 ADD MSTORE SWAP1 MLOAD SWAP1 DUP2 SWAP1 SUB PUSH1 0x64 ADD SWAP1 REVERT JUMPDEST PUSH1 0x9 SSTORE JUMP JUMPDEST PUSH1 0xB DUP2 DUP2 SLOAD DUP2 LT PUSH2 0x1DEB JUMPI INVALID JUMPDEST CALLER PUSH1 0x0 SWAP1 DUP2 MSTORE PUSH1 0x1 PUSH1 0x20 MSTORE PUSH1 0x40 SWAP1 KECCAK256 SLOAD PUSH1 0xFF AND DUP1 PUSH2 0x2016 JUMPI POP CALLER PUSH2 0x200B PUSH2 0x2E60 JUMP JUMPDEST PUSH1 0x1 PUSH1 0x1 PUSH1 0xA0 SHL SUB AND EQ JUMPDEST PUSH2 0x2055 JUMPI PUSH1 0x40 DUP1 MLOAD PUSH3 0x461BCD PUSH1 0xE5 SHL DUP2 MSTORE PUSH1 0x20 PUSH1 0x4 DUP3 ADD MSTORE PUSH1 0x18 PUSH1 0x24 DUP3 ADD MSTORE PUSH1 0x0 DUP1 MLOAD PUSH1 0x20 PUSH2 0x461B DUP4 CODECOPY DUP2 MLOAD SWAP2 MSTORE PUSH1 0x44 DUP3 ADD MSTORE SWAP1 MLOAD SWAP1 DUP2 SWAP1 SUB PUSH1 0x64 ADD SWAP1 REVERT JUMPDEST DUP1 MLOAD PUSH2 0x1D5B SWAP1 PUSH1 0xA SWAP1 PUSH1 0x20 DUP5 ADD SWAP1 PUSH2 0x44AD JUMP JUMPDEST PUSH2 0x2070 PUSH2 0x4186 JUMP JUMPDEST PUSH1 0x1 PUSH1 0x1 PUSH1 0xA0 SHL SUB AND PUSH2 0x2081 PUSH2 0x2E60 JUMP JUMPDEST PUSH1 0x1 PUSH1 0x1 PUSH1 0xA0 SHL SUB AND EQ PUSH2 0x20CA JUMPI PUSH1 0x40 DUP1 MLOAD PUSH3 0x461BCD PUSH1 0xE5 SHL DUP2 MSTORE PUSH1 0x20 PUSH1 0x4 DUP3 ADD DUP2 SWAP1 MSTORE PUSH1 0x24 DUP3 ADD MSTORE PUSH1 0x0 DUP1 MLOAD PUSH1 0x20 PUSH2 0x45FB DUP4 CODECOPY DUP2 MLOAD SWAP2 MSTORE PUSH1 0x44 DUP3 ADD MSTORE SWAP1 MLOAD SWAP1 DUP2 SWAP1 SUB PUSH1 0x64 ADD SWAP1 REVERT JUMPDEST PUSH1 0x1 PUSH1 0x1 PUSH1 0xA0 SHL SUB DUP2 AND CALLER EQ ISZERO PUSH2 0x20E0 JUMPI PUSH1 0x0 DUP1 REVERT JUMPDEST PUSH1 0x1 PUSH1 0x1 PUSH1 0xA0 SHL SUB AND PUSH1 0x0 SWAP1 DUP2 MSTORE PUSH1 0x1 PUSH1 0x20 MSTORE PUSH1 0x40 SWAP1 KECCAK256 DUP1 SLOAD PUSH1 0xFF NOT AND SWAP1 SSTORE JUMP JUMPDEST CALLER PUSH1 0x0 SWAP1 DUP2 MSTORE PUSH1 0x1 PUSH1 0x20 MSTORE PUSH1 0x40 SWAP1 KECCAK256 SLOAD PUSH1 0xFF AND DUP1 PUSH2 0x212E JUMPI POP CALLER PUSH2 0x2123 PUSH2 0x2E60 JUMP JUMPDEST PUSH1 0x1 PUSH1 0x1 PUSH1 0xA0 SHL SUB AND EQ JUMPDEST PUSH2 0x216D JUMPI PUSH1 0x40 DUP1 MLOAD PUSH3 0x461BCD PUSH1 0xE5 SHL DUP2 MSTORE PUSH1 0x20 PUSH1 0x4 DUP3 ADD MSTORE PUSH1 0x18 PUSH1 0x24 DUP3 ADD MSTORE PUSH1 0x0 DUP1 MLOAD PUSH1 0x20 PUSH2 0x461B DUP4 CODECOPY DUP2 MLOAD SWAP2 MSTORE PUSH1 0x44 DUP3 ADD MSTORE SWAP1 MLOAD SWAP1 DUP2 SWAP1 SUB PUSH1 0x64 ADD SWAP1 REVERT JUMPDEST DUP1 MLOAD PUSH2 0x1D5B SWAP1 PUSH1 0xD SWAP1 PUSH1 0x20 DUP5 ADD SWAP1 PUSH2 0x44AD JUMP JUMPDEST CALLER PUSH1 0x0 SWAP1 DUP2 MSTORE PUSH1 0x1 PUSH1 0x20 MSTORE PUSH1 0x40 SWAP1 KECCAK256 SLOAD PUSH1 0xFF AND DUP1 PUSH2 0x21AD JUMPI POP CALLER PUSH2 0x21A2 PUSH2 0x2E60 JUMP JUMPDEST PUSH1 0x1 PUSH1 0x1 PUSH1 0xA0 SHL SUB AND EQ JUMPDEST PUSH2 0x21EC JUMPI PUSH1 0x40 DUP1 MLOAD PUSH3 0x461BCD PUSH1 0xE5 SHL DUP2 MSTORE PUSH1 0x20 PUSH1 0x4 DUP3 ADD MSTORE PUSH1 0x18 PUSH1 0x24 DUP3 ADD MSTORE PUSH1 0x0 DUP1 MLOAD PUSH1 0x20 PUSH2 0x461B DUP4 CODECOPY DUP2 MLOAD SWAP2 MSTORE PUSH1 0x44 DUP3 ADD MSTORE SWAP1 MLOAD SWAP1 DUP2 SWAP1 SUB PUSH1 0x64 ADD SWAP1 REVERT JUMPDEST PUSH1 0x6 DUP1 SLOAD PUSH1 0x1 PUSH1 0x1 PUSH1 0xA0 SHL SUB NOT AND PUSH1 0x1 PUSH1 0x1 PUSH1 0xA0 SHL SUB SWAP3 SWAP1 SWAP3 AND SWAP2 SWAP1 SWAP2 OR SWAP1 SSTORE JUMP JUMPDEST PUSH1 0x0 PUSH1 0x19 DUP3 DUP2 SLOAD DUP2 LT PUSH2 0x221D JUMPI INVALID JUMPDEST SWAP1 PUSH1 0x0 MSTORE PUSH1 0x20 PUSH1 0x0 KECCAK256 SWAP1 PUSH1 0x4 MUL ADD SWAP1 POP DUP1 PUSH1 0x2 ADD SLOAD NUMBER GT PUSH2 0x223E JUMPI POP PUSH2 0x27B3 JUMP JUMPDEST DUP1 SLOAD PUSH1 0x40 DUP1 MLOAD PUSH4 0x70A08231 PUSH1 0xE0 SHL DUP2 MSTORE ADDRESS PUSH1 0x4 DUP3 ADD MSTORE SWAP1 MLOAD PUSH1 0x0 SWAP3 PUSH1 0x1 PUSH1 0x1 PUSH1 0xA0 SHL SUB AND SWAP2 PUSH4 0x70A08231 SWAP2 PUSH1 0x24 DUP1 DUP4 ADD SWAP3 PUSH1 0x20 SWAP3 SWAP2 SWAP1 DUP3 SWAP1 SUB ADD DUP2 DUP7 DUP1 EXTCODESIZE ISZERO DUP1 ISZERO PUSH2 0x2288 JUMPI PUSH1 0x0 DUP1 REVERT JUMPDEST POP GAS STATICCALL ISZERO DUP1 ISZERO PUSH2 0x229C JUMPI RETURNDATASIZE PUSH1 0x0 DUP1 RETURNDATACOPY RETURNDATASIZE PUSH1 0x0 REVERT JUMPDEST POP POP POP POP PUSH1 0x40 MLOAD RETURNDATASIZE PUSH1 0x20 DUP2 LT ISZERO PUSH2 0x22B2 JUMPI PUSH1 0x0 DUP1 REVERT JUMPDEST POP MLOAD SWAP1 POP DUP1 PUSH2 0x22C8 JUMPI POP NUMBER PUSH1 0x2 SWAP1 SWAP2 ADD SSTORE PUSH2 0x27B3 JUMP JUMPDEST PUSH1 0x0 DUP1 PUSH1 0x0 DUP1 PUSH1 0x0 PUSH2 0x22E3 DUP8 PUSH1 0x2 ADD SLOAD NUMBER DUP10 PUSH1 0x1 ADD SLOAD PUSH2 0x35EF JUMP JUMPDEST PUSH1 0x3 SLOAD PUSH1 0x40 DUP1 MLOAD PUSH4 0x40C10F19 PUSH1 0xE0 SHL DUP2 MSTORE ADDRESS PUSH1 0x4 DUP3 ADD MSTORE PUSH1 0x24 DUP2 ADD DUP8 SWAP1 MSTORE SWAP1 MLOAD SWAP7 SWAP12 POP SWAP5 SWAP10 POP SWAP3 SWAP8 POP SWAP1 SWAP6 POP SWAP4 POP PUSH1 0x1 PUSH1 0x1 PUSH1 0xA0 SHL SUB AND SWAP2 PUSH4 0x40C10F19 SWAP2 PUSH1 0x44 DUP1 DUP3 ADD SWAP3 PUSH1 0x0 SWAP3 SWAP1 SWAP2 SWAP1 DUP3 SWAP1 SUB ADD DUP2 DUP4 DUP8 DUP1 EXTCODESIZE ISZERO DUP1 ISZERO PUSH2 0x2342 JUMPI PUSH1 0x0 DUP1 REVERT JUMPDEST POP GAS CALL ISZERO DUP1 ISZERO PUSH2 0x2356 JUMPI RETURNDATASIZE PUSH1 0x0 DUP1 RETURNDATACOPY RETURNDATASIZE PUSH1 0x0 REVERT JUMPDEST POP POP POP POP PUSH2 0x2384 PUSH2 0x2379 DUP8 PUSH2 0x1446 PUSH5 0xE8D4A51000 DUP9 PUSH2 0x3D2A SWAP1 SWAP2 SWAP1 PUSH4 0xFFFFFFFF AND JUMP JUMPDEST PUSH1 0x3 DUP10 ADD SLOAD SWAP1 PUSH2 0x3D8A JUMP JUMPDEST PUSH1 0x3 DUP9 ADD SSTORE NUMBER PUSH1 0x2 DUP9 ADD SSTORE DUP5 ISZERO PUSH2 0x2496 JUMPI PUSH1 0x3 SLOAD PUSH1 0x5 SLOAD PUSH1 0x40 DUP1 MLOAD PUSH4 0x40C10F19 PUSH1 0xE0 SHL DUP2 MSTORE PUSH1 0x1 PUSH1 0x1 PUSH1 0xA0 SHL SUB SWAP3 DUP4 AND PUSH1 0x4 DUP3 ADD MSTORE PUSH1 0x24 DUP2 ADD DUP10 SWAP1 MSTORE SWAP1 MLOAD SWAP2 SWAP1 SWAP3 AND SWAP2 PUSH4 0x40C10F19 SWAP2 PUSH1 0x44 DUP1 DUP4 ADD SWAP3 PUSH1 0x0 SWAP3 SWAP2 SWAP1 DUP3 SWAP1 SUB ADD DUP2 DUP4 DUP8 DUP1 EXTCODESIZE ISZERO DUP1 ISZERO PUSH2 0x23ED JUMPI PUSH1 0x0 DUP1 REVERT JUMPDEST POP GAS CALL ISZERO DUP1 ISZERO PUSH2 0x2401 JUMPI RETURNDATASIZE PUSH1 0x0 DUP1 RETURNDATACOPY RETURNDATASIZE PUSH1 0x0 REVERT JUMPDEST POP POP POP POP PUSH1 0x10 SLOAD NUMBER GT PUSH2 0x2496 JUMPI PUSH1 0x3 SLOAD PUSH1 0x5 SLOAD PUSH1 0x1 PUSH1 0x1 PUSH1 0xA0 SHL SUB SWAP2 DUP3 AND SWAP2 PUSH4 0x282D3FDF SWAP2 AND PUSH2 0x2437 PUSH1 0x64 PUSH2 0x1446 DUP11 PUSH1 0x4B PUSH2 0x3D2A JUMP JUMPDEST PUSH1 0x40 MLOAD DUP4 PUSH4 0xFFFFFFFF AND PUSH1 0xE0 SHL DUP2 MSTORE PUSH1 0x4 ADD DUP1 DUP4 PUSH1 0x1 PUSH1 0x1 PUSH1 0xA0 SHL SUB AND DUP2 MSTORE PUSH1 0x20 ADD DUP3 DUP2 MSTORE PUSH1 0x20 ADD SWAP3 POP POP POP PUSH1 0x0 PUSH1 0x40 MLOAD DUP1 DUP4 SUB DUP2 PUSH1 0x0 DUP8 DUP1 EXTCODESIZE ISZERO DUP1 ISZERO PUSH2 0x247D JUMPI PUSH1 0x0 DUP1 REVERT JUMPDEST POP GAS CALL ISZERO DUP1 ISZERO PUSH2 0x2491 JUMPI RETURNDATASIZE PUSH1 0x0 DUP1 RETURNDATACOPY RETURNDATASIZE PUSH1 0x0 REVERT JUMPDEST POP POP POP POP JUMPDEST DUP3 ISZERO PUSH2 0x259D JUMPI PUSH1 0x3 SLOAD PUSH1 0x6 SLOAD PUSH1 0x40 DUP1 MLOAD PUSH4 0x40C10F19 PUSH1 0xE0 SHL DUP2 MSTORE PUSH1 0x1 PUSH1 0x1 PUSH1 0xA0 SHL SUB SWAP3 DUP4 AND PUSH1 0x4 DUP3 ADD MSTORE PUSH1 0x24 DUP2 ADD DUP8 SWAP1 MSTORE SWAP1 MLOAD SWAP2 SWAP1 SWAP3 AND SWAP2 PUSH4 0x40C10F19 SWAP2 PUSH1 0x44 DUP1 DUP4 ADD SWAP3 PUSH1 0x0 SWAP3 SWAP2 SWAP1 DUP3 SWAP1 SUB ADD DUP2 DUP4 DUP8 DUP1 EXTCODESIZE ISZERO DUP1 ISZERO PUSH2 0x24F4 JUMPI PUSH1 0x0 DUP1 REVERT JUMPDEST POP GAS CALL ISZERO DUP1 ISZERO PUSH2 0x2508 JUMPI RETURNDATASIZE PUSH1 0x0 DUP1 RETURNDATACOPY RETURNDATASIZE PUSH1 0x0 REVERT JUMPDEST POP POP POP POP PUSH1 0x10 SLOAD NUMBER GT PUSH2 0x259D JUMPI PUSH1 0x3 SLOAD PUSH1 0x6 SLOAD PUSH1 0x1 PUSH1 0x1 PUSH1 0xA0 SHL SUB SWAP2 DUP3 AND SWAP2 PUSH4 0x282D3FDF SWAP2 AND PUSH2 0x253E PUSH1 0x64 PUSH2 0x1446 DUP9 PUSH1 0x2D PUSH2 0x3D2A JUMP JUMPDEST PUSH1 0x40 MLOAD DUP4 PUSH4 0xFFFFFFFF AND PUSH1 0xE0 SHL DUP2 MSTORE PUSH1 0x4 ADD DUP1 DUP4 PUSH1 0x1 PUSH1 0x1 PUSH1 0xA0 SHL SUB AND DUP2 MSTORE PUSH1 0x20 ADD DUP3 DUP2 MSTORE PUSH1 0x20 ADD SWAP3 POP POP POP PUSH1 0x0 PUSH1 0x40 MLOAD DUP1 DUP4 SUB DUP2 PUSH1 0x0 DUP8 DUP1 EXTCODESIZE ISZERO DUP1 ISZERO PUSH2 0x2584 JUMPI PUSH1 0x0 DUP1 REVERT JUMPDEST POP GAS CALL ISZERO DUP1 ISZERO PUSH2 0x2598 JUMPI RETURNDATASIZE PUSH1 0x0 DUP1 RETURNDATACOPY RETURNDATASIZE PUSH1 0x0 REVERT JUMPDEST POP POP POP POP JUMPDEST DUP2 ISZERO PUSH2 0x26A4 JUMPI PUSH1 0x3 SLOAD PUSH1 0x7 SLOAD PUSH1 0x40 DUP1 MLOAD PUSH4 0x40C10F19 PUSH1 0xE0 SHL DUP2 MSTORE PUSH1 0x1 PUSH1 0x1 PUSH1 0xA0 SHL SUB SWAP3 DUP4 AND PUSH1 0x4 DUP3 ADD MSTORE PUSH1 0x24 DUP2 ADD DUP7 SWAP1 MSTORE SWAP1 MLOAD SWAP2 SWAP1 SWAP3 AND SWAP2 PUSH4 0x40C10F19 SWAP2 PUSH1 0x44 DUP1 DUP4 ADD SWAP3 PUSH1 0x0 SWAP3 SWAP2 SWAP1 DUP3 SWAP1 SUB ADD DUP2 DUP4 DUP8 DUP1 EXTCODESIZE ISZERO DUP1 ISZERO PUSH2 0x25FB JUMPI PUSH1 0x0 DUP1 REVERT JUMPDEST POP GAS CALL ISZERO DUP1 ISZERO PUSH2 0x260F JUMPI RETURNDATASIZE PUSH1 0x0 DUP1 RETURNDATACOPY RETURNDATASIZE PUSH1 0x0 REVERT JUMPDEST POP POP POP POP PUSH1 0x10 SLOAD NUMBER GT PUSH2 0x26A4 JUMPI PUSH1 0x3 SLOAD PUSH1 0x7 SLOAD PUSH1 0x1 PUSH1 0x1 PUSH1 0xA0 SHL SUB SWAP2 DUP3 AND SWAP2 PUSH4 0x282D3FDF SWAP2 AND PUSH2 0x2645 PUSH1 0x64 PUSH2 0x1446 DUP8 PUSH1 0x55 PUSH2 0x3D2A JUMP JUMPDEST PUSH1 0x40 MLOAD DUP4 PUSH4 0xFFFFFFFF AND PUSH1 0xE0 SHL DUP2 MSTORE PUSH1 0x4 ADD DUP1 DUP4 PUSH1 0x1 PUSH1 0x1 PUSH1 0xA0 SHL SUB AND DUP2 MSTORE PUSH1 0x20 ADD DUP3 DUP2 MSTORE PUSH1 0x20 ADD SWAP3 POP POP POP PUSH1 0x0 PUSH1 0x40 MLOAD DUP1 DUP4 SUB DUP2 PUSH1 0x0 DUP8 DUP1 EXTCODESIZE ISZERO DUP1 ISZERO PUSH2 0x268B JUMPI PUSH1 0x0 DUP1 REVERT JUMPDEST POP GAS CALL ISZERO DUP1 ISZERO PUSH2 0x269F JUMPI RETURNDATASIZE PUSH1 0x0 DUP1 RETURNDATACOPY RETURNDATASIZE PUSH1 0x0 REVERT JUMPDEST POP POP POP POP JUMPDEST DUP1 ISZERO PUSH2 0x27AB JUMPI PUSH1 0x3 SLOAD PUSH1 0x8 SLOAD PUSH1 0x40 DUP1 MLOAD PUSH4 0x40C10F19 PUSH1 0xE0 SHL DUP2 MSTORE PUSH1 0x1 PUSH1 0x1 PUSH1 0xA0 SHL SUB SWAP3 DUP4 AND PUSH1 0x4 DUP3 ADD MSTORE PUSH1 0x24 DUP2 ADD DUP6 SWAP1 MSTORE SWAP1 MLOAD SWAP2 SWAP1 SWAP3 AND SWAP2 PUSH4 0x40C10F19 SWAP2 PUSH1 0x44 DUP1 DUP4 ADD SWAP3 PUSH1 0x0 SWAP3 SWAP2 SWAP1 DUP3 SWAP1 SUB ADD DUP2 DUP4 DUP8 DUP1 EXTCODESIZE ISZERO DUP1 ISZERO PUSH2 0x2702 JUMPI PUSH1 0x0 DUP1 REVERT JUMPDEST POP GAS CALL ISZERO DUP1 ISZERO PUSH2 0x2716 JUMPI RETURNDATASIZE PUSH1 0x0 DUP1 RETURNDATACOPY RETURNDATASIZE PUSH1 0x0 REVERT JUMPDEST POP POP POP POP PUSH1 0x10 SLOAD NUMBER GT PUSH2 0x27AB JUMPI PUSH1 0x3 SLOAD PUSH1 0x8 SLOAD PUSH1 0x1 PUSH1 0x1 PUSH1 0xA0 SHL SUB SWAP2 DUP3 AND SWAP2 PUSH4 0x282D3FDF SWAP2 AND PUSH2 0x274C PUSH1 0x64 PUSH2 0x1446 DUP7 PUSH1 0x5F PUSH2 0x3D2A JUMP JUMPDEST PUSH1 0x40 MLOAD DUP4 PUSH4 0xFFFFFFFF AND PUSH1 0xE0 SHL DUP2 MSTORE PUSH1 0x4 ADD DUP1 DUP4 PUSH1 0x1 PUSH1 0x1 PUSH1 0xA0 SHL SUB AND DUP2 MSTORE PUSH1 0x20 ADD DUP3 DUP2 MSTORE PUSH1 0x20 ADD SWAP3 POP POP POP PUSH1 0x0 PUSH1 0x40 MLOAD DUP1 DUP4 SUB DUP2 PUSH1 0x0 DUP8 DUP1 EXTCODESIZE ISZERO DUP1 ISZERO PUSH2 0x2792 JUMPI PUSH1 0x0 DUP1 REVERT JUMPDEST POP GAS CALL ISZERO DUP1 ISZERO PUSH2 0x27A6 JUMPI RETURNDATASIZE PUSH1 0x0 DUP1 RETURNDATACOPY RETURNDATASIZE PUSH1 0x0 REVERT JUMPDEST POP POP POP POP JUMPDEST POP POP POP POP POP POP POP JUMPDEST POP JUMP JUMPDEST PUSH1 0x2 DUP1 SLOAD EQ ISZERO PUSH2 0x280D JUMPI PUSH1 0x40 DUP1 MLOAD PUSH3 0x461BCD PUSH1 0xE5 SHL DUP2 MSTORE PUSH1 0x20 PUSH1 0x4 DUP3 ADD MSTORE PUSH1 0x1F PUSH1 0x24 DUP3 ADD MSTORE PUSH32 0x5265656E7472616E637947756172643A207265656E7472616E742063616C6C00 PUSH1 0x44 DUP3 ADD MSTORE SWAP1 MLOAD SWAP1 DUP2 SWAP1 SUB PUSH1 0x64 ADD SWAP1 REVERT JUMPDEST PUSH1 0x2 DUP1 DUP2 SWAP1 SSTORE POP PUSH1 0x0 PUSH1 0x19 DUP3 DUP2 SLOAD DUP2 LT PUSH2 0x2823 JUMPI INVALID JUMPDEST PUSH1 0x0 SWAP2 DUP3 MSTORE PUSH1 0x20 DUP1 DUP4 KECCAK256 DUP6 DUP5 MSTORE PUSH1 0x1B DUP3 MSTORE PUSH1 0x40 DUP1 DUP6 KECCAK256 CALLER DUP7 MSTORE SWAP1 SWAP3 MSTORE SWAP1 DUP4 KECCAK256 DUP1 SLOAD PUSH1 0x4 SWAP1 SWAP4 MUL SWAP1 SWAP2 ADD SWAP4 POP SWAP2 SWAP1 PUSH2 0x2862 SWAP1 PUSH1 0x64 SWAP1 PUSH2 0x1446 SWAP1 PUSH1 0x4B PUSH2 0x3D2A JUMP JUMPDEST SWAP1 POP PUSH1 0x0 PUSH2 0x2883 PUSH1 0x64 PUSH2 0x1446 PUSH1 0x19 DUP7 PUSH1 0x0 ADD SLOAD PUSH2 0x3D2A SWAP1 SWAP2 SWAP1 PUSH4 0xFFFFFFFF AND JUMP JUMPDEST PUSH1 0x0 DUP1 DUP6 SSTORE PUSH1 0x1 DUP6 ADD SSTORE DUP5 SLOAD SWAP1 SWAP2 POP PUSH2 0x28A6 SWAP1 PUSH1 0x1 PUSH1 0x1 PUSH1 0xA0 SHL SUB AND CALLER DUP5 PUSH2 0x4134 JUMP JUMPDEST PUSH1 0x5 SLOAD DUP5 SLOAD PUSH2 0x28C2 SWAP2 PUSH1 0x1 PUSH1 0x1 PUSH1 0xA0 SHL SUB SWAP2 DUP3 AND SWAP2 AND DUP4 PUSH2 0x4134 JUMP JUMPDEST PUSH1 0x40 DUP1 MLOAD DUP4 DUP2 MSTORE SWAP1 MLOAD DUP7 SWAP2 CALLER SWAP2 PUSH32 0xBB757047C2B5F3974FE26B7C10F732E7BCE710B0952A71082702781E62AE0595 SWAP2 DUP2 SWAP1 SUB PUSH1 0x20 ADD SWAP1 LOG3 POP POP PUSH1 0x1 PUSH1 0x2 SSTORE POP POP POP JUMP JUMPDEST PUSH1 0x0 PUSH2 0x290F PUSH2 0x44F8 JUMP JUMPDEST POP POP PUSH1 0x1 PUSH1 0x1 PUSH1 0xA0 SHL SUB AND PUSH1 0x0 SWAP1 DUP2 MSTORE PUSH1 0x1C PUSH1 0x20 SWAP1 DUP2 MSTORE PUSH1 0x40 SWAP2 DUP3 SWAP1 KECCAK256 DUP3 MLOAD PUSH1 0x60 DUP2 ADD DUP5 MSTORE DUP2 SLOAD DUP2 MSTORE PUSH1 0x2 DUP3 ADD SLOAD SWAP3 DUP2 ADD SWAP3 SWAP1 SWAP3 MSTORE PUSH1 0x3 ADD SLOAD SWAP2 ADD DUP2 SWAP1 MSTORE SWAP1 JUMP JUMPDEST PUSH1 0x0 JUMPDEST DUP2 MLOAD DUP2 LT ISZERO PUSH2 0x1D5B JUMPI PUSH2 0x2978 DUP3 DUP3 DUP2 MLOAD DUP2 LT PUSH2 0x296B JUMPI INVALID JUMPDEST PUSH1 0x20 MUL PUSH1 0x20 ADD ADD MLOAD PUSH2 0x3430 JUMP JUMPDEST PUSH1 0x1 ADD PUSH2 0x2953 JUMP JUMPDEST CALLER PUSH1 0x0 SWAP1 DUP2 MSTORE PUSH1 0x1 PUSH1 0x20 MSTORE PUSH1 0x40 SWAP1 KECCAK256 SLOAD PUSH1 0xFF AND DUP1 PUSH2 0x29AD JUMPI POP CALLER PUSH2 0x29A2 PUSH2 0x2E60 JUMP JUMPDEST PUSH1 0x1 PUSH1 0x1 PUSH1 0xA0 SHL SUB AND EQ JUMPDEST PUSH2 0x29EC JUMPI PUSH1 0x40 DUP1 MLOAD PUSH3 0x461BCD PUSH1 0xE5 SHL DUP2 MSTORE PUSH1 0x20 PUSH1 0x4 DUP3 ADD MSTORE PUSH1 0x18 PUSH1 0x24 DUP3 ADD MSTORE PUSH1 0x0 DUP1 MLOAD PUSH1 0x20 PUSH2 0x461B DUP4 CODECOPY DUP2 MLOAD SWAP2 MSTORE PUSH1 0x44 DUP3 ADD MSTORE SWAP1 MLOAD SWAP1 DUP2 SWAP1 SUB PUSH1 0x64 ADD SWAP1 REVERT JUMPDEST PUSH1 0x0 SWAP3 DUP4 MSTORE PUSH1 0x1B PUSH1 0x20 SWAP1 DUP2 MSTORE PUSH1 0x40 DUP1 DUP6 KECCAK256 PUSH1 0x1 PUSH1 0x1 PUSH1 0xA0 SHL SUB SWAP1 SWAP5 AND DUP6 MSTORE SWAP3 SWAP1 MSTORE SWAP2 KECCAK256 PUSH1 0x3 ADD SSTORE JUMP JUMPDEST PUSH1 0xC DUP2 DUP2 SLOAD DUP2 LT PUSH2 0x1DEB JUMPI INVALID JUMPDEST PUSH1 0x19 SLOAD PUSH1 0x0 JUMPDEST DUP2 DUP2 LT ISZERO PUSH2 0x1D5B JUMPI PUSH2 0x2A39 DUP2 PUSH2 0x220E JUMP JUMPDEST PUSH1 0x1 ADD PUSH2 0x2A28 JUMP JUMPDEST PUSH2 0x2A49 PUSH2 0x4186 JUMP JUMPDEST PUSH1 0x1 PUSH1 0x1 PUSH1 0xA0 SHL SUB AND PUSH2 0x2A5A PUSH2 0x2E60 JUMP JUMPDEST PUSH1 0x1 PUSH1 0x1 PUSH1 0xA0 SHL SUB AND EQ PUSH2 0x2AA3 JUMPI PUSH1 0x40 DUP1 MLOAD PUSH3 0x461BCD PUSH1 0xE5 SHL DUP2 MSTORE PUSH1 0x20 PUSH1 0x4 DUP3 ADD DUP2 SWAP1 MSTORE PUSH1 0x24 DUP3 ADD MSTORE PUSH1 0x0 DUP1 MLOAD PUSH1 0x20 PUSH2 0x45FB DUP4 CODECOPY DUP2 MLOAD SWAP2 MSTORE PUSH1 0x44 DUP3 ADD MSTORE SWAP1 MLOAD SWAP1 DUP2 SWAP1 SUB PUSH1 0x64 ADD SWAP1 REVERT JUMPDEST DUP1 ISZERO PUSH2 0x2AB1 JUMPI PUSH2 0x2AB1 PUSH2 0x2A22 JUMP JUMPDEST PUSH2 0x2AEE DUP3 PUSH2 0x2AE8 PUSH1 0x19 DUP7 DUP2 SLOAD DUP2 LT PUSH2 0x2AC5 JUMPI INVALID JUMPDEST SWAP1 PUSH1 0x0 MSTORE PUSH1 0x20 PUSH1 0x0 KECCAK256 SWAP1 PUSH1 0x4 MUL ADD PUSH1 0x1 ADD SLOAD PUSH1 0x1E SLOAD PUSH2 0x4070 SWAP1 SWAP2 SWAP1 PUSH4 0xFFFFFFFF AND JUMP JUMPDEST SWAP1 PUSH2 0x3D8A JUMP JUMPDEST PUSH1 0x1E DUP2 SWAP1 SSTORE POP DUP2 PUSH1 0x19 DUP5 DUP2 SLOAD DUP2 LT PUSH2 0x2B02 JUMPI INVALID JUMPDEST SWAP1 PUSH1 0x0 MSTORE PUSH1 0x20 PUSH1 0x0 KECCAK256 SWAP1 PUSH1 0x4 MUL ADD PUSH1 0x1 ADD DUP2 SWAP1 SSTORE POP POP POP POP JUMP JUMPDEST PUSH2 0x2B24 PUSH2 0x4186 JUMP JUMPDEST PUSH1 0x1 PUSH1 0x1 PUSH1 0xA0 SHL SUB AND PUSH2 0x2B35 PUSH2 0x2E60 JUMP JUMPDEST PUSH1 0x1 PUSH1 0x1 PUSH1 0xA0 SHL SUB AND EQ PUSH2 0x2B7E JUMPI PUSH1 0x40 DUP1 MLOAD PUSH3 0x461BCD PUSH1 0xE5 SHL DUP2 MSTORE PUSH1 0x20 PUSH1 0x4 DUP3 ADD DUP2 SWAP1 MSTORE PUSH1 0x24 DUP3 ADD MSTORE PUSH1 0x0 DUP1 MLOAD PUSH1 0x20 PUSH2 0x45FB DUP4 CODECOPY DUP2 MLOAD SWAP2 MSTORE PUSH1 0x44 DUP3 ADD MSTORE SWAP1 MLOAD SWAP1 DUP2 SWAP1 SUB PUSH1 0x64 ADD SWAP1 REVERT JUMPDEST PUSH1 0x0 DUP1 SLOAD PUSH1 0x40 MLOAD PUSH1 0x1 PUSH1 0x1 PUSH1 0xA0 SHL SUB SWAP1 SWAP2 AND SWAP1 PUSH32 0x8BE0079C531659141344CD1FD0A4F28419497F9722A3DAAFE3B4186F6B6457E0 SWAP1 DUP4 SWAP1 LOG3 PUSH1 0x0 DUP1 SLOAD PUSH1 0x1 PUSH1 0x1 PUSH1 0xA0 SHL SUB NOT AND SWAP1 SSTORE JUMP JUMPDEST CALLER PUSH1 0x0 SWAP1 DUP2 MSTORE PUSH1 0x1 PUSH1 0x20 MSTORE PUSH1 0x40 SWAP1 KECCAK256 SLOAD PUSH1 0xFF AND DUP1 PUSH2 0x2BF5 JUMPI POP CALLER PUSH2 0x2BEA PUSH2 0x2E60 JUMP JUMPDEST PUSH1 0x1 PUSH1 0x1 PUSH1 0xA0 SHL SUB AND EQ JUMPDEST PUSH2 0x2C34 JUMPI PUSH1 0x40 DUP1 MLOAD PUSH3 0x461BCD PUSH1 0xE5 SHL DUP2 MSTORE PUSH1 0x20 PUSH1 0x4 DUP3 ADD MSTORE PUSH1 0x18 PUSH1 0x24 DUP3 ADD MSTORE PUSH1 0x0 DUP1 MLOAD PUSH1 0x20 PUSH2 0x461B DUP4 CODECOPY DUP2 MLOAD SWAP2 MSTORE PUSH1 0x44 DUP3 ADD MSTORE SWAP1 MLOAD SWAP1 DUP2 SWAP1 SUB PUSH1 0x64 ADD SWAP1 REVERT JUMPDEST PUSH1 0x11 SSTORE JUMP JUMPDEST CALLER PUSH1 0x0 SWAP1 DUP2 MSTORE PUSH1 0x1 PUSH1 0x20 MSTORE PUSH1 0x40 SWAP1 KECCAK256 SLOAD PUSH1 0xFF AND DUP1 PUSH2 0x2C66 JUMPI POP CALLER PUSH2 0x2C5B PUSH2 0x2E60 JUMP JUMPDEST PUSH1 0x1 PUSH1 0x1 PUSH1 0xA0 SHL SUB AND EQ JUMPDEST PUSH2 0x2CA5 JUMPI PUSH1 0x40 DUP1 MLOAD PUSH3 0x461BCD PUSH1 0xE5 SHL DUP2 MSTORE PUSH1 0x20 PUSH1 0x4 DUP3 ADD MSTORE PUSH1 0x18 PUSH1 0x24 DUP3 ADD MSTORE PUSH1 0x0 DUP1 MLOAD PUSH1 0x20 PUSH2 0x461B DUP4 CODECOPY DUP2 MLOAD SWAP2 MSTORE PUSH1 0x44 DUP3 ADD MSTORE SWAP1 MLOAD SWAP1 DUP2 SWAP1 SUB PUSH1 0x64 ADD SWAP1 REVERT JUMPDEST PUSH1 0x0 SWAP3 DUP4 MSTORE PUSH1 0x1B PUSH1 0x20 SWAP1 DUP2 MSTORE PUSH1 0x40 DUP1 DUP6 KECCAK256 PUSH1 0x1 PUSH1 0x1 PUSH1 0xA0 SHL SUB SWAP1 SWAP5 AND DUP6 MSTORE SWAP3 SWAP1 MSTORE SWAP2 KECCAK256 PUSH1 0x4 ADD SSTORE JUMP JUMPDEST PUSH1 0x11 SLOAD DUP2 JUMP JUMPDEST CALLER PUSH1 0x0 SWAP1 DUP2 MSTORE PUSH1 0x1 PUSH1 0x20 MSTORE PUSH1 0x40 SWAP1 KECCAK256 SLOAD PUSH1 0xFF AND DUP1 PUSH2 0x2D01 JUMPI POP CALLER PUSH2 0x2CF6 PUSH2 0x2E60 JUMP JUMPDEST PUSH1 0x1 PUSH1 0x1 PUSH1 0xA0 SHL SUB AND EQ JUMPDEST PUSH2 0x2D40 JUMPI PUSH1 0x40 DUP1 MLOAD PUSH3 0x461BCD PUSH1 0xE5 SHL DUP2 MSTORE PUSH1 0x20 PUSH1 0x4 DUP3 ADD MSTORE PUSH1 0x18 PUSH1 0x24 DUP3 ADD MSTORE PUSH1 0x0 DUP1 MLOAD PUSH1 0x20 PUSH2 0x461B DUP4 CODECOPY DUP2 MLOAD SWAP2 MSTORE PUSH1 0x44 DUP3 ADD MSTORE SWAP1 MLOAD SWAP1 DUP2 SWAP1 SUB PUSH1 0x64 ADD SWAP1 REVERT JUMPDEST DUP1 MLOAD PUSH2 0x1D5B SWAP1 PUSH1 0xC SWAP1 PUSH1 0x20 DUP5 ADD SWAP1 PUSH2 0x44AD JUMP JUMPDEST CALLER PUSH1 0x0 SWAP1 DUP2 MSTORE PUSH1 0x1 PUSH1 0x20 MSTORE PUSH1 0x40 SWAP1 KECCAK256 SLOAD PUSH1 0xFF AND DUP1 PUSH2 0x2D80 JUMPI POP CALLER PUSH2 0x2D75 PUSH2 0x2E60 JUMP JUMPDEST PUSH1 0x1 PUSH1 0x1 PUSH1 0xA0 SHL SUB AND EQ JUMPDEST PUSH2 0x2DBF JUMPI PUSH1 0x40 DUP1 MLOAD PUSH3 0x461BCD PUSH1 0xE5 SHL DUP2 MSTORE PUSH1 0x20 PUSH1 0x4 DUP3 ADD MSTORE PUSH1 0x18 PUSH1 0x24 DUP3 ADD MSTORE PUSH1 0x0 DUP1 MLOAD PUSH1 0x20 PUSH2 0x461B DUP4 CODECOPY DUP2 MLOAD SWAP2 MSTORE PUSH1 0x44 DUP3 ADD MSTORE SWAP1 MLOAD SWAP1 DUP2 SWAP1 SUB PUSH1 0x64 ADD SWAP1 REVERT JUMPDEST DUP1 MLOAD PUSH2 0x1D5B SWAP1 PUSH1 0xF SWAP1 PUSH1 0x20 DUP5 ADD SWAP1 PUSH2 0x44AD JUMP JUMPDEST CALLER PUSH1 0x0 SWAP1 DUP2 MSTORE PUSH1 0x1 PUSH1 0x20 MSTORE PUSH1 0x40 SWAP1 KECCAK256 SLOAD PUSH1 0xFF AND DUP1 PUSH2 0x2DFF JUMPI POP CALLER PUSH2 0x2DF4 PUSH2 0x2E60 JUMP JUMPDEST PUSH1 0x1 PUSH1 0x1 PUSH1 0xA0 SHL SUB AND EQ JUMPDEST PUSH2 0x2E3E JUMPI PUSH1 0x40 DUP1 MLOAD PUSH3 0x461BCD PUSH1 0xE5 SHL DUP2 MSTORE PUSH1 0x20 PUSH1 0x4 DUP3 ADD MSTORE PUSH1 0x18 PUSH1 0x24 DUP3 ADD MSTORE PUSH1 0x0 DUP1 MLOAD PUSH1 0x20 PUSH2 0x461B DUP4 CODECOPY DUP2 MLOAD SWAP2 MSTORE PUSH1 0x44 DUP3 ADD MSTORE SWAP1 MLOAD SWAP1 DUP2 SWAP1 SUB PUSH1 0x64 ADD SWAP1 REVERT JUMPDEST PUSH1 0x5 DUP1 SLOAD PUSH1 0x1 PUSH1 0x1 PUSH1 0xA0 SHL SUB NOT AND PUSH1 0x1 PUSH1 0x1 PUSH1 0xA0 SHL SUB SWAP3 SWAP1 SWAP3 AND SWAP2 SWAP1 SWAP2 OR SWAP1 SSTORE JUMP JUMPDEST PUSH1 0x0 SLOAD PUSH1 0x1 PUSH1 0x1 PUSH1 0xA0 SHL SUB AND SWAP1 JUMP JUMPDEST PUSH1 0x13 SLOAD PUSH1 0x0 SWAP1 DUP2 SWAP1 DUP5 LT ISZERO PUSH2 0x2E88 JUMPI PUSH1 0x0 SWAP2 POP POP PUSH2 0x2F65 JUMP JUMPDEST PUSH1 0x0 JUMPDEST PUSH1 0xB SLOAD DUP2 LT ISZERO PUSH2 0x2F61 JUMPI PUSH1 0x0 PUSH1 0xB DUP3 DUP2 SLOAD DUP2 LT PUSH2 0x2EA4 JUMPI INVALID JUMPDEST SWAP1 PUSH1 0x0 MSTORE PUSH1 0x20 PUSH1 0x0 KECCAK256 ADD SLOAD SWAP1 POP PUSH1 0x1 PUSH1 0xA DUP1 SLOAD SWAP1 POP SUB DUP3 GT ISZERO PUSH2 0x2ECD JUMPI PUSH1 0x0 SWAP4 POP POP POP POP PUSH2 0x2F65 JUMP JUMPDEST DUP1 DUP6 GT PUSH2 0x2F13 JUMPI PUSH1 0x0 PUSH2 0x2EFC PUSH1 0xA DUP5 DUP2 SLOAD DUP2 LT PUSH2 0x2EE6 JUMPI INVALID JUMPDEST PUSH1 0x0 SWAP2 DUP3 MSTORE PUSH1 0x20 SWAP1 SWAP2 KECCAK256 ADD SLOAD PUSH2 0x198B DUP9 DUP11 PUSH2 0x4070 JUMP JUMPDEST SWAP1 POP PUSH2 0x2F08 DUP5 DUP3 PUSH2 0x3D8A JUMP JUMPDEST SWAP5 POP POP POP POP POP PUSH2 0x2F65 JUMP JUMPDEST DUP1 DUP7 LT ISZERO PUSH2 0x2F58 JUMPI PUSH1 0x0 PUSH2 0x2F43 PUSH1 0xA DUP5 DUP2 SLOAD DUP2 LT PUSH2 0x2F2D JUMPI INVALID JUMPDEST PUSH1 0x0 SWAP2 DUP3 MSTORE PUSH1 0x20 SWAP1 SWAP2 KECCAK256 ADD SLOAD PUSH2 0x198B DUP5 DUP11 PUSH2 0x4070 JUMP JUMPDEST SWAP2 SWAP7 POP DUP7 SWAP2 SWAP1 POP PUSH2 0x2F54 DUP5 DUP3 PUSH2 0x3D8A JUMP JUMPDEST SWAP4 POP POP JUMPDEST POP PUSH1 0x1 ADD PUSH2 0x2E8B JUMP JUMPDEST POP SWAP1 POP JUMPDEST SWAP3 SWAP2 POP POP JUMP JUMPDEST PUSH1 0x2 DUP1 SLOAD EQ ISZERO PUSH2 0x2FC2 JUMPI PUSH1 0x40 DUP1 MLOAD PUSH3 0x461BCD PUSH1 0xE5 SHL DUP2 MSTORE PUSH1 0x20 PUSH1 0x4 DUP3 ADD MSTORE PUSH1 0x1F PUSH1 0x24 DUP3 ADD MSTORE PUSH32 0x5265656E7472616E637947756172643A207265656E7472616E742063616C6C00 PUSH1 0x44 DUP3 ADD MSTORE SWAP1 MLOAD SWAP1 DUP2 SWAP1 SUB PUSH1 0x64 ADD SWAP1 REVERT JUMPDEST PUSH1 0x2 DUP1 SSTORE DUP2 PUSH2 0x3002 JUMPI PUSH1 0x40 MLOAD PUSH3 0x461BCD PUSH1 0xE5 SHL DUP2 MSTORE PUSH1 0x4 ADD DUP1 DUP1 PUSH1 0x20 ADD DUP3 DUP2 SUB DUP3 MSTORE PUSH1 0x36 DUP2 MSTORE PUSH1 0x20 ADD DUP1 PUSH2 0x45C5 PUSH1 0x36 SWAP2 CODECOPY PUSH1 0x40 ADD SWAP2 POP POP PUSH1 0x40 MLOAD DUP1 SWAP2 SUB SWAP1 REVERT JUMPDEST PUSH1 0x0 PUSH1 0x19 DUP5 DUP2 SLOAD DUP2 LT PUSH2 0x3011 JUMPI INVALID JUMPDEST PUSH1 0x0 SWAP2 DUP3 MSTORE PUSH1 0x20 DUP1 DUP4 KECCAK256 DUP8 DUP5 MSTORE PUSH1 0x1B DUP3 MSTORE PUSH1 0x40 DUP1 DUP6 KECCAK256 CALLER DUP1 DUP8 MSTORE SWAP1 DUP5 MSTORE DUP2 DUP7 KECCAK256 PUSH1 0x5 SLOAD PUSH1 0x1 PUSH1 0x1 PUSH1 0xA0 SHL SUB SWAP1 DUP2 AND DUP9 MSTORE DUP4 DUP9 KECCAK256 SWAP1 DUP11 AND DUP9 MSTORE PUSH1 0x1C DUP7 MSTORE DUP4 DUP9 KECCAK256 SWAP3 DUP9 MSTORE DUP4 DUP9 KECCAK256 PUSH1 0x1 DUP5 ADD SWAP1 SWAP7 MSTORE SWAP3 SWAP1 SWAP7 KECCAK256 SLOAD PUSH1 0x4 SWAP6 SWAP1 SWAP6 MUL SWAP1 SWAP3 ADD SWAP6 POP SWAP3 SWAP1 SWAP2 SWAP1 ISZERO PUSH2 0x309C JUMPI CALLER PUSH1 0x0 SWAP1 DUP2 MSTORE PUSH1 0x1 DUP4 ADD PUSH1 0x20 MSTORE PUSH1 0x40 SWAP1 KECCAK256 DUP1 SLOAD DUP9 ADD SWAP1 SSTORE PUSH1 0x3 DUP3 ADD DUP1 SLOAD DUP9 ADD SWAP1 SSTORE PUSH2 0x30CB JUMP JUMPDEST CALLER PUSH1 0x0 SWAP1 DUP2 MSTORE PUSH1 0x1 DUP1 DUP5 ADD PUSH1 0x20 MSTORE PUSH1 0x40 SWAP1 SWAP2 KECCAK256 DUP1 SLOAD DUP10 ADD SWAP1 SSTORE PUSH1 0x2 DUP4 ADD DUP1 SLOAD SWAP1 SWAP2 ADD SWAP1 SSTORE PUSH1 0x3 DUP3 ADD DUP1 SLOAD DUP9 ADD SWAP1 SSTORE JUMPDEST PUSH2 0x30E5 PUSH1 0x64 PUSH2 0x1446 PUSH1 0x11 SLOAD DUP11 PUSH2 0x3D2A SWAP1 SWAP2 SWAP1 PUSH4 0xFFFFFFFF AND JUMP JUMPDEST DUP2 SLOAD ADD DUP2 SSTORE PUSH2 0x30F3 DUP9 PUSH2 0x220E JUMP JUMPDEST PUSH2 0x30FC DUP9 PUSH2 0x3DE4 JUMP JUMPDEST DUP5 SLOAD PUSH2 0x3113 SWAP1 PUSH1 0x1 PUSH1 0x1 PUSH1 0xA0 SHL SUB AND CALLER ADDRESS DUP11 PUSH2 0x418A JUMP JUMPDEST DUP4 SLOAD PUSH2 0x3120 JUMPI NUMBER PUSH1 0x2 DUP6 ADD SSTORE JUMPDEST PUSH2 0x3150 PUSH2 0x3148 PUSH2 0x3141 PUSH2 0x2710 PUSH2 0x1446 PUSH1 0x11 SLOAD DUP13 PUSH2 0x3D2A SWAP1 SWAP2 SWAP1 PUSH4 0xFFFFFFFF AND JUMP JUMPDEST DUP10 SWAP1 PUSH2 0x4070 JUMP JUMPDEST DUP6 SLOAD SWAP1 PUSH2 0x3D8A JUMP JUMPDEST DUP1 DUP6 SSTORE PUSH1 0x3 DUP7 ADD SLOAD PUSH2 0x316D SWAP2 PUSH5 0xE8D4A51000 SWAP2 PUSH2 0x1446 SWAP2 SWAP1 PUSH2 0x3D2A JUMP JUMPDEST DUP5 PUSH1 0x1 ADD DUP2 SWAP1 SSTORE POP PUSH2 0x319E PUSH2 0x3196 PUSH2 0x3141 PUSH2 0x2710 PUSH2 0x1446 PUSH1 0x12 SLOAD DUP13 PUSH2 0x3D2A SWAP1 SWAP2 SWAP1 PUSH4 0xFFFFFFFF AND JUMP JUMPDEST DUP5 SLOAD SWAP1 PUSH2 0x3D8A JUMP JUMPDEST DUP1 DUP5 SSTORE PUSH1 0x3 DUP7 ADD SLOAD PUSH2 0x31BB SWAP2 PUSH5 0xE8D4A51000 SWAP2 PUSH2 0x1446 SWAP2 SWAP1 PUSH2 0x3D2A JUMP JUMPDEST PUSH1 0x1 DUP5 ADD SSTORE PUSH1 0x40 DUP1 MLOAD DUP9 DUP2 MSTORE SWAP1 MLOAD DUP10 SWAP2 CALLER SWAP2 PUSH32 0x90890809C654F11D6E72A28FA60149770A0D11EC6C92319D6CEB2BB0A4EA1A15 SWAP2 DUP2 SWAP1 SUB PUSH1 0x20 ADD SWAP1 LOG3 PUSH1 0x4 DUP5 ADD SLOAD ISZERO PUSH2 0x3206 JUMPI PUSH2 0x320D JUMP JUMPDEST NUMBER PUSH1 0x4 DUP6 ADD SSTORE JUMPDEST POP POP NUMBER PUSH1 0x6 SWAP1 SWAP3 ADD SWAP2 SWAP1 SWAP2 SSTORE POP POP PUSH1 0x1 PUSH1 0x2 SSTORE POP POP POP JUMP JUMPDEST PUSH1 0x0 PUSH2 0x322F PUSH2 0x44F8 JUMP JUMPDEST POP POP PUSH1 0x1 PUSH1 0x1 PUSH1 0xA0 SHL SUB AND PUSH1 0x0 SWAP1 DUP2 MSTORE PUSH1 0x1C PUSH1 0x20 SWAP1 DUP2 MSTORE PUSH1 0x40 SWAP2 DUP3 SWAP1 KECCAK256 DUP3 MLOAD PUSH1 0x60 DUP2 ADD DUP5 MSTORE DUP2 SLOAD DUP1 DUP3 MSTORE PUSH1 0x2 DUP4 ADD SLOAD SWAP4 DUP3 ADD SWAP4 SWAP1 SWAP4 MSTORE PUSH1 0x3 SWAP1 SWAP2 ADD SLOAD SWAP3 ADD SWAP2 SWAP1 SWAP2 MSTORE SWAP1 JUMP JUMPDEST PUSH1 0x1B PUSH1 0x20 MSTORE DUP2 PUSH1 0x0 MSTORE PUSH1 0x40 PUSH1 0x0 KECCAK256 PUSH1 0x20 MSTORE DUP1 PUSH1 0x0 MSTORE PUSH1 0x40 PUSH1 0x0 KECCAK256 PUSH1 0x0 SWAP2 POP SWAP2 POP POP DUP1 PUSH1 0x0 ADD SLOAD SWAP1 DUP1 PUSH1 0x1 ADD SLOAD SWAP1 DUP1 PUSH1 0x2 ADD SLOAD SWAP1 DUP1 PUSH1 0x3 ADD SLOAD SWAP1 DUP1 PUSH1 0x4 ADD SLOAD SWAP1 DUP1 PUSH1 0x5 ADD SLOAD SWAP1 DUP1 PUSH1 0x6 ADD SLOAD SWAP1 POP DUP8 JUMP JUMPDEST PUSH1 0x9 SLOAD DUP2 JUMP JUMPDEST PUSH1 0x10 SLOAD DUP2 JUMP JUMPDEST PUSH1 0x0 DUP1 PUSH1 0x19 DUP5 DUP2 SLOAD DUP2 LT PUSH2 0x32DF JUMPI INVALID JUMPDEST PUSH1 0x0 SWAP2 DUP3 MSTORE PUSH1 0x20 DUP1 DUP4 KECCAK256 DUP8 DUP5 MSTORE PUSH1 0x1B DUP3 MSTORE PUSH1 0x40 DUP1 DUP6 KECCAK256 PUSH1 0x1 PUSH1 0x1 PUSH1 0xA0 SHL SUB DUP10 DUP2 AND DUP8 MSTORE SWAP1 DUP5 MSTORE DUP2 DUP7 KECCAK256 PUSH1 0x4 SWAP6 DUP7 MUL SWAP1 SWAP4 ADD PUSH1 0x3 DUP2 ADD SLOAD DUP2 SLOAD DUP5 MLOAD PUSH4 0x70A08231 PUSH1 0xE0 SHL DUP2 MSTORE ADDRESS SWAP9 DUP2 ADD SWAP9 SWAP1 SWAP9 MSTORE SWAP4 MLOAD SWAP2 SWAP9 POP SWAP4 SWAP7 SWAP4 SWAP6 SWAP4 SWAP5 SWAP3 SWAP1 SWAP2 AND SWAP3 PUSH4 0x70A08231 SWAP3 PUSH1 0x24 DUP1 DUP4 ADD SWAP4 SWAP2 SWAP3 DUP3 SWAP1 SUB ADD DUP2 DUP7 DUP1 EXTCODESIZE ISZERO DUP1 ISZERO PUSH2 0x335D JUMPI PUSH1 0x0 DUP1 REVERT JUMPDEST POP GAS STATICCALL ISZERO DUP1 ISZERO PUSH2 0x3371 JUMPI RETURNDATASIZE PUSH1 0x0 DUP1 RETURNDATACOPY RETURNDATASIZE PUSH1 0x0 REVERT JUMPDEST POP POP POP POP PUSH1 0x40 MLOAD RETURNDATASIZE PUSH1 0x20 DUP2 LT ISZERO PUSH2 0x3387 JUMPI PUSH1 0x0 DUP1 REVERT JUMPDEST POP MLOAD PUSH1 0x2 DUP6 ADD SLOAD SWAP1 SWAP2 POP NUMBER GT DUP1 ISZERO PUSH2 0x339F JUMPI POP PUSH1 0x0 DUP2 GT JUMPDEST ISZERO PUSH2 0x33E4 JUMPI PUSH1 0x0 PUSH2 0x33B9 DUP6 PUSH1 0x2 ADD SLOAD NUMBER DUP8 PUSH1 0x1 ADD SLOAD PUSH2 0x35EF JUMP JUMPDEST POP SWAP2 SWAP4 POP PUSH2 0x33E0 SWAP3 POP PUSH2 0x33D9 SWAP2 POP DUP5 SWAP1 POP PUSH2 0x1446 DUP5 PUSH5 0xE8D4A51000 PUSH2 0x3D2A JUMP JUMPDEST DUP5 SWAP1 PUSH2 0x3D8A JUMP JUMPDEST SWAP3 POP POP JUMPDEST PUSH2 0x3412 DUP4 PUSH1 0x1 ADD SLOAD PUSH2 0x340C PUSH5 0xE8D4A51000 PUSH2 0x1446 DUP7 DUP9 PUSH1 0x0 ADD SLOAD PUSH2 0x3D2A SWAP1 SWAP2 SWAP1 PUSH4 0xFFFFFFFF AND JUMP JUMPDEST SWAP1 PUSH2 0x4070 JUMP JUMPDEST SWAP8 SWAP7 POP POP POP POP POP POP POP JUMP JUMPDEST PUSH1 0x17 SLOAD DUP2 JUMP JUMPDEST PUSH1 0x14 DUP2 DUP2 SLOAD DUP2 LT PUSH2 0x1DEB JUMPI INVALID JUMPDEST PUSH2 0x3439 DUP2 PUSH2 0x220E JUMP JUMPDEST PUSH2 0x27B3 DUP2 PUSH2 0x3DE4 JUMP JUMPDEST CALLER PUSH1 0x0 SWAP1 DUP2 MSTORE PUSH1 0x1 PUSH1 0x20 MSTORE PUSH1 0x40 SWAP1 KECCAK256 SLOAD PUSH1 0xFF AND DUP1 PUSH2 0x346F JUMPI POP CALLER PUSH2 0x3464 PUSH2 0x2E60 JUMP JUMPDEST PUSH1 0x1 PUSH1 0x1 PUSH1 0xA0 SHL SUB AND EQ JUMPDEST PUSH2 0x34AE JUMPI PUSH1 0x40 DUP1 MLOAD PUSH3 0x461BCD PUSH1 0xE5 SHL DUP2 MSTORE PUSH1 0x20 PUSH1 0x4 DUP3 ADD MSTORE PUSH1 0x18 PUSH1 0x24 DUP3 ADD MSTORE PUSH1 0x0 DUP1 MLOAD PUSH1 0x20 PUSH2 0x461B DUP4 CODECOPY DUP2 MLOAD SWAP2 MSTORE PUSH1 0x44 DUP3 ADD MSTORE SWAP1 MLOAD SWAP1 DUP2 SWAP1 SUB PUSH1 0x64 ADD SWAP1 REVERT JUMPDEST PUSH1 0x15 SSTORE JUMP JUMPDEST PUSH1 0x1 PUSH1 0x20 MSTORE PUSH1 0x0 SWAP1 DUP2 MSTORE PUSH1 0x40 SWAP1 KECCAK256 SLOAD PUSH1 0xFF AND DUP2 JUMP JUMPDEST PUSH1 0xF DUP2 DUP2 SLOAD DUP2 LT PUSH2 0x1DEB JUMPI INVALID JUMPDEST PUSH1 0x12 SLOAD DUP2 JUMP JUMPDEST CALLER PUSH1 0x0 SWAP1 DUP2 MSTORE PUSH1 0x1 PUSH1 0x20 MSTORE PUSH1 0x40 SWAP1 KECCAK256 SLOAD PUSH1 0xFF AND DUP1 PUSH2 0x3508 JUMPI POP CALLER PUSH2 0x34FD PUSH2 0x2E60 JUMP JUMPDEST PUSH1 0x1 PUSH1 0x1 PUSH1 0xA0 SHL SUB AND EQ JUMPDEST PUSH2 0x3547 JUMPI PUSH1 0x40 DUP1 MLOAD PUSH3 0x461BCD PUSH1 0xE5 SHL DUP2 MSTORE PUSH1 0x20 PUSH1 0x4 DUP3 ADD MSTORE PUSH1 0x18 PUSH1 0x24 DUP3 ADD MSTORE PUSH1 0x0 DUP1 MLOAD PUSH1 0x20 PUSH2 0x461B DUP4 CODECOPY DUP2 MLOAD SWAP2 MSTORE PUSH1 0x44 DUP3 ADD MSTORE SWAP1 MLOAD SWAP1 DUP2 SWAP1 SUB PUSH1 0x64 ADD SWAP1 REVERT JUMPDEST PUSH1 0x17 SSTORE JUMP JUMPDEST PUSH1 0x18 SLOAD DUP2 JUMP JUMPDEST CALLER PUSH1 0x0 SWAP1 DUP2 MSTORE PUSH1 0x1 PUSH1 0x20 MSTORE PUSH1 0x40 SWAP1 KECCAK256 SLOAD PUSH1 0xFF AND DUP1 PUSH2 0x357F JUMPI POP CALLER PUSH2 0x3574 PUSH2 0x2E60 JUMP JUMPDEST PUSH1 0x1 PUSH1 0x1 PUSH1 0xA0 SHL SUB AND EQ JUMPDEST PUSH2 0x35BE JUMPI PUSH1 0x40 DUP1 MLOAD PUSH3 0x461BCD PUSH1 0xE5 SHL DUP2 MSTORE PUSH1 0x20 PUSH1 0x4 DUP3 ADD MSTORE PUSH1 0x18 PUSH1 0x24 DUP3 ADD MSTORE PUSH1 0x0 DUP1 MLOAD PUSH1 0x20 PUSH2 0x461B DUP4 CODECOPY DUP2 MLOAD SWAP2 MSTORE PUSH1 0x44 DUP3 ADD MSTORE SWAP1 MLOAD SWAP1 DUP2 SWAP1 SUB PUSH1 0x64 ADD SWAP1 REVERT JUMPDEST PUSH1 0x7 DUP1 SLOAD PUSH1 0x1 PUSH1 0x1 PUSH1 0xA0 SHL SUB NOT AND PUSH1 0x1 PUSH1 0x1 PUSH1 0xA0 SHL SUB SWAP3 SWAP1 SWAP3 AND SWAP2 SWAP1 SWAP2 OR SWAP1 SSTORE JUMP JUMPDEST PUSH1 0x4 SLOAD PUSH1 0x1 PUSH1 0x1 PUSH1 0xA0 SHL SUB AND DUP2 JUMP JUMPDEST PUSH1 0x0 DUP1 PUSH1 0x0 DUP1 PUSH1 0x0 DUP1 PUSH2 0x3602 DUP10 DUP10 PUSH2 0x2E6F JUMP JUMPDEST SWAP1 POP PUSH1 0x0 PUSH2 0x3625 PUSH1 0x1E SLOAD PUSH2 0x1446 DUP11 PUSH2 0x198B PUSH1 0x9 SLOAD DUP8 PUSH2 0x3D2A SWAP1 SWAP2 SWAP1 PUSH4 0xFFFFFFFF AND JUMP JUMPDEST SWAP1 POP PUSH1 0x0 PUSH2 0x371D PUSH1 0x3 PUSH1 0x0 SWAP1 SLOAD SWAP1 PUSH2 0x100 EXP SWAP1 DIV PUSH1 0x1 PUSH1 0x1 PUSH1 0xA0 SHL SUB AND PUSH1 0x1 PUSH1 0x1 PUSH1 0xA0 SHL SUB AND PUSH4 0x18160DDD PUSH1 0x40 MLOAD DUP2 PUSH4 0xFFFFFFFF AND PUSH1 0xE0 SHL DUP2 MSTORE PUSH1 0x4 ADD PUSH1 0x20 PUSH1 0x40 MLOAD DUP1 DUP4 SUB DUP2 DUP7 DUP1 EXTCODESIZE ISZERO DUP1 ISZERO PUSH2 0x367A JUMPI PUSH1 0x0 DUP1 REVERT JUMPDEST POP GAS STATICCALL ISZERO DUP1 ISZERO PUSH2 0x368E JUMPI RETURNDATASIZE PUSH1 0x0 DUP1 RETURNDATACOPY RETURNDATASIZE PUSH1 0x0 REVERT JUMPDEST POP POP POP POP PUSH1 0x40 MLOAD RETURNDATASIZE PUSH1 0x20 DUP2 LT ISZERO PUSH2 0x36A4 JUMPI PUSH1 0x0 DUP1 REVERT JUMPDEST POP MLOAD PUSH1 0x3 SLOAD PUSH1 0x40 DUP1 MLOAD PUSH4 0x1AA93A75 PUSH1 0xE1 SHL DUP2 MSTORE SWAP1 MLOAD PUSH1 0x1 PUSH1 0x1 PUSH1 0xA0 SHL SUB SWAP1 SWAP3 AND SWAP2 PUSH4 0x355274EA SWAP2 PUSH1 0x4 DUP1 DUP3 ADD SWAP3 PUSH1 0x20 SWAP3 SWAP1 SWAP2 SWAP1 DUP3 SWAP1 SUB ADD DUP2 DUP7 DUP1 EXTCODESIZE ISZERO DUP1 ISZERO PUSH2 0x36EB JUMPI PUSH1 0x0 DUP1 REVERT JUMPDEST POP GAS STATICCALL ISZERO DUP1 ISZERO PUSH2 0x36FF JUMPI RETURNDATASIZE PUSH1 0x0 DUP1 RETURNDATACOPY RETURNDATASIZE PUSH1 0x0 REVERT JUMPDEST POP POP POP POP PUSH1 0x40 MLOAD RETURNDATASIZE PUSH1 0x20 DUP2 LT ISZERO PUSH2 0x3715 JUMPI PUSH1 0x0 DUP1 REVERT JUMPDEST POP MLOAD SWAP1 PUSH2 0x4070 JUMP JUMPDEST SWAP1 POP DUP2 DUP2 LT ISZERO PUSH2 0x373F JUMPI PUSH1 0x0 SWAP8 POP DUP1 SWAP7 POP PUSH1 0x0 SWAP6 POP PUSH1 0x0 SWAP5 POP PUSH1 0x0 SWAP4 POP PUSH2 0x37B3 JUMP JUMPDEST PUSH2 0x3759 PUSH1 0x64 PUSH2 0x1446 PUSH1 0x15 SLOAD DUP6 PUSH2 0x3D2A SWAP1 SWAP2 SWAP1 PUSH4 0xFFFFFFFF AND JUMP JUMPDEST SWAP8 POP DUP2 SWAP7 POP PUSH2 0x3778 PUSH1 0x64 PUSH2 0x1446 PUSH1 0x16 SLOAD DUP6 PUSH2 0x3D2A SWAP1 SWAP2 SWAP1 PUSH4 0xFFFFFFFF AND JUMP JUMPDEST SWAP6 POP PUSH2 0x3794 PUSH1 0x64 PUSH2 0x1446 PUSH1 0x17 SLOAD DUP6 PUSH2 0x3D2A SWAP1 SWAP2 SWAP1 PUSH4 0xFFFFFFFF AND JUMP JUMPDEST SWAP5 POP PUSH2 0x37B0 PUSH1 0x64 PUSH2 0x1446 PUSH1 0x18 SLOAD DUP6 PUSH2 0x3D2A SWAP1 SWAP2 SWAP1 PUSH4 0xFFFFFFFF AND JUMP JUMPDEST SWAP4 POP JUMPDEST POP POP POP SWAP4 SWAP8 SWAP3 SWAP7 POP SWAP4 POP SWAP4 POP JUMP JUMPDEST PUSH1 0xD DUP2 DUP2 SLOAD DUP2 LT PUSH2 0x1DEB JUMPI INVALID JUMPDEST PUSH1 0x1D PUSH1 0x20 MSTORE PUSH1 0x0 SWAP1 DUP2 MSTORE PUSH1 0x40 SWAP1 KECCAK256 SLOAD PUSH1 0xFF AND DUP2 JUMP JUMPDEST PUSH1 0x1A PUSH1 0x20 MSTORE PUSH1 0x0 SWAP1 DUP2 MSTORE PUSH1 0x40 SWAP1 KECCAK256 SLOAD DUP2 JUMP JUMPDEST PUSH2 0x37FD PUSH2 0x4186 JUMP JUMPDEST PUSH1 0x1 PUSH1 0x1 PUSH1 0xA0 SHL SUB AND PUSH2 0x380E PUSH2 0x2E60 JUMP JUMPDEST PUSH1 0x1 PUSH1 0x1 PUSH1 0xA0 SHL SUB AND EQ PUSH2 0x3857 JUMPI PUSH1 0x40 DUP1 MLOAD PUSH3 0x461BCD PUSH1 0xE5 SHL DUP2 MSTORE PUSH1 0x20 PUSH1 0x4 DUP3 ADD DUP2 SWAP1 MSTORE PUSH1 0x24 DUP3 ADD MSTORE PUSH1 0x0 DUP1 MLOAD PUSH1 0x20 PUSH2 0x45FB DUP4 CODECOPY DUP2 MLOAD SWAP2 MSTORE PUSH1 0x44 DUP3 ADD MSTORE SWAP1 MLOAD SWAP1 DUP2 SWAP1 SUB PUSH1 0x64 ADD SWAP1 REVERT JUMPDEST PUSH1 0x1 PUSH1 0x1 PUSH1 0xA0 SHL SUB AND PUSH1 0x0 SWAP1 DUP2 MSTORE PUSH1 0x1 PUSH1 0x20 DUP2 SWAP1 MSTORE PUSH1 0x40 SWAP1 SWAP2 KECCAK256 DUP1 SLOAD PUSH1 0xFF NOT AND SWAP1 SWAP2 OR SWAP1 SSTORE JUMP JUMPDEST PUSH1 0xE DUP2 DUP2 SLOAD DUP2 LT PUSH2 0x1DEB JUMPI INVALID JUMPDEST PUSH1 0x5 SLOAD PUSH1 0x1 PUSH1 0x1 PUSH1 0xA0 SHL SUB AND DUP2 JUMP JUMPDEST PUSH1 0x1C PUSH1 0x20 MSTORE PUSH1 0x0 SWAP1 DUP2 MSTORE PUSH1 0x40 SWAP1 KECCAK256 DUP1 SLOAD PUSH1 0x2 DUP3 ADD SLOAD PUSH1 0x3 SWAP1 SWAP3 ADD SLOAD SWAP1 SWAP2 SWAP1 DUP4 JUMP JUMPDEST PUSH1 0x1 PUSH1 0x1 PUSH1 0xA0 SHL SUB SWAP2 DUP3 AND PUSH1 0x0 SWAP1 DUP2 MSTORE PUSH1 0x1C PUSH1 0x20 SWAP1 DUP2 MSTORE PUSH1 0x40 DUP1 DUP4 KECCAK256 SWAP4 SWAP1 SWAP5 AND DUP3 MSTORE PUSH1 0x1 SWAP1 SWAP3 ADD SWAP1 SWAP2 MSTORE KECCAK256 SLOAD SWAP1 JUMP JUMPDEST CALLER PUSH1 0x0 SWAP1 DUP2 MSTORE PUSH1 0x1 PUSH1 0x20 MSTORE PUSH1 0x40 SWAP1 KECCAK256 SLOAD PUSH1 0xFF AND DUP1 PUSH2 0x3917 JUMPI POP CALLER PUSH2 0x390C PUSH2 0x2E60 JUMP JUMPDEST PUSH1 0x1 PUSH1 0x1 PUSH1 0xA0 SHL SUB AND EQ JUMPDEST PUSH2 0x3956 JUMPI PUSH1 0x40 DUP1 MLOAD PUSH3 0x461BCD PUSH1 0xE5 SHL DUP2 MSTORE PUSH1 0x20 PUSH1 0x4 DUP3 ADD MSTORE PUSH1 0x18 PUSH1 0x24 DUP3 ADD MSTORE PUSH1 0x0 DUP1 MLOAD PUSH1 0x20 PUSH2 0x461B DUP4 CODECOPY DUP2 MLOAD SWAP2 MSTORE PUSH1 0x44 DUP3 ADD MSTORE SWAP1 MLOAD SWAP1 DUP2 SWAP1 SUB PUSH1 0x64 ADD SWAP1 REVERT JUMPDEST PUSH1 0x18 SSTORE JUMP JUMPDEST PUSH1 0x3 SLOAD PUSH1 0x40 DUP1 MLOAD PUSH4 0x40C10F19 PUSH1 0xE0 SHL DUP2 MSTORE PUSH1 0x1 PUSH1 0x1 PUSH1 0xA0 SHL SUB DUP6 DUP2 AND PUSH1 0x4 DUP4 ADD MSTORE PUSH1 0x24 DUP3 ADD DUP6 SWAP1 MSTORE SWAP2 MLOAD SWAP2 SWAP1 SWAP3 AND SWAP2 PUSH4 0x40C10F19 SWAP2 PUSH1 0x44 DUP1 DUP4 ADD SWAP3 PUSH1 0x0 SWAP3 SWAP2 SWAP1 DUP3 SWAP1 SUB ADD DUP2 DUP4 DUP8 DUP1 EXTCODESIZE ISZERO DUP1 ISZERO PUSH2 0x39B0 JUMPI PUSH1 0x0 DUP1 REVERT JUMPDEST POP GAS CALL ISZERO DUP1 ISZERO PUSH2 0x39C4 JUMPI RETURNDATASIZE PUSH1 0x0 DUP1 RETURNDATACOPY RETURNDATASIZE PUSH1 0x0 REVERT JUMPDEST POP POP POP POP POP POP JUMP JUMPDEST PUSH1 0x8 SLOAD PUSH1 0x1 PUSH1 0x1 PUSH1 0xA0 SHL SUB AND DUP2 JUMP JUMPDEST PUSH1 0x15 SLOAD DUP2 JUMP JUMPDEST CALLER PUSH1 0x0 SWAP1 DUP2 MSTORE PUSH1 0x1 PUSH1 0x20 MSTORE PUSH1 0x40 SWAP1 KECCAK256 SLOAD PUSH1 0xFF AND DUP1 PUSH2 0x3A0E JUMPI POP CALLER PUSH2 0x3A03 PUSH2 0x2E60 JUMP JUMPDEST PUSH1 0x1 PUSH1 0x1 PUSH1 0xA0 SHL SUB AND EQ JUMPDEST PUSH2 0x3A4D JUMPI PUSH1 0x40 DUP1 MLOAD PUSH3 0x461BCD PUSH1 0xE5 SHL DUP2 MSTORE PUSH1 0x20 PUSH1 0x4 DUP3 ADD MSTORE PUSH1 0x18 PUSH1 0x24 DUP3 ADD MSTORE PUSH1 0x0 DUP1 MLOAD PUSH1 0x20 PUSH2 0x461B DUP4 CODECOPY DUP2 MLOAD SWAP2 MSTORE PUSH1 0x44 DUP3 ADD MSTORE SWAP1 MLOAD SWAP1 DUP2 SWAP1 SUB PUSH1 0x64 ADD SWAP1 REVERT JUMPDEST PUSH1 0x3 SLOAD PUSH1 0x40 DUP1 MLOAD PUSH4 0xF2FDE38B PUSH1 0xE0 SHL DUP2 MSTORE PUSH1 0x1 PUSH1 0x1 PUSH1 0xA0 SHL SUB DUP5 DUP2 AND PUSH1 0x4 DUP4 ADD MSTORE SWAP2 MLOAD SWAP2 SWAP1 SWAP3 AND SWAP2 PUSH4 0xF2FDE38B SWAP2 PUSH1 0x24 DUP1 DUP4 ADD SWAP3 PUSH1 0x0 SWAP3 SWAP2 SWAP1 DUP3 SWAP1 SUB ADD DUP2 DUP4 DUP8 DUP1 EXTCODESIZE ISZERO DUP1 ISZERO PUSH2 0x3A9B JUMPI PUSH1 0x0 DUP1 REVERT JUMPDEST POP GAS CALL ISZERO DUP1 ISZERO PUSH2 0x3AAF JUMPI RETURNDATASIZE PUSH1 0x0 DUP1 RETURNDATACOPY RETURNDATASIZE PUSH1 0x0 REVERT JUMPDEST POP POP POP POP POP JUMP JUMPDEST PUSH2 0x3ABE PUSH2 0x4186 JUMP JUMPDEST PUSH1 0x1 PUSH1 0x1 PUSH1 0xA0 SHL SUB AND PUSH2 0x3ACF PUSH2 0x2E60 JUMP JUMPDEST PUSH1 0x1 PUSH1 0x1 PUSH1 0xA0 SHL SUB AND EQ PUSH2 0x3B18 JUMPI PUSH1 0x40 DUP1 MLOAD PUSH3 0x461BCD PUSH1 0xE5 SHL DUP2 MSTORE PUSH1 0x20 PUSH1 0x4 DUP3 ADD DUP2 SWAP1 MSTORE PUSH1 0x24 DUP3 ADD MSTORE PUSH1 0x0 DUP1 MLOAD PUSH1 0x20 PUSH2 0x45FB DUP4 CODECOPY DUP2 MLOAD SWAP2 MSTORE PUSH1 0x44 DUP3 ADD MSTORE SWAP1 MLOAD SWAP1 DUP2 SWAP1 SUB PUSH1 0x64 ADD SWAP1 REVERT JUMPDEST PUSH1 0x1 PUSH1 0x1 PUSH1 0xA0 SHL SUB DUP2 AND PUSH2 0x3B5D JUMPI PUSH1 0x40 MLOAD PUSH3 0x461BCD PUSH1 0xE5 SHL DUP2 MSTORE PUSH1 0x4 ADD DUP1 DUP1 PUSH1 0x20 ADD DUP3 DUP2 SUB DUP3 MSTORE PUSH1 0x26 DUP2 MSTORE PUSH1 0x20 ADD DUP1 PUSH2 0x452F PUSH1 0x26 SWAP2 CODECOPY PUSH1 0x40 ADD SWAP2 POP POP PUSH1 0x40 MLOAD DUP1 SWAP2 SUB SWAP1 REVERT JUMPDEST PUSH1 0x0 DUP1 SLOAD PUSH1 0x40 MLOAD PUSH1 0x1 PUSH1 0x1 PUSH1 0xA0 SHL SUB DUP1 DUP6 AND SWAP4 SWAP3 AND SWAP2 PUSH32 0x8BE0079C531659141344CD1FD0A4F28419497F9722A3DAAFE3B4186F6B6457E0 SWAP2 LOG3 PUSH1 0x0 DUP1 SLOAD PUSH1 0x1 PUSH1 0x1 PUSH1 0xA0 SHL SUB NOT AND PUSH1 0x1 PUSH1 0x1 PUSH1 0xA0 SHL SUB SWAP3 SWAP1 SWAP3 AND SWAP2 SWAP1 SWAP2 OR SWAP1 SSTORE JUMP JUMPDEST CALLER PUSH1 0x0 SWAP1 DUP2 MSTORE PUSH1 0x1 PUSH1 0x20 MSTORE PUSH1 0x40 SWAP1 KECCAK256 SLOAD PUSH1 0xFF AND DUP1 PUSH2 0x3BE5 JUMPI POP CALLER PUSH2 0x3BDA PUSH2 0x2E60 JUMP JUMPDEST PUSH1 0x1 PUSH1 0x1 PUSH1 0xA0 SHL SUB AND EQ JUMPDEST PUSH2 0x3C24 JUMPI PUSH1 0x40 DUP1 MLOAD PUSH3 0x461BCD PUSH1 0xE5 SHL DUP2 MSTORE PUSH1 0x20 PUSH1 0x4 DUP3 ADD MSTORE PUSH1 0x18 PUSH1 0x24 DUP3 ADD MSTORE PUSH1 0x0 DUP1 MLOAD PUSH1 0x20 PUSH2 0x461B DUP4 CODECOPY DUP2 MLOAD SWAP2 MSTORE PUSH1 0x44 DUP3 ADD MSTORE SWAP1 MLOAD SWAP1 DUP2 SWAP1 SUB PUSH1 0x64 ADD SWAP1 REVERT JUMPDEST PUSH1 0x16 SSTORE JUMP JUMPDEST PUSH1 0x13 SLOAD PUSH1 0x0 SWAP1 DUP2 SWAP1 DUP5 LT ISZERO PUSH2 0x3C42 JUMPI PUSH1 0x64 SWAP2 POP POP PUSH2 0x2F65 JUMP JUMPDEST PUSH1 0x0 JUMPDEST PUSH1 0xB SLOAD DUP2 LT ISZERO PUSH2 0x2F61 JUMPI PUSH1 0x0 PUSH1 0xB DUP3 DUP2 SLOAD DUP2 LT PUSH2 0x3C5E JUMPI INVALID JUMPDEST SWAP1 PUSH1 0x0 MSTORE PUSH1 0x20 PUSH1 0x0 KECCAK256 ADD SLOAD SWAP1 POP PUSH1 0x1 PUSH1 0x14 DUP1 SLOAD SWAP1 POP SUB DUP3 GT ISZERO PUSH2 0x3C87 JUMPI PUSH1 0x0 SWAP4 POP POP POP POP PUSH2 0x2F65 JUMP JUMPDEST DUP1 DUP6 GT PUSH2 0x3CB0 JUMPI PUSH1 0x14 DUP3 DUP2 SLOAD DUP2 LT PUSH2 0x3C9B JUMPI INVALID JUMPDEST SWAP1 PUSH1 0x0 MSTORE PUSH1 0x20 PUSH1 0x0 KECCAK256 ADD SLOAD SWAP4 POP POP POP POP PUSH2 0x2F65 JUMP JUMPDEST POP PUSH1 0x1 ADD PUSH2 0x3C45 JUMP JUMPDEST CALLER PUSH1 0x0 SWAP1 DUP2 MSTORE PUSH1 0x1 PUSH1 0x20 MSTORE PUSH1 0x40 SWAP1 KECCAK256 SLOAD PUSH1 0xFF AND DUP1 PUSH2 0x3CE6 JUMPI POP CALLER PUSH2 0x3CDB PUSH2 0x2E60 JUMP JUMPDEST PUSH1 0x1 PUSH1 0x1 PUSH1 0xA0 SHL SUB AND EQ JUMPDEST PUSH2 0x3D25 JUMPI PUSH1 0x40 DUP1 MLOAD PUSH3 0x461BCD PUSH1 0xE5 SHL DUP2 MSTORE PUSH1 0x20 PUSH1 0x4 DUP3 ADD MSTORE PUSH1 0x18 PUSH1 0x24 DUP3 ADD MSTORE PUSH1 0x0 DUP1 MLOAD PUSH1 0x20 PUSH2 0x461B DUP4 CODECOPY DUP2 MLOAD SWAP2 MSTORE PUSH1 0x44 DUP3 ADD MSTORE SWAP1 MLOAD SWAP1 DUP2 SWAP1 SUB PUSH1 0x64 ADD SWAP1 REVERT JUMPDEST PUSH1 0x12 SSTORE JUMP JUMPDEST PUSH1 0x0 DUP3 PUSH2 0x3D39 JUMPI POP PUSH1 0x0 PUSH2 0x2F65 JUMP JUMPDEST DUP3 DUP3 MUL DUP3 DUP5 DUP3 DUP2 PUSH2 0x3D46 JUMPI INVALID JUMPDEST DIV EQ PUSH2 0x3D83 JUMPI PUSH1 0x40 MLOAD PUSH3 0x461BCD PUSH1 0xE5 SHL DUP2 MSTORE PUSH1 0x4 ADD DUP1 DUP1 PUSH1 0x20 ADD DUP3 DUP2 SUB DUP3 MSTORE PUSH1 0x21 DUP2 MSTORE PUSH1 0x20 ADD DUP1 PUSH2 0x45A4 PUSH1 0x21 SWAP2 CODECOPY PUSH1 0x40 ADD SWAP2 POP POP PUSH1 0x40 MLOAD DUP1 SWAP2 SUB SWAP1 REVERT JUMPDEST SWAP4 SWAP3 POP POP POP JUMP JUMPDEST PUSH1 0x0 DUP3 DUP3 ADD DUP4 DUP2 LT ISZERO PUSH2 0x3D83 JUMPI PUSH1 0x40 DUP1 MLOAD PUSH3 0x461BCD PUSH1 0xE5 SHL DUP2 MSTORE PUSH1 0x20 PUSH1 0x4 DUP3 ADD MSTORE PUSH1 0x1B PUSH1 0x24 DUP3 ADD MSTORE PUSH32 0x536166654D6174683A206164646974696F6E206F766572666C6F770000000000 PUSH1 0x44 DUP3 ADD MSTORE SWAP1 MLOAD SWAP1 DUP2 SWAP1 SUB PUSH1 0x64 ADD SWAP1 REVERT JUMPDEST PUSH1 0x0 PUSH1 0x19 DUP3 DUP2 SLOAD DUP2 LT PUSH2 0x3DF3 JUMPI INVALID JUMPDEST PUSH1 0x0 SWAP2 DUP3 MSTORE PUSH1 0x20 DUP1 DUP4 KECCAK256 DUP6 DUP5 MSTORE PUSH1 0x1B DUP3 MSTORE PUSH1 0x40 DUP1 DUP6 KECCAK256 CALLER DUP7 MSTORE SWAP1 SWAP3 MSTORE SWAP3 KECCAK256 DUP1 SLOAD PUSH1 0x4 SWAP1 SWAP3 MUL SWAP1 SWAP3 ADD SWAP3 POP ISZERO PUSH2 0x406B JUMPI PUSH1 0x0 PUSH2 0x3E50 DUP3 PUSH1 0x1 ADD SLOAD PUSH2 0x340C PUSH5 0xE8D4A51000 PUSH2 0x1446 DUP8 PUSH1 0x3 ADD SLOAD DUP8 PUSH1 0x0 ADD SLOAD PUSH2 0x3D2A SWAP1 SWAP2 SWAP1 PUSH4 0xFFFFFFFF AND JUMP JUMPDEST PUSH1 0x3 SLOAD PUSH1 0x40 DUP1 MLOAD PUSH4 0x70A08231 PUSH1 0xE0 SHL DUP2 MSTORE ADDRESS PUSH1 0x4 DUP3 ADD MSTORE SWAP1 MLOAD SWAP3 SWAP4 POP PUSH1 0x0 SWAP3 PUSH1 0x1 PUSH1 0x1 PUSH1 0xA0 SHL SUB SWAP1 SWAP3 AND SWAP2 PUSH4 0x70A08231 SWAP2 PUSH1 0x24 DUP1 DUP3 ADD SWAP3 PUSH1 0x20 SWAP3 SWAP1 SWAP2 SWAP1 DUP3 SWAP1 SUB ADD DUP2 DUP7 DUP1 EXTCODESIZE ISZERO DUP1 ISZERO PUSH2 0x3EA1 JUMPI PUSH1 0x0 DUP1 REVERT JUMPDEST POP GAS STATICCALL ISZERO DUP1 ISZERO PUSH2 0x3EB5 JUMPI RETURNDATASIZE PUSH1 0x0 DUP1 RETURNDATACOPY RETURNDATASIZE PUSH1 0x0 REVERT JUMPDEST POP POP POP POP PUSH1 0x40 MLOAD RETURNDATASIZE PUSH1 0x20 DUP2 LT ISZERO PUSH2 0x3ECB JUMPI PUSH1 0x0 DUP1 REVERT JUMPDEST POP MLOAD SWAP1 POP DUP1 DUP3 GT ISZERO PUSH2 0x3EDB JUMPI DUP1 SWAP2 POP JUMPDEST DUP2 ISZERO PUSH2 0x4048 JUMPI PUSH1 0x3 SLOAD PUSH1 0x40 DUP1 MLOAD PUSH4 0xA9059CBB PUSH1 0xE0 SHL DUP2 MSTORE CALLER PUSH1 0x4 DUP3 ADD MSTORE PUSH1 0x24 DUP2 ADD DUP6 SWAP1 MSTORE SWAP1 MLOAD PUSH1 0x1 PUSH1 0x1 PUSH1 0xA0 SHL SUB SWAP1 SWAP3 AND SWAP2 PUSH4 0xA9059CBB SWAP2 PUSH1 0x44 DUP1 DUP3 ADD SWAP3 PUSH1 0x20 SWAP3 SWAP1 SWAP2 SWAP1 DUP3 SWAP1 SUB ADD DUP2 PUSH1 0x0 DUP8 DUP1 EXTCODESIZE ISZERO DUP1 ISZERO PUSH2 0x3F35 JUMPI PUSH1 0x0 DUP1 REVERT JUMPDEST POP GAS CALL ISZERO DUP1 ISZERO PUSH2 0x3F49 JUMPI RETURNDATASIZE PUSH1 0x0 DUP1 RETURNDATACOPY RETURNDATASIZE PUSH1 0x0 REVERT JUMPDEST POP POP POP POP PUSH1 0x40 MLOAD RETURNDATASIZE PUSH1 0x20 DUP2 LT ISZERO PUSH2 0x3F5F JUMPI PUSH1 0x0 DUP1 REVERT JUMPDEST POP POP PUSH1 0x10 SLOAD PUSH1 0x2 DUP5 ADD SLOAD PUSH1 0x0 SWAP2 LT PUSH2 0x4001 JUMPI PUSH1 0x0 PUSH2 0x3F80 PUSH1 0x1 NUMBER SUB NUMBER PUSH2 0x3C29 JUMP JUMPDEST SWAP1 POP PUSH2 0x3F91 PUSH1 0x64 PUSH2 0x1446 DUP7 DUP5 PUSH2 0x3D2A JUMP JUMPDEST PUSH1 0x3 SLOAD PUSH1 0x40 DUP1 MLOAD PUSH4 0x282D3FDF PUSH1 0xE0 SHL DUP2 MSTORE CALLER PUSH1 0x4 DUP3 ADD MSTORE PUSH1 0x24 DUP2 ADD DUP5 SWAP1 MSTORE SWAP1 MLOAD SWAP3 SWAP5 POP PUSH1 0x1 PUSH1 0x1 PUSH1 0xA0 SHL SUB SWAP1 SWAP2 AND SWAP2 PUSH4 0x282D3FDF SWAP2 PUSH1 0x44 DUP1 DUP3 ADD SWAP3 PUSH1 0x0 SWAP3 SWAP1 SWAP2 SWAP1 DUP3 SWAP1 SUB ADD DUP2 DUP4 DUP8 DUP1 EXTCODESIZE ISZERO DUP1 ISZERO PUSH2 0x3FE7 JUMPI PUSH1 0x0 DUP1 REVERT JUMPDEST POP GAS CALL ISZERO DUP1 ISZERO PUSH2 0x3FFB JUMPI RETURNDATASIZE PUSH1 0x0 DUP1 RETURNDATACOPY RETURNDATASIZE PUSH1 0x0 REVERT JUMPDEST POP POP POP POP POP JUMPDEST NUMBER PUSH1 0x2 DUP6 ADD SSTORE PUSH1 0x40 DUP1 MLOAD DUP5 DUP2 MSTORE PUSH1 0x20 DUP2 ADD DUP4 SWAP1 MSTORE DUP2 MLOAD DUP9 SWAP3 CALLER SWAP3 PUSH32 0x3887F2857BEAAF367EB618DFB5E22C1EBD74425AFFB0602C2E9FE126E3F860EB SWAP3 SWAP1 DUP2 SWAP1 SUB SWAP1 SWAP2 ADD SWAP1 LOG3 POP JUMPDEST PUSH1 0x3 DUP5 ADD SLOAD DUP4 SLOAD PUSH2 0x4063 SWAP2 PUSH5 0xE8D4A51000 SWAP2 PUSH2 0x1446 SWAP2 PUSH2 0x3D2A JUMP JUMPDEST PUSH1 0x1 DUP5 ADD SSTORE POP POP JUMPDEST POP POP POP JUMP JUMPDEST PUSH1 0x0 DUP3 DUP3 GT ISZERO PUSH2 0x40C7 JUMPI PUSH1 0x40 DUP1 MLOAD PUSH3 0x461BCD PUSH1 0xE5 SHL DUP2 MSTORE PUSH1 0x20 PUSH1 0x4 DUP3 ADD MSTORE PUSH1 0x1E PUSH1 0x24 DUP3 ADD MSTORE PUSH32 0x536166654D6174683A207375627472616374696F6E206F766572666C6F770000 PUSH1 0x44 DUP3 ADD MSTORE SWAP1 MLOAD SWAP1 DUP2 SWAP1 SUB PUSH1 0x64 ADD SWAP1 REVERT JUMPDEST POP SWAP1 SUB SWAP1 JUMP JUMPDEST PUSH1 0x0 DUP1 DUP3 GT PUSH2 0x4123 JUMPI PUSH1 0x40 DUP1 MLOAD PUSH3 0x461BCD PUSH1 0xE5 SHL DUP2 MSTORE PUSH1 0x20 PUSH1 0x4 DUP3 ADD MSTORE PUSH1 0x1A PUSH1 0x24 DUP3 ADD MSTORE PUSH32 0x536166654D6174683A206469766973696F6E206279207A65726F000000000000 PUSH1 0x44 DUP3 ADD MSTORE SWAP1 MLOAD SWAP1 DUP2 SWAP1 SUB PUSH1 0x64 ADD SWAP1 REVERT JUMPDEST DUP2 DUP4 DUP2 PUSH2 0x412C JUMPI INVALID JUMPDEST DIV SWAP4 SWAP3 POP POP POP JUMP JUMPDEST PUSH1 0x40 DUP1 MLOAD PUSH1 0x1 PUSH1 0x1 PUSH1 0xA0 SHL SUB DUP5 AND PUSH1 0x24 DUP3 ADD MSTORE PUSH1 0x44 DUP1 DUP3 ADD DUP5 SWAP1 MSTORE DUP3 MLOAD DUP1 DUP4 SUB SWAP1 SWAP2 ADD DUP2 MSTORE PUSH1 0x64 SWAP1 SWAP2 ADD SWAP1 SWAP2 MSTORE PUSH1 0x20 DUP2 ADD DUP1 MLOAD PUSH1 0x1 PUSH1 0x1 PUSH1 0xE0 SHL SUB AND PUSH4 0xA9059CBB PUSH1 0xE0 SHL OR SWAP1 MSTORE PUSH2 0x406B SWAP1 DUP5 SWAP1 PUSH2 0x41EA JUMP JUMPDEST CALLER SWAP1 JUMP JUMPDEST PUSH1 0x40 DUP1 MLOAD PUSH1 0x1 PUSH1 0x1 PUSH1 0xA0 SHL SUB DUP1 DUP7 AND PUSH1 0x24 DUP4 ADD MSTORE DUP5 AND PUSH1 0x44 DUP3 ADD MSTORE PUSH1 0x64 DUP1 DUP3 ADD DUP5 SWAP1 MSTORE DUP3 MLOAD DUP1 DUP4 SUB SWAP1 SWAP2 ADD DUP2 MSTORE PUSH1 0x84 SWAP1 SWAP2 ADD SWAP1 SWAP2 MSTORE PUSH1 0x20 DUP2 ADD DUP1 MLOAD PUSH1 0x1 PUSH1 0x1 PUSH1 0xE0 SHL SUB AND PUSH4 0x23B872DD PUSH1 0xE0 SHL OR SWAP1 MSTORE PUSH2 0x41E4 SWAP1 DUP6 SWAP1 PUSH2 0x41EA JUMP JUMPDEST POP POP POP POP JUMP JUMPDEST PUSH1 0x60 PUSH2 0x423F DUP3 PUSH1 0x40 MLOAD DUP1 PUSH1 0x40 ADD PUSH1 0x40 MSTORE DUP1 PUSH1 0x20 DUP2 MSTORE PUSH1 0x20 ADD PUSH32 0x5361666545524332303A206C6F772D6C6576656C2063616C6C206661696C6564 DUP2 MSTORE POP DUP6 PUSH1 0x1 PUSH1 0x1 PUSH1 0xA0 SHL SUB AND PUSH2 0x429B SWAP1 SWAP3 SWAP2 SWAP1 PUSH4 0xFFFFFFFF AND JUMP JUMPDEST DUP1 MLOAD SWAP1 SWAP2 POP ISZERO PUSH2 0x406B JUMPI DUP1 DUP1 PUSH1 0x20 ADD SWAP1 MLOAD PUSH1 0x20 DUP2 LT ISZERO PUSH2 0x425E JUMPI PUSH1 0x0 DUP1 REVERT JUMPDEST POP MLOAD PUSH2 0x406B JUMPI PUSH1 0x40 MLOAD PUSH3 0x461BCD PUSH1 0xE5 SHL DUP2 MSTORE PUSH1 0x4 ADD DUP1 DUP1 PUSH1 0x20 ADD DUP3 DUP2 SUB DUP3 MSTORE PUSH1 0x2A DUP2 MSTORE PUSH1 0x20 ADD DUP1 PUSH2 0x4687 PUSH1 0x2A SWAP2 CODECOPY PUSH1 0x40 ADD SWAP2 POP POP PUSH1 0x40 MLOAD DUP1 SWAP2 SUB SWAP1 REVERT JUMPDEST PUSH1 0x60 PUSH2 0x42AA DUP5 DUP5 PUSH1 0x0 DUP6 PUSH2 0x42B2 JUMP JUMPDEST SWAP5 SWAP4 POP POP POP POP JUMP JUMPDEST PUSH1 0x60 DUP3 SELFBALANCE LT ISZERO PUSH2 0x42F3 JUMPI PUSH1 0x40 MLOAD PUSH3 0x461BCD PUSH1 0xE5 SHL DUP2 MSTORE PUSH1 0x4 ADD DUP1 DUP1 PUSH1 0x20 ADD DUP3 DUP2 SUB DUP3 MSTORE PUSH1 0x26 DUP2 MSTORE PUSH1 0x20 ADD DUP1 PUSH2 0x457E PUSH1 0x26 SWAP2 CODECOPY PUSH1 0x40 ADD SWAP2 POP POP PUSH1 0x40 MLOAD DUP1 SWAP2 SUB SWAP1 REVERT JUMPDEST PUSH2 0x42FC DUP6 PUSH2 0x4403 JUMP JUMPDEST PUSH2 0x434D JUMPI PUSH1 0x40 DUP1 MLOAD PUSH3 0x461BCD PUSH1 0xE5 SHL DUP2 MSTORE PUSH1 0x20 PUSH1 0x4 DUP3 ADD MSTORE PUSH1 0x1D PUSH1 0x24 DUP3 ADD MSTORE PUSH32 0x416464726573733A2063616C6C20746F206E6F6E2D636F6E7472616374000000 PUSH1 0x44 DUP3 ADD MSTORE SWAP1 MLOAD SWAP1 DUP2 SWAP1 SUB PUSH1 0x64 ADD SWAP1 REVERT JUMPDEST PUSH1 0x0 PUSH1 0x60 DUP7 PUSH1 0x1 PUSH1 0x1 PUSH1 0xA0 SHL SUB AND DUP6 DUP8 PUSH1 0x40 MLOAD DUP1 DUP3 DUP1 MLOAD SWAP1 PUSH1 0x20 ADD SWAP1 DUP1 DUP4 DUP4 JUMPDEST PUSH1 0x20 DUP4 LT PUSH2 0x438C JUMPI DUP1 MLOAD DUP3 MSTORE PUSH1 0x1F NOT SWAP1 SWAP3 ADD SWAP2 PUSH1 0x20 SWAP2 DUP3 ADD SWAP2 ADD PUSH2 0x436D JUMP JUMPDEST PUSH1 0x1 DUP4 PUSH1 0x20 SUB PUSH2 0x100 EXP SUB DUP1 NOT DUP3 MLOAD AND DUP2 DUP5 MLOAD AND DUP1 DUP3 OR DUP6 MSTORE POP POP POP POP POP POP SWAP1 POP ADD SWAP2 POP POP PUSH1 0x0 PUSH1 0x40 MLOAD DUP1 DUP4 SUB DUP2 DUP6 DUP8 GAS CALL SWAP3 POP POP POP RETURNDATASIZE DUP1 PUSH1 0x0 DUP2 EQ PUSH2 0x43EE JUMPI PUSH1 0x40 MLOAD SWAP2 POP PUSH1 0x1F NOT PUSH1 0x3F RETURNDATASIZE ADD AND DUP3 ADD PUSH1 0x40 MSTORE RETURNDATASIZE DUP3 MSTORE RETURNDATASIZE PUSH1 0x0 PUSH1 0x20 DUP5 ADD RETURNDATACOPY PUSH2 0x43F3 JUMP JUMPDEST PUSH1 0x60 SWAP2 POP JUMPDEST POP SWAP2 POP SWAP2 POP PUSH2 0x3412 DUP3 DUP3 DUP7 PUSH2 0x4409 JUMP JUMPDEST EXTCODESIZE ISZERO ISZERO SWAP1 JUMP JUMPDEST PUSH1 0x60 DUP4 ISZERO PUSH2 0x4418 JUMPI POP DUP2 PUSH2 0x3D83 JUMP JUMPDEST DUP3 MLOAD ISZERO PUSH2 0x4428 JUMPI DUP3 MLOAD DUP1 DUP5 PUSH1 0x20 ADD REVERT JUMPDEST DUP2 PUSH1 0x40 MLOAD PUSH3 0x461BCD PUSH1 0xE5 SHL DUP2 MSTORE PUSH1 0x4 ADD DUP1 DUP1 PUSH1 0x20 ADD DUP3 DUP2 SUB DUP3 MSTORE DUP4 DUP2 DUP2 MLOAD DUP2 MSTORE PUSH1 0x20 ADD SWAP2 POP DUP1 MLOAD SWAP1 PUSH1 0x20 ADD SWAP1 DUP1 DUP4 DUP4 PUSH1 0x0 JUMPDEST DUP4 DUP2 LT ISZERO PUSH2 0x4472 JUMPI DUP2 DUP2 ADD MLOAD DUP4 DUP3 ADD MSTORE PUSH1 0x20 ADD PUSH2 0x445A JUMP JUMPDEST POP POP POP POP SWAP1 POP SWAP1 DUP2 ADD SWAP1 PUSH1 0x1F AND DUP1 ISZERO PUSH2 0x449F JUMPI DUP1 DUP3 SUB DUP1 MLOAD PUSH1 0x1 DUP4 PUSH1 0x20 SUB PUSH2 0x100 EXP SUB NOT AND DUP2 MSTORE PUSH1 0x20 ADD SWAP2 POP JUMPDEST POP SWAP3 POP POP POP PUSH1 0x40 MLOAD DUP1 SWAP2 SUB SWAP1 REVERT JUMPDEST DUP3 DUP1 SLOAD DUP3 DUP3 SSTORE SWAP1 PUSH1 0x0 MSTORE PUSH1 0x20 PUSH1 0x0 KECCAK256 SWAP1 DUP2 ADD SWAP3 DUP3 ISZERO PUSH2 0x44E8 JUMPI SWAP2 PUSH1 0x20 MUL DUP3 ADD JUMPDEST DUP3 DUP2 GT ISZERO PUSH2 0x44E8 JUMPI DUP3 MLOAD DUP3 SSTORE SWAP2 PUSH1 0x20 ADD SWAP2 SWAP1 PUSH1 0x1 ADD SWAP1 PUSH2 0x44CD JUMP JUMPDEST POP PUSH2 0x44F4 SWAP3 SWAP2 POP PUSH2 0x4519 JUMP JUMPDEST POP SWAP1 JUMP JUMPDEST PUSH1 0x40 MLOAD DUP1 PUSH1 0x60 ADD PUSH1 0x40 MSTORE DUP1 PUSH1 0x0 DUP2 MSTORE PUSH1 0x20 ADD PUSH1 0x0 DUP2 MSTORE PUSH1 0x20 ADD PUSH1 0x0 DUP2 MSTORE POP SWAP1 JUMP JUMPDEST JUMPDEST DUP1 DUP3 GT ISZERO PUSH2 0x44F4 JUMPI PUSH1 0x0 DUP2 SSTORE PUSH1 0x1 ADD PUSH2 0x451A JUMP INVALID 0x4F PUSH24 0x6E61626C653A206E6577206F776E65722069732074686520 PUSH27 0x65726F20616464726573734D617374657247617264656E65723A3A PUSH15 0x6F6E4475706C6963617465643A2064 PUSH22 0x706C696361746564416464726573733A20696E737566 PUSH7 0x696369656E7420 PUSH3 0x616C61 PUSH15 0x636520666F722063616C6C53616665 0x4D PUSH2 0x7468 GASPRICE KECCAK256 PUSH14 0x756C7469706C69636174696F6E20 PUSH16 0x766572666C6F774D6173746572476172 PUSH5 0x656E65723A GASPRICE PUSH5 0x65706F7369 PUSH21 0x3A20616D6F756E74206D7573742062652067726561 PUSH21 0x6572207468616E20304F776E61626C653A2063616C PUSH13 0x6572206973206E6F7420746865 KECCAK256 PUSH16 0x776E657263616C6C6572206973206E6F PUSH21 0x20617574686F72697A656400000000000000004D61 PUSH20 0x74657247617264656E65723A3A77697468647261 PUSH24 0x3A206E6F7420676F6F644D617374657247617264656E6572 GASPRICE GASPRICE PUSH2 0x6464 GASPRICE KECCAK256 PUSH13 0x7020697320616C726561647920 PUSH10 0x6E20706F6F6C53616665 GASLIMIT MSTORE NUMBER ORIGIN ADDRESS GASPRICE KECCAK256 GASLIMIT MSTORE NUMBER ORIGIN ADDRESS KECCAK256 PUSH16 0x7065726174696F6E20646964206E6F74 KECCAK256 PUSH20 0x756363656564A2646970667358221220DFB2D108 0xA5 0x2E 0xCC 0x4B 0xDD 0xB1 PUSH4 0x9218B689 PUSH31 0x75823E856017B66D275FFD0D98B9A95C64736F6C634300060C003353616665 0x4D PUSH2 0x7468 GASPRICE KECCAK256 PUSH14 0x756C7469706C69636174696F6E20 PUSH16 0x766572666C6F77000000000000000000 "
		},
		"gasEstimates": {
			"creation": {
				"codeDepositCost": "3630000",
				"executionCost": "infinite",
				"totalCost": "infinite"
			},
			"external": {
				"FINISH_BONUS_AT_BLOCK()": "1154",
				"HALVING_AT_BLOCK(uint256)": "2044",
				"PERCENT_FOR_COM()": "1088",
				"PERCENT_FOR_DEV()": "1153",
				"PERCENT_FOR_FOUNDERS()": "1153",
				"PERCENT_FOR_LP()": "1134",
				"PERCENT_LOCK_BONUS_REWARD(uint256)": "2043",
				"REWARD_MULTIPLIER(uint256)": "1999",
				"REWARD_PER_BLOCK()": "1132",
				"START_BLOCK()": "1154",
				"add(uint256,address,bool)": "infinite",
				"addAuthorized(address)": "infinite",
				"authorized(address)": "1203",
				"blockDeltaEndStage(uint256)": "2065",
				"blockDeltaStartStage(uint256)": "2043",
				"bonusFinishUpdate(uint256)": "infinite",
				"claimReward(uint256)": "infinite",
				"claimRewards(uint256[])": "infinite",
				"comUpdate(address)": "infinite",
				"comfundaddr()": "1106",
				"deledateMint(address,uint256)": "infinite",
				"deposit(uint256,uint256,address)": "infinite",
				"dev(address)": "infinite",
				"devDepFee()": "1109",
				"devFeeStage(uint256)": "2020",
				"devaddr()": "1170",
				"emergencyWithdraw(uint256)": "infinite",
				"founderUpdate(address)": "infinite",
				"founderaddr()": "1170",
				"getGlobalAmount(address)": "3054",
				"getGlobalRefAmount(address)": "3108",
				"getLockPercentage(uint256,uint256)": "infinite",
				"getMultiplier(uint256,uint256)": "infinite",
				"getNewRewardPerBlock(uint256)": "infinite",
				"getPoolReward(uint256,uint256,uint256)": "infinite",
				"getRefValueOf(address,address)": "1326",
				"getTotalRefs(address)": "3092",
				"govToken()": "1107",
				"halvingUpdate(uint256[])": "infinite",
				"liquidityaddr()": "1106",
				"lockUpdate(uint256[])": "infinite",
				"lockcomUpdate(uint256)": "infinite",
				"lockdevUpdate(uint256)": "infinite",
				"lockfounderUpdate(uint256)": "infinite",
				"locklpUpdate(uint256)": "infinite",
				"lpUpdate(address)": "infinite",
				"massUpdatePools()": "infinite",
				"owner()": "1150",
				"pendingReward(uint256,address)": "infinite",
				"poolExistence(address)": "1292",
				"poolId1(address)": "1191",
				"poolInfo(uint256)": "4583",
				"poolLength()": "1090",
				"reclaimTokenOwnership(address)": "infinite",
				"removeAuthorized(address)": "infinite",
				"renounceOwnership()": "infinite",
				"reviseDeposit(uint256,address,uint256)": "infinite",
				"reviseWithdraw(uint256,address,uint256)": "infinite",
				"rewardMulUpdate(uint256[])": "infinite",
				"rewardUpdate(uint256)": "infinite",
				"set(uint256,uint256,bool)": "infinite",
				"setDevDepFee(uint256)": "infinite",
				"setDevFeeStage(uint256[])": "infinite",
				"setStageEnds(uint256[])": "infinite",
				"setStageStarts(uint256[])": "infinite",
				"setUserDepFee(uint256)": "infinite",
				"setUserFeeStage(uint256[])": "infinite",
				"starblockUpdate(uint256)": "infinite",
				"totalAllocPoint()": "1111",
				"transferOwnership(address)": "infinite",
				"updatePool(uint256)": "infinite",
				"usdOracle()": "1127",
				"userDelta(uint256)": "2149",
				"userDepFee()": "1131",
				"userFeeStage(uint256)": "2042",
				"userGlobalInfo(address)": "2951",
				"userInfo(uint256,address)": "6329",
				"withdraw(uint256,uint256,address)": "infinite"
			},
			"internal": {
				"_harvest(uint256)": "infinite",
				"safeGovTokenTransfer(address,uint256)": "infinite"
			}
		},
		"methodIdentifiers": {
			"FINISH_BONUS_AT_BLOCK()": "980c2a98",
			"HALVING_AT_BLOCK(uint256)": "4179b4fb",
			"PERCENT_FOR_COM()": "a02306f9",
			"PERCENT_FOR_DEV()": "ed9bdeda",
			"PERCENT_FOR_FOUNDERS()": "c6929e53",
			"PERCENT_FOR_LP()": "0a67d518",
			"PERCENT_LOCK_BONUS_REWARD(uint256)": "a82859c5",
			"REWARD_MULTIPLIER(uint256)": "2fda7735",
			"REWARD_PER_BLOCK()": "975532dc",
			"START_BLOCK()": "39b3e826",
			"add(uint256,address,bool)": "1eaaa045",
			"addAuthorized(address)": "cf1c316a",
			"authorized(address)": "b9181611",
			"blockDeltaEndStage(uint256)": "cb0b8ca1",
			"blockDeltaStartStage(uint256)": "6245f084",
			"bonusFinishUpdate(uint256)": "245b211d",
			"claimReward(uint256)": "ae169a50",
			"claimRewards(uint256[])": "5eac6239",
			"comUpdate(address)": "c749d614",
			"comfundaddr()": "3c9d9267",
			"deledateMint(address,uint256)": "eb986b6c",
			"deposit(uint256,uint256,address)": "8dbdbe6d",
			"dev(address)": "8d88a90e",
			"devDepFee()": "c56a10ff",
			"devFeeStage(uint256)": "beff2a53",
			"devaddr()": "d49e77cd",
			"emergencyWithdraw(uint256)": "5312ea8e",
			"founderUpdate(address)": "30fb8e0e",
			"founderaddr()": "ec12173d",
			"getGlobalAmount(address)": "929c6971",
			"getGlobalRefAmount(address)": "5c5e490b",
			"getLockPercentage(uint256,uint256)": "f930e770",
			"getMultiplier(uint256,uint256)": "8dbb1e3a",
			"getNewRewardPerBlock(uint256)": "1d465c82",
			"getPoolReward(uint256,uint256,uint256)": "c8ed7680",
			"getRefValueOf(address,address)": "dd77b9fd",
			"getTotalRefs(address)": "36ebcde6",
			"govToken()": "05268cff",
			"halvingUpdate(uint256[])": "354affb7",
			"liquidityaddr()": "22a376b0",
			"lockUpdate(uint256[])": "27e68928",
			"lockcomUpdate(uint256)": "c663baa6",
			"lockdevUpdate(uint256)": "b6066962",
			"lockfounderUpdate(uint256)": "de988524",
			"locklpUpdate(uint256)": "f2ffc22c",
			"lpUpdate(address)": "4dbf85ca",
			"massUpdatePools()": "630b5ba1",
			"owner()": "8da5cb5b",
			"pendingReward(uint256,address)": "98969e82",
			"poolExistence(address)": "cbd258b5",
			"poolId1(address)": "ce2529c9",
			"poolInfo(uint256)": "1526fe27",
			"poolLength()": "081e3eda",
			"reclaimTokenOwnership(address)": "eda67048",
			"removeAuthorized(address)": "485d7d94",
			"renounceOwnership()": "715018a6",
			"reviseDeposit(uint256,address,uint256)": "82386d58",
			"reviseWithdraw(uint256,address,uint256)": "6066debd",
			"rewardMulUpdate(uint256[])": "46664064",
			"rewardUpdate(uint256)": "3d479cd5",
			"set(uint256,uint256,bool)": "64482f79",
			"setDevDepFee(uint256)": "fb075433",
			"setDevFeeStage(uint256[])": "8cc883ce",
			"setStageEnds(uint256[])": "4af0e3e1",
			"setStageStarts(uint256[])": "847bdaa4",
			"setUserDepFee(uint256)": "7c39c9c9",
			"setUserFeeStage(uint256[])": "2a7b0107",
			"starblockUpdate(uint256)": "24b95c3e",
			"totalAllocPoint()": "17caf6f1",
			"transferOwnership(address)": "f2fde38b",
			"updatePool(uint256)": "51eb05a6",
			"usdOracle()": "c8a4271f",
			"userDelta(uint256)": "09ae4d2c",
			"userDepFee()": "82796e98",
			"userFeeStage(uint256)": "d007db29",
			"userGlobalInfo(address)": "d9608d8a",
			"userInfo(uint256,address)": "93f1a40b",
			"withdraw(uint256,uint256,address)": "0ad58d2f"
		}
	},
	"abi": [
		{
			"inputs": [
				{
					"internalType": "contract JewelToken",
					"name": "_govToken",
					"type": "address"
				},
				{
					"internalType": "address",
					"name": "_devaddr",
					"type": "address"
				},
				{
					"internalType": "address",
					"name": "_liquidityaddr",
					"type": "address"
				},
				{
					"internalType": "address",
					"name": "_comfundaddr",
					"type": "address"
				},
				{
					"internalType": "address",
					"name": "_founderaddr",
					"type": "address"
				},
				{
					"internalType": "uint256",
					"name": "_rewardPerBlock",
					"type": "uint256"
				},
				{
					"internalType": "uint256",
					"name": "_startBlock",
					"type": "uint256"
				},
				{
					"internalType": "uint256",
					"name": "_halvingAfterBlock",
					"type": "uint256"
				},
				{
					"internalType": "uint256",
					"name": "_userDepFee",
					"type": "uint256"
				},
				{
					"internalType": "uint256",
					"name": "_devDepFee",
					"type": "uint256"
				},
				{
					"internalType": "uint256[]",
					"name": "_rewardMultiplier",
					"type": "uint256[]"
				},
				{
					"internalType": "uint256[]",
					"name": "_blockDeltaStartStage",
					"type": "uint256[]"
				},
				{
					"internalType": "uint256[]",
					"name": "_blockDeltaEndStage",
					"type": "uint256[]"
				},
				{
					"internalType": "uint256[]",
					"name": "_userFeeStage",
					"type": "uint256[]"
				},
				{
					"internalType": "uint256[]",
					"name": "_devFeeStage",
					"type": "uint256[]"
				}
			],
			"stateMutability": "nonpayable",
			"type": "constructor"
		},
		{
			"anonymous": false,
			"inputs": [
				{
					"indexed": true,
					"internalType": "address",
					"name": "user",
					"type": "address"
				},
				{
					"indexed": true,
					"internalType": "uint256",
					"name": "pid",
					"type": "uint256"
				},
				{
					"indexed": false,
					"internalType": "uint256",
					"name": "amount",
					"type": "uint256"
				}
			],
			"name": "Deposit",
			"type": "event"
		},
		{
			"anonymous": false,
			"inputs": [
				{
					"indexed": true,
					"internalType": "address",
					"name": "user",
					"type": "address"
				},
				{
					"indexed": true,
					"internalType": "uint256",
					"name": "pid",
					"type": "uint256"
				},
				{
					"indexed": false,
					"internalType": "uint256",
					"name": "amount",
					"type": "uint256"
				}
			],
			"name": "EmergencyWithdraw",
			"type": "event"
		},
		{
			"anonymous": false,
			"inputs": [
				{
					"indexed": true,
					"internalType": "address",
					"name": "previousOwner",
					"type": "address"
				},
				{
					"indexed": true,
					"internalType": "address",
					"name": "newOwner",
					"type": "address"
				}
			],
			"name": "OwnershipTransferred",
			"type": "event"
		},
		{
			"anonymous": false,
			"inputs": [
				{
					"indexed": true,
					"internalType": "address",
					"name": "user",
					"type": "address"
				},
				{
					"indexed": true,
					"internalType": "uint256",
					"name": "pid",
					"type": "uint256"
				},
				{
					"indexed": false,
					"internalType": "uint256",
					"name": "amount",
					"type": "uint256"
				},
				{
					"indexed": false,
					"internalType": "uint256",
					"name": "lockAmount",
					"type": "uint256"
				}
			],
			"name": "SendGovernanceTokenReward",
			"type": "event"
		},
		{
			"anonymous": false,
			"inputs": [
				{
					"indexed": true,
					"internalType": "address",
					"name": "user",
					"type": "address"
				},
				{
					"indexed": true,
					"internalType": "uint256",
					"name": "pid",
					"type": "uint256"
				},
				{
					"indexed": false,
					"internalType": "uint256",
					"name": "amount",
					"type": "uint256"
				}
			],
			"name": "Withdraw",
			"type": "event"
		},
		{
			"inputs": [],
			"name": "FINISH_BONUS_AT_BLOCK",
			"outputs": [
				{
					"internalType": "uint256",
					"name": "",
					"type": "uint256"
				}
			],
			"stateMutability": "view",
			"type": "function"
		},
		{
			"inputs": [
				{
					"internalType": "uint256",
					"name": "",
					"type": "uint256"
				}
			],
			"name": "HALVING_AT_BLOCK",
			"outputs": [
				{
					"internalType": "uint256",
					"name": "",
					"type": "uint256"
				}
			],
			"stateMutability": "view",
			"type": "function"
		},
		{
			"inputs": [],
			"name": "PERCENT_FOR_COM",
			"outputs": [
				{
					"internalType": "uint256",
					"name": "",
					"type": "uint256"
				}
			],
			"stateMutability": "view",
			"type": "function"
		},
		{
			"inputs": [],
			"name": "PERCENT_FOR_DEV",
			"outputs": [
				{
					"internalType": "uint256",
					"name": "",
					"type": "uint256"
				}
			],
			"stateMutability": "view",
			"type": "function"
		},
		{
			"inputs": [],
			"name": "PERCENT_FOR_FOUNDERS",
			"outputs": [
				{
					"internalType": "uint256",
					"name": "",
					"type": "uint256"
				}
			],
			"stateMutability": "view",
			"type": "function"
		},
		{
			"inputs": [],
			"name": "PERCENT_FOR_LP",
			"outputs": [
				{
					"internalType": "uint256",
					"name": "",
					"type": "uint256"
				}
			],
			"stateMutability": "view",
			"type": "function"
		},
		{
			"inputs": [
				{
					"internalType": "uint256",
					"name": "",
					"type": "uint256"
				}
			],
			"name": "PERCENT_LOCK_BONUS_REWARD",
			"outputs": [
				{
					"internalType": "uint256",
					"name": "",
					"type": "uint256"
				}
			],
			"stateMutability": "view",
			"type": "function"
		},
		{
			"inputs": [
				{
					"internalType": "uint256",
					"name": "",
					"type": "uint256"
				}
			],
			"name": "REWARD_MULTIPLIER",
			"outputs": [
				{
					"internalType": "uint256",
					"name": "",
					"type": "uint256"
				}
			],
			"stateMutability": "view",
			"type": "function"
		},
		{
			"inputs": [],
			"name": "REWARD_PER_BLOCK",
			"outputs": [
				{
					"internalType": "uint256",
					"name": "",
					"type": "uint256"
				}
			],
			"stateMutability": "view",
			"type": "function"
		},
		{
			"inputs": [],
			"name": "START_BLOCK",
			"outputs": [
				{
					"internalType": "uint256",
					"name": "",
					"type": "uint256"
				}
			],
			"stateMutability": "view",
			"type": "function"
		},
		{
			"inputs": [
				{
					"internalType": "uint256",
					"name": "_allocPoint",
					"type": "uint256"
				},
				{
					"internalType": "contract IERC20",
					"name": "_lpToken",
					"type": "address"
				},
				{
					"internalType": "bool",
					"name": "_withUpdate",
					"type": "bool"
				}
			],
			"name": "add",
			"outputs": [],
			"stateMutability": "nonpayable",
			"type": "function"
		},
		{
			"inputs": [
				{
					"internalType": "address",
					"name": "_toAdd",
					"type": "address"
				}
			],
			"name": "addAuthorized",
			"outputs": [],
			"stateMutability": "nonpayable",
			"type": "function"
		},
		{
			"inputs": [
				{
					"internalType": "address",
					"name": "",
					"type": "address"
				}
			],
			"name": "authorized",
			"outputs": [
				{
					"internalType": "bool",
					"name": "",
					"type": "bool"
				}
			],
			"stateMutability": "view",
			"type": "function"
		},
		{
			"inputs": [
				{
					"internalType": "uint256",
					"name": "",
					"type": "uint256"
				}
			],
			"name": "blockDeltaEndStage",
			"outputs": [
				{
					"internalType": "uint256",
					"name": "",
					"type": "uint256"
				}
			],
			"stateMutability": "view",
			"type": "function"
		},
		{
			"inputs": [
				{
					"internalType": "uint256",
					"name": "",
					"type": "uint256"
				}
			],
			"name": "blockDeltaStartStage",
			"outputs": [
				{
					"internalType": "uint256",
					"name": "",
					"type": "uint256"
				}
			],
			"stateMutability": "view",
			"type": "function"
		},
		{
			"inputs": [
				{
					"internalType": "uint256",
					"name": "_newFinish",
					"type": "uint256"
				}
			],
			"name": "bonusFinishUpdate",
			"outputs": [],
			"stateMutability": "nonpayable",
			"type": "function"
		},
		{
			"inputs": [
				{
					"internalType": "uint256",
					"name": "_pid",
					"type": "uint256"
				}
			],
			"name": "claimReward",
			"outputs": [],
			"stateMutability": "nonpayable",
			"type": "function"
		},
		{
			"inputs": [
				{
					"internalType": "uint256[]",
					"name": "_pids",
					"type": "uint256[]"
				}
			],
			"name": "claimRewards",
			"outputs": [],
			"stateMutability": "nonpayable",
			"type": "function"
		},
		{
			"inputs": [
				{
					"internalType": "address",
					"name": "_newCom",
					"type": "address"
				}
			],
			"name": "comUpdate",
			"outputs": [],
			"stateMutability": "nonpayable",
			"type": "function"
		},
		{
			"inputs": [],
			"name": "comfundaddr",
			"outputs": [
				{
					"internalType": "address",
					"name": "",
					"type": "address"
				}
			],
			"stateMutability": "view",
			"type": "function"
		},
		{
			"inputs": [
				{
					"internalType": "address",
					"name": "account",
					"type": "address"
				},
				{
					"internalType": "uint256",
					"name": "amount",
					"type": "uint256"
				}
			],
			"name": "deledateMint",
			"outputs": [],
			"stateMutability": "nonpayable",
			"type": "function"
		},
		{
			"inputs": [
				{
					"internalType": "uint256",
					"name": "_pid",
					"type": "uint256"
				},
				{
					"internalType": "uint256",
					"name": "_amount",
					"type": "uint256"
				},
				{
					"internalType": "address",
					"name": "_ref",
					"type": "address"
				}
			],
			"name": "deposit",
			"outputs": [],
			"stateMutability": "nonpayable",
			"type": "function"
		},
		{
			"inputs": [
				{
					"internalType": "address",
					"name": "_devaddr",
					"type": "address"
				}
			],
			"name": "dev",
			"outputs": [],
			"stateMutability": "nonpayable",
			"type": "function"
		},
		{
			"inputs": [],
			"name": "devDepFee",
			"outputs": [
				{
					"internalType": "uint256",
					"name": "",
					"type": "uint256"
				}
			],
			"stateMutability": "view",
			"type": "function"
		},
		{
			"inputs": [
				{
					"internalType": "uint256",
					"name": "",
					"type": "uint256"
				}
			],
			"name": "devFeeStage",
			"outputs": [
				{
					"internalType": "uint256",
					"name": "",
					"type": "uint256"
				}
			],
			"stateMutability": "view",
			"type": "function"
		},
		{
			"inputs": [],
			"name": "devaddr",
			"outputs": [
				{
					"internalType": "address",
					"name": "",
					"type": "address"
				}
			],
			"stateMutability": "view",
			"type": "function"
		},
		{
			"inputs": [
				{
					"internalType": "uint256",
					"name": "_pid",
					"type": "uint256"
				}
			],
			"name": "emergencyWithdraw",
			"outputs": [],
			"stateMutability": "nonpayable",
			"type": "function"
		},
		{
			"inputs": [
				{
					"internalType": "address",
					"name": "_newFounder",
					"type": "address"
				}
			],
			"name": "founderUpdate",
			"outputs": [],
			"stateMutability": "nonpayable",
			"type": "function"
		},
		{
			"inputs": [],
			"name": "founderaddr",
			"outputs": [
				{
					"internalType": "address",
					"name": "",
					"type": "address"
				}
			],
			"stateMutability": "view",
			"type": "function"
		},
		{
			"inputs": [
				{
					"internalType": "address",
					"name": "_user",
					"type": "address"
				}
			],
			"name": "getGlobalAmount",
			"outputs": [
				{
					"internalType": "uint256",
					"name": "",
					"type": "uint256"
				}
			],
			"stateMutability": "view",
			"type": "function"
		},
		{
			"inputs": [
				{
					"internalType": "address",
					"name": "_user",
					"type": "address"
				}
			],
			"name": "getGlobalRefAmount",
			"outputs": [
				{
					"internalType": "uint256",
					"name": "",
					"type": "uint256"
				}
			],
			"stateMutability": "view",
			"type": "function"
		},
		{
			"inputs": [
				{
					"internalType": "uint256",
					"name": "_from",
					"type": "uint256"
				},
				{
					"internalType": "uint256",
					"name": "_to",
					"type": "uint256"
				}
			],
			"name": "getLockPercentage",
			"outputs": [
				{
					"internalType": "uint256",
					"name": "",
					"type": "uint256"
				}
			],
			"stateMutability": "view",
			"type": "function"
		},
		{
			"inputs": [
				{
					"internalType": "uint256",
					"name": "_from",
					"type": "uint256"
				},
				{
					"internalType": "uint256",
					"name": "_to",
					"type": "uint256"
				}
			],
			"name": "getMultiplier",
			"outputs": [
				{
					"internalType": "uint256",
					"name": "",
					"type": "uint256"
				}
			],
			"stateMutability": "view",
			"type": "function"
		},
		{
			"inputs": [
				{
					"internalType": "uint256",
					"name": "pid1",
					"type": "uint256"
				}
			],
			"name": "getNewRewardPerBlock",
			"outputs": [
				{
					"internalType": "uint256",
					"name": "",
					"type": "uint256"
				}
			],
			"stateMutability": "view",
			"type": "function"
		},
		{
			"inputs": [
				{
					"internalType": "uint256",
					"name": "_from",
					"type": "uint256"
				},
				{
					"internalType": "uint256",
					"name": "_to",
					"type": "uint256"
				},
				{
					"internalType": "uint256",
					"name": "_allocPoint",
					"type": "uint256"
				}
			],
			"name": "getPoolReward",
			"outputs": [
				{
					"internalType": "uint256",
					"name": "forDev",
					"type": "uint256"
				},
				{
					"internalType": "uint256",
					"name": "forFarmer",
					"type": "uint256"
				},
				{
					"internalType": "uint256",
					"name": "forLP",
					"type": "uint256"
				},
				{
					"internalType": "uint256",
					"name": "forCom",
					"type": "uint256"
				},
				{
					"internalType": "uint256",
					"name": "forFounders",
					"type": "uint256"
				}
			],
			"stateMutability": "view",
			"type": "function"
		},
		{
			"inputs": [
				{
					"internalType": "address",
					"name": "_user",
					"type": "address"
				},
				{
					"internalType": "address",
					"name": "_user2",
					"type": "address"
				}
			],
			"name": "getRefValueOf",
			"outputs": [
				{
					"internalType": "uint256",
					"name": "",
					"type": "uint256"
				}
			],
			"stateMutability": "view",
			"type": "function"
		},
		{
			"inputs": [
				{
					"internalType": "address",
					"name": "_user",
					"type": "address"
				}
			],
			"name": "getTotalRefs",
			"outputs": [
				{
					"internalType": "uint256",
					"name": "",
					"type": "uint256"
				}
			],
			"stateMutability": "view",
			"type": "function"
		},
		{
			"inputs": [],
			"name": "govToken",
			"outputs": [
				{
					"internalType": "contract JewelToken",
					"name": "",
					"type": "address"
				}
			],
			"stateMutability": "view",
			"type": "function"
		},
		{
			"inputs": [
				{
					"internalType": "uint256[]",
					"name": "_newHalving",
					"type": "uint256[]"
				}
			],
			"name": "halvingUpdate",
			"outputs": [],
			"stateMutability": "nonpayable",
			"type": "function"
		},
		{
			"inputs": [],
			"name": "liquidityaddr",
			"outputs": [
				{
					"internalType": "address",
					"name": "",
					"type": "address"
				}
			],
			"stateMutability": "view",
			"type": "function"
		},
		{
			"inputs": [
				{
					"internalType": "uint256[]",
					"name": "_newlock",
					"type": "uint256[]"
				}
			],
			"name": "lockUpdate",
			"outputs": [],
			"stateMutability": "nonpayable",
			"type": "function"
		},
		{
			"inputs": [
				{
					"internalType": "uint256",
					"name": "_newcomlock",
					"type": "uint256"
				}
			],
			"name": "lockcomUpdate",
			"outputs": [],
			"stateMutability": "nonpayable",
			"type": "function"
		},
		{
			"inputs": [
				{
					"internalType": "uint256",
					"name": "_newdevlock",
					"type": "uint256"
				}
			],
			"name": "lockdevUpdate",
			"outputs": [],
			"stateMutability": "nonpayable",
			"type": "function"
		},
		{
			"inputs": [
				{
					"internalType": "uint256",
					"name": "_newfounderlock",
					"type": "uint256"
				}
			],
			"name": "lockfounderUpdate",
			"outputs": [],
			"stateMutability": "nonpayable",
			"type": "function"
		},
		{
			"inputs": [
				{
					"internalType": "uint256",
					"name": "_newlplock",
					"type": "uint256"
				}
			],
			"name": "locklpUpdate",
			"outputs": [],
			"stateMutability": "nonpayable",
			"type": "function"
		},
		{
			"inputs": [
				{
					"internalType": "address",
					"name": "_newLP",
					"type": "address"
				}
			],
			"name": "lpUpdate",
			"outputs": [],
			"stateMutability": "nonpayable",
			"type": "function"
		},
		{
			"inputs": [],
			"name": "massUpdatePools",
			"outputs": [],
			"stateMutability": "nonpayable",
			"type": "function"
		},
		{
			"inputs": [],
			"name": "owner",
			"outputs": [
				{
					"internalType": "address",
					"name": "",
					"type": "address"
				}
			],
			"stateMutability": "view",
			"type": "function"
		},
		{
			"inputs": [
				{
					"internalType": "uint256",
					"name": "_pid",
					"type": "uint256"
				},
				{
					"internalType": "address",
					"name": "_user",
					"type": "address"
				}
			],
			"name": "pendingReward",
			"outputs": [
				{
					"internalType": "uint256",
					"name": "",
					"type": "uint256"
				}
			],
			"stateMutability": "view",
			"type": "function"
		},
		{
			"inputs": [
				{
					"internalType": "contract IERC20",
					"name": "",
					"type": "address"
				}
			],
			"name": "poolExistence",
			"outputs": [
				{
					"internalType": "bool",
					"name": "",
					"type": "bool"
				}
			],
			"stateMutability": "view",
			"type": "function"
		},
		{
			"inputs": [
				{
					"internalType": "address",
					"name": "",
					"type": "address"
				}
			],
			"name": "poolId1",
			"outputs": [
				{
					"internalType": "uint256",
					"name": "",
					"type": "uint256"
				}
			],
			"stateMutability": "view",
			"type": "function"
		},
		{
			"inputs": [
				{
					"internalType": "uint256",
					"name": "",
					"type": "uint256"
				}
			],
			"name": "poolInfo",
			"outputs": [
				{
					"internalType": "contract IERC20",
					"name": "lpToken",
					"type": "address"
				},
				{
					"internalType": "uint256",
					"name": "allocPoint",
					"type": "uint256"
				},
				{
					"internalType": "uint256",
					"name": "lastRewardBlock",
					"type": "uint256"
				},
				{
					"internalType": "uint256",
					"name": "accGovTokenPerShare",
					"type": "uint256"
				}
			],
			"stateMutability": "view",
			"type": "function"
		},
		{
			"inputs": [],
			"name": "poolLength",
			"outputs": [
				{
					"internalType": "uint256",
					"name": "",
					"type": "uint256"
				}
			],
			"stateMutability": "view",
			"type": "function"
		},
		{
			"inputs": [
				{
					"internalType": "address",
					"name": "_newOwner",
					"type": "address"
				}
			],
			"name": "reclaimTokenOwnership",
			"outputs": [],
			"stateMutability": "nonpayable",
			"type": "function"
		},
		{
			"inputs": [
				{
					"internalType": "address",
					"name": "_toRemove",
					"type": "address"
				}
			],
			"name": "removeAuthorized",
			"outputs": [],
			"stateMutability": "nonpayable",
			"type": "function"
		},
		{
			"inputs": [],
			"name": "renounceOwnership",
			"outputs": [],
			"stateMutability": "nonpayable",
			"type": "function"
		},
		{
			"inputs": [
				{
					"internalType": "uint256",
					"name": "_pid",
					"type": "uint256"
				},
				{
					"internalType": "address",
					"name": "_user",
					"type": "address"
				},
				{
					"internalType": "uint256",
					"name": "_block",
					"type": "uint256"
				}
			],
			"name": "reviseDeposit",
			"outputs": [],
			"stateMutability": "nonpayable",
			"type": "function"
		},
		{
			"inputs": [
				{
					"internalType": "uint256",
					"name": "_pid",
					"type": "uint256"
				},
				{
					"internalType": "address",
					"name": "_user",
					"type": "address"
				},
				{
					"internalType": "uint256",
					"name": "_block",
					"type": "uint256"
				}
			],
			"name": "reviseWithdraw",
			"outputs": [],
			"stateMutability": "nonpayable",
			"type": "function"
		},
		{
			"inputs": [
				{
					"internalType": "uint256[]",
					"name": "_newMulReward",
					"type": "uint256[]"
				}
			],
			"name": "rewardMulUpdate",
			"outputs": [],
			"stateMutability": "nonpayable",
			"type": "function"
		},
		{
			"inputs": [
				{
					"internalType": "uint256",
					"name": "_newReward",
					"type": "uint256"
				}
			],
			"name": "rewardUpdate",
			"outputs": [],
			"stateMutability": "nonpayable",
			"type": "function"
		},
		{
			"inputs": [
				{
					"internalType": "uint256",
					"name": "_pid",
					"type": "uint256"
				},
				{
					"internalType": "uint256",
					"name": "_allocPoint",
					"type": "uint256"
				},
				{
					"internalType": "bool",
					"name": "_withUpdate",
					"type": "bool"
				}
			],
			"name": "set",
			"outputs": [],
			"stateMutability": "nonpayable",
			"type": "function"
		},
		{
			"inputs": [
				{
					"internalType": "uint256",
					"name": "_devDepFees",
					"type": "uint256"
				}
			],
			"name": "setDevDepFee",
			"outputs": [],
			"stateMutability": "nonpayable",
			"type": "function"
		},
		{
			"inputs": [
				{
					"internalType": "uint256[]",
					"name": "_devFees",
					"type": "uint256[]"
				}
			],
			"name": "setDevFeeStage",
			"outputs": [],
			"stateMutability": "nonpayable",
			"type": "function"
		},
		{
			"inputs": [
				{
					"internalType": "uint256[]",
					"name": "_blockEnds",
					"type": "uint256[]"
				}
			],
			"name": "setStageEnds",
			"outputs": [],
			"stateMutability": "nonpayable",
			"type": "function"
		},
		{
			"inputs": [
				{
					"internalType": "uint256[]",
					"name": "_blockStarts",
					"type": "uint256[]"
				}
			],
			"name": "setStageStarts",
			"outputs": [],
			"stateMutability": "nonpayable",
			"type": "function"
		},
		{
			"inputs": [
				{
					"internalType": "uint256",
					"name": "_usrDepFees",
					"type": "uint256"
				}
			],
			"name": "setUserDepFee",
			"outputs": [],
			"stateMutability": "nonpayable",
			"type": "function"
		},
		{
			"inputs": [
				{
					"internalType": "uint256[]",
					"name": "_userFees",
					"type": "uint256[]"
				}
			],
			"name": "setUserFeeStage",
			"outputs": [],
			"stateMutability": "nonpayable",
			"type": "function"
		},
		{
			"inputs": [
				{
					"internalType": "uint256",
					"name": "_newstarblock",
					"type": "uint256"
				}
			],
			"name": "starblockUpdate",
			"outputs": [],
			"stateMutability": "nonpayable",
			"type": "function"
		},
		{
			"inputs": [],
			"name": "totalAllocPoint",
			"outputs": [
				{
					"internalType": "uint256",
					"name": "",
					"type": "uint256"
				}
			],
			"stateMutability": "view",
			"type": "function"
		},
		{
			"inputs": [
				{
					"internalType": "address",
					"name": "newOwner",
					"type": "address"
				}
			],
			"name": "transferOwnership",
			"outputs": [],
			"stateMutability": "nonpayable",
			"type": "function"
		},
		{
			"inputs": [
				{
					"internalType": "uint256",
					"name": "_pid",
					"type": "uint256"
				}
			],
			"name": "updatePool",
			"outputs": [],
			"stateMutability": "nonpayable",
			"type": "function"
		},
		{
			"inputs": [],
			"name": "usdOracle",
			"outputs": [
				{
					"internalType": "address",
					"name": "",
					"type": "address"
				}
			],
			"stateMutability": "view",
			"type": "function"
		},
		{
			"inputs": [
				{
					"internalType": "uint256",
					"name": "_pid",
					"type": "uint256"
				}
			],
			"name": "userDelta",
			"outputs": [
				{
					"internalType": "uint256",
					"name": "",
					"type": "uint256"
				}
			],
			"stateMutability": "view",
			"type": "function"
		},
		{
			"inputs": [],
			"name": "userDepFee",
			"outputs": [
				{
					"internalType": "uint256",
					"name": "",
					"type": "uint256"
				}
			],
			"stateMutability": "view",
			"type": "function"
		},
		{
			"inputs": [
				{
					"internalType": "uint256",
					"name": "",
					"type": "uint256"
				}
			],
			"name": "userFeeStage",
			"outputs": [
				{
					"internalType": "uint256",
					"name": "",
					"type": "uint256"
				}
			],
			"stateMutability": "view",
			"type": "function"
		},
		{
			"inputs": [
				{
					"internalType": "address",
					"name": "",
					"type": "address"
				}
			],
			"name": "userGlobalInfo",
			"outputs": [
				{
					"internalType": "uint256",
					"name": "globalAmount",
					"type": "uint256"
				},
				{
					"internalType": "uint256",
					"name": "totalReferals",
					"type": "uint256"
				},
				{
					"internalType": "uint256",
					"name": "globalRefAmount",
					"type": "uint256"
				}
			],
			"stateMutability": "view",
			"type": "function"
		},
		{
			"inputs": [
				{
					"internalType": "uint256",
					"name": "",
					"type": "uint256"
				},
				{
					"internalType": "address",
					"name": "",
					"type": "address"
				}
			],
			"name": "userInfo",
			"outputs": [
				{
					"internalType": "uint256",
					"name": "amount",
					"type": "uint256"
				},
				{
					"internalType": "uint256",
					"name": "rewardDebt",
					"type": "uint256"
				},
				{
					"internalType": "uint256",
					"name": "rewardDebtAtBlock",
					"type": "uint256"
				},
				{
					"internalType": "uint256",
					"name": "lastWithdrawBlock",
					"type": "uint256"
				},
				{
					"internalType": "uint256",
					"name": "firstDepositBlock",
					"type": "uint256"
				},
				{
					"internalType": "uint256",
					"name": "blockdelta",
					"type": "uint256"
				},
				{
					"internalType": "uint256",
					"name": "lastDepositBlock",
					"type": "uint256"
				}
			],
			"stateMutability": "view",
			"type": "function"
		},
		{
			"inputs": [
				{
					"internalType": "uint256",
					"name": "_pid",
					"type": "uint256"
				},
				{
					"internalType": "uint256",
					"name": "_amount",
					"type": "uint256"
				},
				{
					"internalType": "address",
					"name": "_ref",
					"type": "address"
				}
			],
			"name": "withdraw",
			"outputs": [],
			"stateMutability": "nonpayable",
			"type": "function"
		}
	]
}